:100000000C94BE000C94E6000C94E6000C94E60000
:100010000C94E6000C94E6000C94E6000C94DB18BB
:100020000C94E6000C94E6000C94E6000C94841802
:100030000C94E6000C94E6000C942D180C94E60049
:100040000C9440070C94E6000C9435080C9483083B
:100050000C94E6000C94E6000C94E6000C94E60088
:100060000C94E6000C94E600536F7272792C2074A5
:10007000727920616761696E210054696D65207530
:10008000706C6F616465642100696E76616C69648F
:1000900020696E707574004D696E7574653F20300F
:1000A00020746F20353900696E76616C696420694F
:1000B0006E70757400486F75723F203020746F2029
:1000C000323300696E76616C696420696E70757494
:1000D000004461793F203120746F20333100696E14
:1000E00076616C696420696E707574004D6F6E7412
:1000F000683F203120746F20313200596561723FB2
:10010000203020746F203939004564697420746888
:100110006520636C6F636B00020100000000002427
:100120000027002A0000000000250028002B000006
:100130000000002300260029000404040404040431
:100140000402020202020203030303030301020486
:100150000810204080010204081020010204081049
:100160002000000007000201000003040600000058
:10017000000000000000EB00EF09F01011241FBE8A
:10018000CFEFD8E0DEBFCDBF12E0A0E0B1E0E6EBFC
:10019000F8E302C005900D92A234B107D9F713E03D
:1001A000A2E4B2E001C01D92A23EB107E1F711E066
:1001B000CCE7D1E004C02297FE010E94551CC6374F
:1001C000D107C9F70E94BD0B0C94E8000C94000005
:1001D000F8940C94591CCF92EF920F938DE492E017
:1001E0006CE04BE02AE009E0A8E0EA2EF7E0CF2E31
:1001F0000E94830D82E692E065EF71E041E052E0FB
:1002000025E032E004E0E3E0EE2E0E9436170F9185
:10021000EF90CF9008950F931F9308E813E0C80163
:1002200060917D010E949412C80160917E010E943C
:100230009412C80160917F010E949412C8016091DC
:1002400080010E949412C801609181010E94941261
:10025000C801609182010E949412C80160918301DB
:100260000E949412C801609184010E949412C801F6
:10027000609185010E949412C801609182010E94E0
:100280009412C801609188010E949412C801609183
:1002900089010E949412C80160918A010E949412FF
:1002A000C80160918B010E949412C801609187017E
:1002B0000E949412C80160918D010E949412C8019D
:1002C00060918E010E949412C80160918F010E947A
:1002D0009412C801609190010E9494121F910F9195
:1002E00008950F931F9308E813E0C80160917D0102
:1002F0000E94D910C80160917E010E94D910C801E6
:1003000060917F010E94D910C801609180010E9414
:10031000D910C801609181010E94D910C801609173
:1003200082010E94D910C801609183010E94D910F6
:10033000C801609184010E94D910C80160918501B3
:100340000E94D910C801609182010E94D910C80191
:10035000609188010E94D910C801609189010E94B2
:10036000D910C80160918A010E94D910C80160911A
:100370008B010E94D910C801609187010E94D91099
:10038000C80160918D010E94D910C80160918E0151
:100390000E94D910C80160918F010E94D910C80134
:1003A000609190010E94D9101F910F9108951F93A1
:1003B00082E692E00E942217182F8823C9F38DE469
:1003C00092E060E041E00E94960C1433C1F11533D5
:1003D00074F41133E1F0123324F4103309F069C0DE
:1003E00060C01233E1F0133309F063C020C017334B
:1003F000F1F1183334F4153351F1163309F059C0C3
:100400002EC01833E1F1193309F053C040C08DE418
:1004100092E060E071E00E94BA0B81E03FC08DE4A1
:1004200092E062E071E00E94BA0B82E037C08DE496
:1004300092E064E071E00E94BA0B83E02FC08DE48B
:1004400092E066E071E00E94BA0B84E027C08DE480
:1004500092E068E071E00E94BA0B85E01FC08DE475
:1004600092E06AE071E00E94BA0B86E017C08DE46A
:1004700092E06CE071E00E94BA0B87E00FC08DE45F
:1004800092E06EE071E00E94BA0B88E007C08DE454
:1004900092E060E171E00E94BA0B89E080934A0229
:1004A00008C08DE492E062E171E00E94BA0B109204
:1004B0004A0282E692E00E942217182F8823C9F38D
:1004C0008DE492E061E041E00E94960C143309F45F
:1004D00045C015338CF4113309F112333CF4133257
:1004E00009F475C0103309F075C068C01233F1F01B
:1004F000133309F06FC02AC0173309F447C018330B
:1005000034F4153399F1163309F064C037C0183349
:1005100009F444C0193309F05DC048C08DE492E08D
:1005200060E071E00E94BA0B81E007C08DE492E0C8
:1005300062E071E00E94BA0B82E080934B0268EEA9
:1005400073E080E090E00E94960744C08DE492E062
:1005500064E071E00E94BA0B83E0EFCF8DE492E09B
:1005600066E071E00E94BA0B84E0E7CF8DE492E090
:1005700068E071E00E94BA0B85E0DFCF8DE492E085
:100580006AE071E00E94BA0B86E0D7CF8DE492E07A
:100590006CE071E00E94BA0B87E0CFCF8DE492E06F
:1005A0006EE071E00E94BA0B88E0C7CF8DE492E064
:1005B00060E171E00E94BA0B89E0BFCF8DE492E068
:1005C00062E171E00E94BA0B10924B02B8CF84E650
:1005D00080934B0220914B0290914A02243619F4E9
:1005E0009093490207C08AE0989FC0011124280F08
:1005F00020934902809149021F910895EF92FF9242
:100600000F931F9310924C028DE492E00E94C50C50
:100610008DE492E060E040E00E94960C8DE492E070
:100620006BEF70E00E946F0A0E94D701809348022E
:100630008DE492E00E94C50C8DE492E060E040E021
:100640000E94960C8DE492E06CEE70E00E946F0ABE
:100650000E94D701809347028D30A8F08DE492E08C
:1006600060E041E00E94960C8DE492E06EED70E057
:100670000E946F0A68EE73E080E090E00E949607A7
:1006800081E080934C028DE492E00E94C50C8DE4E1
:1006900092E060E040E00E94960C8DE492E061ED13
:1006A00070E00E946F0A0E94D70180934602803258
:1006B000A8F08DE492E060E041E00E94960C8DE4A9
:1006C00092E063EC70E00E946F0A68EE73E080E0F5
:1006D00090E00E94960781E080934C028DE492E0C6
:1006E0000E94C50C8DE492E060E040E00E94960C10
:1006F0008DE492E065EB70E00E946F0A0E94D701E2
:10070000809344028831A8F08DE492E060E041E0FB
:100710000E94960C8DE492E067EA70E00E946F0AF6
:1007200068EE73E080E090E00E94960781E080939D
:100730004C028DE492E00E94C50C8DE492E060E0F2
:1007400040E00E94960C8DE492E067E970E00E9420
:100750006F0A0E94D701809345028C33A8F08DE484
:1007600092E060E041E00E94960C8DE492E069E83E
:1007700070E00E946F0A68EE73E080E090E00E94F3
:10078000960781E080934C0280914C02882309F007
:1007900054C08BE493E0609144024AE050E00E9430
:1007A000490B8BE493E0609145024AE050E00E94DF
:1007B000490B8BE493E0609146024AE050E00E94CE
:1007C000490B8BE493E0609147024AE050E00E94BD
:1007D000490B8BE493E0609148024AE050E00E94AC
:1007E000490B609145022091460200914702E0903A
:1007F00048028091440290E070E040E050E030E038
:1008000010E0FF240E94E80F0E9471010E940B017A
:1008100068EE73E080E090E00E9496078DE492E03D
:100820000E94C50C8DE492E060E040E00E94960CCE
:100830008DE492E06AE770E00EC08DE492E00E94E1
:10084000C50C8DE492E060E040E00E94960C8DE4DF
:1008500092E068E670E00E946F0A60ED77E080E069
:1008600090E00E9496078DE492E00E94C50C1F91D3
:100870000F91FF90EF90089582E692E00E94221778
:100880008823D1F08332C1F48DE492E060E041E04E
:100890000E94960C8DE492E069E071E00E946F0A7C
:1008A00060ED77E080E090E00E9496078DE492E0B2
:1008B0000E94C50C0E94FE020895CF93DF93EC01C5
:1008C0008DE492E064E171E00E94BA0BCA30D10578
:1008D0002CF48DE492E060E30E94920A8DE492E0B1
:1008E000BE014AE050E00E94A70BDF91CF9108952E
:1008F0000F931F930DE412E0C80160E040E00E94F6
:10090000960C0E948C10BC01C8014AE050E00E9485
:10091000A70B0E9484100E945D040E947C100E941C
:100920005D041F910F9108950E94780488E893E078
:1009300048EE53E060E070E00E9419140E943C040D
:1009400008954F925F926F927F928F929F92AF9293
:10095000BF92CF92DF92EF92FF920F931F93CF93AC
:10096000DF9301C0CF01FC0181918A33D9F7EF01F8
:100970008081843611F014E024C0329620E030E00B
:1009800013C0C901B3E0880F991FBA95E1F7220F90
:10099000331F820F931F242F332727FD30952053B9
:1009A0003040280F391F31964081842F80538A3080
:1009B00040F31216130614F014E001C0122FEF01D9
:1009C000219688818F3611F006E014C0FE01319621
:1009D000AF014F5F5F4F8181992787FD90959C0103
:1009E00020533040C397059710F006E001C0022F56
:1009F000EA0122968881823619F08FE390E020C0C8
:100A0000CE01029620E030E013C0C90173E0880FE8
:100A1000991F7A95E1F7220F331F820F931F242F1E
:100A2000332727FD309520533040280F391FCF0141
:100A3000FC014191842F80538A3038F3EF01C901C2
:100A40009C01442737FD4095542F60E67AEE80E004
:100A500090E00E94381C49015A0152E0880C991C10
:100A6000AA1CBB1C5A95D1F7412E55246624772425
:100A70009FC0CB0143E0880F991F4A95E1F7660FAD
:100A8000771F860F971F612F772767FD709560533B
:100A90007040680F791F21961881812F80538A300A
:100AA00040F36115710541F09B01442737FD4095E6
:100AB000542FC501B40104C0C501B401A3019201C2
:100AC0000E94381CC901DA016C017D01143681F0E5
:100AD00015363CF41236C1F0133664F41136B1F415
:100AE00011C0163659F016363CF0173679F408C0A6
:100AF00013E00DC011E00BC015E009C016E007C0FF
:100B000018E005C01AE003C01CE001C010E0219607
:100B10008881833211F41F5F219688818E3279F4A7
:100B2000C701B60122E030E040E050E00E94381CEE
:100B3000C901DA01C80ED91EEA1EFB1E2196988152
:100B400090539A3010F0902F01C0219688818C32FA
:100B500009F42196112331F1892F90E0FC01EE0F69
:100B6000FF1FE80FF91FEE0FFF1FEE0FFF1FE10F32
:100B7000F11DEE0FFF1FEF5CFE4F6081718182E47B
:100B800092E020E030E040E050E00E94461988E822
:100B900093E0B701A6010E94191482E492E00E943A
:100BA000281906C088E893E0B701A6010E9419142D
:100BB0008881882319F060E070E06ECFDF91CF91DB
:100BC0001F910F91FF90EF90DF90CF90BF90AF906B
:100BD0009F908F907F906F905F904F90089580913D
:100BE000F3019091F4010E94A10408958091F30112
:100BF0009091F4010E94A10408958091F3019091D5
:100C0000F4010E94A10408958091F3019091F401F0
:100C10000E94A1040895AF92BF92CF92DF92EF920B
:100C2000FF920F931F9348E8C42E43E0D42E34E084
:100C3000A32E36E0B32EC60162E070E048E050E03B
:100C400020E030E00AE010E075010E94A8138093D4
:100C50007D01C60163E070E048E050E020E030E054
:100C60000E94A81380937E01C60164E070E048E012
:100C700050E020E030E00E94A81380937F01C6017D
:100C800065E070E048E050E020E030E00E94A8130A
:100C900080938001C60166E070E048E050E020E00B
:100CA00030E00E94A813809381012DEFA22E25E051
:100CB000B22EC60162E070E04AE050E028E230E087
:100CC00075010E94A81380938201C60163E070E061
:100CD0004AE050E028E230E00E94A81380938301AC
:100CE000C60164E070E04AE050E028E230E00E9493
:100CF000A81380938401C60165E070E04AE050E0EB
:100D000028E230E00E94A81380938501C60166E0C6
:100D100070E04AE050E028E230E00E94A81380939F
:100D2000860196EFA92E95E0B92EC60162E070E02B
:100D30004BE050E024E130E075010E94A81380935D
:100D40008701C60163E070E04BE050E024E130E051
:100D50000E94A81380938801C60164E070E04BE014
:100D600050E024E130E00E94A81380938901C6017D
:100D700065E070E04BE050E024E130E00E94A81311
:100D800080938A01C60166E070E04BE050E024E108
:100D900030E00E94A81380938B018FEEA82E85E08F
:100DA000B82EC60162E070E04EE050E02EE130E087
:100DB00075010E94A81380938C01C60163E070E066
:100DC0004EE050E02EE130E00E94A81380938D01A8
:100DD000C60164E070E04EE050E02EE130E00E9499
:100DE000A81380938E01C60165E070E04EE050E0EC
:100DF0002EE130E00E94A81380938F01C60166E0C7
:100E000070E04EE050E02EE130E00E94A8138093A5
:100E100090011F910F91FF90EF90DF90CF90BF90C6
:100E2000AF900895EF92FF920F931F938BE493E09E
:100E300040E855E260E070E00E94BE0882E492E083
:100E40006DE00E94A0178DE492E060E142E020E0B6
:100E50000E94CD0C8AE090E068E270E045E050E04E
:100E600023E030E001E010E0EBE0EE2EF12C0E94F8
:100E7000E80F0E940B061F910F91FF90EF900895CD
:100E80001F920F920FB60F9211242F933F938F93BF
:100E90009F93AF93BF938091BE029091BF02A091A8
:100EA000C002B091C1023091C2020196A11DB11DD4
:100EB000232F2D5F2D3720F02D570196A11DB11D39
:100EC0002093C2028093BE029093BF02A093C002FF
:100ED000B093C1028091BA029091BB02A091BC0272
:100EE000B091BD020196A11DB11D8093BA029093ED
:100EF000BB02A093BC02B093BD02BF91AF919F9182
:100F00008F913F912F910F900FBE0F901F901895CA
:100F10008FB7F8942091BE023091BF024091C00279
:100F20005091C1028FBFB901CA0108959B01AC0164
:100F30007FB7F8948091BA029091BB02A091BC0255
:100F4000B091BD0266B5A89B05C06F3F19F0019630
:100F5000A11DB11D7FBFBA2FA92F982F8827860FFB
:100F6000911DA11DB11D62E0880F991FAA1FBB1F13
:100F70006A95D1F7BC012DC0FFB7F8948091BA02F1
:100F80009091BB02A091BC02B091BD02E6B5A89BB6
:100F900005C0EF3F19F00196A11DB11DFFBFBA2F8B
:100FA000A92F982F88278E0F911DA11DB11DE2E05A
:100FB000880F991FAA1FBB1FEA95D1F7861B970BB5
:100FC000885E9340C8F22150304040405040685104
:100FD0007C4F211531054105510571F608950197A2
:100FE00039F0880F991F880F991F02970197F1F721
:100FF0000895789484B5826084BD84B5816084BD91
:1010000085B5826085BD85B5816085BDEEE6F0E081
:10101000808181608083E1E8F0E0108280818260DD
:101020008083808181608083E0E8F0E0808181605E
:101030008083E1EBF0E0808184608083E0EBF0E08E
:10104000808181608083EAE7F0E080818460808332
:1010500080818260808380818160808380818068DC
:1010600080831092C100089508951F920F920FB6C9
:101070000F9211242F933F934F938F939F93EF934E
:10108000FF938091C00082FD1DC04091C600209159
:101090000303309104032F5F3F4F2F733070809113
:1010A0000503909106032817390771F0E0910303B7
:1010B000F0910403ED53FD4F4083309304032093DC
:1010C000030302C08091C600FF91EF919F918F9121
:1010D0004F913F912F910F900FBE0F901F90189539
:1010E000E0915703F0915803E05CFF4F819191919B
:1010F00020813181821B930B8F739070892B11F0AB
:101100000E94340808951F920F920FB60F92112477
:101110002F933F938F939F93EF93FF9320914703D8
:10112000309148038091490390914A032817390769
:1011300031F48091C1008F7D8093C10014C0E09193
:101140004903F0914A03E95FFC4F208180914903F4
:1011500090914A0301968F73907090934A03809305
:1011600049032093C600FF91EF919F918F913F918A
:101170002F910F900FBE0F901F901895AF92BF92B6
:10118000DF92EF92FF920F931F93CF93DF93EC01C7
:101190007A018B01DD24403081EE580780E068073A
:1011A00080E0780711F0DD24D39491E0A92EB12CD2
:1011B000EC89FD89DD2069F0C50108A002C0880F17
:1011C000991F0A94E2F7808360E079E08DE390E074
:1011D00005C0108260E874E88EE190E0A8019701F4
:1011E0000E94161C21503040404050405695479573
:1011F0003795279580E12030380720F0DD2011F069
:10120000DD24D6CFE889F9893083EA89FB892083F8
:1012100019A2EE89FF89408121E030E0C9010C8CE0
:1012200002C0880F991F0A94E2F7482B4083EE8989
:10123000FF894081C9010D8C02C0880F991F0A9453
:10124000E2F7482B4083EE89FF894081C9010E8C6B
:1012500002C0880F991F0A94E2F7482B4083EE8959
:10126000FF8980810F8C02C0220F331F0A94E2F79E
:10127000209528232083DF91CF911F910F91FF901C
:10128000EF90DF90BF90AF900895DC011C96ED9138
:10129000FC911D97E05CFF4F2191319180819181FC
:1012A000281B390B2F733070C9010895DC011C967F
:1012B000ED91FC911D97E05CFF4F20813181E0545E
:1012C000F040DF01AE5BBF4F8D919C9111972817C5
:1012D000390719F42FEF3FEF07C08D919C91E80F6C
:1012E000F91F8081282F30E0C9010895DC011C9688
:1012F000ED91FC911D97E05CFF4F20813181E0541E
:10130000F040DF01AE5BBF4F8D919C911197281784
:10131000390719F42FEF3FEF10C08D919C91119771
:10132000E80FF91F20818D919C91119701968F7381
:10133000907011969C938E9330E0C9010895DC0162
:1013400091968C919197882339F05496ED91FC9168
:101350005597808186FFF9CF91961C920895CF937F
:10136000DF93EC01EE85FF85E05CFF4F208131814A
:10137000E054F0402F5F3F4F2F733070DF01AE5BC2
:10138000BF4F8D919C91119728173907D1F3E05CDD
:10139000FF4F80819181E054F040E80FF91F608396
:1013A000EE85FF85E05CFF4F31832083EE89FF8966
:1013B000208181E090E00F8C02C0880F991F0A9471
:1013C000E2F7282B208381E089A3EC89FD898081C5
:1013D0008064808381E090E0DF91CF910895109246
:1013E0004E0310924D0388EE93E0A0E0B0E08093AE
:1013F0004F0390935003A0935103B093520380E1A5
:1014000092E090934C0380934B0383EC92E0909393
:1014100058038093570387E093E090935A03809397
:10142000590385EC90E090935C0380935B0384EC1C
:1014300090E090935E0380935D0380EC90E0909346
:10144000600380935F0381EC90E09093620380934C
:10145000610382EC90E0909364038093630386ECD5
:1014600090E0909366038093650384E08093670324
:1014700083E08093680387E08093690385E080932D
:101480006A0381E080936B030895CF92DF92EF921D
:10149000FF920F931F93CF93DF937C016B018A011F
:1014A000C0E0D0E00FC0D6016D916D01D701ED9184
:1014B000FC910190F081E02DC7010995C80FD91F5B
:1014C000015010400115110571F7CE01DF91CF9148
:1014D0001F910F91FF90EF90DF90CF900895EF92C2
:1014E000FF920F931F93CF93DF937C018B01C0E09A
:1014F000D0E0F8010F5F1F4F6491662359F0D701C8
:10150000ED91FC910190F081E02DC7010995C80F84
:10151000D91FEFCFCE01DF91CF911F910F91FF9097
:10152000EF900895DC01ED91FC910190F081E02DA8
:1015300009950895EF92FF920F931F938C01DC01A0
:10154000ED91FC910190F081E02D6DE009957C0119
:10155000D801ED91FC910190F081E02DC8016AE085
:1015600009959C012E0D3F1DC9011F910F91FF9000
:10157000EF900895CF93DF93EC016115710519F495
:1015800020E030E00FC0DB010D900020E9F711975B
:10159000A61BB70BE881F9810280F381E02DAD0134
:1015A00009959C01C901DF91CF9108954F925F92F7
:1015B0007F928F929F92AF92BF92CF92DF92EF92E3
:1015C000FF920F931F93DF93CF93CDB7DEB7A19711
:1015D0000FB6F894DEBF0FBECDBF2C01742ECB0129
:1015E000223008F42AE019A231E2C32ED12CCC0E0D
:1015F000DD1E822E9924AA24BB24672D752FA501F8
:1016000094010E94161C79018A01C801B701A50145
:1016100094010E94D01B472D461B0894C108D10895
:101620004A3014F4405D01C0495CF6014083E11486
:10163000F1040105110521F07E2C5F2DC801DDCFDD
:10164000C201B6010E94BA0AA1960FB6F894DEBF95
:101650000FBECDBFCF91DF911F910F91FF90EF9003
:10166000DF90CF90BF90AF909F908F907F905F90D2
:101670004F900895DC012115310541F4ED91FC9165
:101680000190F081E02D642F099508950E94D60AFB
:101690000895CF92DF92EF92FF920F931F936C0108
:1016A000E62E9A01FF2400E010E0B801A7010E9495
:1016B0003A0B8C01C6010E949A0A080F191FC80133
:1016C0001F910F91FF90EF90DF90CF900895CF92F0
:1016D000DF92EF92FF920F931F93CF93DF93EC0172
:1016E0006A017B012115310541F4E881F9810190FE
:1016F000F081E02D642F09951FC02A303105D1F407
:1017000077FF17C0E881F9810190F081E02D6DE24B
:1017100009958C0144275527BA014C195D096E09BA
:101720007F09CE012AE00E94D60A9801280F391FAE
:1017300004C02AE00E94D60A9C01C901DF91CF9122
:101740001F910F91FF90EF90DF90CF900895EF924F
:10175000FF920F931F937B019A010027F7FC0095DE
:10176000102FB801A7010E94670B1F910F91FF90E6
:10177000EF9008950E94BA0A0895CF93DF930E94D4
:10178000F9070E941207C0E7D8E00E94940420974E
:10179000E1F30E947008F9CF0F931F938C01FC01B5
:1017A000868160E00E94291B81E090E00E94EF07A3
:1017B000F801868161E00E94291B81E090E00E948F
:1017C000EF07F801868160E00E94291B84E690E023
:1017D0000E94EF071F910F910895CF92DF92EF9231
:1017E000FF920F931F93CF93DF93D82EC92E282FEC
:1017F000392FC9018C01C0E0D0E0E62EFF24F801AA
:10180000878161E00E94EA1AB7010C2E02C075952B
:1018100067950A94E2F76170F80187810E94291B9D
:1018200021960F5F1F4FC830D10549F78D2D9C2D94
:101830000E94CC0BDF91CF911F910F91FF90EF9001
:10184000DF90CF900895CF92DF92EF92FF920F93A7
:101850001F93CF93DF93D82EC92E282F392FC9017C
:101860008C01C0E0D0E0E62EFF24F801878161E022
:101870000E94EA1AB7010C2E02C0759567950A946A
:10188000E2F76170F80187810E94291B21960F5FA2
:101890001F4FC430D10549F78D2D9C2D0E94CC0BD4
:1018A000DF91CF911F910F91FF90EF90DF90CF903C
:1018B00008951F93CF93DF93EC01162F8C81642F33
:1018C0000E94291B8D818F3F19F060E00E94291B27
:1018D0008F8584FF05C0CE01612F0E94ED0B0EC0E5
:1018E000612F70E084E0759567958A95E1F7CE01E8
:1018F0000E94230CCE01612F0E94230CDF91CF9117
:101900001F91089541E00E94590C81E090E00895F4
:1019100040E00E94590C0895FC016089862F846084
:10192000808B6C60CF010E94880C0895DF93CF9369
:10193000CDB7DEB728970FB6F894DEBF0FBECDBF88
:101940009C01FE013196A4E2B2E088E00D90019284
:101950008150E1F7F9018389481710F0482F415071
:10196000E42FF0E0EE0FFF1FEC0FFD1F8181680FE9
:101970006068C9010E94880C28960FB6F894DEBFF3
:101980000FBECDBFCF91DF91089561E00E94880C1A
:1019900080ED97E00E94EF070895CF93DF93EC016D
:1019A000423018F08F8588608F874B8B1C8A2223EA
:1019B00029F0413019F48F8584608F8780E593EC9E
:1019C0000E94EF078C8160E00E94291B8E8160E0FD
:1019D0000E94291B8D818F3F19F060E00E94291B16
:1019E0006F8564FD1DC0CE0163E00E94230C84E975
:1019F00091E10E94EF07CE0163E00E94230C84E98D
:101A000091E10E94EF07CE0163E00E94230C86E97A
:101A100090E00E94EF07CE0162E00E94230C16C006
:101A20006062CE010E94880C84E991E10E94EF0778
:101A30006F856062CE010E94880C86E990E00E946A
:101A4000EF076F856062CE010E94880C6F8560622F
:101A5000CE010E94880C84E0888BCE010E948C0C01
:101A6000CE010E94C50C82E0898BCE0166E00E9407
:101A7000880CDF91CF9108956F927F928F92AF92F1
:101A8000CF92EF920F931F93DF93CF93CDB7DEB733
:101A90003C01162F842FF301448325830683E782BC
:101AA000C086A18682869D8593879E8594879F8523
:101AB00095879889968761E00E94EA1AF3018581EB
:101AC0008F3F19F061E00E94EA1AF301868161E01C
:101AD0000E94EA1A112319F0F301178603C080E16E
:101AE000F3018787C30160E141E020E00E94CD0C53
:101AF000CF91DF911F910F91EF90CF90AF908F908A
:101B00007F906F9008958F92AF92CF92EF920F9344
:101B10001F93CF93DF93DC01362F542F722F102F9A
:101B2000AE2C8C2C13961C921E92129780E292E09F
:101B300011969C938E9300D000D0EDB7FEB73196EE
:101B4000CDB7DEB71982118212821382CD0161E016
:101B5000432F2FEF052FE72EC12E0E943C0D0F9033
:101B60000F900F900F90DF91CF911F910F91EF90F9
:101B7000CF90AF908F9008958F929F92AF92BF9227
:101B8000CF92DF92EF92FF920F931F93CF93DF9349
:101B90007B018C01EA012CE330E040E050E00E9440
:101BA000161C6883C801B7012CE330E040E050E028
:101BB0000E94161C122F032FF42EE52E622F732F76
:101BC000842F952F2CE330E040E050E00E94161C5B
:101BD0006983612F702F8F2D9E2D2CE330E040E024
:101BE00050E00E94161C122F032FF42EE52E622FB8
:101BF000732F842F952F28E130E040E050E00E94C1
:101C0000161C6A83612F702F8F2D9E2D28E130E0E6
:101C100040E050E00E94161C79018A01C801B7011A
:101C20006C5F7F4F8F4F9F4F27E030E040E050E0E8
:101C30000E94161C6F5F6B8320E0AA24BB24650101
:101C400001C02F5F822E9924F401EE54F84FCF018A
:101C500083709070892B99F4CF0164E670E00E9444
:101C6000031C892B39F4CF0160E971E00E94031C49
:101C7000892B29F48EE691E0A0E0B0E004C08DE667
:101C800091E0A0E0B0E0A80EB91ECA1EDB1EC5019F
:101C9000A0E0B0E0E816F9060A071B0790F62E83CD
:101CA000F401EE54F84F83E0882E912C8E229F226F
:101CB0008114910499F4CF0164E670E00E94031C42
:101CC000892B39F4CF0160E971E00E94031C892B54
:101CD00029F48EE691E0A0E0B0E004C08DE691E04A
:101CE000A0E0B0E0A81AB90ACA0ADB0A9801870185
:101CF0000A191B092C093D09CF0164E670E00E9416
:101D0000031C7C01CF0160E971E00E94031CAC015F
:101D1000ECE2F2E060E0613051F48114910449F4A6
:101D2000E114F10441F44115510529F002C080810C
:101D300003C08CE101C08DE190E0A0E0B0E00817A5
:101D400019072A073B0740F0081B190B2A0B3B0B0E
:101D50006F5F31966C30F9F66F5F6D83802F8F5F08
:101D60008C83DF91CF911F910F91FF90EF90DF90C7
:101D7000CF90BF90AF909F908F900895EF92FF9279
:101D80000F931F937B018C018091840390918503B5
:101D9000A0918603B0918703E816F9060A071B078E
:101DA00071F0C801B70149E753E00E94BC0DE09211
:101DB0008403F092850300938603109387031F9199
:101DC0000F91FF90EF9008954F925F926F927F92E4
:101DD0008F929F92AF92BF92CF92DF92EF92FF923B
:101DE0000F931F93CF93DF934C01DC0116961C9148
:101DF000612F70E080E090E020E833E341EE51E0B5
:101E00000E94D01B5B016C0122EB37E0E12FF0E078
:101E1000EE54F84F1DC0C90183709070892BB1F446
:101E2000C90164E670E00E94031C892B39F4C901E2
:101E300060E971E00E94031C892B41F480E891E580
:101E4000A1E0B0E0A80EB91ECA1EDB1E2F5F3F4FF7
:101E50002E173F0701F7D40115968C91482E552473
:101E6000C90164E670E00E94031C7C01C90160E9BD
:101E700071E00E94031C8C01C1E0D0E093E0692E68
:101E8000712C6222732227C0C230D10591F46114F3
:101E9000710479F4E114F10419F40115110549F400
:101EA00080E89BE3A6E2B0E0A80EB91ECA1EDB1EC6
:101EB00011C0FE01E55DFD4F608170E080E090E0C3
:101EC00020E831E541E050E00E94D01BA60EB71E8D
:101ED000C81ED91E2196C415D505B4F2D401129698
:101EE0006C9170E080E090E020E13EE040E050E066
:101EF0000E94D01B7B018C01F401618170E080E0C5
:101F000090E02CE330E040E050E00E94D01BE60E71
:101F1000F71E081F191FD4018C91E80EF11C011D3A
:101F2000111D14966C9170E061507040882777FD08
:101F30008095982F20E831E541E050E00E94D01BC9
:101F4000E60EF71E081F191FEA0CFB1C0C1D1D1DB9
:101F5000B701C801DF91CF911F910F91FF90EF90D2
:101F6000DF90CF90BF90AF909F908F907F906F90B9
:101F70005F904F90089560936F0370937003809308
:101F800071039093720320910802309109024091ED
:101F90000A0250910B02260F371F481F591F20932A
:101FA000730330937403409375035093760382E078
:101FB00090E090937803809377030E948807609362
:101FC0008003709381038093820390938303089529
:101FD000EF92FF920F93F701E436F1051CF0E25BFC
:101FE000F74001C07E96E0937F0300937E03209329
:101FF0007D0380937B0360937A034093790389E7A1
:1020000093E00E94E40E0E94BB0F0F91FF90EF90AF
:102010000895EF92FF920F931F931CC02F5F3F4FC5
:102020004F4F5F4F20936F033093700340937103C2
:102030005093720388EE93E0A0E0B0E0E80EF91E42
:102040000A1F1B1FE0928003F0928103009382031A
:10205000109383030E948807E0908003F09081032F
:1020600000918203109183036E197F09800B910BFD
:1020700020916F033091700340917103509172036E
:10208000685E73408040904048F680917303909161
:102090007403A0917503B0917603281739074A0796
:1020A0005B07E8F0E0916D03F0916E033097B9F0B3
:1020B0000995611571058105910519F00E94BB0F05
:1020C0000EC020E030E08091770390917803892B57
:1020D00011F021E030E03093780320937703609192
:1020E0006F037091700380917103909172031F913F
:1020F0000F91FF90EF9008950E9409100E94BE0E6C
:102100008091790390E008950E9409100E94BE0E0C
:1021100080917A0390E008950E9409100E94BE0EFB
:1021200080917B0390E00895CF93DF93DC01FC0165
:1021300020E030E08285807C8287168217821086BC
:102140001186128213821482158211821082255FF9
:102150003F4F3B962234310569F7AE5BBF4F1C926F
:10216000A254B040ED0120E030E04BE050E0249F6D
:10217000F001259FF00D349FF00D1124EA0FFB1F95
:102180009285892F8F7061F0907E928719821882D4
:102190001A821B821C821D821E821F82188619864B
:1021A0002F5F3F4F2B962630310509F7DF91CF91F6
:1021B0000895AC01663098F4862F90E02BE030E073
:1021C000829FF001839FF00D929FF00D1124E40F88
:1021D000F51F9285892F8F7011F09F7E9287089549
:1021E00088E893E00E94941008952F923F924F92B6
:1021F0005F926F927F928F929F92AF92BF92CF9297
:10220000DF92EF92FF920F931F93DF93CF9300D053
:1022100000D000D0CDB7DEB79E838D83FC018281D4
:102220009381A481B5810097A105B10509F45BC133
:10223000828584FF58C10E94091069837A838B8349
:102240009C83AD81BE811A963C911A97232F2F70E3
:10225000822F825F8F70833008F028C116968D918F
:102260009D910D90BC91A02D49815A816B817C81FB
:10227000481759076A077B0708F418C1223059F438
:10228000ED81FE8182819381A481B58186839783CC
:10229000A087B1870BC1233009F061C0AD81BE8139
:1022A0001296ED90FD900D911C9115970E940910CA
:1022B00020E831E541E050E00E94161CCA01B90156
:1022C00020E831E541E050E00E94D01BE60EF71E09
:1022D000081F191FED81FE81A280B380C480D580C4
:1022E00029813A814B815C812E153F0540075107BA
:1022F000C8F0CA01B90120E831E541E050E00E9490
:10230000161C2F5F3F4F4F4F5F4FCA01B90120E8A6
:1023100031E541E050E00E94D01BA60EB71EC81E5A
:10232000D91EACC069817A818B819C8120E831E51E
:1023300041E050E00E94161CCA01B90120E831E5D5
:1023400041E050E00E94D01BA60EB71EC81ED91E49
:10235000ED81FE81A682B782C086D186A7C02430D7
:1023600009F0A0C0AD81BE8112966D907D908D90D8
:102370009C9015970E9409107B018C010E94091006
:102380005B016C010E9409101B012C01E60CF71C7B
:10239000081D191DC601B50120E831E541E050E0F6
:1023A0000E94161CE61AF70A080B190BC201B101AC
:1023B00020E831E541E050E00E94161C2C5F3F4FC1
:1023C0004F4F5F4FCA01B90127E030E040E050E0D5
:1023D0000E94161C20E831E541E050E00E94D01B2D
:1023E000E61AF70A080B190BED81FE81A280B38073
:1023F000C480D58029813A814B815C812E153F05AF
:102400004007510708F443C040E85AE369E070E030
:10241000A40EB51EC61ED71E69817A818B819C8150
:10242000A60EB71EC81ED91E20E831E541E050E0D7
:102430000E94161CA61AB70AC80AD90A69817A81AD
:102440008B819C8120E831E541E050E00E94161C20
:102450002C5F3F4F4F4F5F4FCA01B90127E030E07B
:1024600040E050E00E94161C20E831E541E050E0D9
:102470000E94D01BA61AB70AC80AD90AAD81BE812C
:102480001696AD92BD92CD92DC9219970FC029811C
:102490003A814B815C81A20EB31EC41ED51ECA01B7
:1024A000B901C2CF3F7EED81FE813287AD81BE8111
:1024B0001A968C911A978F708130E9F412968D914B
:1024C0009D910D90BC91A02D29813A814B815C8119
:1024D000820F931FA41FB51FED81FE818683978312
:1024E000A087B18708C0AD81BE811A968C911A97DA
:1024F0008F7E1A968C9326960FB6F894DEBF0FBE89
:10250000CDBFCF91DF911F910F91FF90EF90DF90A2
:10251000CF90BF90AF909F908F907F906F905F9083
:102520004F903F902F900895AC01663098F570E081
:102530008BE090E0689FF001699FF00D789FF00DAF
:102540001124E40FF51F82858F7021F18281938120
:10255000A481B5810097A105B10511F420E006C062
:1025600020E080819181892B09F021E08BE090E0CF
:10257000689FF001699FF00D789FF00D1124E40F22
:10258000F51F2295207F82858F7E822B8287CF0147
:102590000E94F5100895CF92DF92EF92FF920F9371
:1025A0001F93CF93DF93EC01FC01EE5BFF4F808123
:1025B000882309F05BC081E08083FE01ED5BFF4F63
:1025C00010828F019BE0C92ED12C48C090E08C9DD9
:1025D000F0018D9DF00D9C9DF00D1124EC0FFD1F61
:1025E000828584FF37C00E940910F801A0812A2F3C
:1025F00030E02C9DF0012D9DF00D3C9DF00D11243F
:10260000EC0FFD1F268137814085518562177307C6
:1026100084079507F8F0E080F180928595FF12C05D
:10262000A63098F4892F8F7081F0907E9287118266
:1026300010821282138214821582168217821086EB
:10264000118603C0CF010E94F510E114F10411F0CE
:10265000F7010995F80180818F5F8083F8018081FF
:10266000863008F4B3CFCE5BDF4F1882DF91CF9175
:102670001F910F91FF90EF90DF90CF9008954F92B0
:102680005F926F927F928F929F92AF92BF92CF9202
:10269000EF92FF920F931F93CF93DF932C014A0188
:1026A0005B013901E701C7010297039738F40E94E3
:1026B00009106050724E8F4D9140C0F160E070E0A3
:1026C0002BE030E0162F629FF001639FF00D729FA8
:1026D000F00D1124E40DF51DDF011A9682858F702F
:1026E00001F57182608201700295000F007E8C916D
:1026F000807D9E012F70802B822B8C93828293820F
:10270000A482B582CC2021F0C2010E9494120FC095
:10271000663068F49C91892F8F7049F09F7E9C935E
:1027200006C06F5F7F4F6630710561F61FEF812F26
:10273000DF91CF911F910F91FF90EF90CF90BF90BD
:10274000AF909F908F907F906F905F904F90089583
:102750002F923F924F925F926F927F928F929F92B1
:10276000AF92BF92CF92DF92EF92FF920F931F939F
:10277000DF93CF9300D0CDB7DEB79A8389832A0148
:102780003901180161507040882777FD8095982F96
:1027900020E831E541E050E00E94D01B5B016C0174
:1027A000882477FC8094982CC401B3012CE330E09A
:1027B00040E050E00E94D01BA60EB71EC81ED91ED6
:1027C000B201882777FD8095982F20E13EE040E018
:1027D00050E00E94D01BA60EB71EC81ED91E44246E
:1027E00037FC4094542C2A0C3B1C4C1C5D1C8981EA
:1027F0009A81B201A101970100E014E0E12EF12CD1
:10280000CC24C3940E943F130F900F90CF91DF917F
:102810001F910F91FF90EF90DF90CF90BF90AF90FE
:102820009F908F907F906F905F904F903F902F90F0
:102830000895AF92BF92CF92DF92EF92FF920F93E3
:102840001F93CF93DF93EC015A016B010E9488071D
:102850007B018C0103C0CE010E94CB120E9488072D
:102860006E197F09800B910BA616B706C806D9060C
:1028700090F7DF91CF911F910F91FF90EF90DF9034
:10288000CF90BF90AF900895DC01E62FF0E0EE0FFF
:10289000FF1FEE0FFF1FEA0FFB1F548F438F81E0D6
:1028A000858FAA5ABF4FED91FC911197A655B04064
:1028B000309719F05A968C9109950895AF92BF926E
:1028C000CF92DF92EF92FF920F93DF93CF9300D0DE
:1028D000CDB7DEB75C0100E021E5C22ED12CC80ED9
:1028E000D91E9EE4E92EF12CEA0CFB1C29C0802F96
:1028F00090E09A838983D5012D913C91D701ED9188
:10290000FC91E80FF91FD9012D913C91C50160811F
:1029100040E0F9010995F50120813181D701ED9160
:10292000FC9189819A81E80FF91FD90112962D91A6
:102930003C911397C501608141E0F90109950F5F52
:10294000F6018081081798F20F900F90CF91DF91D8
:102950000F91FF90EF90DF90CF90BF90AF900895D0
:102960000F931F93CF93DF93EC01162F042FE62FC5
:10297000F0E0EE0FFF1FEE0FFF1FE80FF91F158E9F
:10298000838D948D81309105E1F0823091051CF4A6
:10299000892B39F03FC08230910581F10397D1F541
:1029A00034C04130B9F5CE0141E050E00E944414FA
:1029B0000E948807CE5BDF4F688379838A839B837D
:1029C00029C00E948807CE5BDF4F288139814A8168
:1029D0005B81621B730B840B950B62962881398196
:1029E000C455D04040E050E0261737074807590744
:1029F00028F4CE01612F42E050E00AC0002351F4D8
:102A0000CE01612F43E050E003C0CE0140E050E032
:102A10000E944414DF91CF911F910F9108954F921E
:102A20005F926F927F928F929F92AF92BF92CF925E
:102A3000DF92EF92FF920F931F93CF93DF93EC01FE
:102A40002C01FC0120E0838D948D892B11F4128ED2
:102A5000158E2F5F34962A30B1F7EE24A0E56A2E4A
:102A6000712C6C0E7D1EF1E58F2E912C8C0E9D1E0F
:102A7000EAE4AE2EB12CAC0EBD1E50C02F2D30E0BE
:102A8000D8018D919C910F2C02C0969587950A9440
:102A9000E2F7482F4170852F90E0FC01CE9EC001E7
:102AA000CF9E900DDE9E900D1124D501ED91FC91ED
:102AB000E20FF31FE80FF91F5081F20160E070E0B0
:102AC000828D851711F4CE0119C06F5F7F4F349648
:102AD0006A307105A9F731C0F20160E070E0828DC3
:102AE000882379F4FB01EE0FFF1FEE0FFF1FEC0FA1
:102AF000FD1F528F148E138ECE0141E00E94B01440
:102B000006C06F5F7F4F34966A30710541F7F394CA
:102B1000F4015081F51608F4B1CFE394D3018C9100
:102B2000E81670F4FF24CE2CDD2486010D5F1F4FC4
:102B3000000F111F0C0F1D1FEBCF442369F6E7CFC9
:102B4000DF91CF911F910F91FF90EF90DF90CF9089
:102B5000BF90AF909F908F907F906F905F904F90BD
:102B600008953F924F925F926F927F928F929F92C1
:102B7000AF92BF92CF92DF92EF92FF920F931F938B
:102B8000DF93CF93CDB7DEB728970FB6F894DEBFAB
:102B90000FBECDBF98878F830E9488072F8138850D
:102BA0002A5B3F4FD9012D913D914D915C91139737
:102BB000621B730B840B950B1C962D913C91119706
:102BC000A255B040B887AF8340E050E026173707E2
:102BD0004807590710F033241AC1FF2430E5A32E0B
:102BE000B12CEF81F885AE0EBF1E2CE4C22ED12C85
:102BF000CE0EDF1E29C00F2D10E0AF81B8858D915C
:102C00009C91D601ED91FC91E00FF11FDC012D911B
:102C10003C918F819885608142E0F9010995EF81AF
:102C2000F88580819181D601ED91FC91E00FF11F33
:102C3000DC0112962D913C9113978F8198856081CC
:102C400041E0F9010995F394F5018081F81698F2B5
:102C50003324EE242F8138852F5A3F4F3A8329831E
:102C60009EE4A92EB12C4F815885A40EB51E405B61
:102C70005F4F5C834B838F819885845B9F4F9E83DE
:102C80008D83AFC0CE2CDD24AF81B8858D919C9112
:102C9000D501ED91FC91EC0DFD1DDC012D913C91D8
:102CA0008F819885608141E0F9010995EF81F88570
:102CB00080819181D501ED91FC91EC0DFD1DDC0130
:102CC00012962D913C9113978F819885608140E0F9
:102CD000F901099581E090E0A0E0B0E00E2C04C07D
:102CE000880F991FAA1FBB1F0A94D2F74C012C0111
:102CF0004094509481E0682E712C0E2C02C0660C1A
:102D0000771C0A94E2F7FF243FC00F2D10E0AD813D
:102D1000BE81ED91FC91E00FF11FD90114962D9128
:102D20003C9115978F8198856081F9010995F8018B
:102D30003396892B59F4EE0FFF1F2F813885E20F50
:102D4000F31F80819181882999290AC0EE0FFF1F06
:102D50004F815885E40FF51F808191818421952151
:102D600091838083EF2DF0E03396EE0FFF1F8F816C
:102D70009885E80FF91F8081918186219721892B01
:102D800011F033243394F394AB81BC818C91EF81A7
:102D9000F88520813181F81608F4B7CFD501ED917F
:102DA000FC91EC0DFD1DD90112962D913C911397CC
:102DB0008F819885608141E0F9010995EF81F8855F
:102DC00080819181D501ED91FC91EC0DFD1DDC011F
:102DD0002D913C918F819885608140E0F9010995A2
:102DE000E394E981FA818081E81608F44BCF8F8162
:102DF00098850E940F150E9488072F8138852A5BCD
:102E00003F4FD9016D937D938D939C931397832DA1
:102E1000311081E028960FB6F894DEBF0FBECDBF0B
:102E2000CF91DF911F910F91FF90EF90DF90CF90A6
:102E3000BF90AF909F908F907F906F905F904F90DA
:102E40003F900895CF93DF93EC010E94B115882342
:102E500049F08B8D9C8D019729F48D8D882311F07D
:102E60008A8D01C080E0DF91CF9108956F927F92AB
:102E70008F929F92AF92BF92CF92DF92EF92FF928A
:102E80000F931F93CF93DF93EC014B016A0159011C
:102E9000702E6E2C02960E94DE1A8CE392E09983CB
:102EA00088834AE1E42EF12CEC0EFD1E00E010E0D8
:102EB000C701800F911F0E94E41A0C5F1F4F083258
:102EC0001105B1F7C45BDF4FC992D992A992B992AB
:102ED0007992688227979982888228968AE090E082
:102EE0008993999384EF91E0899399931982188239
:102EF000C655D040CE010E945E14CA5BDF4F1882D7
:102F000019821A821B82DF91CF911F910F91FF903E
:102F1000EF90DF90CF90BF90AF909F908F907F9079
:102F20006F900895862F0E947D1B0895862F642F31
:102F30000E94291B0895862F642F0E94EA1A089583
:102F4000DC019091E103933008F083C06C93E92F8A
:102F5000F0E0E85EFE4F849111968C9311979F5F8D
:102F60009093E103813039F1823009F44BC088231A
:102F700009F072C014BC15BC84B5826084BD85B5EF
:102F8000816085BD8C91282F30E0F901E75CFE4F10
:102F9000E491F0E0EE0FFF1FEB5DFE4F8591949101
:102FA0009093D1038093D003235B3E4FF90184912A
:102FB0008093D20308951092800010928100809136
:102FC000810088608093810080918100816080937E
:102FD00081008C91282F30E0F901E75CFE4FE491ED
:102FE000F0E0EE0FFF1FEB5DFE4F85919491909303
:102FF000D8038093D703235B3E4FF90184918093DC
:10300000D90308951092B0001092B1008091B000E1
:1030100082608093B0008091B10081608093B100A4
:103020008C91282F30E0F901E75CFE4FE491F0E04D
:10303000EE0FFF1FEB5DFE4F859194919093DF03A0
:103040008093DE03235B3E4FF90184918093E0037C
:1030500008958FEF11968C9308951F920F920FB6DB
:103060000F9211248F939F93AF93BF93EF93FF938E
:103070008091CC039091CD03A091CE03B091CF036A
:10308000E091D003F091D1030097A105B10531F192
:1030900080819091D203892780838091CC03909185
:1030A000CD03A091CE03B091CF03181619061A06CE
:1030B0001B06FCF48091CC039091CD03A091CE032C
:1030C000B091CF030197A109B1098093CC039093EC
:1030D000CD03A093CE03B093CF030BC080916E00BD
:1030E0008D7F80936E0090818091D203809589239B
:1030F0008083FF91EF91BF91AF919F918F910F903E
:103100000FBE0F901F9018951F920F920FB60F923F
:1031100011248F939F93AF93BF93EF93FF9380916D
:10312000D3039091D403A091D503B091D603E0913D
:10313000D703F091D8030097A105B10531F1808143
:103140009091D903892780838091D3039091D403F0
:10315000A091D503B091D603181619061A061B06BE
:10316000FCF48091D3039091D403A091D503B09146
:10317000D6030197A109B1098093D3039093D40397
:10318000A093D503B093D6030BC080916F008D7FC1
:1031900080936F0090818091D903809589238083EB
:1031A000FF91EF91BF91AF919F918F910F900FBEC3
:1031B0000F901F9018951F920F920FB60F92112427
:1031C0002F933F934F935F938F939F93EF93FF932F
:1031D0002091DA033091DB034091DC035091DD0351
:1031E000E091DE03F091DF03211531054105510522
:1031F00079F080819091E00389278083121613066D
:103200001406150684F421503040404050400BC055
:10321000809170008D7F8093700090818091E00399
:103220008095892380832093DA033093DB034093D6
:10323000DC035093DD03FF91EF919F918F915F919C
:103240004F913F912F910F900FBE0F901F901895A7
:10325000FC018181813051F0823071F0882389F442
:1032600080916E008D7F80936E000BC080916F0007
:103270008D7F80936F0005C0809170008D7F80935B
:103280007000808160E00E94291B08952F923F9278
:103290005F926F927F928F929F92AF92BF92CF92E6
:1032A000DF92EF92FF920F931F93DF93CF9300D0A3
:1032B00000D0CDB7DEB78C011B0129833A834B8345
:1032C0005C83DC0111968C91119787FD61C18C9113
:1032D00061E00E94EA1AF8015180552021F0F2E0E5
:1032E0005F1609F0C7C031018824992460E072E1BB
:1032F0008AE790E0A40193010E94381C59016A01F9
:10330000860175010894E108F108010911092FEF00
:10331000E216F1040105110509F008F49BC060E410
:1033200072E48FE090E0A40193010E94381C7901BF
:103330008A010894E108F1080109110982E0581690
:1033400011F092E019C09FEFE916F1040105110593
:1033500009F010F492E087C060E970ED83E090E03E
:10336000A40193010E94381C79018A010894E108A4
:10337000F1080109110993E0AFEFEA16F104010524
:10338000110509F008F467C068E478EE81E090E088
:10339000A40193010E94381C79018A010894E10874
:1033A000F10801091109552011F493E01EC0B2E0A3
:1033B0005B1611F094E019C0EFEFEE16F104010571
:1033C000110509F010F494E04EC064E274EF80E05F
:1033D00090E0A40193010E94381C79018A010894AD
:1033E000E108F1080109110995E0FFEFEF16F1047A
:1033F0000105110581F178F162E17AE780E090E062
:10340000A40193010E94381C79018A010894E10803
:10341000F10801091109552011F096E001C094E06E
:103420002FEFE216F10401051105A9F0A0F0C60185
:10343000B50120E034E040E050E00E94381C790102
:103440008A010894E108F10801091109552051F495
:1034500095E003C091E0552031F485B5887F982B25
:1034600095BD3EC097E08091B100887F982B9093E6
:10347000B10036C05101CC24DD2460E072E18AE75E
:1034800090E0A60195010E94381C79018A010894F8
:10349000E108F1080109110980E0E81680E0F8066A
:1034A00081E0080780E0180710F491E010C068E49C
:1034B00078EE81E090E0A60195010E94381C790128
:1034C0008A010894E108F1080109110993E0A1E0DB
:1034D0005A1631F480918100887F982B9093810057
:1034E00089819A81AB81BC810097A105B10529F43E
:1034F0008FEF9FEFAFEFBFEF13C0220C331CB10172
:1035000080E090E029813A814B815C810E94D01B50
:1035100028EE33E040E050E00E94161CC901DA01B9
:10352000E1E05E16A1F0F2E05F1619F1552081F599
:10353000E7BC8093CC039093CD03A093CE03B093CC
:10354000CF0380916E00826080936E0021C0F09264
:103550008900E09288008093D3039093D403A093D2
:10356000D503B093D60380916F00826080936F0083
:103570000FC0E092B3008093DA039093DB03A09333
:10358000DC03B093DD038091700082608093700053
:103590000F900F900F900F90CF91DF911F910F918F
:1035A000FF90EF90DF90CF90BF90AF909F908F9063
:1035B0007F906F905F903F902F900895FC01108254
:1035C0001282118213820895FC01108212821182EC
:1035D00013820895CF93DF93482F50E0CA01835B95
:1035E0009E4FFC013491475C5E4FFA018491882321
:1035F00069F190E0880F991FFC01E55EFE4FA591EF
:10360000B491FC01EB5DFE4FC591D491662351F45A
:103610002FB7F8948C91932F909589238C93888160
:1036200089230BC0623061F42FB7F8948C91932FEB
:10363000909589238C938881832B88832FBF06C024
:103640009FB7F8948C91832B8C939FBFDF91CF9180
:103650000895482F50E0CA018F599E4FFC012491D4
:10366000CA01835B9E4FFC019491475C5E4FFA0157
:103670003491332309F440C0222351F1233071F0F7
:10368000243028F42130A1F0223011F514C0263066
:10369000B1F02730C1F02430D9F404C0809180000B
:1036A0008F7703C0809180008F7D8093800010C051
:1036B00084B58F7702C084B58F7D84BD09C08091A9
:1036C000B0008F7703C08091B0008F7D8093B000F1
:1036D000E32FF0E0EE0FFF1FEB5DFE4FA591B491DD
:1036E0002FB7F894662321F48C919095892302C01A
:1036F0008C91892B8C932FBF0895682F70E0CB019C
:103700008F599E4FFC012491CB01835B9E4FFC019E
:103710004491675C7E4FFB019491992319F420E05A
:1037200030E03CC0222351F1233071F0243028F4E2
:103730002130A1F0223011F514C02630B1F027302D
:10374000C1F02430D9F404C0809180008F7703C089
:10375000809180008F7D8093800010C084B58F772A
:1037600002C084B58F7D84BD09C08091B0008F7781
:1037700003C08091B0008F7D8093B000892F90E0CE
:10378000880F991F815D9E4FFC01A591B4918C918A
:1037900020E030E0842311F021E030E0C9010895F9
:1037A000629FD001739FF001829FE00DF11D649F25
:1037B000E00DF11D929FF00D839FF00D749FF00DB1
:1037C000659FF00D9927729FB00DE11DF91F639F52
:1037D000B00DE11DF91FBD01CF0111240895AA1BF1
:1037E000BB1B51E107C0AA1FBB1FA617B70710F0EC
:1037F000A61BB70B881F991F5A95A9F7809590951E
:10380000BC01CD01089597FB092E07260AD077FD4C
:1038100004D0E5DF06D000201AF4709561957F4F43
:103820000895F6F7909581959F4F0895A1E21A2E7D
:10383000AA1BBB1BFD010DC0AA1FBB1FEE1FFF1F54
:10384000A217B307E407F50720F0A21BB30BE40BA4
:10385000F50B661F771F881F991F1A9469F76095EB
:103860007095809590959B01AC01BD01CF010895A5
:1038700097FB092E05260ED057FD04D0D7DF0AD0BE
:10388000001C38F450954095309521953F4F4F4F8F
:103890005F4F0895F6F790958095709561957F4FED
:1038A0008F4F9F4F0895EE0FFF1F0590F491E02D6D
:0638B0000994F894FFCF1B
:1038B600310032003300340035003600370038005E
:1038C600390030003A00412D5465616D3A643D3847
:1038D6002C6F3D352C623D3132353A346423362C1B
:1038E60061232C326423362C3136702C67232C341A
:1038F60061232C3464232E2C702C3136672C313600
:1039060061232C6423362C61232C66362C326423E7
:10391600362C3136702C63232E362C313663362CFA
:10392600313661232C67232E2C32612300010101DD
:103936000101020202020203030303030404040456
:1039460004000006011501260137014A015D0172D6
:103956000188019F01B801D201EE010B022A024B38
:10396600026E029302BA02E40210033F037003A43C
:1039760003DC03170455049704DD0427057505C801
:103986000520067D06E0064907B8072D08A9082D7B
:1039960009B9094D0AEA0A900B400CFA0CC00D91C0
:1039A6000E6F0F16013132333435363738392A3037
:1039B6002303020E000605042C010000000000008F
:1039C600AF09450A4509760956099F090000000016
:1039D600820C450A00004000140054001F1C1F1EE4
:1039E6001F1E1F1F1E1F1E1F000000009B1796177D
:0239F600921726
:00000001FF
