:100000000C9421030C9449030C9449030C94490368
:100010000C9449030C9449030C9449030C94F51D6A
:100020000C9449030C9449030C9449030C949E1DB1
:100030000C9449030C9449030C94471D0C944903F8
:100040000C941D0C0C9449030C94120D0C94600D2F
:100050000C9449030C9449030C9449030C944903F0
:100060000C9449030C9449034A656F70617264797A
:100070003A643D342C6F3D362C623D3132353A6363
:100080002C662C632C66352C632C662C32632C6317
:100090002C662C632C662C612E2C38672C38662C31
:1000A00038652C38642C3863232C632C662C632C25
:1000B00066352C632C662C32632C662E2C38642C0F
:1000C000632C6123352C61352C67352C66352C70FB
:1000D0002C64232C67232C64232C6723352C642366
:1000E0002C67232C3264232C64232C67232C642359
:1000F0002C67232C632E372C3861232C3867232C54
:1001000038672C38662C38652C64232C67232C64C4
:10011000232C6723352C64232C67232C3264232C57
:1001200067232E2C38662C64232C63232C632C70BD
:100130002C6123352C702C67232E352C64232C67DF
:100140002300456E7465727461696E65723A643D30
:10015000342C6F3D352C623D3134303A38642C38C4
:1001600064232C38652C63362C38652C63362C3888
:10017000652C32632E362C3863362C3864362C3896
:100180006423362C3865362C3863362C3864362C8C
:1001900065362C38622C64362C3263362C702C3841
:1001A000642C3864232C38652C63362C38652C631A
:1001B000362C38652C32632E362C38702C38612C56
:1001C00038672C3866232C38612C3863362C65361A
:1001D0002C3864362C3863362C38612C3264360067
:1001E000496E6469616E613A643D342C6F3D352C13
:1001F000623D3235303A652C38702C38662C3867C1
:100200002C38702C3163362C38702E2C642C3870BE
:100210002C38652C31662C702E2C672C38702C38BD
:10022000612C38622C38702C3166362C702C612C85
:1002300038702C38622C3263362C3264362C32659E
:10024000362C652C38702C38662C38672C38702C7E
:100250003163362C702C64362C38702C3865362C73
:1002600031662E362C672C38702C38672C652E366C
:100270002C38702C64362C38702C38672C652E3650
:100280002C38702C64362C38702C38672C662E363F
:100290002C38702C65362C38702C3864362C326330
:1002A0003600412D5465616D3A643D382C6F3D3503
:1002B0002C623D3132353A346423362C61232C32A2
:1002C0006423362C3136702C67232C3461232C3474
:1002D00064232E2C702C3136672C313661232C642C
:1002E00023362C61232C66362C326423362C31368F
:1002F000702C63232E362C313663362C3136612335
:100300002C67232E2C32612300466C696E73746F48
:100310006E65733A643D342C6F3D352C623D34304C
:100320003A3332702C313666362C313661232C311B
:10033000366123362C333267362C313666362C3113
:100340003661232E2C313666362C33326423362C1C
:10035000333264362C333264362C33326423362CF9
:10036000333266362C313661232C313663362C64B9
:10037000362C313666362C313661232E2C313661DF
:1003800023362C333267362C313666362C313661C3
:10039000232E2C333266362C333266362C333264BD
:1003A00023362C333264362C333264362C333264A9
:1003B00023362C333266362C313661232C313663AA
:1003C000362C61232C313661362C3136642E362C96
:1003D00031366123362C333261362C333261362C80
:1003E000333267362C33326623362C333261362C67
:1003F0003867362C313667362C3136632E362C333F
:100400003261362C333261362C333267362C33323C
:1004100067362C333266362C333265362C333267EE
:10042000362C3866362C313666362C313661232E22
:100430002C31366123362C333267362C3136663612
:100440002C313661232E2C313666362C3332642320
:10045000362C333264362C333264362C33326423F8
:10046000362C333266362C313661232C3136632EEE
:10047000362C333264362C33326423362C333266D6
:10048000362C313661232C3136632E362C333264D0
:10049000362C33326423362C333266362C313661B7
:1004A00023362C313663372C3861232E3600680012
:1004B0004201E001A2020903536F7272792C207489
:1004C000727920616761696E210054696D652075DC
:1004D000706C6F61646564210054696D652075708E
:1004E0006C6F616465642100696E76616C6964207B
:1004F000696E707574004D696E7574653F203020AB
:10050000746F20353900696E76616C696420696E9C
:1005100070757400486F75723F203020746F203200
:100520003300696E76616C696420696E7075740061
:100530004461793F203120746F20333100696E7639
:10054000616C696420696E707574004D6F6E7468BB
:100550003F203120746F20313200596561723F2095
:100560003020746F203939004564697420746865DF
:1005700020636C6F636B00666C696E7473746F6E6E
:10058000657300776173207472696767657265646B
:1005900000617465616D00776173207472696767CB
:1005A0006572656400696E6469616E6E6100776191
:1005B000732074726967676572656400656E74653F
:1005C000727461696E657200776173207472696715
:1005D0006765726564006A656F70617264790002B4
:1005E000010000000000240027002A000000000095
:1005F000250028002B000000000023002600290011
:1006000004040404040404040202020202020303B8
:1006100003030303010204081020408001020408C0
:100620001020010204081020000000070002010051
:10063000000304060000000000000000A803CC0E28
:100640000A1611241FBECFEFD8E0DEBFCDBF12E0E7
:10065000A0E0B1E0E0E1F3E402C005900D92A43423
:10066000B107D9F716E0A4E4B2E001C01D92AD3B9A
:10067000B107E1F716E0C2E4D6E004C02297FE011C
:100680000E948221CC33D107C9F70E94C1100C947B
:100690004B030C940000F8940C948621FB01DC01C0
:1006A00005900D920020E1F7089586309105D1F173
:1006B000873091059CF48330910559F18430910580
:1006C0003CF481309105F9F0029709F03FC01EC05B
:1006D0008430910509F10597C9F521C0893091054C
:1006E00051F18A30910534F487309105F1F0089783
:1006F00069F51EC08B30910521F18B309105F4F026
:100700000C9721F521C020E031E020C024E031E049
:100710001DC028E031E01AC02CE031E017C020E114
:1007200031E014C024E131E011C028E131E00EC015
:100730002CE131E00BC020E231E008C024E231E0DE
:1007400005C028E231E002C02CE231E0C901089581
:10075000CF92EF920F9388E692E06CE04BE02AE0B4
:1007600009E0A8E0EA2EF7E0CF2E0E9487128DE77D
:1007700092E067EF71E043E052E027E032E004E00E
:10078000E3E0EE2E0E94501C0F91EF90CF90089561
:100790000F931F930DE115E0C801609144024AE0F8
:1007A00050E00E943A10C801609145024AE050E0D2
:1007B0000E943A10C801609146024AE050E00E944F
:1007C0003A10C801609147024AE050E00E943A1096
:1007D000C801609148024AE050E00E943A10C80106
:1007E000609149024AE050E00E943A10C8016091CD
:1007F0004A024AE050E00E943A10C80160914B0260
:100800004AE050E00E943A10C80160914C024AE070
:1008100050E00E943A10C80160914D024AE050E059
:100820000E943A10C80160914E024AE050E00E94D6
:100830003A10C80160914F024AE050E00E943A101D
:10084000C801609150024AE050E00E943A10C8018D
:10085000609151024AE050E00E943A10C801609154
:1008600052024AE050E00E943A10C80160915302DF
:100870004AE050E00E943A10C801609154024AE0F8
:1008800050E00E943A10C801609155024AE050E0E1
:100890000E943A10C801609156024AE050E00E945E
:1008A0003A10C801609157024AE050E00E943A10A5
:1008B000C801609158024AE050E00E943A10C80115
:1008C000609159024AE050E00E943A10C8016091DC
:1008D0005A024AE050E00E943A10C80160915B025F
:1008E0004AE050E00E943A10C80160915C024AE080
:1008F00050E00E943A101F910F9108951F938DE7C9
:1009000092E00E943C1C182F8823C9F388E692E0ED
:1009100060E041E00E949A111433C1F1153374F480
:100920001133E1F0123324F4103309F069C060C0D0
:100930001233E1F0133309F063C020C01733F1F133
:10094000183334F4153351F1163309F059C02EC061
:100950001833E1F1193309F053C040C088E692E042
:1009600060E371E00E94AB1081E03FC088E692E056
:1009700062E371E00E94AB1082E037C088E692E04B
:1009800064E371E00E94AB1083E02FC088E692E040
:1009900066E371E00E94AB1084E027C088E692E035
:1009A00068E371E00E94AB1085E01FC088E692E02A
:1009B0006AE371E00E94AB1086E017C088E692E01F
:1009C0006CE371E00E94AB1087E00FC088E692E014
:1009D0006EE371E00E94AB1088E007C088E692E009
:1009E00060E471E00E94AB1089E08093650208C06A
:1009F00088E692E062E471E00E94AB10109265021A
:100A00008DE792E00E943C1C182F8823C9F388E6EA
:100A100092E061E041E00E949A11143309F445C06C
:100A200015338CF4113309F112333CF4133209F409
:100A300075C0103309F075C068C01233F1F013337C
:100A400009F06FC02AC0173309F447C0183334F4D3
:100A5000153399F1163309F064C037C0183309F41F
:100A600044C0193309F05DC048C088E692E060E3F5
:100A700071E00E94AB1081E007C088E692E062E37B
:100A800071E00E94AB1082E08093660268EE73E032
:100A900080E090E00E94730C44C088E692E064E33A
:100AA00071E00E94AB1083E0EFCF88E692E066E34E
:100AB00071E00E94AB1084E0E7CF88E692E068E343
:100AC00071E00E94AB1085E0DFCF88E692E06AE338
:100AD00071E00E94AB1086E0D7CF88E692E06CE32D
:100AE00071E00E94AB1087E0CFCF88E692E06EE322
:100AF00071E00E94AB1088E0C7CF88E692E060E426
:100B000071E00E94AB1089E0BFCF88E692E062E41A
:100B100071E00E94AB1010926602B8CF84E6809319
:100B200066022091660290916502243619F4909332
:100B3000640207C08AE0989FC0011124280F209307
:100B40006402809164021F910895EF92FF920F93C7
:100B50001F931092670288E692E00E94C91188E60E
:100B600092E060E040E00E949A1188E692E06AE537
:100B700075E00E944C0F0E947E048093630288E619
:100B800092E00E94C91188E692E060E040E00E9495
:100B90009A1188E692E06BE475E00E944C0F0E9487
:100BA0007E04809362028D30A8F088E692E060E0D7
:100BB00041E00E949A1188E692E06DE375E00E94A0
:100BC0004C0F68EE73E080E090E00E94730C81E0CF
:100BD0008093670288E692E00E94C91188E692E05D
:100BE00060E040E00E949A1188E692E060E375E0E0
:100BF0000E944C0F0E947E04809361028032A8F014
:100C000088E692E060E041E00E949A1188E692E076
:100C100062E275E00E944C0F68EE73E080E090E0C5
:100C20000E94730C81E08093670288E692E00E9444
:100C3000C91188E692E060E040E00E949A1188E6DF
:100C400092E064E175E00E944C0F0E947E04809364
:100C50005F028831A8F088E692E060E041E00E94FF
:100C60009A1188E692E066E075E00E944C0F68EE0B
:100C700073E080E090E00E94730C81E08093670253
:100C800088E692E00E94C91188E692E060E040E0C8
:100C90000E949A1188E692E066EF74E00E944C0F81
:100CA0000E947E04809360028C33A8F088E692E074
:100CB00060E041E00E949A1188E692E068EE74E0FC
:100CC0000E944C0F68EE73E080E090E00E94730C8D
:100CD00081E08093670280916702882309F0A3C0B6
:100CE0008DE195E060915F024AE050E00E943A1089
:100CF0008DE195E0609160024AE050E00E943A1078
:100D00008DE195E0609161024AE050E00E943A1066
:100D10008DE195E0609162024AE050E00E943A1055
:100D20008DE195E0609163024AE050E00E943A1044
:100D3000109283048CEB96E060E070E044E60E9441
:100D40000B20609183046F5F609383048CEB96E0CB
:100D500070E0409163020E940B20609183046F5FFA
:100D6000609383048CEB96E070E0409162020E94F5
:100D70000B20609183046F5F609383048CEB96E09B
:100D800070E0409161020E940B20609183046F5FCC
:100D9000609383048CEB96E070E040915F020E94C8
:100DA0000B20609183046F5F609383048CEB96E06B
:100DB00070E0409160020E940B2088E692E069EDAD
:100DC00074E00E944C0F60ED77E080E090E00E94BC
:100DD000730C0C94000060916002209161020091FC
:100DE0006202E090630280915F0290E070E040E078
:100DF00050E030E010E0FF240E94F51468EE73E04C
:100E000080E090E00E94730C88E692E00E94C91195
:100E100088E692E060E040E00E949A1188E692E065
:100E20006AEC74E00EC088E692E00E94C91188E680
:100E300092E060E040E00E949A1188E692E068EB60
:100E400074E00E944C0F60ED77E080E090E00E943B
:100E5000730C88E692E00E94C9111F910F91FF90D8
:100E6000EF9008958DE792E00E943C1C8823D1F01A
:100E70008332C1F488E692E060E041E00E949A117A
:100E800088E692E068E675E00E944C0F60ED77E03E
:100E900080E090E00E94730C88E692E00E94C91105
:100EA0000E94A5050895EF92FF920F931F9308E605
:100EB00012E0C80160E041E00E949A110E9496157C
:100EC000BC01C8014AE050E00E949810B4E4EB2E47
:100ED000B1E0FB2EC801B7010E94AB100E948E1535
:100EE0000E945503BC01C8010E94AB10C801B701A4
:100EF0000E94AB100E948915BC01C8014AE050E075
:100F00000E9498101F910F91FF90EF900895CF933A
:100F1000DF93EC0188E692E066E471E00E94AB109A
:100F2000CA30D1052CF488E692E060E30E946F0F8E
:100F300088E692E0BE014AE050E00E949810DF91FE
:100F4000CF9108950F931F9308E612E0C80160E067
:100F500040E00E949A110E94AE15BC01C8014AE00F
:100F600050E00E9498100E94A6150E9487070E94D8
:100F70009E150E9487070E9453071F910F910895A5
:100F80000E94A2078AE595E048EE53E060E070E039
:100F90000E9433190E94320708954F925F926F9218
:100FA0007F928F929F92AF92BF92CF92DF92EF92F9
:100FB000FF920F931F93CF93DF9301C0CF01FC01EA
:100FC00081918A33D9F7EF018081843611F014E0E2
:100FD00024C0329620E030E013C0C901B3E0880F8E
:100FE000991FBA95E1F7220F331F820F931F242F09
:100FF000332727FD309520533040280F391F319675
:101000004081842F80538A3040F31216130614F067
:1010100014E001C0122FEF01219688818F3619F05C
:1010200076E0C72E15C0FE013196AF014F5F5F4FCE
:101030008181992787FD90959C0120533040C3976B
:10104000059718F066E0C62E01C0C22EEA0122966E
:101050008881823619F08FE390E020C0CE0102969D
:1010600020E030E013C0C90153E0880F991F5A9562
:10107000E1F7220F331F820F931F242F332727FD01
:10108000309520533040280F391FCF01FC0141918A
:10109000842F80538A3038F3EF01C9019C01442723
:1010A00037FD4095542F60E67AEE80E090E00E9494
:1010B000652149015A01B2E0880C991CAA1CBB1C8D
:1010C000BA95D1F7412E552466247724A7C0CB01C9
:1010D000A3E0880F991FAA95E1F7660F771F860F87
:1010E000971F6D2D772767FD709560537040680FCF
:1010F000791F2196D8808D2D80538A3040F3611559
:10110000710541F09B01442737FD4095542FC501DF
:10111000B40104C0C501B401A30192010E9465217C
:10112000C901DA017C018D0184E6D816A1F08D1584
:101130004CF082E6D81609F18D1584F081E6D816B8
:10114000F9F418C086E6D81679F0D81654F087E678
:10115000D816B1F40CC0E3E0DE2E13C0DD24D39426
:1011600010C075E0D72E0DC066E0D62E0AC058E03C
:10117000D52E07C04AE0D42E04C03CE0D32E01C0D7
:10118000DD2421968881833211F4D39421968881BD
:101190008E3279F4C801B70122E030E040E050E03F
:1011A0000E946521C901DA01E80EF91E0A1F1B1F02
:1011B0002196988190539A3010F09C2D01C0219671
:1011C00088818C3209F42196DD2021F1892F90E06D
:1011D000FC01EE0FFF1FE80FF91FEE0FFF1FEE0FD0
:1011E000FF1FED0DF11DEE0FFF1FEB5CFE4F608149
:1011F00071818DE592E020E030E040E050E00E9417
:10120000601EC801B7010E94730C8DE592E00E9438
:10121000421E04C0C801B7010E94730C8881882354
:1012200019F060E070E066CFDF91CF911F910F91D0
:10123000FF90EF90DF90CF90BF90AF909F908F90F6
:101240007F906F905F904F900895EF92FF920F9371
:101250001F938AE595E00E94FC15682F1DE1E12EA1
:1012600015E0F12EC7014AE050E00E943A10C70194
:1012700063E875E00E94970FE6EBF4E065917491E6
:1012800005ED12E0C8010E944E03C70167E775E053
:101290000E94970FC701B8010E94AE10C8010E94BA
:1012A000CD071F910F91FF90EF900895EF92FF925D
:1012B0000F931F938AE595E00E94FC15682F0DE1BE
:1012C000E02E05E0F02EC7014AE050E00E943A10FF
:1012D000C70167E975E00E94970FE4EBF4E06591C0
:1012E000749105ED12E0C8010E944E03C70161E947
:1012F00075E00E94970FC701B8010E94AE10C801A7
:101300000E94CD071F910F91FF90EF900895EF92EB
:10131000FF920F931F938AE595E00E94FC15682FBA
:101320008DE1E82E85E0F82EC7014AE050E00E94EA
:101330003A10C7016EEA75E00E94970FE2EBF4E005
:101340006591749105ED12E0C8010E944E03C7013A
:1013500065EA75E00E94970FC701B8010E94AE10C0
:10136000C8010E94CD071F910F91FF90EF90089543
:10137000EF92FF920F931F938AE595E00E94FC1570
:10138000682F9DE1E92E95E0F92EC7014AE050E073
:101390000E943A10C70168EC75E00E94970FE0EBDD
:1013A000F4E06591749105ED12E0C8010E944E03CE
:1013B000C7016CEB75E00E94970FC701B8010E944E
:1013C000AE10C8010E94CD071F910F91FF90EF90C2
:1013D0000895EF92FF920F931F938AE595E00E9484
:1013E000FC15EEEAF4E06591749125EDE22E22E021
:1013F000F22EC7010E944E030DE115E0C80166ED13
:1014000075E00E94970FC801B7010E94AE10C70196
:101410000E94CD071F910F91FF90EF900895CF93F9
:10142000DF938DE195E068E471E00E94AE10C5E8BD
:10143000D4E0609183048CEB96E070E00E9404207D
:10144000682F809384048DE195E04AE050E00E948B
:101450003A10809184048993809183048F5F8093F4
:10146000830484E0CB38D80721F790E0809185048D
:10147000843609F491E0892FDF91CF910895AF92DE
:10148000BF92CF92DF92EF92FF920F931F93EAE504
:10149000CE2EE5E0DE2E79EEA72E79E0B72EC6013E
:1014A00062E070E047E050E02FE030E00AE010E05A
:1014B00075010E94C21880934402C60163E070E087
:1014C00047E050E02FE030E00E94C21880934502D0
:1014D000C60164E070E047E050E02FE030E00E9499
:1014E000C21880934602C60165E070E047E050E014
:1014F0002FE030E00E94C21880934702C60166E0E8
:1015000070E047E050E02FE030E00E94C218809386
:10151000480268EBA62E69E0B62EC60162E070E0D4
:1015200048E050E020E030E075010E94C21880934E
:101530004902C60163E070E048E050E020E030E09E
:101540000E94C21880934A02C60164E070E048E03D
:1015500050E020E030E00E94C21880934B02C601A8
:1015600065E070E048E050E020E030E00E94C21802
:1015700080934C02C60166E070E048E050E020E055
:1015800030E00E94C21880934D0257E8A52E59E022
:10159000B52EC60162E070E04AE050E028E230E09B
:1015A00075010E94C21880934E02C60163E070E08C
:1015B0004AE050E028E230E00E94C21880934F02D7
:1015C000C60164E070E04AE050E028E230E00E94AA
:1015D000C21880935002C60165E070E04AE050E016
:1015E00028E230E00E94C21880935102C60166E0F2
:1015F00070E04AE050E028E230E00E94C218809398
:10160000520246E5A42E49E0B42EC60162E070E025
:101610004BE050E024E130E075010E94C218809355
:101620005302C60163E070E04BE050E024E130E09B
:101630000E94C21880935402C60164E070E04BE03F
:1016400050E024E130E00E94C21880935502C601A8
:1016500065E070E04BE050E024E130E00E94C21809
:1016600080935602C60166E070E04BE050E024E152
:1016700030E00E94C2188093570235E2A32E39E071
:10168000B32EC60162E070E04EE050E02EE130E0A3
:1016900075010E94C21880935802C60163E070E091
:1016A0004EE050E02EE130E00E94C21880935902D3
:1016B000C60164E070E04EE050E02EE130E00E94B0
:1016C000C21880935A02C60165E070E04EE050E017
:1016D0002EE130E00E94C21880935B02C60166E0F2
:1016E00070E04EE050E02EE130E00E94C21880939E
:1016F0005C021F910F91FF90EF90DF90CF90BF9011
:10170000AF900895EF92FF920F931F938DE195E0B4
:1017100040E855E260E070E00E949B0D8DE592E0AC
:101720006DE00E94BA1C88E692E060E142E020E0B1
:101730000E94D1110E940F0A80938B04882309F420
:101740005EC08DE195E067E571E00E94AE108DE12D
:1017500095E064E671E00E94AB108DE195E0609148
:1017600089044AE050E00E943A108DE195E06BE672
:1017700071E00E94AB108DE195E060918A044AE02F
:1017800050E00E943A108DE195E064E771E00E941C
:10179000AB108DE195E0609188044AE050E00E9432
:1017A0003A108DE195E06AE771E00E94AB108DE19F
:1017B00095E0609187044AE050E00E943A108DE184
:1017C00095E062E871E00E94AB108DE195E06091D8
:1017D00086044AE050E00E943A1060918A04209109
:1017E000880400918704E09086048091890490E049
:1017F00070E040E050E030E010E0FF2413C08DE1E5
:1018000095E069E871E00E94AE108AE090E068E23D
:1018100070E045E050E023E030E001E010E0FBE064
:10182000EF2EF12C0E94F5140E943F0A0E94C8037B
:101830001F910F91FF90EF9008951F920F920FB696
:101840000F9211242F933F938F939F93AF93BF9346
:101850008091900490919104A0919204B09193048E
:10186000309194040196A11DB11D232F2D5F2D37BA
:1018700020F02D570196A11DB11D20939404809353
:10188000900490939104A0939204B0939304809158
:101890008C0490918D04A0918E04B0918F040196D8
:1018A000A11DB11D80938C0490938D04A0938E0490
:1018B000B0938F04BF91AF919F918F913F912F91E2
:1018C0000F900FBE0F901F9018958FB7F89420912E
:1018D00090043091910440919204509193048FBFF1
:1018E000B901CA0108959B01AC017FB7F8948091BA
:1018F0008C0490918D04A0918E04B0918F0466B5F4
:10190000A89B05C06F3F19F00196A11DB11D7FBFB7
:10191000BA2FA92F982F8827860F911DA11DB11DC1
:1019200062E0880F991FAA1FBB1F6A95D1F7BC01FF
:101930002DC0FFB7F89480918C0490918D04A091F4
:101940008E04B0918F04E6B5A89B05C0EF3F19F057
:101950000196A11DB11DFFBFBA2FA92F982F88276F
:101960008E0F911DA11DB11DE2E0880F991FAA1FC6
:10197000BB1FEA95D1F7861B970B885E9340C8F290
:10198000215030404040504068517C4F2115310576
:101990004105510571F60895019739F0880F991F97
:1019A000880F991F02970197F1F70895789484B5ED
:1019B000826084BD84B5816084BD85B5826085BD4B
:1019C00085B5816085BDEEE6F0E080818160808331
:1019D000E1E8F0E010828081826080838081816014
:1019E0008083E0E8F0E0808181608083E1EBF0E0DB
:1019F000808184608083E0EBF0E08081816080837F
:101A0000EAE7F0E080818460808380818260808367
:101A10008081816080838081806880831092C10092
:101A2000089508951F920F920FB60F9211242F93CD
:101A30003F934F938F939F93EF93FF938091C000B9
:101A400082FD1DC04091C6002091D5043091D6047E
:101A50002F5F3F4F2F7330708091D7049091D8043F
:101A60002817390771F0E091D504F091D604EB56B0
:101A7000FB4F40833093D6042093D50402C080915D
:101A8000C600FF91EF919F918F914F913F912F91C0
:101A90000F900FBE0F901F901895E0912905F091BF
:101AA0002A05E05CFF4F8191919120813181821B59
:101AB000930B8F739070892B11F00E94110D089574
:101AC0001F920F920FB60F9211242F933F938F9373
:101AD0009F93EF93FF932091190530911A05809100
:101AE0001B0590911C052817390731F48091C1001E
:101AF0008F7D8093C10014C0E0911B05F0911C05FF
:101B0000E752FB4F208180911B0590911C050196A7
:101B10008F73907090931C0580931B052093C600D3
:101B2000FF91EF919F918F913F912F910F900FBE59
:101B30000F901F901895AF92BF92DF92EF92FF9295
:101B40000F931F93CF93DF93EC017A018B01DD2478
:101B5000403081EE580780E0680780E0780711F098
:101B6000DD24D39491E0A92EB12CEC89FD89DD20F0
:101B700069F0C50108A002C0880F991F0A94E2F716
:101B8000808360E079E08DE390E005C0108260E83A
:101B900074E88EE190E0A80197010E944321215052
:101BA000304040405040569547953795279580E105
:101BB0002030380720F0DD2011F0DD24D6CFE88971
:101BC000F9893083EA89FB89208319A2EE89FF898C
:101BD000408121E030E0C9010C8C02C0880F991FC0
:101BE0000A94E2F7482B4083EE89FF894081C901BE
:101BF0000D8C02C0880F991F0A94E2F7482B40838E
:101C0000EE89FF894081C9010E8C02C0880F991F9F
:101C10000A94E2F7482B4083EE89FF8980810F8C7C
:101C200002C0220F331F0A94E2F720952823208355
:101C3000DF91CF911F910F91FF90EF90DF90BF90B8
:101C4000AF900895DC011C96ED91FC911D97E05C2E
:101C5000FF4F2191319180819181281B390B2F7386
:101C60003070C9010895DC011C96ED91FC911D971F
:101C7000E05CFF4F20813181E054F040DF01AE5B3A
:101C8000BF4F8D919C9111972817390719F42FEFA9
:101C90003FEF07C08D919C91E80FF91F8081282F9D
:101CA00030E0C9010895DC011C96ED91FC911D976F
:101CB000E05CFF4F20813181E054F040DF01AE5BFA
:101CC000BF4F8D919C9111972817390719F42FEF69
:101CD0003FEF10C08D919C911197E80FF91F208163
:101CE0008D919C91119701968F73907011969C9392
:101CF0008E9330E0C9010895DC0191968C91919703
:101D0000882339F05496ED91FC915597808186FF98
:101D1000F9CF91961C920895CF93DF93EC01EE8555
:101D2000FF85E05CFF4F20813181E054F0402F5F60
:101D30003F4F2F733070DF01AE5BBF4F8D919C9191
:101D4000119728173907D1F3E05CFF4F808191810B
:101D5000E054F040E80FF91F6083EE85FF85E05CFA
:101D6000FF4F31832083EE89FF89208181E090E05D
:101D70000F8C02C0880F991F0A94E2F7282B20834A
:101D800081E089A3EC89FD8980818064808381E082
:101D900090E0DF91CF9108951092200510921F05D9
:101DA00088EE93E0A0E0B0E08093210590932205B7
:101DB000A0932305B093240582E192E090931E0541
:101DC00080931D0585E994E090932A058093290569
:101DD00089ED94E090932C0580932B0585EC90E0A1
:101DE00090932E0580932D0584EC90E09093300520
:101DF00080932F0580EC90E090933205809331051D
:101E000081EC90E0909334058093330582EC90E070
:101E1000909336058093350586EC90E090933805D5
:101E20008093370584E08093390583E080933A05F9
:101E300087E080933B0585E080933C0581E08093BB
:101E40003D050895CF92DF92EF92FF920F931F937B
:101E5000CF93DF937C016B018A01C0E0D0E00FC01B
:101E6000D6016D916D01D701ED91FC910190F0814A
:101E7000E02DC7010995C80FD91F01501040011569
:101E8000110571F7CE01DF91CF911F910F91FF9056
:101E9000EF90DF90CF900895EF92FF920F931F93F2
:101EA000CF93DF937C018B01C0E0D0E0F8010F5F9E
:101EB0001F4F6491662359F0D701ED91FC91019079
:101EC000F081E02DC7010995C80FD91FEFCFCE01D2
:101ED000DF91CF911F910F91FF90EF900895DC015A
:101EE000ED91FC910190F081E02D09950895EF921C
:101EF000FF920F931F938C01DC01ED91FC910190F7
:101F0000F081E02D6DE009957C01D801ED91FC9107
:101F10000190F081E02DC8016AE009959C012E0D29
:101F20003F1DC9011F910F91FF90EF900895EF920F
:101F3000FF920F931F937C010E944C0F8C01C701ED
:101F40000E94770F9C01200F311FC9011F910F9133
:101F5000FF90EF900895CF93DF93EC016115710529
:101F600019F420E030E00FC0DB010D900020E9F70C
:101F70001197A61BB70BE881F9810280F381E02D50
:101F8000AD0109959C01C901DF91CF9108954F9250
:101F90005F927F928F929F92AF92BF92CF92DF9289
:101FA000EF92FF920F931F93DF93CF93CDB7DEB7DE
:101FB000A1970FB6F894DEBF0FBECDBF2C01742ED3
:101FC000CB01223008F42AE019A231E2C32ED12C31
:101FD000CC0EDD1E822E9924AA24BB24672D752FDA
:101FE000A50194010E94432179018A01C801B7012A
:101FF000A50194010E94FD20472D461B0894C108AD
:10200000D1084A3014F4405D01C0495CF6014083B8
:10201000E114F1040105110521F07E2C5F2DC801AA
:10202000DDCFC201B6010E94AB0FA1960FB6F894A6
:10203000DEBF0FBECDBFCF91DF911F910F91FF90FB
:10204000EF90DF90CF90BF90AF909F908F907F9058
:102050005F904F900895DC012115310541F4ED9119
:10206000FC910190F081E02D642F099508950E9464
:10207000C70F0895CF92DF92EF92FF920F931F93B5
:102080006C01E62E9A01FF2400E010E0B801A701E0
:102090000E942B108C01C6010E94770F080F191F98
:1020A000C8011F910F91FF90EF90DF90CF9008959E
:1020B000CF92DF92EF92FF920F931F93CF93DF9314
:1020C000EC016A017B012115310541F4E881F981B8
:1020D0000190F081E02D642F09951FC02A30310551
:1020E000D1F477FF17C0E881F9810190F081E02DEC
:1020F0006DE209958C0144275527BA014C195D09F9
:102100006E097F09CE012AE00E94C70F9801280FAF
:10211000391F04C02AE00E94C70F9C01C901DF914A
:10212000CF911F910F91FF90EF90DF90CF90089586
:10213000EF92FF920F931F937B019A010027F7FC08
:102140000095102FB801A7010E9458101F910F9100
:10215000FF90EF9008950E94AB0F0895EF92FF92C9
:102160000F931F937C010E94AB0F8C01C7010E944B
:10217000770F080F191FC8011F910F91FF90EF9063
:102180000895CF93DF930E94D60C0E94820BCDE47A
:10219000DDE00E94C0072097E1F30E944D0DF9CFCA
:1021A0000F931F938C01FC01868160E00E945620F2
:1021B00081E090E00E94CC0CF801868161E00E94F1
:1021C000562081E090E00E94CC0CF801868160E00E
:1021D0000E94562084E690E00E94CC0C1F910F9143
:1021E0000895CF92DF92EF92FF920F931F93CF93B8
:1021F000DF93D82EC92E282F392FC9018C01C0E0BA
:10220000D0E0E62EFF24F801878161E00E941720CC
:10221000B7010C2E02C0759567950A94E2F76170BC
:10222000F80187810E94562021960F5F1F4FC8300A
:10223000D10549F78D2D9C2D0E94D010DF91CF91B3
:102240001F910F91FF90EF90DF90CF900895CF9264
:10225000DF92EF92FF920F931F93CF93DF93D82ECD
:10226000C92E282F392FC9018C01C0E0D0E0E62EFD
:10227000FF24F801878161E00E941720B7010C2E2E
:1022800002C0759567950A94E2F76170F80187813D
:102290000E94562021960F5F1F4FC430D10549F789
:1022A0008D2D9C2D0E94D010DF91CF911F910F9109
:1022B000FF90EF90DF90CF9008951F93CF93DF931F
:1022C000EC01162F8C81642F0E9456208D818F3F48
:1022D00019F060E00E9456208F8584FF05C0CE0172
:1022E000612F0E94F1100EC0612F70E084E075959F
:1022F00067958A95E1F7CE010E942711CE01612FE3
:102300000E942711DF91CF911F91089541E00E9413
:102310005D1181E090E0089540E00E945D11089514
:10232000FC016089862F8460808B6C60CF010E94E5
:102330008C110895DF93CF93CDB7DEB728970FB6F2
:10234000F894DEBF0FBECDBF9C01FE013196A6E220
:10235000B2E088E00D9001928150E1F7F9018389A4
:10236000481710F0482F4150E42FF0E0EE0FFF1F08
:10237000EC0FFD1F8181680F6068C9010E948C11FC
:1023800028960FB6F894DEBF0FBECDBFCF91DF9178
:10239000089561E00E948C1180ED97E00E94CC0CC2
:1023A0000895CF93DF93EC01423018F08F85886059
:1023B0008F874B8B1C8A222329F0413019F48F859B
:1023C00084608F8780E593EC0E94CC0C8C8160E068
:1023D0000E9456208E8160E00E9456208D818F3FA2
:1023E00019F060E00E9456206F8564FD1DC0CE018B
:1023F00063E00E94271184E991E10E94CC0CCE0198
:1024000063E00E94271184E991E10E94CC0CCE0187
:1024100063E00E94271186E990E00E94CC0CCE0177
:1024200062E00E94271116C06062CE010E948C11EA
:1024300084E991E10E94CC0C6F856062CE010E941C
:102440008C1186E990E00E94CC0C6F856062CE0111
:102450000E948C116F856062CE010E948C1184E015
:10246000888BCE010E949011CE010E94C91182E09A
:10247000898BCE0166E00E948C11DF91CF91089587
:102480006F927F928F92AF92CF92EF920F931F93A2
:10249000DF93CF93CDB7DEB73C01162F842FF30126
:1024A000448325830683E782C086A18682869D8534
:1024B00093879E8594879F8595879889968761E005
:1024C0000E941720F30185818F3F19F061E00E947F
:1024D0001720F301868161E00E941720112319F073
:1024E000F301178603C080E1F3018787C30160E130
:1024F00041E020E00E94D111CF91DF911F910F9117
:10250000EF90CF90AF908F907F906F9008958F92C3
:10251000AF92CF92EF920F931F93CF93DF93DC0193
:10252000362F542F722F102FAE2C8C2C13961C92FA
:102530001E92129782E292E011969C938E9300D0A5
:1025400000D0EDB7FEB73196CDB7DEB71982118254
:1025500012821382CD0161E0432F2FEF052FE72E6A
:10256000C12E0E9440120F900F900F900F90DF919C
:10257000CF911F910F91EF90CF90AF908F900895D2
:102580008F929F92AF92BF92CF92DF92EF92FF9283
:102590000F931F93CF93DF937B018C01EA012CE310
:1025A00030E040E050E00E9443216883C801B70159
:1025B0002CE330E040E050E00E944321122F032F33
:1025C000F42EE52E622F732F842F952F2CE330E00D
:1025D00040E050E00E9443216983612F702F8F2DCE
:1025E0009E2D2CE330E040E050E00E944321122F6A
:1025F000032FF42EE52E622F732F842F952F28E1C1
:1026000030E040E050E00E9443216A83612F702F48
:102610008F2D9E2D28E130E040E050E00E944321C4
:1026200079018A01C801B7016C5F7F4F8F4F9F4FBF
:1026300027E030E040E050E00E9443216F5F6B8371
:1026400020E0AA24BB24650101C02F5F822E9924BB
:10265000F401EE54F84FCF0183709070892B99F4F8
:10266000CF0164E670E00E943021892B39F4CF015C
:1026700060E971E00E943021892B29F48EE691E017
:10268000A0E0B0E004C08DE691E0A0E0B0E0A80ECC
:10269000B91ECA1EDB1EC501A0E0B0E0E816F906AF
:1026A0000A071B0790F62E83F401EE54F84F83E0DF
:1026B000882E912C8E229F228114910499F4CF01AF
:1026C00064E670E00E943021892B39F4CF0160E983
:1026D00071E00E943021892B29F48EE691E0A0E080
:1026E000B0E004C08DE691E0A0E0B0E0A81AB90A1D
:1026F000CA0ADB0A980187010A191B092C093D093E
:10270000CF0164E670E00E9430217C01CF0160E9D6
:1027100071E00E943021AC01EEE2F2E060E0613055
:1027200051F48114910449F4E114F10441F4411588
:10273000510529F002C0808103C08CE101C08DE108
:1027400090E0A0E0B0E0081719072A073B0740F027
:10275000081B190B2A0B3B0B6F5F31966C30F9F697
:102760006F5F6D83802F8F5F8C83DF91CF911F917F
:102770000F91FF90EF90DF90CF90BF90AF909F9020
:102780008F900895EF92FF920F931F937B018C011E
:102790008091560590915705A0915805B091590523
:1027A000E816F9060A071B0771F0C801B7014BE4E8
:1027B00055E00E94C012E0925605F0925705009332
:1027C0005805109359051F910F91FF90EF900895B0
:1027D0000E94C2132091510530E02E54384FC90198
:1027E00008954F925F926F927F928F929F92AF92D5
:1027F000BF92CF92DF92EF92FF920F931F93CF93EE
:10280000DF934C01DC0116961C91612F70E080E093
:1028100090E020E833E341EE51E00E94FD205B01AF
:102820006C0122EB37E0E12FF0E0EE54F84F1DC0D1
:10283000C90183709070892BB1F4C90164E670E01E
:102840000E943021892B39F4C90160E971E00E94AE
:102850003021892B41F480E891E5A1E0B0E0A80E99
:10286000B91ECA1EDB1E2F5F3F4F2E173F0701F711
:10287000D40115968C91482E5524C90164E670E068
:102880000E9430217C01C90160E971E00E94302181
:102890008C01C1E0D0E093E0692E712C622273229A
:1028A00027C0C230D10591F46114710479F4E114A8
:1028B000F10419F40115110549F480E89BE3A6E23F
:1028C000B0E0A80EB91ECA1EDB1E11C0FE01E35DFA
:1028D000FD4F608170E080E090E020E831E541E06C
:1028E00050E00E94FD20A60EB71EC81ED91E2196DC
:1028F000C415D505B4F2D40112966C9170E080E055
:1029000090E020E13EE040E050E00E94FD207B01AD
:102910008C01F401618170E080E090E02CE330E014
:1029200040E050E00E94FD20E60EF71E081F191F30
:10293000D4018C91E80EF11C011D111D14966C91AF
:1029400070E061507040882777FD8095982F20E8CF
:1029500031E541E050E00E94FD20E60EF71E081F21
:10296000191FEA0CFB1C0C1D1D1DB701C801DF91CE
:10297000CF911F910F91FF90EF90DF90CF90BF907C
:10298000AF909F908F907F906F905F904F90089541
:1029900060934105709342058093430590934405ED
:1029A00020910A0230910B0240910C0250910D02CD
:1029B000260F371F481F591F2093450530934605A2
:1029C000409347055093480582E090E090934A0574
:1029D000809349050E94650C6093520570935305DE
:1029E00080935405909355050895EF92FF920F93AD
:1029F000F701E436F1051CF0E25BF74001C07E967A
:102A0000E09351050093500520934F0580934D05A9
:102A100060934C0540934B058BE495E00E94F113C5
:102A20000E94C8140F91FF90EF900895EF92FF92CB
:102A30000F931F931CC02F5F3F4F4F4F5F4F20934B
:102A4000410530934205409343055093440588EE79
:102A500093E0A0E0B0E0E80EF91E0A1F1B1FE09211
:102A60005205F092530500935405109355050E94AA
:102A7000650CE0905205F0905305009154051091BB
:102A800055056E197F09800B910B209141053091FE
:102A900042054091430550914405685E7340804073
:102AA000904048F68091450590914605A0914705D4
:102AB000B0914805281739074A075B07E8F0E0910D
:102AC0003F05F09140053097B9F009956115710502
:102AD0008105910519F00E94C8140EC020E030E075
:102AE0008091490590914A05892B11F021E030E051
:102AF00030934A0520934905609141057091420544
:102B000080914305909144051F910F91FF90EF90A4
:102B100008950E9416150E94E81308950E94161544
:102B20000E94C2138091500590E008950E941615EE
:102B30000E94C21380914F0590E008950E941615DF
:102B40000E94C21380914B0590E008950E941615D3
:102B50000E94C21380914C0590E008950E941615C2
:102B60000E94C21380914D0590E00895CF93DF93AA
:102B7000DC01FC0120E030E08285807C82871682C7
:102B80001782108611861282138214821582118296
:102B90001082255F3F4F3B9681E02A34380761F76A
:102BA000A65BBE4F1C92AA54B140ED0120E030E07C
:102BB0004BE050E0249FF001259FF00D349FF00D75
:102BC0001124EA0FFB1F9285892F8F7061F0907E90
:102BD0009287198218821A821B821C821D821E8291
:102BE0001F82188619862F5F3F4F2B962E31310595
:102BF00009F7DF91CF910895FC01E65BFE4F8081DC
:102C0000EA54F140882311F48FEF0895E55BFE4FFD
:102C1000808108958AE595E00E94B61508952F9267
:102C20003F924F925F926F927F928F929F92AF925C
:102C3000BF92CF92DF92EF92FF920F931F93DF9399
:102C4000CF9300D000D000D0CDB7DEB79E838D8368
:102C5000FC0182819381A481B5810097A105B10512
:102C600009F45BC1828584FF58C10E9416156983EF
:102C70007A838B839C83AD81BE811A963C911A978F
:102C8000232F2F70822F825F8F70833008F028C12E
:102C900016968D919D910D90BC91A02D49815A81E0
:102CA0006B817C81481759076A077B0708F418C1B4
:102CB000223059F4ED81FE8182819381A481B58116
:102CC00086839783A087B1870BC1233009F061C049
:102CD000AD81BE811296ED90FD900D911C911597DE
:102CE0000E94161520E831E541E050E00E944321A2
:102CF000CA01B90120E831E541E050E00E94FD2021
:102D0000E60EF71E081F191FED81FE81A280B38019
:102D1000C480D58029813A814B815C812E153F0585
:102D200040075107C8F0CA01B90120E831E541E088
:102D300050E00E9443212F5F3F4F4F4F5F4FCA012A
:102D4000B90120E831E541E050E00E94FD20A60EE7
:102D5000B71EC81ED91EACC069817A818B819C8147
:102D600020E831E541E050E00E944321CA01B90169
:102D700020E831E541E050E00E94FD20A60EB71E9C
:102D8000C81ED91EED81FE81A682B782C086D1867B
:102D9000A7C0243009F0A0C0AD81BE8112966D900D
:102DA0007D908D909C9015970E9416157B018C014B
:102DB0000E9416155B016C010E9416151B012C0167
:102DC000E60CF71C081D191DC601B50120E831E508
:102DD00041E050E00E944321E61AF70A080B190B64
:102DE000C201B10120E831E541E050E00E944321F9
:102DF0002C5F3F4F4F4F5F4FCA01B90127E030E0D2
:102E000040E050E00E94432120E831E541E050E0FD
:102E10000E94FD20E61AF70A080B190BED81FE81CE
:102E2000A280B380C480D58029813A814B815C81A6
:102E30002E153F054007510708F443C040E85AE308
:102E400069E070E0A40EB51EC61ED71E69817A81A6
:102E50008B819C81A60EB71EC81ED91E20E831E5C5
:102E600041E050E00E944321A61AB70AC80AD90AD5
:102E700069817A818B819C8120E831E541E050E0D5
:102E80000E9443212C5F3F4F4F4F5F4FCA01B90152
:102E900027E030E040E050E00E94432120E831E5A7
:102EA00041E050E00E94FD20A61AB70AC80AD90ADC
:102EB000AD81BE811696AD92BD92CD92DC921997EE
:102EC0000FC029813A814B815C81A20EB31EC41EC2
:102ED000D51ECA01B901C2CF3F7EED81FE81328786
:102EE000AD81BE811A968C911A978F708130E9F46A
:102EF00012968D919D910D90BC91A02D29813A81C2
:102F00004B815C81820F931FA41FB51FED81FE8151
:102F100086839783A087B18708C0AD81BE811A964A
:102F20008C911A978F7E1A968C9326960FB6F894EA
:102F3000DEBF0FBECDBFCF91DF911F910F91FF90EC
:102F4000EF90DF90CF90BF90AF909F908F907F9049
:102F50006F905F904F903F902F900895AC016E312D
:102F600098F570E08BE090E0689FF001699FF00DAC
:102F7000789FF00D1124E40FF51F82858F7021F1E9
:102F800082819381A481B5810097A105B10511F4D7
:102F900020E006C020E080819181892B09F021E0AA
:102FA0008BE090E0689FF001699FF00D789FF00D35
:102FB0001124E40FF51F2295207F82858F7E822BBE
:102FC0008287CF010E940F160895CF92DF92EF9271
:102FD000FF920F931F93CF93DF93EC01FC01E65B0D
:102FE000FE4F8081882309F05BC081E08083FE0171
:102FF000E55BFE4F10828F019BE0C92ED12C48C0AB
:1030000090E08C9DF0018D9DF00D9C9DF00D1124A4
:10301000EC0FFD1F828584FF37C00E941615F80152
:10302000A0812A2F30E02C9DF0012D9DF00D3C9DBC
:10303000F00D1124EC0FFD1F26813781408551854D
:103040006217730784079507F8F0E080F180928596
:1030500095FF12C0AE3198F4892F8F7081F0907E69
:103060009287118210821282138214821582168234
:1030700017821086118603C0CF010E940F16E1143B
:10308000F10411F0F7010995F80180818F5F8083C9
:10309000F80180818E3108F4B3CFC65BDE4F188211
:1030A000DF91CF911F910F91FF90EF90DF90CF9024
:1030B00008954F925F926F927F928F929F92AF92FC
:1030C000BF92CF92EF92FF920F931F93CF93DF9314
:1030D0002C014A015B013901E701C70102970397FF
:1030E00038F40E9416156050724E8F4D9140C0F119
:1030F00060E070E02BE030E0162F629FF001639FEC
:10310000F00D729FF00D1124E40DF51DDF011A96EC
:1031100082858F7001F57182608201700295000FC7
:10312000007E8C91807D9E012F70802B822B8C9352
:1031300082829382A482B582CC2021F0C2010E94B7
:10314000AE170FC06E3168F49C91892F8F7049F0D3
:103150009F7E9C9306C06F5F7F4F6E31710561F655
:103160001FEF812FDF91CF911F910F91FF90EF9073
:10317000CF90BF90AF909F908F907F906F905F9017
:103180004F9008952F923F924F925F926F927F924D
:103190008F929F92AF92BF92CF92DF92EF92FF9267
:1031A0000F931F93DF93CF9300D0CDB7DEB79A83F1
:1031B00089832A013901180161507040882777FD01
:1031C0008095982F20E831E541E050E00E94FD20F5
:1031D0005B016C01882477FC8094982CC401B301B6
:1031E0002CE330E040E050E00E94FD20A60EB71E28
:1031F000C81ED91EB201882777FD8095982F20E13F
:103200003EE040E050E00E94FD20A60EB71EC81E22
:10321000D91E442437FC4094542C2A0C3B1C4C1CD3
:103220005D1C89819A81B201A101970100E014E03F
:10323000E12EF12CCC24C3940E9459180F900F90CA
:10324000CF91DF911F910F91FF90EF90DF90CF9082
:10325000BF90AF909F908F907F906F905F904F90B6
:103260003F902F900895AF92BF92CF92DF92EF924E
:10327000FF920F931F93CF93DF93EC015A016B01E1
:103280000E94650C7B018C0103C0CE010E94E517F2
:103290000E94650C6E197F09800B910BA616B7066C
:1032A000C806D90690F7DF91CF911F910F91FF903B
:1032B000EF90DF90CF90BF90AF900895DC01E62FA4
:1032C000F0E0EE0FFF1FEE0FFF1FEA0FFB1F548F02
:1032D000438F81E0858FAA5ABF4FED91FC911197E2
:1032E000A655B040309719F05A968C9109950895DB
:1032F000AF92BF92CF92DF92EF92FF920F93DF9344
:10330000CF9300D0CDB7DEB75C0100E021E5C22E3F
:10331000D12CC80ED91E9EE4E92EF12CEA0CFB1C20
:1033200029C0802F90E09A838983D5012D913C910B
:10333000D701ED91FC91E80FF91FD9012D913C9136
:10334000C501608140E0F9010995F50120813181D5
:10335000D701ED91FC9189819A81E80FF91FD9017C
:1033600012962D913C911397C501608141E0F901BE
:1033700009950F5FF6018081081798F20F900F9062
:10338000CF91DF910F91FF90EF90DF90CF90BF90A2
:10339000AF9008950F931F93CF93DF93EC01162FF7
:1033A000042FE62FF0E0EE0FFF1FEE0FFF1FE80FD8
:1033B000F91F158E838D948D81309105E1F0823057
:1033C00091051CF4892B39F03FC08230910581F1C1
:1033D0000397D1F534C04130B9F5CE0141E050E05A
:1033E0000E945E190E94650CCE5BDF4F6883798373
:1033F0008A839B8329C00E94650CCE5BDF4F2881A6
:1034000039814A815B81621B730B840B950B629639
:1034100028813981C455D04040E050E02617370755
:103420004807590728F4CE01612F42E050E00AC056
:10343000002351F4CE01612F43E050E003C0CE01E0
:1034400040E050E00E945E19DF91CF911F910F91F3
:1034500008954F925F926F927F928F929F92AF9258
:10346000BF92CF92DF92EF92FF920F931F93CF9371
:10347000DF93EC012C01FC0120E0838D948D892BDE
:1034800011F4128E158E2F5F34962A30B1F7EE2488
:10349000A0E56A2E712C6C0E7D1EF1E58F2E912C0D
:1034A0008C0E9D1EEAE4AE2EB12CAC0EBD1E50C09B
:1034B0002F2D30E0D8018D919C910F2C02C0969554
:1034C00087950A94E2F7482F4170852F90E0FC0120
:1034D000CE9EC001CF9E900DDE9E900D1124D50191
:1034E000ED91FC91E20FF31FE80FF91F5081F201FB
:1034F00060E070E0828D851711F4CE0119C06F5F16
:103500007F4F34966A307105A9F731C0F20160E04F
:1035100070E0828D882379F4FB01EE0FFF1FEE0F20
:10352000FF1FEC0FFD1F528F148E138ECE0141E052
:103530000E94CA1906C06F5F7F4F34966A307105CA
:1035400041F7F394F4015081F51608F4B1CFE394F8
:10355000D3018C91E81670F4FF24CE2CDD24860173
:103560000D5F1F4F000F111F0C0F1D1FEBCF4423CA
:1035700069F6E7CFDF91CF911F910F91FF90EF9008
:10358000DF90CF90BF90AF909F908F907F906F9083
:103590005F904F9008953F924F925F926F927F920B
:1035A0008F929F92AF92BF92CF92DF92EF92FF9253
:1035B0000F931F93DF93CF93CDB7DEB728970FB646
:1035C000F894DEBF0FBECDBF98878F830E94650C35
:1035D0002F8138852A5B3F4FD9012D913D914D9127
:1035E0005C911397621B730B840B950B1C962D91AA
:1035F0003C911197A255B040B887AF8340E050E0AE
:10360000261737074807590710F033241AC1FF243B
:1036100030E5A32EB12CEF81F885AE0EBF1E2CE451
:10362000C22ED12CCE0EDF1E29C00F2D10E0AF818F
:10363000B8858D919C91D601ED91FC91E00FF11F21
:10364000DC012D913C918F819885608142E0F901E8
:103650000995EF81F88580819181D601ED91FC91EA
:10366000E00FF11FDC0112962D913C9113978F8191
:103670009885608141E0F9010995F394F501808115
:10368000F81698F23324EE242F8138852F5A3F4FB5
:103690003A8329839EE4A92EB12C4F815885A40E2C
:1036A000B51E405B5F4F5C834B838F819885845B45
:1036B0009F4F9E838D83AFC0CE2CDD24AF81B88514
:1036C0008D919C91D501ED91FC91EC0DFD1DDC01DE
:1036D0002D913C918F819885608141E0F901099598
:1036E000EF81F88580819181D501ED91FC91EC0D00
:1036F000FD1DDC0112962D913C9113978F819885C9
:10370000608140E0F901099581E090E0A0E0B0E03F
:103710000E2C04C0880F991FAA1FBB1F0A94D2F752
:103720004C012C014094509481E0682E712C0E2C99
:1037300002C0660C771C0A94E2F7FF243FC00F2DED
:1037400010E0AD81BE81ED91FC91E00FF11FD90138
:1037500014962D913C9115978F8198856081F90180
:103760000995F8013396892B59F4EE0FFF1F2F812D
:103770003885E20FF31F80819181882999290AC039
:10378000EE0FFF1F4F815885E40FF51F8081918157
:103790008421952191838083EF2DF0E03396EE0F05
:1037A000FF1F8F819885E80FF91F80819181862105
:1037B0009721892B11F033243394F394AB81BC818E
:1037C0008C91EF81F88520813181F81608F4B7CF0C
:1037D000D501ED91FC91EC0DFD1DD90112962D91B5
:1037E0003C9113978F819885608141E0F90109959B
:1037F000EF81F88580819181D501ED91FC91EC0DEF
:10380000FD1DDC012D913C918F819885608140E008
:10381000F9010995E394E981FA818081E81608F4B9
:103820004BCF8F8198850E94291A0E94650C2F81A9
:1038300038852A5B3F4FD9016D937D938D939C937F
:103840001397832D311081E028960FB6F894DEBFD0
:103850000FBECDBFCF91DF911F910F91FF90EF90E1
:10386000DF90CF90BF90AF909F908F907F906F90A0
:103870005F904F903F900895CF93DF93EC010E94AB
:10388000CB1A882349F08B8D9C8D019729F48D8D5F
:10389000882311F08A8D01C080E0DF91CF910895D7
:1038A0006F927F928F929F92AF92BF92CF92DF9250
:1038B000EF92FF920F931F93CF93DF93EC014B0195
:1038C0006A015901702E6E2C02960E94F81F8EE339
:1038D00092E0998388834AE1E42EF12CEC0EFD1EE0
:1038E00000E010E0C701800F911F0E94FE1F0C5FD7
:1038F0001F4F08321105B1F7C45BDF4FC992D9924F
:10390000A992B9927992688227979982888228969B
:103910008AE090E08993999384EF91E08993999359
:1039200019821882C655D040CE010E947819CA5B10
:10393000DF4F188219821A821B82DF91CF911F916B
:103940000F91FF90EF90DF90CF90BF90AF909F903E
:103950008F907F906F900895862F0E94AA200895DF
:10396000862F642F0E9456200895862F642F0E9470
:1039700017200895DC019091BB06933008F083C0B6
:103980006C93E92FF0E0E152FA4F849111968C93F9
:1039900011979F5F9093BB06813039F1823009F413
:1039A0004BC0882309F072C014BC15BC84B582607A
:1039B00084BD85B5816085BD8C91282F30E0F901EB
:1039C000E050FA4FE491F0E0EE0FFF1FE451FA4FA0
:1039D000859194919093AB068093AA062C5E394F03
:1039E000F90184918093AC060895109280001092A2
:1039F00081008091810088608093810080918100A6
:103A00008160809381008C91282F30E0F901E05093
:103A1000FA4FE491F0E0EE0FFF1FE451FA4F859169
:103A200094919093B2068093B1062C5E394FF901C0
:103A300084918093B30608951092B0001092B10063
:103A40008091B00082608093B0008091B10081606D
:103A50008093B1008C91282F30E0F901E050FA4FAB
:103A6000E491F0E0EE0FFF1FE451FA4F859194913D
:103A70009093B9068093B8062C5E394FF901849172
:103A80008093BA0608958FEF11968C9308951F9234
:103A90000F920FB60F9211248F939F93AF93BF9302
:103AA000EF93FF938091A6069091A706A091A80698
:103AB000B091A906E091AA06F091AB060097A10586
:103AC000B10531F180819091AC0689278083809186
:103AD000A6069091A706A091A806B091A90618166F
:103AE00019061A061B06FCF48091A6069091A706FB
:103AF000A091A806B091A9060197A109B1098093E8
:103B0000A6069093A706A093A806B093A9060BC09B
:103B100080916E008D7F80936E0090818091AC06C5
:103B2000809589238083FF91EF91BF91AF919F9101
:103B30008F910F900FBE0F901F9018951F920F92AC
:103B40000FB60F9211248F939F93AF93BF93EF9370
:103B5000FF938091AD069091AE06A091AF06B09113
:103B6000B006E091B106F091B2060097A105B1054B
:103B700031F180819091B306892780838091AD06D1
:103B80009091AE06A091AF06B091B0061816190636
:103B90001A061B06FCF48091AD069091AE06A0912A
:103BA000AF06B091B0060197A109B1098093AD06A7
:103BB0009093AE06A093AF06B093B0060BC0809171
:103BC0006F008D7F80936F0090818091B306809508
:103BD00089238083FF91EF91BF91AF919F918F9146
:103BE0000F900FBE0F901F9018951F920F920FB657
:103BF0000F9211242F933F934F935F938F939F9333
:103C0000EF93FF932091B4063091B5064091B6062C
:103C10005091B706E091B806F091B906211531052B
:103C20004105510579F080819091BA0689278083FA
:103C3000121613061406150684F421503040404035
:103C400050400BC0809170008D7F809370009081F8
:103C50008091BA068095892380832093B40630939F
:103C6000B5064093B6065093B706FF91EF919F912A
:103C70008F915F914F913F912F910F900FBE0F90B9
:103C80001F901895FC018181813051F0823071F0D4
:103C9000882389F480916E008D7F80936E000BC025
:103CA00080916F008D7F80936F0005C080917000C0
:103CB0008D7F80937000808160E00E94562008957F
:103CC0002F923F925F926F927F928F929F92AF92CC
:103CD000BF92CF92DF92EF92FF920F931F93DF93E9
:103CE000CF9300D000D0CDB7DEB78C011B01298364
:103CF0003A834B835C83DC0111968C91119787FD8D
:103D000061C18C9161E00E941720F801518055201B
:103D100021F0F2E05F1609F0C7C031018824992430
:103D200060E072E18AE790E0A40193010E946521BE
:103D300059016A01860175010894E108F108010939
:103D400011092FEFE216F1040105110509F008F43D
:103D50009BC060E472E48FE090E0A40193010E94B4
:103D6000652179018A010894E108F1080109110926
:103D700082E0581611F092E019C09FEFE916F104A5
:103D80000105110509F010F492E087C060E970EDBB
:103D900083E090E0A40193010E94652179018A01EA
:103DA0000894E108F1080109110993E0AFEFEA1660
:103DB000F1040105110509F008F467C068E478EE24
:103DC00081E090E0A40193010E94652179018A01BC
:103DD0000894E108F10801091109552011F493E054
:103DE0001EC0B2E05B1611F094E019C0EFEFEE16C2
:103DF000F1040105110509F010F494E04EC064E2ED
:103E000074EF80E090E0A40193010E9465217901A4
:103E10008A010894E108F1080109110995E0FFEF12
:103E2000EF16F1040105110581F178F162E17AE7FD
:103E300080E090E0A40193010E94652179018A014C
:103E40000894E108F10801091109552011F096E0E4
:103E500001C094E02FEFE216F10401051105A9F06D
:103E6000A0F0C601B50120E034E040E050E00E943F
:103E7000652179018A010894E108F1080109110915
:103E8000552051F495E003C091E0552031F485B5FB
:103E9000887F982B95BD3EC097E08091B100887FC8
:103EA000982B9093B10036C05101CC24DD2460E002
:103EB00072E18AE790E0A60195010E9465217901EF
:103EC0008A010894E108F1080109110980E0E81667
:103ED00080E0F80681E0080780E0180710F491E020
:103EE00010C068E478EE81E090E0A60195010E94A0
:103EF000652179018A010894E108F1080109110995
:103F000093E0A1E05A1631F480918100887F982BCC
:103F10009093810089819A81AB81BC810097A10532
:103F2000B10529F48FEF9FEFAFEFBFEF13C0220C65
:103F3000331CB10180E090E029813A814B815C81A2
:103F40000E94FD2028EE33E040E050E00E94432133
:103F5000C901DA01E1E05E16A1F0F2E05F1619F1A5
:103F6000552081F5E7BC8093A6069093A706A09301
:103F7000A806B093A90680916E00826080936E00BF
:103F800021C0F0928900E09288008093AD06909362
:103F9000AE06A093AF06B093B00680916F0082602A
:103FA00080936F000FC0E092B3008093B4069093AB
:103FB000B506A093B606B093B706809170008260F4
:103FC000809370000F900F900F900F90CF91DF9122
:103FD0001F910F91FF90EF90DF90CF90BF90AF9027
:103FE0009F908F907F906F905F903F902F9008955B
:103FF000FC0110821282118213820895FC0110824A
:104000001282118213820895F999FECF72BD61BDAB
:10401000F89A80B50895F999FECF1FBA72BD61BDB7
:1040200040BD0FB6F894FA9AF99A0FBE0895CF934F
:10403000DF93482F50E0CA018C5E994FFC01349108
:1040400040505A4FFA018491882369F190E0880F1B
:10405000991FFC01EE51FA4FA591B491FC01E45176
:10406000FA4FC591D491662351F42FB7F8948C91EF
:10407000932F909589238C93888189230BC062307C
:1040800061F42FB7F8948C91932F909589238C939A
:104090008881832B88832FBF06C09FB7F8948C91AB
:1040A000832B8C939FBFDF91CF910895482F50E0D1
:1040B000CA01885D994FFC012491CA018C5E994F19
:1040C000FC01949140505A4FFA013491332309F482
:1040D00040C0222351F1233071F0243028F42130E4
:1040E000A1F0223011F514C02630B1F02730C1F014
:1040F0002430D9F404C0809180008F7703C0809170
:1041000080008F7D8093800010C084B58F7702C0BF
:1041100084B58F7D84BD09C08091B0008F7703C0C6
:104120008091B0008F7D8093B000E32FF0E0EE0F20
:10413000FF1FE451FA4FA591B4912FB7F89466236D
:1041400021F48C919095892302C08C91892B8C93BA
:104150002FBF0895682F70E0CB01885D994FFC0157
:104160002491CB018C5E994FFC01449160507A4FB1
:10417000FB019491992319F420E030E03CC0222304
:1041800051F1233071F0243028F42130A1F0223095
:1041900011F514C02630B1F02730C1F02430D9F425
:1041A00004C0809180008F7703C0809180008F7D54
:1041B0008093800010C084B58F7702C084B58F7D56
:1041C00084BD09C08091B0008F7703C08091B0009A
:1041D0008F7D8093B000892F90E0880F991F8A50BF
:1041E0009A4FFC01A591B4918C9120E030E084239A
:1041F00011F021E030E0C9010895629FD001739F62
:10420000F001829FE00DF11D649FE00DF11D929F72
:10421000F00D839FF00D749FF00D659FF00D9927B1
:10422000729FB00DE11DF91F639FB00DE11DF91FD5
:10423000BD01CF0111240895AA1BBB1B51E107C08A
:10424000AA1FBB1FA617B70710F0A61BB70B881F26
:10425000991F5A95A9F780959095BC01CD010895B5
:1042600097FB092E07260AD077FD04D0E5DF06D09C
:1042700000201AF4709561957F4F0895F6F7909598
:1042800081959F4F0895A1E21A2EAA1BBB1BFD0129
:104290000DC0AA1FBB1FEE1FFF1FA217B307E40725
:1042A000F50720F0A21BB30BE40BF50B661F771F7D
:1042B000881F991F1A9469F760957095809590955D
:1042C0009B01AC01BD01CF01089597FB092E052686
:1042D0000ED057FD04D0D7DF0AD0001C38F450951B
:1042E0004095309521953F4F4F4F5F4F0895F6F71A
:1042F00090958095709561957F4F8F4F9F4F089552
:10430000EE0FFF1F0590F491E02D0994F894FFCF74
:104310004A616E00466562004D6172004170720034
:104320004D6179004A756E004A756C0041756700F1
:10433000536570004F6374004E6F760044656300F0
:1043400031003200330034003500360037003800C9
:10435000390030002F003A0072656164696E672091
:10436000454550524F4D005265616420737563633B
:1043700065737300486F75723A20004D696E7574ED
:10438000653A20004461793A20004D6F6E74683AB6
:104390002000596561723A200052656164206661AF
:1043A000696C656400000006011501260137014AA9
:1043B000015D01720188019F01B801D201EE010B7C
:1043C000022A024B026E029302BA02E40210033F79
:1043D000037003A403DC03170455049704DD0427CA
:1043E000057505C80520067D06E0064907B8072DB6
:1043F00008A9082D09B9094D0AEA0A900B400CFAE0
:104400000CC00D910E6F0F313233343536373839D9
:104410002A302303020E000605042C0100000000D0
:1044200000008C0E220F220E530E330E7C0E000065
:1044300000008611220F00004000140054001F1CD1
:104440001F1E1F1E1F1F1E1F1E1F00000000B51C69
:04445000B01CAC1CD4
:00000001FF
