:100000000C9421030C9449030C9449030C94490368
:100010000C9449030C9449030C9449030C94531F0A
:100020000C9449030C9449030C9449030C94FC1E52
:100030000C9449030C9449030C94A51E0C94490399
:100040000C94820C0C9449030C945D0E0C94AB0E32
:100050000C9449030C9449030C9449030C944903F0
:100060000C9449030C9449034A656F70617264797A
:100070003A643D342C6F3D362C623D3132353A6363
:100080002C662C632C66352C632C662C32632C6317
:100090002C662C632C662C612E2C38672C38662C31
:1000A00038652C38642C3863232C632C662C632C25
:1000B00066352C632C662C32632C662E2C38642C0F
:1000C000632C6123352C61352C67352C66352C70FB
:1000D0002C64232C67232C64232C6723352C642366
:1000E0002C67232C3264232C64232C67232C642359
:1000F0002C67232C632E372C3861232C3867232C54
:1001000038672C38662C38652C64232C67232C64C4
:10011000232C6723352C64232C67232C3264232C57
:1001200067232E2C38662C64232C63232C632C70BD
:100130002C6123352C702C67232E352C64232C67DF
:100140002300456E7465727461696E65723A643D30
:10015000342C6F3D352C623D3134303A38642C38C4
:1001600064232C38652C63362C38652C63362C3888
:10017000652C32632E362C3863362C3864362C3896
:100180006423362C3865362C3863362C3864362C8C
:1001900065362C38622C64362C3263362C702C3841
:1001A000642C3864232C38652C63362C38652C631A
:1001B000362C38652C32632E362C38702C38612C56
:1001C00038672C3866232C38612C3863362C65361A
:1001D0002C3864362C3863362C38612C3264360067
:1001E000496E6469616E613A643D342C6F3D352C13
:1001F000623D3235303A652C38702C38662C3867C1
:100200002C38702C3163362C38702E2C642C3870BE
:100210002C38652C31662C702E2C672C38702C38BD
:10022000612C38622C38702C3166362C702C612C85
:1002300038702C38622C3263362C3264362C32659E
:10024000362C652C38702C38662C38672C38702C7E
:100250003163362C702C64362C38702C3865362C73
:1002600031662E362C672C38702C38672C652E366C
:100270002C38702C64362C38702C38672C652E3650
:100280002C38702C64362C38702C38672C662E363F
:100290002C38702C65362C38702C3864362C326330
:1002A0003600412D5465616D3A643D382C6F3D3503
:1002B0002C623D3132353A346423362C61232C32A2
:1002C0006423362C3136702C67232C3461232C3474
:1002D00064232E2C702C3136672C313661232C642C
:1002E00023362C61232C66362C326423362C31368F
:1002F000702C63232E362C313663362C3136612335
:100300002C67232E2C32612300466C696E73746F48
:100310006E65733A643D342C6F3D352C623D34304C
:100320003A3332702C313666362C313661232C311B
:10033000366123362C333267362C313666362C3113
:100340003661232E2C313666362C33326423362C1C
:10035000333264362C333264362C33326423362CF9
:10036000333266362C313661232C313663362C64B9
:10037000362C313666362C313661232E2C313661DF
:1003800023362C333267362C313666362C313661C3
:10039000232E2C333266362C333266362C333264BD
:1003A00023362C333264362C333264362C333264A9
:1003B00023362C333266362C313661232C313663AA
:1003C000362C61232C313661362C3136642E362C96
:1003D00031366123362C333261362C333261362C80
:1003E000333267362C33326623362C333261362C67
:1003F0003867362C313667362C3136632E362C333F
:100400003261362C333261362C333267362C33323C
:1004100067362C333266362C333265362C333267EE
:10042000362C3866362C313666362C313661232E22
:100430002C31366123362C333267362C3136663612
:100440002C313661232E2C313666362C3332642320
:10045000362C333264362C333264362C33326423F8
:10046000362C333266362C313661232C3136632EEE
:10047000362C333264362C33326423362C333266D6
:10048000362C313661232C3136632E362C333264D0
:10049000362C33326423362C333266362C313661B7
:1004A00023362C313663372C3861232E3600680012
:1004B0004201E001A2020903536F7272792C207489
:1004C000727920616761696E210054696D652075DC
:1004D000706C6F61646564210054696D652075708E
:1004E0006C6F616465642100696E76616C6964207B
:1004F000696E707574004D696E7574653F203020AB
:10050000746F20353900696E76616C696420696E9C
:1005100070757400486F75723F203020746F203200
:100520003300696E76616C696420696E7075740061
:100530004461793F203120746F20333100696E7639
:10054000616C696420696E707574004D6F6E7468BB
:100550003F203120746F20313200596561723F2095
:100560003020746F203939004564697420746865DF
:1005700020636C6F636B00666C696E7473746F6E6E
:10058000657300776173207472696767657265646B
:1005900000617465616D00776173207472696767CB
:1005A0006572656400696E6469616E6E6100776191
:1005B000732074726967676572656400656E74653F
:1005C000727461696E657200776173207472696715
:1005D0006765726564006A656F70617264790000B6
:1005E000000000240027002A000000000025002849
:1005F000002B000000000023002600290004040452
:1006000004040404040202020202020303030303BB
:100610000301020408102040800102040810200198
:10062000020408102000000007000201000003047B
:10063000060000000000000000020100A8031710DF
:10064000551711241FBECFEFD8E0DEBFCDBF12E09B
:10065000A0E0B1E0EAEDF3E402C005900D92A4340D
:10066000B107D9F716E0A4E4B2E001C01D92A83C9E
:10067000B107E1F716E0C2E4D6E004C02297FE011C
:100680000E94E721CC33D107C9F70E940C120C94C9
:100690004B030C940000F8940C94EB21FB01DC015B
:1006A00005900D920020E1F7089586309105D1F173
:1006B000873091059CF48330910559F18430910580
:1006C0003CF481309105F9F0029709F03FC01EC05B
:1006D0008430910509F10597C9F521C0893091054C
:1006E00051F18A30910534F487309105F1F0089783
:1006F00069F51EC08B30910521F18B309105F4F026
:100700000C9721F521C020E031E020C024E031E049
:100710001DC028E031E01AC02CE031E017C020E114
:1007200031E014C024E131E011C028E131E00EC015
:100730002CE131E00BC020E231E008C024E231E0DE
:1007400005C028E231E002C02CE231E0C901089581
:10075000CF92EF920F9388E692E06CE04BE02AE0B4
:1007600009E0A8E0EA2EF7E0CF2E0E94D2138DE731
:1007700092E067EF71E043E052E027E032E004E00E
:10078000E3E0EE2E0E949B1D0F91EF90CF90089515
:100790000F931F930DE115E0C801609144024AE0F8
:1007A00050E00E948511C801609145024AE050E086
:1007B0000E948511C801609146024AE050E00E9403
:1007C0008511C801609147024AE050E00E948511FE
:1007D000C801609148024AE050E00E948511C801BA
:1007E000609149024AE050E00E948511C801609181
:1007F0004A024AE050E00E948511C80160914B0214
:100800004AE050E00E948511C80160914C024AE024
:1008100050E00E948511C80160914D024AE050E00D
:100820000E948511C80160914E024AE050E00E948A
:100830008511C80160914F024AE050E00E94851185
:10084000C801609150024AE050E00E948511C80141
:10085000609151024AE050E00E948511C801609108
:1008600052024AE050E00E948511C8016091530293
:100870004AE050E00E948511C801609154024AE0AC
:1008800050E00E948511C801609155024AE050E095
:100890000E948511C801609156024AE050E00E9412
:1008A0008511C801609157024AE050E00E9485110D
:1008B000C801609158024AE050E00E948511C801C9
:1008C000609159024AE050E00E948511C801609190
:1008D0005A024AE050E00E948511C80160915B0213
:1008E0004AE050E00E948511C80160915C024AE034
:1008F00050E00E9485111F910F9108951F938DE77D
:1009000092E00E94871D182F8823C9F388E692E0A1
:1009100060E041E00E94E5121433C1F1153374F434
:100920001133E1F0123324F4103309F069C060C0D0
:100930001233E1F0133309F063C020C01733F1F133
:10094000183334F4153351F1163309F059C02EC061
:100950001833E1F1193309F053C040C088E692E042
:1009600060E371E00E94F61181E03FC088E692E00A
:1009700062E371E00E94F61182E037C088E692E0FF
:1009800064E371E00E94F61183E02FC088E692E0F4
:1009900066E371E00E94F61184E027C088E692E0E9
:1009A00068E371E00E94F61185E01FC088E692E0DE
:1009B0006AE371E00E94F61186E017C088E692E0D3
:1009C0006CE371E00E94F61187E00FC088E692E0C8
:1009D0006EE371E00E94F61188E007C088E692E0BD
:1009E00060E471E00E94F61189E08093650208C01E
:1009F00088E692E062E471E00E94F61110926502CE
:100A00008DE792E00E94871D182F8823C9F388E69E
:100A100092E061E041E00E94E512143309F445C020
:100A200015338CF4113309F112333CF4133209F409
:100A300075C0103309F075C068C01233F1F013337C
:100A400009F06FC02AC0173309F447C0183334F4D3
:100A5000153399F1163309F064C037C0183309F41F
:100A600044C0193309F05DC048C088E692E060E3F5
:100A700071E00E94F61181E007C088E692E062E32F
:100A800071E00E94F61182E08093660268EE73E0E6
:100A900080E090E00E94D80C44C088E692E064E3D5
:100AA00071E00E94F61183E0EFCF88E692E066E302
:100AB00071E00E94F61184E0E7CF88E692E068E3F7
:100AC00071E00E94F61185E0DFCF88E692E06AE3EC
:100AD00071E00E94F61186E0D7CF88E692E06CE3E1
:100AE00071E00E94F61187E0CFCF88E692E06EE3D6
:100AF00071E00E94F61188E0C7CF88E692E060E4DA
:100B000071E00E94F61189E0BFCF88E692E062E4CE
:100B100071E00E94F61110926602B8CF84E68093CD
:100B200066022091660290916502243619F4909332
:100B3000640207C08AE0989FC0011124280F209307
:100B40006402809164021F910895EF92FF920F93C7
:100B50001F931092670288E692E00E94141388E6C1
:100B600092E060E040E00E94E51288E692E06AE5EB
:100B700075E00E9497100E947E048093630288E6CD
:100B800092E00E94141388E692E060E040E00E9448
:100B9000E51288E692E06BE475E00E9497100E94EF
:100BA0007E04809362028D30A8F088E692E060E0D7
:100BB00041E00E94E51288E692E06DE375E00E9454
:100BC000971068EE73E080E090E00E94D80C81E01E
:100BD0008093670288E692E00E94141388E692E010
:100BE00060E040E00E94E51288E692E060E375E094
:100BF0000E9497100E947E04809361028032A8F0C8
:100C000088E692E060E041E00E94E51288E692E02A
:100C100062E275E00E94971068EE73E080E090E079
:100C20000E94D80C81E08093670288E692E00E94DF
:100C3000141388E692E060E040E00E94E51288E646
:100C400092E064E175E00E9497100E947E04809318
:100C50005F028831A8F088E692E060E041E00E94FF
:100C6000E51288E692E066E075E00E94971068EE73
:100C700073E080E090E00E94D80C81E080936702EE
:100C800088E692E00E94141388E692E060E040E07B
:100C90000E94E51288E692E066EF74E00E949710E9
:100CA0000E947E04809360028C33A8F088E692E074
:100CB00060E041E00E94E51288E692E068EE74E0B0
:100CC0000E94971068EE73E080E090E00E94D80CDC
:100CD00081E08093670280916702882309F0ADC0AC
:100CE0008DE195E060915F024AE050E00E9485113D
:100CF0008DE195E0609160024AE050E00E9485112C
:100D00008DE195E0609161024AE050E00E9485111A
:100D10008DE195E0609162024AE050E00E94851109
:100D20008DE195E0609163024AE050E00E948511F8
:100D30001092830481EB96E060E070E044E60E944C
:100D40000C1E609183046F5F6093830481EB96E0D7
:100D500070E0409163020E940C1E609183046F5FFB
:100D60006093830481EB96E070E0409162020E9400
:100D70000C1E609183046F5F6093830481EB96E0A7
:100D800070E0409161020E940C1E609183046F5FCD
:100D90006093830481EB96E070E040915F020E94D3
:100DA0000C1E609183046F5F6093830481EB96E077
:100DB00070E0409160020E940C1E88E692E00E9462
:100DC000141388E692E060E040E00E94E51288E6B5
:100DD00092E069ED74E00E94971060ED77E080E0AA
:100DE00090E00E94D80C0C94000060916002209169
:100DF000610200916202E090630280915F0290E0E4
:100E000070E040E050E030E010E0FF240E94401627
:100E100068EE73E080E090E00E94D80C88E692E0F3
:100E20000E94141388E692E060E040E00E94E51220
:100E300088E692E06AEC74E00EC088E692E00E94D8
:100E4000141388E692E060E040E00E94E51288E634
:100E500092E068EB74E00E94971060ED77E080E02C
:100E600090E00E94D80C88E692E00E9414131F9133
:100E70000F91FF90EF9008958DE792E00E94871DFB
:100E80008823D1F08332C1F488E692E060E041E04B
:100E90000E94E51288E692E068E675E00E949710ED
:100EA00060ED77E080E090E00E94D80C88E692E068
:100EB0000E9414130E94A5050895CF93DF9380E14B
:100EC00061E00E94B50DC0E0D0E08AE595E048EE13
:100ED00053E060E070E00E947E1A2196CC33D10589
:100EE000A1F780E160E00E94B50DDF91CF910895F8
:100EF000EF92FF920F931F9308E612E0C80160E0A3
:100F000041E00E94E5120E94E116BC01C8014AE0DE
:100F100050E00E94E311B4E4EB2EB1E0FB2EC801D7
:100F2000B7010E94F6110E94D9160E945503BC0118
:100F3000C8010E94F611C801B7010E94F6110E9473
:100F4000D416BC01C8014AE050E00E94E3111F9191
:100F50000F91FF90EF900895CF93DF93EC0188E617
:100F600092E066E471E00E94F611CA30D1052CF4DB
:100F700088E692E060E30E94BA1088E692E0BE0143
:100F80004AE050E00E94E311DF91CF9108950F9362
:100F90001F9308E612E0C80160E040E00E94E512FD
:100FA0000E94F916BC01C8014AE050E00E94E3111A
:100FB0000E94F1160E94AC070E94E9160E94AC073D
:100FC0000E9478071F910F9108950E94C7078AE534
:100FD00095E048EE53E060E070E00E947E1A0E94C7
:100FE0003C0708954F925F926F927F928F929F92EB
:100FF000AF92BF92CF92DF92EF92FF920F931F9327
:10100000CF93DF9301C0CF01FC0181918A33D9F7DF
:10101000EF018081843611F014E024C0329620E084
:1010200030E013C0C901B3E0880F991FBA95E1F70A
:10103000220F331F820F931F242F332727FD309554
:1010400020533040280F391F31964081842F805320
:101050008A3040F31216130614F014E001C0122F68
:10106000EF01219688818F3619F076E0C72E15C0E2
:10107000FE013196AF014F5F5F4F8181992787FD58
:1010800090959C0120533040C397059718F066E077
:10109000C62E01C0C22EEA0122968881823619F03E
:1010A0008FE390E020C0CE01029620E030E013C034
:1010B000C90153E0880F991F5A95E1F7220F331F9A
:1010C000820F931F242F332727FD30952053304064
:1010D000280F391FCF01FC014191842F80538A30A2
:1010E00038F3EF01C9019C01442737FD4095542F87
:1010F00060E67AEE80E090E00E94CA2149015A0140
:10110000B2E0880C991CAA1CBB1CBA95D1F7412EE1
:10111000552466247724A7C0CB01A3E0880F991F2C
:10112000AA95E1F7660F771F860F971F6D2D77271A
:1011300067FD709560537040680F791F2196D880C5
:101140008D2D80538A3040F36115710541F09B016C
:10115000442737FD4095542FC501B40104C0C50193
:10116000B401A30192010E94CA21C901DA017C01E4
:101170008D0184E6D816A1F08D154CF082E6D816C4
:1011800009F18D1584F081E6D816F9F418C086E6C9
:10119000D81679F0D81654F087E6D816B1F40CC0FA
:1011A000E3E0DE2E13C0DD24D39410C075E0D72E0B
:1011B0000DC066E0D62E0AC058E0D52E07C04AE022
:1011C000D42E04C03CE0D32E01C0DD2421968881BA
:1011D000833211F4D394219688818E3279F4C80138
:1011E000B70122E030E040E050E00E94CA21C9018E
:1011F000DA01E80EF91E0A1F1B1F219698819053F1
:101200009A3010F09C2D01C0219688818C3209F40F
:101210002196DD2021F1892F90E0FC01EE0FFF1FC8
:10122000E80FF91FEE0FFF1FEE0FFF1FED0DF11D71
:10123000EE0FFF1FEB5CFE4F608171818DE592E048
:1012400020E030E040E050E00E94BE1FC801B7013E
:101250000E94D80C8DE592E00E94A01F04C0C80136
:10126000B7010E94D80C8881882319F060E070E0F3
:1012700066CFDF91CF911F910F91FF90EF90DF909C
:10128000CF90BF90AF909F908F907F906F905F9026
:101290004F900895EF92FF920F931F938AE595E088
:1012A0000E944717682F1DE1E12E15E0F12EC701BE
:1012B0004AE050E00E948511C70163E875E00E9492
:1012C000E210E6EBF4E06591749105ED12E0C801DF
:1012D0000E944E03C70167E775E00E94E210C70154
:1012E000B8010E94F911C8010E94F2071F910F91E5
:1012F000FF90EF900895EF92FF920F931F938AE56E
:1013000095E00E944717682F0DE1E02E05E0F02ED2
:10131000C7014AE050E00E948511C70167E975E006
:101320000E94E210E4EBF4E06591749105ED12E0A7
:10133000C8010E944E03C70161E975E00E94E210F6
:10134000C701B8010E94F911C8010E94F2071F915C
:101350000F91FF90EF900895EF92FF920F931F93DC
:101360008AE595E00E944717682F8DE1E82E85E019
:10137000F82EC7014AE050E00E948511C7016EEACD
:1013800075E00E94E210E2EBF4E06591749105EDE6
:1013900012E0C8010E944E03C70165EA75E00E9491
:1013A000E210C701B8010E94F911C8010E94F207BA
:1013B0001F910F91FF90EF900895EF92FF920F937E
:1013C0001F938AE595E00E944717682F9DE1E92E5B
:1013D00095E0F92EC7014AE050E00E948511C7014F
:1013E00068EC75E00E94E210E0EBF4E06591749126
:1013F00005ED12E0C8010E944E03C7016CEB75E0D9
:101400000E94E210C701B8010E94F911C8010E94B0
:10141000F2071F910F91FF90EF900895EF92FF92C6
:101420000F931F938AE595E00E944717EEEAF4E0D8
:101430006591749125EDE22E22E0F22EC7010E9403
:101440004E030DE115E0C80166ED75E00E94E21063
:10145000C801B7010E94F911C7010E94F2071F914C
:101460000F91FF90EF900895CF93DF938DE195E07A
:1014700068E471E00E94F911C5E8D4E0609183044A
:1014800081EB96E070E00E94051E682F8093840433
:101490008DE195E04AE050E00E948511809184043E
:1014A0008993809183048F5F8093830484E0CB3899
:1014B000D80721F790E080918504843609F491E003
:1014C000892FDF91CF910895AF92BF92CF92DF9293
:1014D000EF92FF920F931F93FAE5CF2EF5E0DF2EE8
:1014E000EDE5AE2EE7E0BE2EC60162E070E047E01B
:1014F00050E02AE030E00AE010E075010E940D1A89
:1015000080934402C60163E070E047E050E02AE0C7
:1015100030E00E940D1A80934502C60164E070E03D
:1015200047E050E02AE030E00E940D1A8093460226
:10153000C60165E070E047E050E02AE030E00E943C
:101540000D1A80934702C60166E070E047E050E064
:101550002AE030E00E940D1A809348027EE0A72E18
:101560007AE0B72EC60162E070E047E050E02FE07D
:1015700030E075010E940D1A80934402C60163E0B9
:1015800070E047E050E02FE030E00E940D1A8093B9
:101590004502C60164E070E047E050E02FE030E033
:1015A0000E940D1A80934602C60165E070E047E094
:1015B00050E02FE030E00E940D1A80934702C601F0
:1015C00066E070E047E050E02FE030E00E940D1A46
:1015D000809348026DEDA62E69E0B62EC60162E04A
:1015E00070E048E050E020E030E075010E940D1A04
:1015F00080934902C60163E070E048E050E020E0DB
:1016000030E00E940D1A80934A02C60164E070E047
:1016100048E050E020E030E00E940D1A80934B0239
:10162000C60165E070E048E050E020E030E00E9454
:101630000D1A80934C02C60166E070E048E050E06D
:1016400020E030E00E940D1A80934D025CEAA52E46
:1016500059E0B52EC60162E070E04AE050E028E2B1
:1016600030E075010E940D1A80934E02C60163E0BE
:1016700070E04AE050E028E230E00E940D1A8093CA
:101680004F02C60164E070E04AE050E028E230E03A
:101690000E940D1A80935002C60165E070E04AE096
:1016A00050E028E230E00E940D1A80935102C601FA
:1016B00066E070E04AE050E028E230E00E940D1A57
:1016C000809352024BE7A42E49E0B42EC60162E09B
:1016D00070E04BE050E024E130E075010E940D1A0B
:1016E00080935302C60163E070E04BE050E024E1D8
:1016F00030E00E940D1A80935402C60164E070E04D
:101700004BE050E024E130E00E940D1A8093550236
:10171000C60165E070E04BE050E024E130E00E945B
:101720000D1A80935602C60166E070E04BE050E06F
:1017300024E130E00E940D1A809357023AE4A32E70
:1017400039E0B32EC60162E070E04EE050E02EE1D9
:1017500030E075010E940D1A80935802C60163E0C3
:1017600070E04EE050E02EE130E00E940D1A8093D0
:101770005902C60164E070E04EE050E02EE130E036
:101780000E940D1A80935A02C60165E070E04EE097
:1017900050E02EE130E00E940D1A80935B02C601FA
:1017A00066E070E04EE050E02EE130E00E940D1A5D
:1017B00080935C021F910F91FF90EF90DF90CF908C
:1017C000BF90AF900895EF92FF920F931F938DE11A
:1017D00095E040E855E260E070E00E94E60E8DE59D
:1017E00092E06DE00E94181E88E692E060E142E01F
:1017F00020E00E941C1380E161E00E94760D0E94AF
:10180000340A80938B04882309F45EC08DE195E04F
:1018100067E571E00E94F9118DE195E064E671E001
:101820000E94F6118DE195E0609189044AE050E054
:101830000E9485118DE195E06BE671E00E94F61142
:101840008DE195E060918A044AE050E00E948511A4
:101850008DE195E064E771E00E94F6118DE195E07D
:10186000609188044AE050E00E9485118DE195E086
:101870006AE771E00E94F6118DE195E060918704BE
:101880004AE050E00E9485118DE195E062E871E048
:101890000E94F6118DE195E0609186044AE050E0E7
:1018A0000E94851160918A04209188040091870428
:1018B000E09086048091890490E070E040E050E080
:1018C00030E010E0FF2413C08DE195E069E871E09D
:1018D0000E94F9118AE090E068E270E045E050E093
:1018E00023E030E001E010E0ABE0EA2EF12C0E94B2
:1018F00040160E94640A0E94C8031F910F91FF9036
:10190000EF9008951F920F920FB60F9211242F930C
:101910003F938F939F93AF93BF9380919004909147
:101920009104A0919204B091930430919404019693
:10193000A11DB11D232F2D5F2D3720F02D570196AE
:10194000A11DB11D20939404809390049093910461
:10195000A0939204B093930480918C0490918D0491
:10196000A0918E04B0918F040196A11DB11D8093AA
:101970008C0490938D04A0938E04B0938F04BF9138
:10198000AF919F918F913F912F910F900FBE0F902C
:101990001F9018958FB7F89420919004309191047E
:1019A00040919204509193048FBFB901CA010895E8
:1019B0009B01AC017FB7F89480918C0490918D04C9
:1019C000A0918E04B0918F0466B5A89B05C06F3FAF
:1019D00019F00196A11DB11D7FBFBA2FA92F982F15
:1019E0008827860F911DA11DB11D62E0880F991FE8
:1019F000AA1FBB1F6A95D1F7BC012DC0FFB7F89491
:101A000080918C0490918D04A0918E04B0918F04EC
:101A1000E6B5A89B05C0EF3F19F00196A11DB11DC9
:101A2000FFBFBA2FA92F982F88278E0F911DA11DB8
:101A3000B11DE2E0880F991FAA1FBB1FEA95D1F7DD
:101A4000861B970B885E9340C8F22150304040407F
:101A5000504068517C4F211531054105510571F603
:101A60000895019739F0880F991F880F991F0297E1
:101A70000197F1F70895789484B5826084BD84B5A8
:101A8000816084BD85B5826085BD85B5816085BD79
:101A9000EEE6F0E0808181608083E1E8F0E0108292
:101AA000808182608083808181608083E0E8F0E0D3
:101AB000808181608083E1EBF0E0808184608083BD
:101AC000E0EBF0E0808181608083EAE7F0E08081F4
:101AD0008460808380818260808380818160808354
:101AE0008081806880831092C1000895CF93DF9336
:101AF000482F50E0CA018F5E994FFC01349143504A
:101B00005A4FFA018491882369F190E0880F991F58
:101B1000FC01E152FA4FA591B491FC01E751FA4F53
:101B2000C591D491662351F42FB7F8948C91932FDB
:101B3000909589238C93888189230BC0623061F44E
:101B40002FB7F8948C91932F909589238C9388814B
:101B5000832B88832FBF06C09FB7F8948C91832B6B
:101B60008C939FBFDF91CF910895482F50E0CA0119
:101B70008B5D994FFC012491CA018F5E994FFC0146
:101B8000949143505A4FFA013491332309F440C0E1
:101B9000222351F1233071F0243028F42130A1F0B8
:101BA000223011F514C02630B1F02730C1F02430B6
:101BB000D9F404C0809180008F7703C080918000A9
:101BC0008F7D8093800010C084B58F7702C084B56C
:101BD0008F7D84BD09C08091B0008F7703C0809154
:101BE000B0008F7D8093B000E32FF0E0EE0FFF1F79
:101BF000E751FA4FA591B4912FB7F894662321F4D9
:101C00008C919095892302C08C91892B8C932FBF46
:101C10000895682F70E0CB018B5D994FFC012491F2
:101C2000CB018F5E994FFC01449163507A4FFB01C9
:101C30009491992319F420E030E03CC0222351F123
:101C4000233071F0243028F42130A1F0223011F536
:101C500014C02630B1F02730C1F02430D9F404C0CC
:101C6000809180008F7703C0809180008F7D80936A
:101C7000800010C084B58F7702C084B58F7D84BD8D
:101C800009C08091B0008F7703C08091B0008F7D34
:101C90008093B000892F90E0880F991F8D509A4F44
:101CA000FC01A591B4918C9120E030E0842311F0E7
:101CB00021E030E0C901089508951F920F920FB6F8
:101CC0000F9211242F933F934F938F939F93EF93F2
:101CD000FF938091C00082FD1DC04091C6002091FD
:101CE000D5043091D6042F5F3F4F2F733070809111
:101CF000D7049091D8042817390771F0E091D504E2
:101D0000F091D604EB56FB4F40833093D6042093DA
:101D1000D50402C08091C600FF91EF919F918F91F1
:101D20004F913F912F910F900FBE0F901F901895DC
:101D3000E0912905F0912A05E05CFF4F8191919196
:101D400020813181821B930B8F739070892B11F04E
:101D50000E945C0E08951F920F920FB60F921124ED
:101D60002F933F938F939F93EF93FF9320911905A8
:101D700030911A0580911B0590911C052817390791
:101D800031F48091C1008F7D8093C10014C0E09137
:101D90001B05F0911C05E752FB4F208180911B052C
:101DA00090911C0501968F73907090931C05809301
:101DB0001B052093C600FF91EF919F918F913F915A
:101DC0002F910F900FBE0F901F901895AF92BF925A
:101DD000DF92EF92FF920F931F93CF93DF93EC016B
:101DE0007A018B01DD24403081EE580780E06807DE
:101DF00080E0780711F0DD24D39491E0A92EB12C76
:101E0000EC89FD89DD2069F0C50108A002C0880FBA
:101E1000991F0A94E2F7808360E079E08DE390E017
:101E200005C0108260E874E88EE190E0A801970197
:101E30000E94A8212150304040405040569547957F
:101E40003795279580E12030380720F0DD2011F00C
:101E5000DD24D6CFE889F9893083EA89FB8920839C
:101E600019A2EE89FF89408121E030E0C9010C8C84
:101E700002C0880F991F0A94E2F7482B4083EE892D
:101E8000FF894081C9010D8C02C0880F991F0A94F7
:101E9000E2F7482B4083EE89FF894081C9010E8C0F
:101EA00002C0880F991F0A94E2F7482B4083EE89FD
:101EB000FF8980810F8C02C0220F331F0A94E2F742
:101EC000209528232083DF91CF911F910F91FF90C0
:101ED000EF90DF90BF90AF900895DC011C96ED91DC
:101EE000FC911D97E05CFF4F2191319180819181A0
:101EF000281B390B2F733070C9010895DC011C9623
:101F0000ED91FC911D97E05CFF4F20813181E05401
:101F1000F040DF01AE5BBF4F8D919C911197281768
:101F2000390719F42FEF3FEF07C08D919C91E80F0F
:101F3000F91F8081282F30E0C9010895DC011C962B
:101F4000ED91FC911D97E05CFF4F20813181E054C1
:101F5000F040DF01AE5BBF4F8D919C911197281728
:101F6000390719F42FEF3FEF10C08D919C91119715
:101F7000E80FF91F20818D919C91119701968F7325
:101F8000907011969C938E9330E0C9010895DC0106
:101F900091968C919197882339F05496ED91FC910C
:101FA0005597808186FFF9CF91961C920895CF9323
:101FB000DF93EC01EE85FF85E05CFF4F20813181EE
:101FC000E054F0402F5F3F4F2F733070DF01AE5B66
:101FD000BF4F8D919C91119728173907D1F3E05C81
:101FE000FF4F80819181E054F040E80FF91F60833A
:101FF000EE85FF85E05CFF4F31832083EE89FF890A
:10200000208181E090E00F8C02C0880F991F0A9414
:10201000E2F7282B208381E089A3EC89FD89808168
:102020008064808381E090E0DF91CF9108951092E9
:10203000200510921F0588EE93E0A0E0B0E08093A9
:10204000210590932205A0932305B093240582E1F6
:1020500092E090931E0580931D0585E994E090938E
:102060002A058093290589ED94E090932C058093AF
:102070002B0585EC90E090932E0580932D0584EC44
:1020800090E09093300580932F0580EC90E0909342
:1020900032058093310581EC90E090933405809374
:1020A000330582EC90E0909336058093350586ECFD
:1020B00090E0909338058093370584E0809339054C
:1020C00083E080933A0587E080933B0585E0809329
:1020D0003C0581E080933D050895CF92DF92EF9219
:1020E000FF920F931F93CF93DF937C016B018A01C3
:1020F000C0E0D0E00FC0D6016D916D01D701ED9128
:10210000FC910190F081E02DC7010995C80FD91FFE
:10211000015010400115110571F7CE01DF91CF91EB
:102120001F910F91FF90EF90DF90CF900895EF9265
:10213000FF920F931F93CF93DF937C018B01C0E03D
:10214000D0E0F8010F5F1F4F6491662359F0D7016B
:10215000ED91FC910190F081E02DC7010995C80F28
:10216000D91FEFCFCE01DF91CF911F910F91FF903B
:10217000EF900895DC01ED91FC910190F081E02D4C
:1021800009950895EF92FF920F931F938C01DC0144
:10219000ED91FC910190F081E02D6DE009957C01BD
:1021A000D801ED91FC910190F081E02DC8016AE029
:1021B00009959C012E0D3F1DC9011F910F91FF90A4
:1021C000EF900895EF92FF920F931F937C010E946E
:1021D00097108C01C7010E94C2109C01200F311F73
:1021E000C9011F910F91FF90EF900895CF93DF9356
:1021F000EC016115710519F420E030E00FC0DB013E
:102200000D900020E9F71197A61BB70BE881F98123
:102210000280F381E02DAD0109959C01C901DF9198
:10222000CF9108954F925F927F928F929F92AF923B
:10223000BF92CF92DF92EF92FF920F931F93DF93A3
:10224000CF93CDB7DEB7A1970FB6F894DEBF0FBE20
:10225000CDBF2C01742ECB01223008F42AE019A244
:1022600031E2C32ED12CCC0EDD1E822E9924AA245D
:10227000BB24672D752FA50194010E94A821790127
:102280008A01C801B701A50194010E946221472D6E
:10229000461B0894C108D1084A3014F4405D01C0BF
:1022A000495CF6014083E114F1040105110521F0B8
:1022B0007E2C5F2DC801DDCFC201B6010E94F61051
:1022C000A1960FB6F894DEBF0FBECDBFCF91DF91C0
:1022D0001F910F91FF90EF90DF90CF90BF90AF9044
:1022E0009F908F907F905F904F900895DC01211513
:1022F000310541F4ED91FC910190F081E02D642FC6
:10230000099508950E9412110895CF92DF92EF92DD
:10231000FF920F931F936C01E62E9A01FF2400E0B9
:1023200010E0B801A7010E9476118C01C6010E943D
:10233000C210080F191FC8011F910F91FF90EF9055
:10234000DF90CF900895CF92DF92EF92FF920F939C
:102350001F93CF93DF93EC016A017B0121153105B7
:1023600041F4E881F9810190F081E02D642F099515
:102370001FC02A303105D1F477FF17C0E881F981F9
:102380000190F081E02D6DE209958C0144275527DD
:10239000BA014C195D096E097F09CE012AE00E943D
:1023A00012119801280F391F04C02AE00E9412114F
:1023B0009C01C901DF91CF911F910F91FF90EF9088
:1023C000DF90CF900895EF92FF920F931F937B01C0
:1023D0009A010027F7FC0095102FB801A7010E9471
:1023E000A3111F910F91FF90EF9008950E94F61096
:1023F0000895EF92FF920F931F937C010E94F610B5
:102400008C01C7010E94C210080F191FC8011F913B
:102410000F91FF90EF900895CF93DF930E943B0DB3
:102420000E94E30BC8E9DEE00E94E5072097E1F394
:102430000E94980EF9CF0F931F938C01FC018681A7
:1024400060E00E94B50D81E090E00E94310DF8013E
:10245000868161E00E94B50D81E090E00E94310D1F
:10246000F801868160E00E94B50D84E690E00E944C
:10247000310D1F910F910895CF92DF92EF92FF924D
:102480000F931F93CF93DF93D82EC92E282F392F68
:10249000C9018C01C0E0D0E0E62EFF24F80187815D
:1024A00061E00E94760DB7010C2E02C0759567950C
:1024B0000A94E2F76170F80187810E94B50D2196B8
:1024C0000F5F1F4FC830D10549F78D2D9C2D0E94FD
:1024D0001B12DF91CF911F910F91FF90EF90DF9032
:1024E000CF900895CF92DF92EF92FF920F931F93B8
:1024F000CF93DF93D82EC92E282F392FC9018C01F5
:10250000C0E0D0E0E62EFF24F801878161E00E9460
:10251000760DB7010C2E02C0759567950A94E2F707
:102520006170F80187810E94B50D21960F5F1F4FE2
:10253000C430D10549F78D2D9C2D0E941B12DF91CF
:10254000CF911F910F91FF90EF90DF90CF90089562
:102550001F93CF93DF93EC01162F8C81642F0E9481
:10256000B50D8D818F3F19F060E00E94B50D8F850C
:1025700084FF05C0CE01612F0E943C120EC0612F66
:1025800070E084E0759567958A95E1F7CE010E9429
:102590007212CE01612F0E947212DF91CF911F91B2
:1025A000089541E00E94A81281E090E0089540E083
:1025B0000E94A8120895FC016089862F8460808B98
:1025C0006C60CF010E94D7120895DF93CF93CDB7EF
:1025D000DEB728970FB6F894DEBF0FBECDBF9C01C3
:1025E000FE013196A6E2B2E088E00D9001928150A2
:1025F000E1F7F9018389481710F0482F4150E42F83
:10260000F0E0EE0FFF1FEC0FFD1F8181680F606887
:10261000C9010E94D71228960FB6F894DEBF0FBEEC
:10262000CDBFCF91DF91089561E00E94D71280ED78
:1026300097E00E94310D0895CF93DF93EC01423073
:1026400018F08F8588608F874B8B1C8A222329F096
:10265000413019F48F8584608F8780E593EC0E9468
:10266000310D8C8160E00E94B50D8E8160E00E948A
:10267000B50D8D818F3F19F060E00E94B50D6F851B
:1026800064FD1DC0CE0163E00E94721284E991E1F5
:102690000E94310DCE0163E00E94721284E991E143
:1026A0000E94310DCE0163E00E94721286E990E033
:1026B0000E94310DCE0162E00E94721216C060626B
:1026C000CE010E94D71284E991E10E94310D6F85FD
:1026D0006062CE010E94D71286E990E00E94310D1F
:1026E0006F856062CE010E94D7126F856062CE0155
:1026F0000E94D71284E0888BCE010E94DB12CE01AB
:102700000E94141382E0898BCE0166E00E94D712EA
:10271000DF91CF9108956F927F928F92AF92CF9277
:10272000EF920F931F93DF93CF93CDB7DEB73C01AA
:10273000162F842FF301448325830683E782C08606
:10274000A18682869D8593879E8594879F859587A0
:102750009889968761E00E94760DF30185818F3F0D
:1027600019F061E00E94760DF301868161E00E941C
:10277000760D112319F0F301178603C080E1F301F0
:102780008787C30160E141E020E00E941C13CF91E4
:10279000DF911F910F91EF90CF90AF908F907F902E
:1027A0006F9008958F92AF92CF92EF920F931F93F5
:1027B000CF93DF93DC01362F542F722F102FAE2CC6
:1027C0008C2C13961C921E92129782E292E0119624
:1027D0009C938E9300D000D0EDB7FEB73196CDB765
:1027E000DEB71982118212821382CD0161E0432F7C
:1027F0002FEF052FE72EC12E0E948B130F900F9005
:102800000F900F90DF91CF911F910F91EF90CF908C
:10281000AF908F9008958F929F92AF92BF92CF9278
:10282000DF92EF92FF920F931F93CF93DF937B0181
:102830008C01EA012CE330E040E050E00E94A82146
:102840006883C801B7012CE330E040E050E00E940B
:10285000A821122F032FF42EE52E622F732F842F21
:10286000952F2CE330E040E050E00E94A8216983DE
:10287000612F702F8F2D9E2D2CE330E040E050E033
:102880000E94A821122F032FF42EE52E622F732F02
:10289000842F952F28E130E040E050E00E94A821ED
:1028A0006A83612F702F8F2D9E2D28E130E040E04C
:1028B00050E00E94A82179018A01C801B7016C5F2C
:1028C0007F4F8F4F9F4F27E030E040E050E00E9465
:1028D000A8216F5F6B8320E0AA24BB24650101C09F
:1028E0002F5F822E9924F401EE54F84FCF018370AC
:1028F0009070892B99F4CF0164E670E00E949521D5
:10290000892B39F4CF0160E971E00E949521892B70
:1029100029F48EE691E0A0E0B0E004C08DE691E0FD
:10292000A0E0B0E0A80EB91ECA1EDB1EC501A0E0E3
:10293000B0E0E816F9060A071B0790F62E83F401AB
:10294000EE54F84F83E0882E912C8E229F22811422
:10295000910499F4CF0164E670E00E949521892BDF
:1029600039F4CF0160E971E00E949521892B29F4A7
:102970008EE691E0A0E0B0E004C08DE691E0A0E03A
:10298000B0E0A81AB90ACA0ADB0A980187010A1935
:102990001B092C093D09CF0164E670E00E949521D6
:1029A0007C01CF0160E971E00E949521AC01EEE26B
:1029B000F2E060E0613051F48114910449F4E114D3
:1029C000F10441F44115510529F002C0808103C092
:1029D0008CE101C08DE190E0A0E0B0E0081719079C
:1029E0002A073B0740F0081B190B2A0B3B0B6F5FB4
:1029F00031966C30F9F66F5F6D83802F8F5F8C831B
:102A0000DF91CF911F910F91FF90EF90DF90CF90CA
:102A1000BF90AF909F908F900895EF92FF920F9389
:102A20001F937B018C018091560590915705A091D1
:102A30005805B0915905E816F9060A071B0771F009
:102A4000C801B7014BE455E00E940B14E092560513
:102A5000F092570500935805109359051F910F9157
:102A6000FF90EF9008950E940D152091510530E0E0
:102A70002E54384FC90108954F925F926F927F9202
:102A80008F929F92AF92BF92CF92DF92EF92FF927E
:102A90000F931F93CF93DF934C01DC0116961C918B
:102AA000612F70E080E090E020E833E341EE51E0F8
:102AB0000E9462215B016C0122EB37E0E12FF0E024
:102AC000EE54F84F1DC0C90183709070892BB1F48A
:102AD000C90164E670E00E949521892B39F4C9018F
:102AE00060E971E00E949521892B41F480E891E52D
:102AF000A1E0B0E0A80EB91ECA1EDB1E2F5F3F4F3B
:102B00002E173F0701F7D40115968C91482E5524B6
:102B1000C90164E670E00E9495217C01C90160E969
:102B200071E00E9495218C01C1E0D0E093E0692E14
:102B3000712C6222732227C0C230D10591F4611436
:102B4000710479F4E114F10419F40115110549F443
:102B500080E89BE3A6E2B0E0A80EB91ECA1EDB1E09
:102B600011C0FE01E35DFD4F608170E080E090E008
:102B700020E831E541E050E00E946221A60EB71E38
:102B8000C81ED91E2196C415D505B4F2D4011296DB
:102B90006C9170E080E090E020E13EE040E050E0A9
:102BA0000E9462217B018C01F401618170E080E070
:102BB00090E02CE330E040E050E00E946221E60E1D
:102BC000F71E081F191FD4018C91E80EF11C011D7E
:102BD000111D14966C9170E061507040882777FD4C
:102BE0008095982F20E831E541E050E00E94622175
:102BF000E60EF71E081F191FEA0CFB1C0C1D1D1DFD
:102C0000B701C801DF91CF911F910F91FF90EF9015
:102C1000DF90CF90BF90AF909F908F907F906F90FC
:102C20005F904F90089560934105709342058093A3
:102C300043059093440520910A0230910B02409184
:102C40000C0250910D02260F371F481F591F209369
:102C5000450530934605409347055093480582E06B
:102C600090E090934A05809349050E94CA0C6093B6
:102C7000520570935305809354059093550508951C
:102C8000EF92FF920F93F701E436F1051CF0E25B3F
:102C9000F74001C07E96E0935105009350052093C4
:102CA0004F0580934D0560934C0540934B058BE495
:102CB00095E00E943C150E9413160F91FF90EF9033
:102CC0000895EF92FF920F931F931CC02F5F3F4F09
:102CD0004F4F5F4F2093410530934205409343058A
:102CE0005093440588EE93E0A0E0B0E0E80EF91EB2
:102CF0000A1F1B1FE0925205F092530500935405E2
:102D0000109355050E94CA0CE0905205F0905305AF
:102D100000915405109155056E197F09800B910B98
:102D20002091410530914205409143055091440561
:102D3000685E73408040904048F6809145059091D0
:102D40004605A0914705B0914805281739074A075D
:102D50005B07E8F0E0913F05F09140053097B9F04E
:102D60000995611571058105910519F00E941316E9
:102D70000EC020E030E08091490590914A05892BF2
:102D800011F021E030E030934A052093490560912D
:102D900041057091420580914305909144051F9132
:102DA0000F91FF90EF9008950E9461160E943315D5
:102DB00008950E9461160E940D158091500590E0C3
:102DC00008950E9461160E940D1580914F0590E0B4
:102DD00008950E9461160E940D1580914B0590E0A8
:102DE00008950E9461160E940D1580914C0590E097
:102DF00008950E9461160E940D1580914D0590E086
:102E00000895CF93DF93DC01FC0120E030E0828560
:102E1000807C828716821782108611861282138226
:102E20001482158211821082255F3F4F3B9681E00C
:102E30002535380761F7AB5ABE4F1C92A555B140F6
:102E4000ED0120E030E04BE050E0249FF001259FB1
:102E5000F00D349FF00D1124EA0FFB1F9285892F8E
:102E60008F7061F0907E9287198218821A821B827D
:102E70001C821D821E821F82188619862F5F3F4F7B
:102E80002B962F31310509F7DF91CF910895FC0181
:102E9000EB5AFE4F8081E555F140882311F48FEF06
:102EA0000895EA5AFE4F808108958AE595E00E94D0
:102EB000011708952F923F924F925F926F927F92E7
:102EC0008F929F92AF92BF92CF92DF92EF92FF923A
:102ED0000F931F93DF93CF9300D000D000D0CDB7D6
:102EE000DEB79E838D83FC0182819381A481B581AD
:102EF0000097A105B10509F45BC1828584FF58C123
:102F00000E94611669837A838B839C83AD81BE8125
:102F10001A963C911A97232F2F70822F825F8F7001
:102F2000833008F028C116968D919D910D90BC912B
:102F3000A02D49815A816B817C81481759076A0706
:102F40007B0708F418C1223059F4ED81FE8182819B
:102F50009381A481B58186839783A087B1870BC1B4
:102F6000233009F061C0AD81BE811296ED90FD90D5
:102F70000D911C9115970E94611620E831E541E002
:102F800050E00E94A821CA01B90120E831E541E0E2
:102F900050E00E946221E60EF71E081F191FED8106
:102FA000FE81A280B380C480D58029813A814B8183
:102FB0005C812E153F0540075107C8F0CA01B901D1
:102FC00020E831E541E050E00E94A8212F5F3F4F0B
:102FD0004F4F5F4FCA01B90120E831E541E050E0B1
:102FE0000E946221A60EB71EC81ED91EACC0698100
:102FF0007A818B819C8120E831E541E050E00E949C
:10300000A821CA01B90120E831E541E050E00E9461
:103010006221A60EB71EC81ED91EED81FE81A682B2
:10302000B782C086D186A7C0243009F0A0C0AD8188
:10303000BE8112966D907D908D909C9015970E9408
:1030400061167B018C010E9461165B016C010E947C
:1030500061161B012C01E60CF71C081D191DC60189
:10306000B50120E831E541E050E00E94A821E61AD0
:10307000F70A080B190BC201B10120E831E541E064
:1030800050E00E94A8212C5F3F4F4F4F5F4FCA0175
:10309000B90127E030E040E050E00E94A82120E89C
:1030A00031E541E050E00E946221E61AF70A080B80
:1030B000190BED81FE81A280B380C480D580298167
:1030C0003A814B815C812E153F054007510708F47A
:1030D00043C040E85AE369E070E0A40EB51EC61E86
:1030E000D71E69817A818B819C81A60EB71EC81E6E
:1030F000D91E20E831E541E050E00E94A821A61A3F
:10310000B70AC80AD90A69817A818B819C8120E833
:1031100031E541E050E00E94A8212C5F3F4F4F4F26
:103120005F4FCA01B90127E030E040E050E00E9463
:10313000A82120E831E541E050E00E946221A61A72
:10314000B70AC80AD90AAD81BE811696AD92BD9262
:10315000CD92DC9219970FC029813A814B815C8115
:10316000A20EB31EC41ED51ECA01B901C2CF3F7E36
:10317000ED81FE813287AD81BE811A968C911A97BE
:103180008F708130E9F412968D919D910D90BC91D4
:10319000A02D29813A814B815C81820F931FA41F4E
:1031A000B51FED81FE8186839783A087B18708C014
:1031B000AD81BE811A968C911A978F7E1A968C9348
:1031C00026960FB6F894DEBF0FBECDBFCF91DF912C
:1031D0001F910F91FF90EF90DF90CF90BF90AF9035
:1031E0009F908F907F906F905F904F903F902F9027
:1031F0000895AC016F3198F570E08BE090E0689F26
:10320000F001699FF00D789FF00D1124E40FF51F78
:1032100082858F7021F182819381A481B58100978D
:10322000A105B10511F420E006C020E08081918164
:10323000892B09F021E08BE090E0689FF001699F05
:10324000F00D789FF00D1124E40FF51F2295207FDB
:1032500082858F7E822B8287CF010E945A17089524
:10326000CF92DF92EF92FF920F931F93CF93DF9352
:10327000EC01FC01EB5AFE4F8081882309F05BC012
:1032800081E08083FE01EA5AFE4F10828F019BE0AD
:10329000C92ED12C48C090E08C9DF0018D9DF00D81
:1032A0009C9DF00D1124EC0FFD1F828584FF37C01B
:1032B0000E946116F801A0812A2F30E02C9DF001B8
:1032C0002D9DF00D3C9DF00D1124EC0FFD1F26816E
:1032D0003781408551856217730784079507F8F099
:1032E000E080F180928595FF12C0AF3198F4892F6C
:1032F0008F7081F0907E92871182108212821382E9
:1033000014821582168217821086118603C0CF019F
:103310000E945A17E114F10411F0F7010995F80120
:1033200080818F5F8083F80180818F3108F4B3CF73
:10333000CB5ADE4F1882DF91CF911F910F91FF90F2
:10334000EF90DF90CF9008954F925F926F927F92AF
:103350008F929F92AF92BF92CF92EF92FF920F9374
:103360001F93CF93DF932C014A015B013901E701E1
:10337000C7010297039738F40E9461166050724E9D
:103380008F4D9140C0F160E070E02BE030E0162FEF
:10339000629FF001639FF00D729FF00D1124E40D08
:1033A000F51DDF011A9682858F7001F571826082AA
:1033B00001700295000F007E8C91807D9E012F7020
:1033C000802B822B8C9382829382A482B582CC2024
:1033D00021F0C2010E94F9180FC06F3168F49C916E
:1033E000892F8F7049F09F7E9C9306C06F5F7F4F3F
:1033F0006F31710561F61FEF812FDF91CF911F9122
:103400000F91FF90EF90CF90BF90AF909F908F90D3
:103410007F906F905F904F9008952F923F924F92C0
:103420005F926F927F928F929F92AF92BF92CF9254
:10343000DF92EF92FF920F931F93DF93CF9300D011
:10344000CDB7DEB79A8389832A013901180161500B
:103450007040882777FD8095982F20E831E541E07E
:1034600050E00E9462215B016C01882477FC80940B
:10347000982CC401B3012CE330E040E050E00E94FE
:103480006221A60EB71EC81ED91EB201882777FD7D
:103490008095982F20E13EE040E050E00E946221BC
:1034A000A60EB71EC81ED91E442437FC4094542CC7
:1034B0002A0C3B1C4C1C5D1C89819A81B201A10124
:1034C000970100E014E0E12EF12CCC24C3940E947B
:1034D000A4190F900F90CF91DF911F910F91FF9042
:1034E000EF90DF90CF90BF90AF909F908F907F90A4
:1034F0006F905F904F903F902F900895AF92BF9242
:10350000CF92DF92EF92FF920F931F93CF93DF93AF
:10351000EC015A016B010E94CA0C7B018C0103C0B3
:10352000CE010E9430190E94CA0C6E197F09800BCF
:10353000910BA616B706C806D90690F7DF91CF9172
:103540001F910F91FF90EF90DF90CF90BF90AF90C1
:103550000895DC01E62FF0E0EE0FFF1FEE0FFF1FD6
:10356000EA0FFB1F548F438F81E0858FAA5ABF4F0C
:10357000ED91FC911197A655B040309719F05A96ED
:103580008C9109950895AF92BF92CF92DF92EF92FE
:10359000FF920F93DF93CF9300D0CDB7DEB75C01DE
:1035A00000E021E5C22ED12CC80ED91E9EE4E92EE2
:1035B000F12CEA0CFB1C29C0802F90E09A838983B0
:1035C000D5012D913C91D701ED91FC91E80FF91FA8
:1035D000D9012D913C91C501608140E0F901099527
:1035E000F50120813181D701ED91FC9189819A818A
:1035F000E80FF91FD90112962D913C911397C5013F
:10360000608141E0F90109950F5FF601808108179B
:1036100098F20F900F90CF91DF910F91FF90EF9064
:10362000DF90CF90BF90AF9008950F931F93CF93EB
:10363000DF93EC01162F042FE62FF0E0EE0FFF1FB3
:10364000EE0FFF1FE80FF91F158E838D948D8130CB
:103650009105E1F0823091051CF4892B39F03FC0CF
:103660008230910581F10397D1F534C04130B9F52D
:10367000CE0141E050E00E94A91A0E94CA0CCE5B24
:10368000DF4F688379838A839B8329C00E94CA0C99
:10369000CE5BDF4F288139814A815B81621B730BCE
:1036A000840B950B629628813981C455D04040E047
:1036B00050E0261737074807590728F4CE01612F35
:1036C00042E050E00AC0002351F4CE01612F43E0F4
:1036D00050E003C0CE0140E050E00E94A91ADF9103
:1036E000CF911F910F9108954F925F926F927F92A9
:1036F0008F929F92AF92BF92CF92DF92EF92FF9202
:103700000F931F93CF93DF93EC012C01FC0120E07A
:10371000838D948D892B11F4128E158E2F5F349624
:103720002A30B1F7EE24A0E56A2E712C6C0E7D1EB6
:10373000F1E58F2E912C8C0E9D1EEAE4AE2EB12C5D
:10374000AC0EBD1E50C02F2D30E0D8018D919C9144
:103750000F2C02C0969587950A94E2F7482F417086
:10376000852F90E0FC01CE9EC001CF9E900DDE9E85
:10377000900D1124D501ED91FC91E20FF31FE80F9C
:10378000F91F5081F20160E070E0828D851711F41D
:10379000CE0119C06F5F7F4F34966A307105A9F76B
:1037A00031C0F20160E070E0828D882379F4FB0182
:1037B000EE0FFF1FEE0FFF1FEC0FFD1F528F148E39
:1037C000138ECE0141E00E94151B06C06F5F7F4F34
:1037D00034966A30710541F7F394F4015081F5167F
:1037E00008F4B1CFE394D3018C91E81670F4FF2470
:1037F000CE2CDD2486010D5F1F4F000F111F0C0F13
:103800001D1FEBCF442369F6E7CFDF91CF911F91C6
:103810000F91FF90EF90DF90CF90BF90AF909F906F
:103820008F907F906F905F904F9008953F924F924E
:103830005F926F927F928F929F92AF92BF92CF9240
:10384000DF92EF92FF920F931F93DF93CF93CDB749
:10385000DEB728970FB6F894DEBF0FBECDBF9887AE
:103860008F830E94CA0C2F8138852A5B3F4FD90174
:103870002D913D914D915C911397621B730B840BBD
:10388000950B1C962D913C911197A255B040B8878D
:10389000AF8340E050E0261737074807590710F07C
:1038A00033241AC1FF2430E5A32EB12CEF81F88513
:1038B000AE0EBF1E2CE4C22ED12CCE0EDF1E29C0B0
:1038C0000F2D10E0AF81B8858D919C91D601ED91BF
:1038D000FC91E00FF11FDC012D913C918F819885C7
:1038E000608142E0F9010995EF81F885808191813D
:1038F000D601ED91FC91E00FF11FDC0112962D91A4
:103900003C9113978F819885608141E0F901099579
:10391000F394F5018081F81698F23324EE242F8178
:1039200038852F5A3F4F3A8329839EE4A92EB12C24
:103930004F815885A40EB51E405B5F4F5C834B835F
:103940008F819885845B9F4F9E838D83AFC0CE2CE3
:10395000DD24AF81B8858D919C91D501ED91FC91CD
:10396000EC0DFD1DDC012D913C918F8198856081CE
:1039700041E0F9010995EF81F88580819181D501B8
:10398000ED91FC91EC0DFD1DDC0112962D913C9109
:1039900013978F819885608140E0F901099581E056
:1039A00090E0A0E0B0E00E2C04C0880F991FAA1F81
:1039B000BB1F0A94D2F74C012C014094509481E033
:1039C000682E712C0E2C02C0660C771C0A94E2F74C
:1039D000FF243FC00F2D10E0AD81BE81ED91FC9121
:1039E000E00FF11FD90114962D913C9115978F810D
:1039F00098856081F9010995F8013396892B59F46E
:103A0000EE0FFF1F2F813885E20FF31F8081918118
:103A1000882999290AC0EE0FFF1F4F815885E40FAE
:103A2000F51F808191818421952191838083EF2DE1
:103A3000F0E03396EE0FFF1F8F819885E80FF91F96
:103A40008081918186219721892B11F03324339431
:103A5000F394AB81BC818C91EF81F8852081318119
:103A6000F81608F4B7CFD501ED91FC91EC0DFD1DD2
:103A7000D90112962D913C9113978F819885608181
:103A800041E0F9010995EF81F88580819181D501A7
:103A9000ED91FC91EC0DFD1DDC012D913C918F8190
:103AA0009885608140E0F9010995E394E981FA8104
:103AB0008081E81608F44BCF8F8198850E94741B93
:103AC0000E94CA0C2F8138852A5B3F4FD9016D9324
:103AD0007D938D939C931397832D311081E02896CD
:103AE0000FB6F894DEBF0FBECDBFCF91DF911F910F
:103AF0000F91FF90EF90DF90CF90BF90AF909F908D
:103B00008F907F906F905F904F903F900895CF93EC
:103B1000DF93EC010E94161C882349F08B8D9C8D4D
:103B2000019729F48D8D882311F08A8D01C080E0E2
:103B3000DF91CF9108956F927F928F929F92AF9273
:103B4000BF92CF92DF92EF92FF920F931F93CF938A
:103B5000DF93EC014B016A015901702E6E2C029625
:103B60000E9456218EE392E0998388834AE1E42EF5
:103B7000F12CEC0EFD1E00E010E0C701800F911F3C
:103B80000E945C210C5F1F4F08321105B1F7C45B26
:103B9000DF4FC992D992A992B992799268822797F8
:103BA0009982888228968AE090E08993999384EF9D
:103BB00091E08993999319821882C655D040CE011D
:103BC0000E94C31ACA5BDF4F188219821A821B82B5
:103BD000DF91CF911F910F91FF90EF90DF90CF90E9
:103BE000BF90AF909F908F907F906F900895862F99
:103BF0000E94090E0895862F642F0E94B50D089526
:103C0000862F642F0E94760D0895F999FECF72BD1C
:103C100061BDF89A80B50895F999FECF1FBA72BDBB
:103C200061BD40BD0FB6F894FA9AF99A0FBE089597
:103C3000DC019091C706933008F083C06C93E92FA4
:103C4000F0E0E75CF94F849111968C9311979F5F98
:103C50009093C706813039F1823009F44BC0882334
:103C600009F072C014BC15BC84B5826084BD85B5F2
:103C7000816085BD8C91282F30E0F901E350FA4F27
:103C8000E491F0E0EE0FFF1FE751FA4F8591949118
:103C90009093B7068093B6062F5E394FF901849151
:103CA0008093B80608951092800010928100809150
:103CB0008100886080938100809181008160809381
:103CC00081008C91282F30E0F901E350FA4FE49104
:103CD000F0E0EE0FFF1FE751FA4F8591949190931A
:103CE000BE068093BD062F5E394FF9018491809303
:103CF000BF0608951092B0001092B1008091B000FC
:103D000082608093B0008091B10081608093B100A7
:103D10008C91282F30E0F901E350FA4FE491F0E064
:103D2000EE0FFF1FE751FA4F859194919093C506CE
:103D30008093C4062F5E394FF90184918093C606A3
:103D400008958FEF11968C9308951F920F920FB6DE
:103D50000F9211248F939F93AF93BF93EF93FF9391
:103D60008091B2069091B306A091B406B091B506C9
:103D7000E091B606F091B7060097A105B10531F1C3
:103D800080819091B806892780838091B2069091B6
:103D9000B306A091B406B091B506181619061A0616
:103DA0001B06FCF48091B2069091B306A091B40674
:103DB000B091B5060197A109B1098093B20690931D
:103DC000B306A093B406B093B5060BC080916E0005
:103DD0008D7F80936E0090818091B80680958923B5
:103DE0008083FF91EF91BF91AF919F918F910F9041
:103DF0000FBE0F901F9018951F920F920FB60F9243
:103E000011248F939F93AF93BF93EF93FF93809170
:103E1000B9069091BA06A091BB06B091BC06E0919C
:103E2000BD06F091BE060097A105B10531F1808174
:103E30009091BF06892780838091B9069091BA0638
:103E4000A091BB06B091BC06181619061A061B06EF
:103E5000FCF48091B9069091BA06A091BB06B0918E
:103E6000BC060197A109B1098093B9069093BA06DF
:103E7000A093BB06B093BC060BC080916F008D7FF2
:103E800080936F0090818091BF0680958923808305
:103E9000FF91EF91BF91AF919F918F910F900FBEC6
:103EA0000F901F9018951F920F920FB60F9211242A
:103EB0002F933F934F935F938F939F93EF93FF9332
:103EC0002091C0063091C1064091C2065091C306B0
:103ED000E091C406F091C506211531054105510553
:103EE00079F080819091C606892780831216130687
:103EF0001406150684F421503040404050400BC059
:103F0000809170008D7F8093700090818091C606B3
:103F10008095892380832093C0063093C106409307
:103F2000C2065093C306FF91EF919F918F915F91CD
:103F30004F913F912F910F900FBE0F901F901895AA
:103F4000FC018181813051F0823071F0882389F445
:103F500080916E008D7F80936E000BC080916F000A
:103F60008D7F80936F0005C0809170008D7F80935E
:103F70007000808160E00E94B50D08952F923F92FD
:103F80005F926F927F928F929F92AF92BF92CF92E9
:103F9000DF92EF92FF920F931F93DF93CF9300D0A6
:103FA00000D0CDB7DEB78C011B0129833A834B8348
:103FB0005C83DC0111968C91119787FD61C18C9116
:103FC00061E00E94760DF8015180552021F0F2E069
:103FD0005F1609F0C7C031018824992460E072E1BE
:103FE0008AE790E0A40193010E94CA2159016A0165
:103FF000860175010894E108F108010911092FEF04
:10400000E216F1040105110509F008F49BC060E413
:1040100072E48FE090E0A40193010E94CA2179012B
:104020008A010894E108F1080109110982E0581693
:1040300011F092E019C09FEFE916F1040105110596
:1040400009F010F492E087C060E970ED83E090E041
:10405000A40193010E94CA2179018A010894E10810
:10406000F1080109110993E0AFEFEA16F104010527
:10407000110509F008F467C068E478EE81E090E08B
:10408000A40193010E94CA2179018A010894E108E0
:10409000F10801091109552011F493E01EC0B2E0A6
:1040A0005B1611F094E019C0EFEFEE16F104010574
:1040B000110509F010F494E04EC064E274EF80E062
:1040C00090E0A40193010E94CA2179018A01089419
:1040D000E108F1080109110995E0FFEFEF16F1047D
:1040E0000105110581F178F162E17AE780E090E065
:1040F000A40193010E94CA2179018A010894E10870
:10410000F10801091109552011F096E001C094E071
:104110002FEFE216F10401051105A9F0A0F0C60188
:10412000B50120E034E040E050E00E94CA2179016E
:104130008A010894E108F10801091109552051F498
:1041400095E003C091E0552031F485B5887F982B28
:1041500095BD3EC097E08091B100887F982B9093E9
:10416000B10036C05101CC24DD2460E072E18AE761
:1041700090E0A60195010E94CA2179018A01089464
:10418000E108F1080109110980E0E81680E0F8066D
:1041900081E0080780E0180710F491E010C068E49F
:1041A00078EE81E090E0A60195010E94CA21790194
:1041B0008A010894E108F1080109110993E0A1E0DE
:1041C0005A1631F480918100887F982B909381005A
:1041D00089819A81AB81BC810097A105B10529F441
:1041E0008FEF9FEFAFEFBFEF13C0220C331CB10175
:1041F00080E090E029813A814B815C810E946221BC
:1042000028EE33E040E050E00E94A821C901DA0125
:10421000E1E05E16A1F0F2E05F1619F1552081F59C
:10422000E7BC8093B2069093B306A093B406B09314
:10423000B50680916E00826080936E0021C0F0927E
:104240008900E09288008093B9069093BA06A09303
:10425000BB06B093BC0680916F00826080936F00B4
:104260000FC0E092B3008093C0069093C106A09364
:10427000C206B093C3068091700082608093700084
:104280000F900F900F900F90CF91DF911F910F9192
:10429000FF90EF90DF90CF90BF90AF909F908F9066
:1042A0007F906F905F903F902F900895FC01108257
:1042B0001282118213820895FC01108212821182EF
:1042C00013820895629FD001739FF001829FE00DD9
:1042D000F11D649FE00DF11D929FF00D839FF00D85
:1042E000749FF00D659FF00D9927729FB00DE11D31
:1042F000F91F639FB00DE11DF91FBD01CF0111240E
:104300000895AA1BBB1B51E107C0AA1FBB1FA6171C
:10431000B70710F0A61BB70B881F991F5A95A9F76E
:1043200080959095BC01CD01089597FB092E072635
:104330000AD077FD04D0E5DF06D000201AF470958E
:1043400061957F4F0895F6F7909581959F4F089559
:10435000A1E21A2EAA1BBB1BFD010DC0AA1FBB1F89
:10436000EE1FFF1FA217B307E407F50720F0A21BFB
:10437000B30BE40BF50B661F771F881F991F1A9468
:1043800069F760957095809590959B01AC01BD0192
:10439000CF01089597FB092E05260ED057FD04D0B6
:1043A000D7DF0AD0001C38F4509540953095219500
:1043B0003F4F4F4F5F4F0895F6F79095809570955A
:1043C00061957F4F8F4F9F4F0895EE0FFF1F059010
:0A43D000F491E02D0994F894FFCF5A
:1043DA004A616E00466562004D617200417072006A
:1043EA004D6179004A756E004A756C004175670027
:1043FA00536570004F6374004E6F76004465630026
:10440A0031003200330034003500360037003800FE
:10441A00390030002F003A0072656164696E6720C6
:10442A00454550524F4D0052656164207375636370
:10443A0065737300486F75723A20004D696E757422
:10444A00653A20004461793A20004D6F6E74683AEB
:10445A002000596561723A200052656164206661E4
:10446A00696C656400000006011501260137014ADE
:10447A00015D01720188019F01B801D201EE010BB1
:10448A00022A024B026E029302BA02E40210033FAE
:10449A00037003A403DC03170455049704DD0427FF
:1044AA00057505C80520067D06E0064907B8072DEB
:1044BA0008A9082D09B9094D0AEA0A900B400CFA15
:1044CA000CC00D910E6F0F3132333435363738390F
:1044DA002A302303020E000605042C010000000006
:1044EA000000D70F6D106D0F9E0F7E0FC70F0000D3
:1044FA000000D1126D1000004000140054001F1C6F
:10450A001F1E1F1E1F1F1E1F1E1F00000000001E51
:04451A00FB1DF71D71
:00000001FF
