:100000000C94FE020C9426030C9426030C942603F5
:100010000C9426030C9426030C9426030C94FA1AD1
:100020000C9426030C9426030C9426030C94A31A18
:100030000C9426030C9426030C944C1A0C9426035F
:100040000C944F090C9426030C94440A0C94920AC5
:100050000C9426030C9426030C9426030C9426037C
:100060000C9426030C9426034A656F7061726479C0
:100070003A643D342C6F3D362C623D3132353A6363
:100080002C662C632C66352C632C662C32632C6317
:100090002C662C632C662C612E2C38672C38662C31
:1000A00038652C38642C3863232C632C662C632C25
:1000B00066352C632C662C32632C662E2C38642C0F
:1000C000632C6123352C61352C67352C66352C70FB
:1000D0002C64232C67232C64232C6723352C642366
:1000E0002C67232C3264232C64232C67232C642359
:1000F0002C67232C632E372C3861232C3867232C54
:1001000038672C38662C38652C64232C67232C64C4
:10011000232C6723352C64232C67232C3264232C57
:1001200067232E2C38662C64232C63232C632C70BD
:100130002C6123352C702C67232E352C64232C67DF
:100140002300456E7465727461696E65723A643D30
:10015000342C6F3D352C623D3134303A38642C38C4
:1001600064232C38652C63362C38652C63362C3888
:10017000652C32632E362C3863362C3864362C3896
:100180006423362C3865362C3863362C3864362C8C
:1001900065362C38622C64362C3263362C702C3841
:1001A000642C3864232C38652C63362C38652C631A
:1001B000362C38652C32632E362C38702C38612C56
:1001C00038672C3866232C38612C3863362C65361A
:1001D0002C3864362C3863362C38612C3264360067
:1001E000496E6469616E613A643D342C6F3D352C13
:1001F000623D3235303A652C38702C38662C3867C1
:100200002C38702C3163362C38702E2C642C3870BE
:100210002C38652C31662C702E2C672C38702C38BD
:10022000612C38622C38702C3166362C702C612C85
:1002300038702C38622C3263362C3264362C32659E
:10024000362C652C38702C38662C38672C38702C7E
:100250003163362C702C64362C38702C3865362C73
:1002600031662E362C672C38702C38672C652E366C
:100270002C38702C64362C38702C38672C652E3650
:100280002C38702C64362C38702C38672C662E363F
:100290002C38702C65362C38702C3864362C326330
:1002A0003600412D5465616D3A643D382C6F3D3503
:1002B0002C623D3132353A346423362C61232C32A2
:1002C0006423362C3136702C67232C3461232C3474
:1002D00064232E2C702C3136672C313661232C642C
:1002E00023362C61232C66362C326423362C31368F
:1002F000702C63232E362C313663362C3136612335
:100300002C67232E2C32612300466C696E73746F48
:100310006E65733A643D342C6F3D352C623D34304C
:100320003A3332702C313666362C313661232C311B
:10033000366123362C333267362C313666362C3113
:100340003661232E2C313666362C33326423362C1C
:10035000333264362C333264362C33326423362CF9
:10036000333266362C313661232C313663362C64B9
:10037000362C313666362C313661232E2C313661DF
:1003800023362C333267362C313666362C313661C3
:10039000232E2C333266362C333266362C333264BD
:1003A00023362C333264362C333264362C333264A9
:1003B00023362C333266362C313661232C313663AA
:1003C000362C61232C313661362C3136642E362C96
:1003D00031366123362C333261362C333261362C80
:1003E000333267362C33326623362C333261362C67
:1003F0003867362C313667362C3136632E362C333F
:100400003261362C333261362C333267362C33323C
:1004100067362C333266362C333265362C333267EE
:10042000362C3866362C313666362C313661232E22
:100430002C31366123362C333267362C3136663612
:100440002C313661232E2C313666362C3332642320
:10045000362C333264362C333264362C33326423F8
:10046000362C333266362C313661232C3136632EEE
:10047000362C333264362C33326423362C333266D6
:10048000362C313661232C3136632E362C333264D0
:10049000362C33326423362C333266362C313661B7
:1004A00023362C313663372C3861232E3600680012
:1004B0004201E001A2020903536F7272792C207489
:1004C000727920616761696E210054696D652075DC
:1004D000706C6F616465642100696E76616C69643B
:1004E00020696E707574004D696E7574653F2030BB
:1004F00020746F20353900696E76616C69642069FB
:100500006E70757400486F75723F203020746F20D4
:10051000323300696E76616C696420696E7075743F
:10052000004461793F203120746F20333100696EBF
:1005300076616C696420696E707574004D6F6E74BD
:10054000683F203120746F20313200596561723F5D
:10055000203020746F203939004564697420746834
:100560006520636C6F636B00666C696E7473746F87
:100570006E657300617465616D00696E6469616EBA
:100580006E6100656E7465727461696E6572006A91
:10059000656F706172647900020100000000002440
:1005A0000027002A0000000000250028002B000082
:1005B00000000023002600290004040404040404AD
:1005C0000402020202020203030303030301020402
:1005D00008102040800102040810200102040810C5
:1005E00020000000070002010000030406000000D4
:1005F0000000000000003203FE0B0F1311241FBE89
:10060000CFEFD8E0DEBFCDBF11E0A0E0B1E0E4EF76
:10061000FCE302C005900D92A63CB107D9F715E0A6
:10062000A6ECB1E001C01D92A431B107E1F715E0DD
:10063000CCEFD5E004C02297FE010E94741EC63F95
:10064000D107C9F70E94F30D0C9428030C94000005
:10065000F8940C94781EFB01DC0105900D920020AB
:10066000E1F70895CF92EF920F9381ED91E06CE066
:100670004BE02AE009E0A8E0EA2EF7E0CF2E0E9446
:10068000B90F86EE91E068E771E044E851E028E8B0
:1006900031E004E0E3E0EE2E0E9455190F91EF9057
:1006A000CF9008951F9386EE91E00E944119182F74
:1006B0008823C9F381ED91E060E041E00E94CC0E17
:1006C0001433C1F1153374F41133E1F0123324F40F
:1006D000103309F069C060C01233E1F0133309F040
:1006E00063C020C01733F1F1183334F4153351F1DE
:1006F000163309F059C02EC01833E1F1193309F04F
:1007000053C040C081ED91E060E071E00E94DD0DDA
:1007100081E03FC081ED91E062E071E00E94DD0D7B
:1007200082E037C081ED91E064E071E00E94DD0D70
:1007300083E02FC081ED91E066E071E00E94DD0D65
:1007400084E027C081ED91E068E071E00E94DD0D5A
:1007500085E01FC081ED91E06AE071E00E94DD0D4F
:1007600086E017C081ED91E06CE071E00E94DD0D44
:1007700087E00FC081ED91E06EE071E00E94DD0D39
:1007800088E007C081ED91E060E171E00E94DD0D3D
:1007900089E08093CE0108C081ED91E062E171E0D3
:1007A0000E94DD0D1092CE0186EE91E00E9441196B
:1007B000182F8823C9F381ED91E061E041E00E94A8
:1007C000CC0E143309F445C015338CF4113309F100
:1007D00012333CF4133209F475C0103309F075C0BC
:1007E00068C01233F1F0133309F06FC02AC0173319
:1007F00009F447C0183334F4153399F1163309F06E
:1008000064C037C0183309F444C0193309F05DC01F
:1008100048C081ED91E060E071E00E94DD0D81E073
:1008200007C081ED91E062E071E00E94DD0D82E0A1
:100830008093CF0168EE73E080E090E00E94A5090C
:1008400044C081ED91E064E071E00E94DD0D83E041
:10085000EFCF81ED91E066E071E00E94DD0D84E074
:10086000E7CF81ED91E068E071E00E94DD0D85E069
:10087000DFCF81ED91E06AE071E00E94DD0D86E05E
:10088000D7CF81ED91E06CE071E00E94DD0D87E053
:10089000CFCF81ED91E06EE071E00E94DD0D88E048
:1008A000C7CF81ED91E060E171E00E94DD0D89E04C
:1008B000BFCF81ED91E062E171E00E94DD0D109209
:1008C000CF01B8CF84E68093CF012091CF019091E2
:1008D000CE01243619F49093CD0107C08AE0989F89
:1008E000C0011124280F2093CD018091CD011F91CB
:1008F0000895EF92FF920F931F931092D00181ED14
:1009000091E00E94FB0E81ED91E060E040E00E94EA
:10091000CC0E81ED91E06BE475E00E947E0C0E94AC
:1009200052038093CC0181ED91E00E94FB0E81ED9A
:1009300091E060E040E00E94CC0E81ED91E06CE33C
:1009400075E00E947E0C0E9452038093CB018D3093
:10095000A8F081ED91E060E041E00E94CC0E81EDD5
:1009600091E06EE275E00E947E0C68EE73E080E03C
:1009700090E00E94A50981E08093D00181ED91E093
:100980000E94FB0E81ED91E060E040E00E94CC0E01
:1009900081ED91E061E275E00E947E0C0E945203BD
:1009A0008093CA018032A8F081ED91E060E041E0DF
:1009B0000E94CC0E81ED91E063E175E00E947E0C17
:1009C00068EE73E080E090E00E94A50981E08093EA
:1009D000D00181ED91E00E94FB0E81ED91E060E09D
:1009E00040E00E94CC0E81ED91E065E075E00E9450
:1009F0007E0C0E9452038093C8018831A8F081EDDB
:100A000091E060E041E00E94CC0E81ED91E067EF63
:100A100074E00E947E0C68EE73E080E090E00E943B
:100A2000A50981E08093D00181ED91E00E94FB0E49
:100A300081ED91E060E040E00E94CC0E81ED91E01C
:100A400067EE74E00E947E0C0E9452038093C901FD
:100A50008C33A8F081ED91E060E041E00E94CC0E83
:100A600081ED91E069ED74E00E947E0C68EE73E028
:100A700080E090E00E94A50981E08093D001809100
:100A8000D001882309F050C08DE794E06091C8013F
:100A90004AE050E00E946C0D8DE794E06091C9013E
:100AA0004AE050E00E946C0D8DE794E06091CA012D
:100AB0004AE050E00E946C0D8DE794E06091CB011C
:100AC0004AE050E00E946C0D8DE794E06091CC010B
:100AD0004AE050E00E946C0D6091C9012091CA016A
:100AE0000091CB01E090CC018091C80190E070E0D2
:100AF00040E050E030E010E0FF240E941E1264EF5E
:100B000071E080E090E00E94A50981ED91E00E94F3
:100B1000FB0E81ED91E060E040E00E94CC0E81EDA3
:100B200091E06AEC74E00EC081ED91E00E94FB0E52
:100B300081ED91E060E040E00E94CC0E81ED91E01B
:100B400068EB74E00E947E0C60ED77E080E090E05E
:100B50000E94A50981ED91E00E94FB0E1F910F916B
:100B6000FF90EF90089586EE91E00E94411988234E
:100B7000D1F08332C1F481ED91E060E041E00E9468
:100B8000CC0E81ED91E069E575E00E947E0C60ED90
:100B900077E080E090E00E94A50981ED91E00E945D
:100BA000FB0E0E9479040895CF93DF93EC0181ED51
:100BB00091E064E171E00E94DD0DCA30D1052CF4B2
:100BC00081ED91E060E30E94A10C81ED91E0BE0116
:100BD0004AE050E00E94CA0DDF91CF9108950F9333
:100BE0001F9301ED11E0C80160E040E00E94CC0ECF
:100BF0000E94C212BC01C8014AE050E00E94CA0D26
:100C00000E94BA120E94D4050E94B2120E94D4051A
:100C10001F910F9108950E94EF058AEB94E048EE32
:100C200053E060E070E00E9438160E94B30508951A
:100C30004F925F926F927F928F929F92AF92BF92EC
:100C4000CF92DF92EF92FF920F931F93CF93DF9398
:100C500001C0CF01FC0181918A33D9F7EF01808176
:100C6000843611F014E024C0329620E030E013C046
:100C7000C901B3E0880F991FBA95E1F7220F331F1E
:100C8000820F931F242F332727FD309520533040A8
:100C9000280F391F31964081842F80538A3040F3CA
:100CA0001216130614F014E001C0122FEF01219662
:100CB00088818F3611F006E014C0FE013196AF0135
:100CC0004F5F5F4F8181992787FD90959C0120534D
:100CD0003040C397059710F006E001C0022FEA01EB
:100CE00022968881823619F08FE390E020C0CE01F1
:100CF000029620E030E013C0C90173E0880F991F0D
:100D00007A95E1F7220F331F820F931F242F332789
:100D100027FD309520533040280F391FCF01FC01AB
:100D20004191842F80538A3038F3EF01C9019C012F
:100D3000442737FD4095542F60E67AEE80E090E03E
:100D40000E94571E49015A0152E0880C991CAA1CA6
:100D5000BB1C5A95D1F7412E5524662477249FC099
:100D6000CB0143E0880F991F4A95E1F7660F771F83
:100D7000860F971F612F772767FD7095605370402E
:100D8000680F791F21961881812F80538A3040F394
:100D90006115710541F09B01442737FD4095542FA3
:100DA000C501B40104C0C501B401A30192010E94B0
:100DB000571EC901DA016C017D01143681F0153628
:100DC0003CF41236C1F0133664F41136B1F411C09C
:100DD000163659F016363CF0173679F408C013E091
:100DE0000DC011E00BC015E009C016E007C018E007
:100DF00005C01AE003C01CE001C010E02196888104
:100E0000833211F41F5F219688818E3279F4C701F5
:100E1000B60122E030E040E050E00E94571EC901D8
:100E2000DA01C80ED91EEA1EFB1E21969881905346
:100E30009A3010F0902F01C0219688818C3209F4ED
:100E40002196112331F1892F90E0FC01EE0FFF1F55
:100E5000E80FF91FEE0FFF1FEE0FFF1FE10FF11D4F
:100E6000EE0FFF1FEA54FF4F6081718186EC91E025
:100E700020E030E040E050E00E94651B8AEB94E007
:100E8000B701A6010E94381686EC91E00E94471B2C
:100E900006C08AEB94E0B701A6010E94381688814B
:100EA000882319F060E070E06ECFDF91CF911F9141
:100EB0000F91FF90EF90DF90CF90BF90AF909F90F9
:100EC0008F907F906F905F904F900895EF92FF9278
:100ED0000F931F93E6EBF4E0659174911EE3E12E0E
:100EE00012E0F12EC7010E942B030DE714E0C801A8
:100EF00068E675E00E94C90CC801B7010E94E00DC8
:100F0000C7010E9418061F910F91FF90EF9008955E
:100F1000EF92FF920F931F93E4EBF4E065917491CD
:100F20000EE3E02E02E0F02EC7010E942B030DE736
:100F300014E0C80164E775E00E94C90CC801B7015C
:100F40000E94E00DC7010E9418061F910F91FF90AB
:100F5000EF900895EF92FF920F931F93E2EBF4E06E
:100F6000659174918EE3E82E82E0F82EC7010E940D
:100F70002B030DE714E0C8016AE775E00E94C90C75
:100F8000C801B7010E94E00DC7010E9418061F9119
:100F90000F91FF90EF900895EF92FF920F931F93A0
:100FA000E0EBF4E0659174919EE3E92E92E0F92E76
:100FB000C7010E942B030DE714E0C80163E875E048
:100FC0000E94C90CC801B7010E94E00DC7010E9430
:100FD00018061F910F91FF90EF900895EF92FF92E6
:100FE0000F931F93EEEAF4E0659174912EE3E22EE5
:100FF00022E0F22EC7010E942B030DE714E0C80186
:101000006FE875E00E94C90CC801B7010E94E00DAD
:10101000C7010E9418061F910F91FF90EF9008954D
:10102000AF92BF92CF92DF92EF92FF920F931F93F6
:10103000EAEBCE2EE4E0DE2E7EEEA72E77E0B72E92
:10104000C60162E070E047E050E02FE030E00AE0E7
:1010500010E075010E94C715C60163E070E047E02B
:1010600050E02FE030E00E94C715C60164E070E058
:1010700047E050E02FE030E00E94C715C60165E070
:1010800070E047E050E02FE030E00E94C715C60155
:1010900066E070E047E050E02FE030E00E94C715C6
:1010A0006CECA62E67E0B62EC60162E070E048E068
:1010B00050E020E030E075010E94C715C60163E0F2
:1010C00070E048E050E020E030E00E94C715C60123
:1010D00064E070E048E050E020E030E00E94C71596
:1010E000C60165E070E048E050E020E030E00E949A
:1010F000C715C60166E070E048E050E020E030E04F
:101100000E94C7155AEAA52E57E0B52EC60162E027
:1011100070E04AE050E028E230E075010E94C71517
:10112000C60163E070E04AE050E028E230E00E944F
:10113000C715C60164E070E04AE050E028E230E004
:101140000E94C715C60165E070E04AE050E028E261
:1011500030E00E94C715C60166E070E04AE050E04A
:1011600028E230E00E94C71548E8A42E47E0B42EDC
:10117000C60162E070E04BE050E024E130E0750130
:101180000E94C715C60163E070E04BE050E024E127
:1011900030E00E94C715C60164E070E04BE050E00B
:1011A00024E130E00E94C715C60165E070E04BE025
:1011B00050E024E130E00E94C715C60166E070E00F
:1011C0004BE050E024E130E00E94C71536E6A32E44
:1011D00037E0B32EC60162E070E04EE050E02EE151
:1011E00030E075010E94C715C60163E070E04EE073
:1011F00050E02EE130E00E94C715C60164E070E0C7
:101200004EE050E02EE130E00E94C715C60165E0D7
:1012100070E04EE050E02EE130E00E94C715C601BC
:1012200066E070E04EE050E02EE130E00E94C7152D
:101230001F910F91FF90EF90DF90CF90BF90AF90F4
:101240000895EF92FF920F931F938DE794E040E88B
:1012500055E260E070E00E94CD0A86EC91E06DE01E
:101260000E94BF1981ED91E060E142E020E00E9420
:10127000030F8AE090E068E270E045E050E027E18B
:1012800030E006E010E0FEE0EF2EF12C0E941E128E
:101290000E9410081F910F91FF90EF9008951F92E8
:1012A0000F920FB60F9211242F933F938F939F931A
:1012B000AF93BF938091F0039091F103A091F2035B
:1012C000B091F3033091F4030196A11DB11D232FBA
:1012D0002D5F2D3720F02D570196A11DB11D2093B4
:1012E000F4038093F0039093F103A093F203B0937F
:1012F000F3038091EC039091ED03A091EE03B09184
:10130000EF030196A11DB11D8093EC039093ED03B3
:10131000A093EE03B093EF03BF91AF919F918F9194
:101320003F912F910F900FBE0F901F9018958FB780
:10133000F8942091F0033091F1034091F203509121
:10134000F3038FBFB901CA0108959B01AC017FB7B8
:10135000F8948091EC039091ED03A091EE03B0918D
:10136000EF0366B5A89B05C06F3F19F00196A11D5C
:10137000B11D7FBFBA2FA92F982F8827860F911DE7
:10138000A11DB11D62E0880F991FAA1FBB1F6A959E
:10139000D1F7BC012DC0FFB7F8948091EC03909178
:1013A000ED03A091EE03B091EF03E6B5A89B05C055
:1013B000EF3F19F00196A11DB11DFFBFBA2FA92F54
:1013C000982F88278E0F911DA11DB11DE2E0880F77
:1013D000991FAA1FBB1FEA95D1F7861B970B885E42
:1013E0009340C8F2215030404040504068517C4FFB
:1013F000211531054105510571F60895019739F020
:10140000880F991F880F991F02970197F1F7089588
:10141000789484B5826084BD84B5816084BD85B5CF
:10142000826085BD85B5816085BDEEE6F0E0808196
:1014300081608083E1E8F0E01082808182608083B7
:10144000808181608083E0E8F0E08081816080833A
:10145000E1EBF0E0808184608083E0EBF0E080816C
:1014600081608083EAE7F0E080818460808380810E
:1014700082608083808181608083808180688083B6
:101480001092C100089508951F920F920FB60F9207
:1014900011242F933F934F938F939F93EF93FF9339
:1014A0008091C00082FD1DC04091C600209135048E
:1014B000309136042F5F3F4F2F7330708091370487
:1014C000909138042817390771F0E0913504F091B4
:1014D0003604EB50FC4F40833093360420933504A0
:1014E00002C08091C600FF91EF919F918F914F9123
:1014F0003F912F910F900FBE0F901F901895E09184
:101500008904F0918A04E05CFF4F819191912081E0
:101510003181821B930B8F739070892B11F00E9485
:10152000430A08951F920F920FB60F9211242F9322
:101530003F938F939F93EF93FF9320917904309182
:101540007A0480917B0490917C042817390731F448
:101550008091C1008F7D8093C10014C0E0917B0415
:10156000F0917C04E75CFB4F208180917B0490919B
:101570007C0401968F73907090937C0480937B041D
:101580002093C600FF91EF919F918F913F912F91F2
:101590000F900FBE0F901F901895AF92BF92DF92E1
:1015A000EF92FF920F931F93CF93DF93EC017A0199
:1015B0008B01DD24403081EE580780E0680780E031
:1015C000780711F0DD24D39491E0A92EB12CEC8999
:1015D000FD89DD2069F0C50108A002C0880F991FB0
:1015E0000A94E2F7808360E079E08DE390E005C043
:1015F000108260E874E88EE190E0A80197010E94F3
:10160000351E215030404040504056954795379503
:10161000279580E12030380720F0DD2011F0DD240F
:10162000D6CFE889F9893083EA89FB89208319A21A
:10163000EE89FF89408121E030E0C9010C8C02C0B5
:10164000880F991F0A94E2F7482B4083EE89FF899F
:101650004081C9010D8C02C0880F991F0A94E2F7DE
:10166000482B4083EE89FF894081C9010E8C02C05E
:10167000880F991F0A94E2F7482B4083EE89FF896F
:1016800080810F8C02C0220F331F0A94E2F720954D
:1016900028232083DF91CF911F910F91FF90EF902E
:1016A000DF90BF90AF900895DC011C96ED91FC9106
:1016B0001D97E05CFF4F2191319180819181281B22
:1016C000390B2F733070C9010895DC011C96ED9120
:1016D000FC911D97E05CFF4F20813181E054F04088
:1016E000DF01AE5BBF4F8D919C9111972817390791
:1016F00019F42FEF3FEF07C08D919C91E80FF91F70
:101700008081282F30E0C9010895DC011C96ED91FD
:10171000FC911D97E05CFF4F20813181E054F04047
:10172000DF01AE5BBF4F8D919C9111972817390750
:1017300019F42FEF3FEF10C08D919C911197E80F96
:10174000F91F20818D919C91119701968F73907054
:1017500011969C938E9330E0C9010895DC01919617
:101760008C919197882339F05496ED91FC9155977F
:10177000808186FFF9CF91961C920895CF93DF93D5
:10178000EC01EE85FF85E05CFF4F20813181E05464
:10179000F0402F5F3F4F2F733070DF01AE5BBF4FC4
:1017A0008D919C91119728173907D1F3E05CFF4F79
:1017B00080819181E054F040E80FF91F6083EE854D
:1017C000FF85E05CFF4F31832083EE89FF89208114
:1017D00081E090E00F8C02C0880F991F0A94E2F715
:1017E000282B208381E089A3EC89FD898081806496
:1017F000808381E090E0DF91CF9108951092800482
:1018000010927F0488EE93E0A0E0B0E08093810422
:1018100090938204A0938304B093840483E991E0BD
:1018200090937E0480937D0485EF93E090938A04E7
:101830008093890489E394E090938C0480938B04D3
:1018400085EC90E090938E0480938D0484EC90E07E
:101850009093900480938F0480EC90E09093920496
:101860008093910481EC90E090939404809393048E
:1018700082EC90E0909396048093950486EC90E03F
:10188000909398048093970484E08093990483E074
:1018900080939A0487E080939B0485E080939C0466
:1018A00081E080939D040895CF92DF92EF92FF92A2
:1018B0000F931F93CF93DF937C016B018A01C0E0EC
:1018C000D0E00FC0D6016D916D01D701ED91FC9173
:1018D0000190F081E02DC7010995C80FD91F015073
:1018E00010400115110571F7CE01DF91CF911F91C5
:1018F0000F91FF90EF90DF90CF900895EF92FF92BD
:101900000F931F93CF93DF937C018B01C0E0D0E056
:10191000F8010F5F1F4F6491662359F0D701ED91D5
:10192000FC910190F081E02DC7010995C80FD91FE6
:10193000EFCFCE01DF91CF911F910F91FF90EF90EC
:101940000895DC01ED91FC910190F081E02D099565
:101950000895EF92FF920F931F938C01DC01ED919C
:10196000FC910190F081E02D6DE009957C01D8019A
:10197000ED91FC910190F081E02DC8016AE009959C
:101980009C012E0D3F1DC9011F910F91FF90EF90FB
:101990000895EF92FF920F931F937C010E947E0C9B
:1019A0008C01C7010E94A90C9C01200F311FC901A5
:1019B0001F910F91FF90EF900895CF93DF93EC016B
:1019C0006115710519F420E030E00FC0DB010D90C6
:1019D0000020E9F71197A61BB70BE881F981028077
:1019E000F381E02DAD0109959C01C901DF91CF91F3
:1019F00008954F925F927F928F929F92AF92BF9283
:101A0000CF92DF92EF92FF920F931F93DF93CF93CA
:101A1000CDB7DEB7A1970FB6F894DEBF0FBECDBF2E
:101A20002C01742ECB01223008F42AE019A231E2F5
:101A3000C32ED12CCC0EDD1E822E9924AA24BB24C9
:101A4000672D752FA50194010E94351E79018A0129
:101A5000C801B701A50194010E94EF1D472D461B47
:101A60000894C108D1084A3014F4405D01C0495CB3
:101A7000F6014083E114F1040105110521F07E2CEB
:101A80005F2DC801DDCFC201B6010E94DD0CA19619
:101A90000FB6F894DEBF0FBECDBFCF91DF911F917F
:101AA0000F91FF90EF90DF90CF90BF90AF909F90FD
:101AB0008F907F905F904F900895DC012115310544
:101AC00041F4ED91FC910190F081E02D642F099596
:101AD00008950E94F90C0895CF92DF92EF92FF9241
:101AE0000F931F936C01E62E9A01FF2400E010E093
:101AF000B801A7010E945D0D8C01C6010E94A90CCE
:101B0000080F191FC8011F910F91FF90EF90DF90F0
:101B1000CF900895CF92DF92EF92FF920F931F9391
:101B2000CF93DF93EC016A017B012115310541F46C
:101B3000E881F9810190F081E02D642F09951FC0A3
:101B40002A303105D1F477FF17C0E881F98101907F
:101B5000F081E02D6DE209958C0144275527BA01EB
:101B60004C195D096E097F09CE012AE00E94F90C2B
:101B70009801280F391F04C02AE00E94F90C9C012B
:101B8000C901DF91CF911F910F91FF90EF90DF90EE
:101B9000CF900895EF92FF920F931F937B019A01CC
:101BA0000027F7FC0095102FB801A7010E948A0DAD
:101BB0001F910F91FF90EF9008950E94DD0C089502
:101BC000EF92FF920F931F937C010E94DD0C8C011A
:101BD000C7010E94A90C080F191FC8011F910F917E
:101BE000FF90EF900895CF93DF930E94080A0E9420
:101BF0002109CFE7DAE00E940B062097E1F30E946B
:101C00007F0AF9CF0F931F938C01FC01868160E05E
:101C10000E94481D81E090E00E94FE09F801868143
:101C200061E00E94481D81E090E00E94FE09F801F9
:101C3000868160E00E94481D84E690E00E94FE09D3
:101C40001F910F910895CF92DF92EF92FF920F9321
:101C50001F93CF93DF93D82EC92E282F392FC90178
:101C60008C01C0E0D0E0E62EFF24F801878161E01E
:101C70000E94091DB7010C2E02C0759567950A9444
:101C8000E2F76170F80187810E94481D21960F5F7D
:101C90001F4FC830D10549F78D2D9C2D0E94020E93
:101CA000DF91CF911F910F91FF90EF90DF90CF9038
:101CB0000895CF92DF92EF92FF920F931F93CF93ED
:101CC000DF93D82EC92E282F392FC9018C01C0E0EF
:101CD000D0E0E62EFF24F801878161E00E94091D13
:101CE000B7010C2E02C0759567950A94E2F76170F2
:101CF000F80187810E94481D21960F5F1F4FC43055
:101D0000D10549F78D2D9C2D0E94020EDF91CF91B8
:101D10001F910F91FF90EF90DF90CF9008951F9348
:101D2000CF93DF93EC01162F8C81642F0E94481D06
:101D30008D818F3F19F060E00E94481D8F8584FFE0
:101D400005C0CE01612F0E94230E0EC0612F70E0EE
:101D500084E0759567958A95E1F7CE010E94590E4A
:101D6000CE01612F0E94590EDF91CF911F910895EE
:101D700041E00E948F0E81E090E0089540E00E94D3
:101D80008F0E0895FC016089862F8460808B6C60C3
:101D9000CF010E94BE0E0895DF93CF93CDB7DEB77B
:101DA00028970FB6F894DEBF0FBECDBF9C01FE0191
:101DB0003196A7EAB1E088E00D9001928150E1F7F9
:101DC000F9018389481710F0482F4150E42FF0E0C3
:101DD000EE0FFF1FEC0FFD1F8181680F6068C901C6
:101DE0000E94BE0E28960FB6F894DEBF0FBECDBF80
:101DF000CF91DF91089561E00E94BE0E80ED97E0E3
:101E00000E94FE090895CF93DF93EC01423018F051
:101E10008F8588608F874B8B1C8A222329F0413065
:101E200019F48F8584608F8780E593EC0E94FE090A
:101E30008C8160E00E94481D8E8160E00E94481DF8
:101E40008D818F3F19F060E00E94481D6F8564FD11
:101E50001DC0CE0163E00E94590E84E991E10E9409
:101E6000FE09CE0163E00E94590E84E991E10E94CF
:101E7000FE09CE0163E00E94590E86E990E00E94BF
:101E8000FE09CE0162E00E94590E16C06062CE01CA
:101E90000E94BE0E84E991E10E94FE096F85606296
:101EA000CE010E94BE0E86E990E00E94FE096F8579
:101EB0006062CE010E94BE0E6F856062CE010E94FC
:101EC000BE0E84E0888BCE010E94C20ECE010E941D
:101ED000FB0E82E0898BCE0166E00E94BE0EDF9190
:101EE000CF9108956F927F928F92AF92CF92EF929F
:101EF0000F931F93DF93CF93CDB7DEB73C01162F1F
:101F0000842FF301448325830683E782C086A1865C
:101F100082869D8593879E8594879F8595879889DE
:101F2000968761E00E94091DF30185818F3F19F0BA
:101F300061E00E94091DF301868161E00E94091D94
:101F4000112319F0F301178603C080E1F30187879D
:101F5000C30160E141E020E00E94030FCF91DF91D7
:101F60001F910F91EF90CF90AF908F907F906F90D7
:101F700008958F92AF92CF92EF920F931F93CF93CA
:101F8000DF93DC01362F542F722F102FAE2C8C2CA8
:101F900013961C921E92129783EA91E011969C93DD
:101FA0008E9300D000D0EDB7FEB73196CDB7DEB737
:101FB0001982118212821382CD0161E0432F2FEF2B
:101FC000052FE72EC12E0E94720F0F900F900F90D9
:101FD0000F90DF91CF911F910F91EF90CF90AF9025
:101FE0008F9008958F929F92AF92BF92CF92DF927F
:101FF000EF92FF920F931F93CF93DF937B018C019E
:10200000EA012CE330E040E050E00E94351E688396
:10201000C801B7012CE330E040E050E00E94351EDB
:10202000122F032FF42EE52E622F732F842F952F5E
:102030002CE330E040E050E00E94351E6983612FC0
:10204000702F8F2D9E2D2CE330E040E050E00E9459
:10205000351E122F032FF42EE52E622F732F842F9F
:10206000952F28E130E040E050E00E94351E6A8361
:10207000612F702F8F2D9E2D28E130E040E050E041
:102080000E94351E79018A01C801B7016C5F7F4F3C
:102090008F4F9F4F27E030E040E050E00E94351E18
:1020A0006F5F6B8320E0AA24BB24650101C02F5F12
:1020B000822E9924F401EE54F84FCF018370907072
:1020C000892B99F4CF0164E670E00E94221E892BCF
:1020D00039F4CF0160E971E00E94221E892B29F4B6
:1020E0008EE691E0A0E0B0E004C08DE691E0A0E0D3
:1020F000B0E0A80EB91ECA1EDB1EC501A0E0B0E00C
:10210000E816F9060A071B0790F62E83F401EE5431
:10211000F84F83E0882E912C8E229F228114910407
:1021200099F4CF0164E670E00E94221E892B39F4F5
:10213000CF0160E971E00E94221E892B29F48EE60E
:1021400091E0A0E0B0E004C08DE691E0A0E0B0E056
:10215000A81AB90ACA0ADB0A980187010A191B09D9
:102160002C093D09CF0164E670E00E94221E7C012B
:10217000CF0160E971E00E94221EAC01EFEAF1E0BC
:1021800060E0613051F48114910449F4E114F104E8
:1021900041F44115510529F002C0808103C08CE152
:1021A00001C08DE190E0A0E0B0E0081719072A0710
:1021B0003B0740F0081B190B2A0B3B0B6F5F319656
:1021C0006C30F9F66F5F6D83802F8F5F8C83DF91AA
:1021D000CF911F910F91FF90EF90DF90CF90BF9024
:1021E000AF909F908F900895EF92FF920F931F935F
:1021F0007B018C018091B6049091B704A091B80442
:10220000B091B904E816F9060A071B0771F0C80176
:10221000B7014BEA54E00E94F20FE092B604F0924C
:10222000B7040093B8041093B9041F910F91FF9065
:10223000EF9008954F925F926F927F928F929F924C
:10224000AF92BF92CF92DF92EF92FF920F931F93C4
:10225000CF93DF934C01DC0116961C91612F70E047
:1022600080E090E020E833E341EE51E00E94EF1D72
:102270005B016C0122EB37E0E12FF0E0EE54F84F08
:102280001DC0C90183709070892BB1F4C90164E647
:1022900070E00E94221E892B39F4C90160E971E0C7
:1022A0000E94221E892B41F480E891E5A1E0B0E074
:1022B000A80EB91ECA1EDB1E2F5F3F4F2E173F0709
:1022C00001F7D40115968C91482E5524C90164E676
:1022D00070E00E94221E7C01C90160E971E00E9449
:1022E000221E8C01C1E0D0E093E0692E712C6222A5
:1022F000732227C0C230D10591F46114710479F4BE
:10230000E114F10419F40115110549F480E89BE387
:10231000A6E2B0E0A80EB91ECA1EDB1E11C0FE0167
:10232000E255FE4F608170E080E090E020E831E50A
:1023300041E050E00E94EF1DA60EB71EC81ED91E38
:102340002196C415D505B4F2D40112966C9170E0B3
:1023500080E090E020E13EE040E050E00E94EF1D90
:102360007B018C01F401618170E080E090E02CE35E
:1023700030E040E050E00E94EF1DE60EF71E081F1F
:10238000191FD4018C91E80EF11C011D111D14962A
:102390006C9170E061507040882777FD8095982F90
:1023A00020E831E541E050E00E94EF1DE60EF71E07
:1023B000081F191FEA0CFB1C0C1D1D1DB701C801CD
:1023C000DF91CF911F910F91FF90EF90DF90CF9011
:1023D000BF90AF909F908F907F906F905F904F9045
:1023E00008956093A1047093A2048093A304909332
:1023F000A40420918B0130918C0140918D0150916A
:102400008E01260F371F481F591F2093A5043093B4
:10241000A6044093A7045093A80482E090E0909310
:10242000AA048093A9040E9497096093B204709350
:10243000B3048093B4049093B5040895EF92FF928F
:102440000F93F701E436F1051CF0E25BF74001C0A1
:102450007E96E093B1040093B0042093AF04809380
:10246000AD046093AC044093AB048BEA94E00E940B
:102470001A110E94F1110F91FF90EF900895EF92C1
:10248000FF920F931F931CC02F5F3F4F4F4F5F4F23
:102490002093A1043093A2044093A3045093A40476
:1024A00088EE93E0A0E0B0E0E80EF91E0A1F1B1FC3
:1024B000E092B204F092B3040093B4041093B50414
:1024C0000E949709E090B204F090B3040091B40424
:1024D0001091B5046E197F09800B910B2091A10416
:1024E0003091A2044091A3045091A404685E73400B
:1024F0008040904048F68091A5049091A604A09158
:10250000A704B091A804281739074A075B07E8F029
:10251000E0919F04F091A0043097B9F009956115FE
:1025200071058105910519F00E94F1110EC020E09E
:1025300030E08091A9049091AA04892B11F021E048
:1025400030E03093AA042093A9046091A104709113
:10255000A2048091A3049091A4041F910F91FF9075
:10256000EF9008950E943F120E94F4108091AB04F6
:1025700090E008950E943F120E94F4108091AC04F4
:1025800090E008950E943F120E94F4108091AD04E3
:1025900090E00895CF93DF93DC01FC0120E030E070
:1025A0008285807C8287168217821086118612822D
:1025B00013821482158211821082255F3F4F3B9651
:1025C0002234310569F7AE5BBF4F1C92A254B04074
:1025D000ED0120E030E04BE050E0249FF001259F2A
:1025E000F00D349FF00D1124EA0FFB1F9285892F07
:1025F0008F7061F0907E9287198218821A821B82F6
:102600001C821D821E821F82188619862F5F3F4FF3
:102610002B962630310509F7DF91CF9108958AEB8B
:1026200094E00E94CA1208952F923F924F925F92B7
:102630006F927F928F929F92AF92BF92CF92DF92D2
:10264000EF92FF920F931F93DF93CF9300D000D0B0
:1026500000D0CDB7DEB79E838D83FC01828193814C
:10266000A481B5810097A105B10509F45BC18285FC
:1026700084FF58C10E943F1269837A838B839C83B5
:10268000AD81BE811A963C911A97232F2F70822F0D
:10269000825F8F70833008F028C116968D919D91CE
:1026A0000D90BC91A02D49815A816B817C81481786
:1026B00059076A077B0708F418C1223059F4ED81E5
:1026C000FE8182819381A481B58186839783A087CF
:1026D000B1870BC1233009F061C0AD81BE81129674
:1026E000ED90FD900D911C9115970E943F1220E8EE
:1026F00031E541E050E00E94351ECA01B90120E8F1
:1027000031E541E050E00E94EF1DE60EF71E081F84
:10271000191FED81FE81A280B380C480D5802981FC
:102720003A814B815C812E153F0540075107C8F067
:10273000CA01B90120E831E541E050E00E94351EB0
:102740002F5F3F4F4F4F5F4FCA01B90120E831E57E
:1027500041E050E00E94EF1DA60EB71EC81ED91E14
:10276000ACC069817A818B819C8120E831E541E0B0
:1027700050E00E94351ECA01B90120E831E541E070
:1027800050E00E94EF1DA60EB71EC81ED91EED8197
:10279000FE81A682B782C086D186A7C0243009F008
:1027A000A0C0AD81BE8112966D907D908D909C9061
:1027B00015970E943F127B018C010E943F125B0122
:1027C0006C010E943F121B012C01E60CF71C081D36
:1027D000191DC601B50120E831E541E050E00E9435
:1027E000351EE61AF70A080B190BC201B10120E8E1
:1027F00031E541E050E00E94351E2C5F3F4F4F4FC6
:102800005F4FCA01B90127E030E040E050E00E948C
:10281000351E20E831E541E050E00E94EF1DE61A48
:10282000F70A080B190BED81FE81A280B380C480EA
:10283000D58029813A814B815C812E153F05400767
:10284000510708F443C040E85AE369E070E0A40E81
:10285000B51EC61ED71E69817A818B819C81A60E0A
:10286000B71EC81ED91E20E831E541E050E00E94A5
:10287000351EA61AB70AC80AD90A69817A818B81DE
:102880009C8120E831E541E050E00E94351E2C5F3C
:102890003F4F4F4F5F4FCA01B90127E030E040E0A2
:1028A00050E00E94351E20E831E541E050E00E94F2
:1028B000EF1DA61AB70AC80AD90AAD81BE811696BD
:1028C000AD92BD92CD92DC9219970FC029813A81C9
:1028D0004B815C81A20EB31EC41ED51ECA01B90174
:1028E000C2CF3F7EED81FE813287AD81BE811A96D7
:1028F0008C911A978F708130E9F412968D919D9189
:102900000D90BC91A02D29813A814B815C81820F71
:10291000931FA41FB51FED81FE8186839783A08737
:10292000B18708C0AD81BE811A968C911A978F7EAF
:102930001A968C9326960FB6F894DEBF0FBECDBFC5
:10294000CF91DF911F910F91FF90EF90DF90CF908B
:10295000BF90AF909F908F907F906F905F904F90BF
:102960003F902F900895AC01663098F570E08BE0B1
:1029700090E0689FF001699FF00D789FF00D1124A1
:10298000E40FF51F82858F7021F182819381A481EC
:10299000B5810097A105B10511F420E006C020E043
:1029A00080819181892B09F021E08BE090E0689F84
:1029B000F001699FF00D789FF00D1124E40FF51FD1
:1029C0002295207F82858F7E822B8287CF010E9475
:1029D00014130895CF92DF92EF92FF920F931F93FB
:1029E000CF93DF93EC01FC01EE5BFF4F80818823E6
:1029F00009F05BC081E08083FE01ED5BFF4F108238
:102A00008F019BE0C92ED12C48C090E08C9DF00135
:102A10008D9DF00D9C9DF00D1124EC0FFD1F828506
:102A200084FF37C00E943F12F801A0812A2F30E0B6
:102A30002C9DF0012D9DF00D3C9DF00D1124EC0F0F
:102A4000FD1F2681378140855185621773078407F2
:102A50009507F8F0E080F180928595FF12C0A630CE
:102A600098F4892F8F7081F0907E92871182108266
:102A700012821382148215821682178210861186A2
:102A800003C0CF010E941413E114F10411F0F70107
:102A90000995F80180818F5F8083F80180818630FD
:102AA00008F4B3CFCE5BDF4F1882DF91CF911F9137
:102AB0000F91FF90EF90DF90CF9008954F925F922B
:102AC0006F927F928F929F92AF92BF92CF92EF922E
:102AD000FF920F931F93CF93DF932C014A015B0169
:102AE0003901E701C7010297039738F40E943F12AA
:102AF0006050724E8F4D9140C0F160E070E02BE06D
:102B000030E0162F629FF001639FF00D729FF00D71
:102B10001124E40DF51DDF011A9682858F7001F5F1
:102B20007182608201700295000F007E8C91807D21
:102B30009E012F70802B822B8C9382829382A482A1
:102B4000B582CC2021F0C2010E94B3140FC06630C0
:102B500068F49C91892F8F7049F09F7E9C9306C0EA
:102B60006F5F7F4F6630710561F61FEF812FDF9138
:102B7000CF911F910F91FF90EF90CF90BF90AF90AA
:102B80009F908F907F906F905F904F9008952F92BD
:102B90003F924F925F926F927F928F929F92AF92ED
:102BA000BF92CF92DF92EF92FF920F931F93DF932A
:102BB000CF9300D0CDB7DEB79A8389832A0139013C
:102BC000180161507040882777FD8095982F20E884
:102BD00031E541E050E00E94EF1D5B016C0188246B
:102BE00077FC8094982CC401B3012CE330E040E0E2
:102BF00050E00E94EF1DA60EB71EC81ED91EB201DE
:102C0000882777FD8095982F20E13EE040E050E056
:102C10000E94EF1DA60EB71EC81ED91E442437FC05
:102C20004094542C2A0C3B1C4C1C5D1C89819A81BD
:102C3000B201A101970100E014E0E12EF12CCC24B7
:102C4000C3940E945E150F900F90CF91DF911F915A
:102C50000F91FF90EF90DF90CF90BF90AF909F903B
:102C60008F907F906F905F904F903F902F9008953E
:102C7000AF92BF92CF92DF92EF92FF920F931F938A
:102C8000CF93DF93EC015A016B010E9497097B01FE
:102C90008C0103C0CE010E94EA140E9497096E19AC
:102CA0007F09800B910BA616B706C806D90690F7C8
:102CB000DF91CF911F910F91FF90EF90DF90CF9018
:102CC000BF90AF900895DC01E62FF0E0EE0FFF1FFC
:102CD000EE0FFF1FEA0FFB1F548F438F81E0858F9C
:102CE000AA5ABF4FED91FC911197A655B04030976D
:102CF00019F05A968C9109950895AF92BF92CF9290
:102D0000DF92EF92FF920F93DF93CF9300D0CDB776
:102D1000DEB75C0100E021E5C22ED12CC80ED91E21
:102D20009EE4E92EF12CEA0CFB1C29C0802F90E0D8
:102D30009A838983D5012D913C91D701ED91FC9126
:102D4000E80FF91FD9012D913C91C501608140E048
:102D5000F9010995F50120813181D701ED91FC91AF
:102D600089819A81E80FF91FD90112962D913C9122
:102D70001397C501608141E0F90109950F5FF601E4
:102D80008081081798F20F900F90CF91DF910F91EB
:102D9000FF90EF90DF90CF90BF90AF9008950F938A
:102DA0001F93CF93DF93EC01162F042FE62FF0E053
:102DB000EE0FFF1FEE0FFF1FE80FF91F158E838D1B
:102DC000948D81309105E1F0823091051CF4892BBE
:102DD00039F03FC08230910581F10397D1F534C0BD
:102DE0004130B9F5CE0141E050E00E9463160E94E7
:102DF0009709CE5BDF4F688379838A839B8329C0E1
:102E00000E949709CE5BDF4F288139814A815B811F
:102E1000621B730B840B950B629628813981C45514
:102E2000D04040E050E0261737074807590728F4FC
:102E3000CE01612F42E050E00AC0002351F4CE01E0
:102E4000612F43E050E003C0CE0140E050E00E941B
:102E50006316DF91CF911F910F9108954F925F926A
:102E60006F927F928F929F92AF92BF92CF92DF929A
:102E7000EF92FF920F931F93CF93DF93EC012C01FE
:102E8000FC0120E0838D948D892B11F4128E158E18
:102E90002F5F34962A30B1F7EE24A0E56A2E712C0C
:102EA0006C0E7D1EF1E58F2E912C8C0E9D1EEAE49A
:102EB000AE2EB12CAC0EBD1E50C02F2D30E0D8016F
:102EC0008D919C910F2C02C0969587950A94E2F7FC
:102ED000482F4170852F90E0FC01CE9EC001CF9E0F
:102EE000900DDE9E900D1124D501ED91FC91E20F25
:102EF000F31FE80FF91F5081F20160E070E0828D4E
:102F0000851711F4CE0119C06F5F7F4F34966A3078
:102F10007105A9F731C0F20160E070E0828D88236D
:102F200079F4FB01EE0FFF1FEE0FFF1FEC0FFD1FEB
:102F3000528F148E138ECE0141E00E94CF1606C030
:102F40006F5F7F4F34966A30710541F7F394F40157
:102F50005081F51608F4B1CFE394D3018C91E816B3
:102F600070F4FF24CE2CDD2486010D5F1F4F000F6F
:102F7000111F0C0F1D1FEBCF442369F6E7CFDF9124
:102F8000CF911F910F91FF90EF90DF90CF90BF9066
:102F9000AF909F908F907F906F905F904F9008952B
:102FA0003F924F925F926F927F928F929F92AF92D9
:102FB000BF92CF92DF92EF92FF920F931F93DF9316
:102FC000CF93CDB7DEB728970FB6F894DEBF0FBE0C
:102FD000CDBF98878F830E9497092F8138852A5B00
:102FE0003F4FD9012D913D914D915C911397621BFB
:102FF000730B840B950B1C962D913C911197A25548
:10300000B040B887AF8340E050E026173707480745
:10301000590710F033241AC1FF2430E5A32EB12C38
:10302000EF81F885AE0EBF1E2CE4C22ED12CCE0E41
:10303000DF1E29C00F2D10E0AF81B8858D919C91C6
:10304000D601ED91FC91E00FF11FDC012D913C9137
:103050008F819885608142E0F9010995EF81F885BB
:1030600080819181D601ED91FC91E00FF11FDC018F
:1030700012962D913C9113978F819885608141E044
:10308000F9010995F394F5018081F81698F233243B
:10309000EE242F8138852F5A3F4F3A8329839EE4AF
:1030A000A92EB12C4F815885A40EB51E405B5F4FF1
:1030B0005C834B838F819885845B9F4F9E838D8338
:1030C000AFC0CE2CDD24AF81B8858D919C91D50108
:1030D000ED91FC91EC0DFD1DDC012D913C918F815A
:1030E0009885608141E0F9010995EF81F88580813B
:1030F0009181D501ED91FC91EC0DFD1DDC01129645
:103100002D913C9113978F819885608140E0F90162
:10311000099581E090E0A0E0B0E00E2C04C0880F9B
:10312000991FAA1FBB1F0A94D2F74C012C0140948F
:10313000509481E0682E712C0E2C02C0660C771C16
:103140000A94E2F7FF243FC00F2D10E0AD81BE814D
:10315000ED91FC91E00FF11FD90114962D913C9156
:1031600015978F8198856081F9010995F80133964B
:10317000892B59F4EE0FFF1F2F813885E20FF31FC3
:1031800080819181882999290AC0EE0FFF1F4F8104
:103190005885E40FF51F80819181842195219183C9
:1031A0008083EF2DF0E03396EE0FFF1F8F8198851F
:1031B000E80FF91F8081918186219721892B11F0D9
:1031C00033243394F394AB81BC818C91EF81F885E7
:1031D00020813181F81608F4B7CFD501ED91FC912B
:1031E000EC0DFD1DD90112962D913C9113978F8105
:1031F0009885608141E0F9010995EF81F88580812A
:103200009181D501ED91FC91EC0DFD1DDC012D911D
:103210003C918F819885608140E0F9010995E394A4
:10322000E981FA818081E81608F44BCF8F81988577
:103230000E942E170E9497092F8138852A5B3F4FE5
:10324000D9016D937D938D939C931397832D3110AA
:1032500081E028960FB6F894DEBF0FBECDBFCF91A8
:10326000DF911F910F91FF90EF90DF90CF90BF9073
:10327000AF909F908F907F906F905F904F903F9016
:103280000895CF93DF93EC010E94D017882349F073
:103290008B8D9C8D019729F48D8D882311F08A8D5B
:1032A00001C080E0DF91CF9108956F927F928F925D
:1032B0009F92AF92BF92CF92DF92EF92FF920F93C5
:1032C0001F93CF93DF93EC014B016A015901702EDC
:1032D0006E2C02960E94FD1C8FEB91E099838883EF
:1032E0004AE1E42EF12CEC0EFD1E00E010E0C701D7
:1032F000800F911F0E94031D0C5F1F4F08321105A4
:10330000B1F7C45BDF4FC992D992A992B992799271
:10331000688227979982888228968AE090E089932C
:10332000999384EF91E08993999319821882C655F5
:10333000D040CE010E947D16CA5BDF4F18821982F1
:103340001A821B82DF91CF911F910F91FF90EF9016
:10335000DF90CF90BF90AF909F908F907F906F90B5
:103360000895862F0E949C1D0895862F642F0E9429
:10337000481D0895862F642F0E94091D0895DC01C1
:1033800090911305933008F083C06C93E92FF0E01F
:10339000E856FA4F849111968C9311979F5F909302
:1033A0001305813039F1823009F44BC0882309F0CC
:1033B00072C014BC15BC84B5826084BD85B58160C3
:1033C00085BD8C91282F30E0F901E754FA4FE49144
:1033D000F0E0EE0FFF1FEB55FA4F8591949190931B
:1033E00003058093020523533A4FF901849180939A
:1033F0000405089510928000109281008091810050
:103400008860809381008091810081608093810039
:103410008C91282F30E0F901E754FA4FE491F0E065
:10342000EE0FFF1FEB55FA4F8591949190930A058B
:103430008093090523533A4FF901849180930B053A
:1034400008951092B0001092B1008091B000826097
:103450008093B0008091B10081608093B1008C9125
:10346000282F30E0F901E754FA4FE491F0E0EE0F35
:10347000FF1FEB55FA4F859194919093110580931E
:10348000100523533A4FF901849180931205089552
:103490008FEF11968C9308951F920F920FB60F9293
:1034A00011248F939F93AF93BF93EF93FF938091DA
:1034B000FE049091FF04A0910005B0910105E091F8
:1034C0000205F09103050097A105B10531F1808156
:1034D00090910405892780838091FE049091FF04D8
:1034E000A0910005B0910105181619061A061B06D1
:1034F000FCF48091FE049091FF04A0910005B0912E
:1035000001050197A109B1098093FE049093FF047E
:10351000A0930005B09301050BC080916E008D7FD4
:1035200080936E009081809104058095892380832B
:10353000FF91EF91BF91AF919F918F910F900FBE2F
:103540000F901F9018951F920F920FB60F92112493
:103550008F939F93AF93BF93EF93FF938091050554
:1035600090910605A0910705B0910805E091090525
:10357000F0910A050097A105B10531F18081909184
:103580000B05892780838091050590910605A09100
:103590000705B0910805181619061A061B06FCF453
:1035A0008091050590910605A0910705B091080549
:1035B0000197A109B1098093050590930605A09391
:1035C0000705B09308050BC080916F008D7F809335
:1035D0006F00908180910B05809589238083FF91F6
:1035E000EF91BF91AF919F918F910F900FBE0F9070
:1035F0001F9018951F920F920FB60F9211242F93C0
:103600003F934F935F938F939F93EF93FF932091FB
:103610000C0530910D0540910E0550910F05E0917C
:103620001005F0911105211531054105510579F07D
:103630008081909112058927808312161306140643
:10364000150684F421503040404050400BC080911A
:1036500070008D7F8093700090818091120580951D
:103660008923808320930C0530930D0540930E052C
:1036700050930F05FF91EF919F918F915F914F9123
:103680003F912F910F900FBE0F901F901895FC0146
:103690008181813051F0823071F0882389F48091EA
:1036A0006E008D7F80936E000BC080916F008D7FC8
:1036B00080936F0005C0809170008D7F80937000B3
:1036C000808160E00E94481D08952F923F925F9292
:1036D0006F927F928F929F92AF92BF92CF92DF9222
:1036E000EF92FF920F931F93DF93CF9300D000D000
:1036F000CDB7DEB78C011B0129833A834B835C83F2
:10370000DC0111968C91119787FD61C18C9161E06C
:103710000E94091DF8015180552021F0F2E05F164A
:1037200009F0C7C031018824992460E072E18AE77A
:1037300090E0A40193010E94571E59016A0186017D
:1037400075010894E108F108010911092FEFE2164B
:10375000F1040105110509F008F49BC060E472E46E
:103760008FE090E0A40193010E94571E79018A0125
:103770000894E108F1080109110982E0581611F0D6
:1037800092E019C09FEFE916F1040105110509F057
:1037900010F492E087C060E970ED83E090E0A4014E
:1037A00093010E94571E79018A010894E108F108EB
:1037B0000109110993E0AFEFEA16F10401051105C3
:1037C00009F008F467C068E478EE81E090E0A401B5
:1037D00093010E94571E79018A010894E108F108BB
:1037E00001091109552011F493E01EC0B2E05B16E7
:1037F00011F094E019C0EFEFEE16F1040105110588
:1038000009F010F494E04EC064E274EF80E090E0C0
:10381000A40193010E94571E79018A010894E108CE
:10382000F1080109110995E0FFEFEF16F104010518
:10383000110581F178F162E17AE780E090E0A4017E
:1038400093010E94571E79018A010894E108F1084A
:1038500001091109552011F096E001C094E02FEF05
:10386000E216F10401051105A9F0A0F0C601B501A9
:1038700020E034E040E050E00E94571E79018A01C8
:103880000894E108F10801091109552051F495E067
:1038900003C091E0552031F485B5887F982B95BD04
:1038A0003EC097E08091B100887F982B9093B10043
:1038B00036C05101CC24DD2460E072E18AE790E05B
:1038C000A60195010E94571E79018A010894E1081A
:1038D000F1080109110980E0E81680E0F80681E0AE
:1038E000080780E0180710F491E010C068E478EE53
:1038F00081E090E0A60195010E94571E79018A019E
:103900000894E108F1080109110993E0A1E05A16B1
:1039100031F480918100887F982B90938100898178
:103920009A81AB81BC810097A105B10529F48FEF85
:103930009FEFAFEFBFEF13C0220C331CB10180E04B
:1039400090E029813A814B815C810E94EF1D28EE35
:1039500033E040E050E00E94351EC901DA01E1E0A9
:103960005E16A1F0F2E05F1619F1552081F5E7BC73
:103970008093FE049093FF04A0930005B09301058B
:1039800080916E00826080936E0021C0F092890069
:10399000E09288008093050590930605A0930705A3
:1039A000B093080580916F00826080936F000FC014
:1039B000E092B30080930C0590930D05A0930E0543
:1039C000B0930F05809170008260809370000F901B
:1039D0000F900F900F90CF91DF911F910F91FF905B
:1039E000EF90DF90CF90BF90AF909F908F907F909F
:1039F0006F905F903F902F900895FC01108212828B
:103A0000118213820895FC011082128211821382A6
:103A10000895CF93DF93482F50E0CA0183539A4F04
:103A2000FC01349147545A4FFA018491882369F17B
:103A300090E0880F991FFC01E556FA4FA591B491CB
:103A4000FC01EB55FA4FC591D491662351F42FB781
:103A5000F8948C91932F909589238C938881892356
:103A60000BC0623061F42FB7F8948C91932F90952E
:103A700089238C938881832B88832FBF06C09FB7AF
:103A8000F8948C91832B8C939FBFDF91CF910895F5
:103A9000482F50E0CA018F519A4FFC012491CA016E
:103AA00083539A4FFC01949147545A4FFA01349131
:103AB000332309F440C0222351F1233071F0243024
:103AC00028F42130A1F0223011F514C02630B1F0D5
:103AD0002730C1F02430D9F404C0809180008F7762
:103AE00003C0809180008F7D8093800010C084B5DA
:103AF0008F7702C084B58F7D84BD09C08091B000EE
:103B00008F7703C08091B0008F7D8093B000E32F4A
:103B1000F0E0EE0FFF1FEB55FA4FA591B4912FB7D0
:103B2000F894662321F48C919095892302C08C919E
:103B3000892B8C932FBF0895682F70E0CB018F5194
:103B40009A4FFC012491CB0183539A4FFC0144917D
:103B500067547A4FFB019491992319F420E030E0E7
:103B60003CC0222351F1233071F0243028F421305D
:103B7000A1F0223011F514C02630B1F02730C1F089
:103B80002430D9F404C0809180008F7703C08091E5
:103B900080008F7D8093800010C084B58F7702C035
:103BA00084B58F7D84BD09C08091B0008F7703C03C
:103BB0008091B0008F7D8093B000892F90E0880FB6
:103BC000991F81559A4FFC01A591B4918C9120E0E9
:103BD00030E0842311F021E030E0C9010895629FB4
:103BE000D001739FF001829FE00DF11D649FE00DF5
:103BF000F11D929FF00D839FF00D749FF00D659F56
:103C0000F00D9927729FB00DE11DF91F639FB00D54
:103C1000E11DF91FBD01CF0111240895AA1BBB1B93
:103C200051E107C0AA1FBB1FA617B70710F0A61BBC
:103C3000B70B881F991F5A95A9F780959095BC01DD
:103C4000CD01089597FB092E07260AD077FD04D0F1
:103C5000E5DF06D000201AF4709561957F4F089536
:103C6000F6F7909581959F4F0895A1E21A2EAA1B11
:103C7000BB1BFD010DC0AA1FBB1FEE1FFF1FA2171C
:103C8000B307E407F50720F0A21BB30BE40BF50B19
:103C9000661F771F881F991F1A9469F760957095A2
:103CA000809590959B01AC01BD01CF01089597FBD4
:103CB000092E05260ED057FD04D0D7DF0AD0001CF0
:103CC00038F450954095309521953F4F4F4F5F4FB9
:103CD0000895F6F790958095709561957F4F8F4F79
:103CE0009F4F0895EE0FFF1F0590F491E02D09946A
:043CF000F894FFCF76
:103CF400310032003300340035003600370038001C
:103D0400390030003A000000060115012601370190
:103D14004A015D01720188019F01B801D201EE01DF
:103D24000B022A024B026E029302BA02E40210034F
:103D34003F037003A403DC03170455049704DD0454
:103D440027057505C80520067D06E0064907B8075E
:103D54002D08A9082D09B9094D0AEA0A900B400C4F
:103D6400FA0CC00D910E6F0F3132333435363738BB
:103D7400392A302303020E000605042C010000003A
:103D8400000000BE0B540C540B850B650BAE0B00EE
:103D9400000000B80E540C00004000140054001F32
:103DA4001C1F1E1F1E1F1F1E1F1E1F00000000BA07
:063DB40019B519B1190058
:00000001FF
