:100000000C94BE000C94E6000C94E6000C94E60000
:100010000C94E6000C94E6000C94E6000C940D1988
:100020000C94E6000C94E6000C94E6000C94B618D0
:100030000C94E6000C94E6000C945F180C94E60017
:100040000C9472070C94E6000C9467080C94B508A5
:100050000C94E6000C94E6000C94E6000C94E60088
:100060000C94E6000C94E600536F7272792C2074A5
:10007000727920616761696E210054696D65207530
:10008000706C6F616465642100696E76616C69648F
:1000900020696E707574004D696E7574653F20300F
:1000A00020746F20353900696E76616C696420694F
:1000B0006E70757400486F75723F203020746F2029
:1000C000323300696E76616C696420696E70757494
:1000D000004461793F203120746F20333100696E14
:1000E00076616C696420696E707574004D6F6E7412
:1000F000683F203120746F20313200596561723FB2
:10010000203020746F203939004564697420746888
:100110006520636C6F636B00020100000000002427
:100120000027002A0000000000250028002B000006
:100130000000002300260029000404040404040431
:100140000402020202020203030303030301020486
:100150000810204080010204081020010204081049
:100160002000000007000201000003040600000058
:10017000000000000000EB00210A221111241FBE24
:10018000CFEFD8E0DEBFCDBF12E0A0E0B1E0EAE102
:10019000F9E302C005900D92AE32B107D9F713E032
:1001A000AEE2B2E001C01D92A73EB107E1F711E057
:1001B000CCE7D1E004C02297FE010E94871CC6371D
:1001C000D107C9F70E94EF0B0C94E8000C940000D3
:1001D000F8940C948B1CCF92EF920F9382E592E0EF
:1001E0006CE04BE02AE009E0A8E0EA2EF7E0CF2E31
:1001F0000E94B50D87E692E061EE71E04DEE51E0B0
:1002000021EF31E004E0E3E0EE2E0E9468170F9149
:10021000EF90CF9008950F931F930DE813E0C8015E
:1002200060912E020E94C612C80160912F020E94A6
:10023000C612C801609130020E94C612C8016091C6
:1002400031020E94C612C801609132020E94C61299
:10025000C801609133020E94C612C8016091340245
:100260000E94C612C801609135020E94C612C801E0
:10027000609136020E94C612C801609137020E9446
:10028000C612C801609138020E94C612C80160916E
:1002900039020E94C612C80160913A020E94C61239
:1002A000C80160913B020E94C612C80160913802E9
:1002B0000E94C612C80160913E020E94C612C80187
:1002C00060913F020E94C612C801609140020E94E4
:1002D000C612C801609141020E94C612C801609115
:1002E0003D020E94C612C801609143020E94C612DC
:1002F000C801609144020E94C612C8016091450283
:100300000E94C612C801609146020E94C6121F9147
:100310000F9108950F931F930DE813E0C8016091AA
:100320002E020E940B11C80160912F020E940B1136
:10033000C801609130020E940B11C8016091310226
:100340000E940B11C801609132020E940B11C8017A
:10035000609133020E940B11C801609134020E9427
:100360000B11C801609135020E940B11C801609108
:1003700036020E940B11C801609137020E940B11D6
:10038000C801609138020E940B11C80160913902C6
:100390000E940B11C80160913A020E940B11C80122
:1003A00060913B020E940B11C801609138020E94CB
:1003B0000B11C80160913E020E940B11C8016091AF
:1003C0003F020E940B11C801609140020E940B1174
:1003D000C801609141020E940B11C80160913D0269
:1003E0000E940B11C801609143020E940B11C801C9
:1003F000609144020E940B11C801609145020E9465
:100400000B11C801609146020E940B111F910F91C0
:1004100008951F9387E692E00E945417182F8823AF
:10042000C9F382E592E060E041E00E94C80C143319
:10043000C1F1153374F41133E1F0123324F41033A5
:1004400009F069C060C01233E1F0133309F063C0F2
:1004500020C01733F1F1183334F4153351F116334A
:1004600009F059C02EC01833E1F1193309F053C017
:1004700040C082E592E060E071E00E94EC0B81E018
:100480003FC082E592E062E071E00E94EC0B82E006
:1004900037C082E592E064E071E00E94EC0B83E0FB
:1004A0002FC082E592E066E071E00E94EC0B84E0F0
:1004B00027C082E592E068E071E00E94EC0B85E0E5
:1004C0001FC082E592E06AE071E00E94EC0B86E0DA
:1004D00017C082E592E06CE071E00E94EC0B87E0CF
:1004E0000FC082E592E06EE071E00E94EC0B88E0C4
:1004F00007C082E592E060E171E00E94EC0B89E0C8
:1005000080934F0208C082E592E062E171E00E94B0
:10051000EC0B10924F0287E692E00E945417182FBE
:100520008823C9F382E592E061E041E00E94C80CB3
:10053000143309F445C015338CF4113309F1123327
:100540003CF4133209F475C0103309F075C068C06B
:100550001233F1F0133309F06FC02AC0173309F4D6
:1005600047C0183334F4153399F1163309F064C0D9
:1005700037C0183309F444C0193309F05DC048C0CE
:1005800082E592E060E071E00E94EC0B81E007C040
:1005900082E592E062E071E00E94EC0B82E08093E1
:1005A000500268EE73E080E090E00E94C80744C00B
:1005B00082E592E064E071E00E94EC0B83E0EFCF13
:1005C00082E592E066E071E00E94EC0B84E0E7CF08
:1005D00082E592E068E071E00E94EC0B85E0DFCFFD
:1005E00082E592E06AE071E00E94EC0B86E0D7CFF2
:1005F00082E592E06CE071E00E94EC0B87E0CFCFE7
:1006000082E592E06EE071E00E94EC0B88E0C7CFDB
:1006100082E592E060E171E00E94EC0B89E0BFCFDF
:1006200082E592E062E171E00E94EC0B10925002D0
:10063000B8CF84E6809350022091500290914F02EF
:10064000243619F490934E0207C08AE0989FC001A7
:100650001124280F20934E0280914E021F9108957D
:10066000EF92FF920F931F931092510282E592E056
:100670000E94F70C82E592E060E040E00E94C80C26
:1006800082E592E06BEF70E00E94A10A0E940902ED
:1006900080934D0282E592E00E94F70C82E592E0A1
:1006A00060E040E00E94C80C82E592E06CEE70E0F1
:1006B0000E94A10A0E94090280934C028D30A8F08A
:1006C00082E592E060E041E00E94C80C82E592E0A1
:1006D0006EED70E00E94A10A68EE73E080E090E0A9
:1006E0000E94C80781E08093510282E592E00E9457
:1006F000F70C82E592E060E040E00E94C80C82E5E1
:1007000092E061ED70E00E94A10A0E9409028093CC
:100710004B028032A8F082E592E060E041E00E9466
:10072000C80C82E592E063EC70E00E94A10A68EEDA
:1007300073E080E090E00E94C80781E0809351025E
:1007400082E592E00E94F70C82E592E060E040E0F2
:100750000E94C80C82E592E065EB70E00E94A10A5D
:100760000E940902809349028831A8F082E592E054
:1007700060E041E00E94C80C82E592E067EA70E028
:100780000E94A10A68EE73E080E090E00E94C80732
:1007900081E08093510282E592E00E94F70C82E5AD
:1007A00092E060E040E00E94C80C82E592E067E9D8
:1007B00070E00E94A10A0E94090280934A028C33D1
:1007C000A8F082E592E060E041E00E94C80C82E57A
:1007D00092E069E870E00E94A10A68EE73E080E0B0
:1007E00090E00E94C80781E08093510280915102FD
:1007F000882309F054C080E593E0609149024AE003
:1008000050E00E947B0B80E593E060914A024AE051
:1008100050E00E947B0B80E593E060914B024AE040
:1008200050E00E947B0B80E593E060914C024AE02F
:1008300050E00E947B0B80E593E060914D024AE01E
:1008400050E00E947B0B60914A0220914B02009184
:100850004C02E0904D028091490290E070E040E04F
:1008600050E030E010E0FF240E941A100E948A013C
:100870000E940B0168EE73E080E090E00E94C807E0
:1008800082E592E00E94F70C82E592E060E040E0B1
:100890000E94C80C82E592E06AE770E00EC082E533
:1008A00092E00E94F70C82E592E060E040E00E9456
:1008B000C80C82E592E068E670E00E94A10A60ED53
:1008C00077E080E090E00E94C80782E592E00E9415
:1008D000F70C1F910F91FF90EF90089587E692E03B
:1008E0000E9454178823D1F08332C1F482E592E04C
:1008F00060E041E00E94C80C82E592E069E071E0AE
:100900000E94A10A60ED77E080E090E00E94C807B5
:1009100082E592E00E94F70C0E9430030895CF9385
:10092000DF93EC0182E592E064E171E00E94EC0B60
:10093000CA30D1052CF482E592E060E30E94C40A3B
:1009400082E592E0BE014AE050E00E94D90BDF91BF
:10095000CF9108950F931F9302E512E0C80160E064
:1009600040E00E94C80C0E94BE10BC01C8014AE0D1
:1009700050E00E94D90B0E94B6100E948F040E9482
:10098000AE100E948F041F910F9108950E94AA0437
:100990008DE893E048EE53E060E070E00E944B1475
:1009A0000E946E0408954F925F926F927F928F9291
:1009B0009F92AF92BF92CF92DF92EF92FF920F93EE
:1009C0001F93CF93DF9301C0CF01FC0181918A3344
:1009D000D9F7EF018081843611F014E024C03296FB
:1009E00020E030E013C0C901B3E0880F991FBA9529
:1009F000E1F7220F331F820F931F242F332727FD88
:100A0000309520533040280F391F31964081842F74
:100A100080538A3040F31216130614F014E001C01C
:100A2000122FEF01219688818F3611F006E014C055
:100A3000FE013196AF014F5F5F4F8181992787FD9E
:100A400090959C0120533040C397059710F006E025
:100A500001C0022FEA0122968881823619F08FE3C5
:100A600090E020C0CE01029620E030E013C0C90122
:100A700073E0880F991F7A95E1F7220F331F820FD9
:100A8000931F242F332727FD309520533040280F04
:100A9000391FCF01FC014191842F80538A3038F3F4
:100AA000EF01C9019C01442737FD4095542F60E6B2
:100AB0007AEE80E090E00E946A1C49015A0152E0FF
:100AC000880C991CAA1CBB1C5A95D1F7412E5524A1
:100AD000662477249FC0CB0143E0880F991F4A9575
:100AE000E1F7660F771F860F971F612F772767FD46
:100AF000709560537040680F791F21961881812F7F
:100B000080538A3040F36115710541F09B01442701
:100B100037FD4095542FC501B40104C0C501B4018F
:100B2000A30192010E946A1CC901DA016C017D01D6
:100B3000143681F015363CF41236C1F0133664F4E5
:100B40001136B1F411C0163659F016363CF017368E
:100B500079F408C013E00DC011E00BC015E009C026
:100B600016E007C018E005C01AE003C01CE001C091
:100B700010E021968881833211F41F5F21968881CD
:100B80008E3279F4C701B60122E030E040E050E057
:100B90000E946A1CC901DA01C80ED91EEA1EFB1E9A
:100BA0002196988190539A3010F0902F01C0219691
:100BB00088818C3209F42196112331F1892F90E03C
:100BC000FC01EE0FFF1FE80FF91FEE0FFF1FEE0FE6
:100BD000FF1FE10FF11DEE0FFF1FE35EFE4F60816F
:100BE000718187E492E020E030E040E050E00E9434
:100BF00078198DE893E0B701A6010E944B1487E4B1
:100C000092E00E945A1906C08DE893E0B701A60150
:100C10000E944B148881882319F060E070E06ECF49
:100C2000DF91CF911F910F91FF90EF90DF90CF90C8
:100C3000BF90AF909F908F907F906F905F904F90FC
:100C400008958091DF019091E0010E94D3040895FE
:100C50008091DF019091E0010E94D304089580917A
:100C6000DF019091E0010E94D30408958091DF019B
:100C70009091E0010E94D3040895AF92BF92CF9269
:100C8000DF92EF92FF920F931F934DE8C42E43E043
:100C9000D42E36E3A32E36E0B32EC60162E070E018
:100CA00048E050E020E030E00AE010E075010E94EA
:100CB000DA1380933302C60163E070E048E050E04D
:100CC00020E030E00E94DA1380933402C60164E031
:100CD00070E048E050E020E030E00E94DA138093BA
:100CE0003502C60165E070E048E050E020E030E009
:100CF0000E94DA1380933602C60166E070E048E095
:100D000050E020E030E00E94DA13809337022FE2B7
:100D1000A22E26E0B22EC60162E070E04AE050E06A
:100D200028E230E075010E94DA1380933802C60190
:100D300063E070E04AE050E028E230E00E94DA131D
:100D400080933902C60164E070E04AE050E028E296
:100D500030E00E94DA1380933A02C60165E070E049
:100D60004AE050E028E230E00E94DA1380933B0230
:100D7000C60166E070E04AE050E028E230E00E9400
:100D8000DA1380933C0298E2A92E96E0B92EC601B0
:100D900062E070E04BE050E024E130E075010E9439
:100DA000DA1380933D02C60163E070E04BE050E04F
:100DB00024E130E00E94DA1380933E02C60164E031
:100DC00070E04BE050E024E130E00E94DA138093C1
:100DD0003F02C60165E070E04BE050E024E130E006
:100DE0000E94DA1380934002C60166E070E04BE097
:100DF00050E024E130E00E94DA138093410281E266
:100E0000A82E86E0B82EC60162E070E04EE050E009
:100E10002EE130E075010E94DA1380934202C60190
:100E200063E070E04EE050E02EE130E00E94DA1323
:100E300080934302C60164E070E04EE050E02EE192
:100E400030E00E94DA1380934402C60165E070E04E
:100E50004EE050E02EE130E00E94DA13809345022C
:100E6000C60166E070E04EE050E02EE130E00E9406
:100E7000DA13809346021F910F91FF90EF90DF905D
:100E8000CF90BF90AF900895EF92FF920F931F9372
:100E900080E593E040E855E260E070E00E94F008F1
:100EA00087E492E06DE00E94D21782E592E060E173
:100EB00042E020E00E94FF0C8AE090E068E270E0EF
:100EC00045E050E023E030E001E010E0EBE0EE2E02
:100ED000F12C0E941A100E943D061F910F91FF9065
:100EE000EF9008951F920F920FB60F9211242F9337
:100EF0003F938F939F93AF93BF938091C302909141
:100F0000C402A091C502B091C6023091C7020196F9
:100F1000A11DB11D232F2D5F2D3720F02D570196D8
:100F2000A11DB11D2093C7028093C3029093C402F8
:100F3000A093C502B093C6028091BF029091C002F7
:100F4000A091C102B091C2020196A11DB11D809372
:100F5000BF029093C002A093C102B093C202BF919E
:100F6000AF919F918F913F912F910F900FBE0F9056
:100F70001F9018958FB7F8942091C3023091C40246
:100F80004091C5025091C6028FBFB901CA010895B0
:100F90009B01AC017FB7F8948091BF029091C00291
:100FA000A091C102B091C20266B5A89B05C06F3F77
:100FB00019F00196A11DB11D7FBFBA2FA92F982F3F
:100FC0008827860F911DA11DB11D62E0880F991F12
:100FD000AA1FBB1F6A95D1F7BC012DC0FFB7F894BB
:100FE0008091BF029091C002A091C102B091C20253
:100FF000E6B5A89B05C0EF3F19F00196A11DB11DF4
:10100000FFBFBA2FA92F982F88278E0F911DA11DE2
:10101000B11DE2E0880F991FAA1FBB1FEA95D1F707
:10102000861B970B885E9340C8F2215030404040A9
:10103000504068517C4F211531054105510571F62D
:101040000895019739F0880F991F880F991F02970B
:101050000197F1F70895789484B5826084BD84B5D2
:10106000816084BD85B5826085BD85B5816085BDA3
:10107000EEE6F0E0808181608083E1E8F0E01082BC
:10108000808182608083808181608083E0E8F0E0FD
:10109000808181608083E1EBF0E0808184608083E7
:1010A000E0EBF0E0808181608083EAE7F0E080811E
:1010B000846080838081826080838081816080837E
:1010C0008081806880831092C100089508951F92E6
:1010D0000F920FB60F9211242F933F934F938F933C
:1010E0009F93EF93FF938091C00082FD1DC04091BC
:1010F000C60020910803309109032F5F3F4F2F73E3
:10110000307080910A0390910B032817390771F012
:10111000E0910803F0910903E853FD4F40833093B9
:1011200009032093080302C08091C600FF91EF914C
:101130009F918F914F913F912F910F900FBE0F90E4
:101140001F901895E0915C03F0915D03E05CFF4F08
:101150008191919120813181821B930B8F739070CB
:10116000892B11F00E94660808951F920F920FB606
:101170000F9211242F933F938F939F93EF93FF939D
:1011800020914C0330914D0380914E0390914F0379
:101190002817390731F48091C1008F7D8093C100F9
:1011A00014C0E0914E03F0914F03E45FFC4F2081A7
:1011B00080914E0390914F0301968F73907090939E
:1011C0004F0380934E032093C600FF91EF919F91B0
:1011D0008F913F912F910F900FBE0F901F901895F8
:1011E000AF92BF92DF92EF92FF920F931F93CF9334
:1011F000DF93EC017A018B01DD24403081EE58074A
:1012000080E0680780E0780711F0DD24D39491E056
:10121000A92EB12CEC89FD89DD2069F0C50108A05B
:1012200002C0880F991F0A94E2F7808360E079E09A
:101230008DE390E005C0108260E874E88EE190E0F4
:10124000A80197010E94481C215030404040504066
:10125000569547953795279580E12030380720F03F
:10126000DD2011F0DD24D6CFE889F9893083EA89C1
:10127000FB89208319A2EE89FF89408121E030E0BB
:10128000C9010C8C02C0880F991F0A94E2F7482B01
:101290004083EE89FF894081C9010D8C02C0880F0F
:1012A000991F0A94E2F7482B4083EE89FF89408119
:1012B000C9010E8C02C0880F991F0A94E2F7482BCF
:1012C0004083EE89FF8980810F8C02C0220F331F7B
:1012D0000A94E2F7209528232083DF91CF911F9174
:1012E0000F91FF90EF90DF90BF90AF900895DC01D9
:1012F0001C96ED91FC911D97E05CFF4F219131917F
:1013000080819181281B390B2F733070C90108959A
:10131000DC011C96ED91FC911D97E05CFF4F208154
:101320003181E054F040DF01AE5BBF4F8D919C9165
:1013300011972817390719F42FEF3FEF07C08D9148
:101340009C91E80FF91F8081282F30E0C901089592
:10135000DC011C96ED91FC911D97E05CFF4F208114
:101360003181E054F040DF01AE5BBF4F8D919C9125
:1013700011972817390719F42FEF3FEF10C08D91FF
:101380009C911197E80FF91F20818D919C911197E5
:1013900001968F73907011969C938E9330E0C901E3
:1013A0000895DC0191968C919197882339F0549699
:1013B000ED91FC915597808186FFF9CF91961C9213
:1013C0000895CF93DF93EC01EE85FF85E05CFF4F3E
:1013D00020813181E054F0402F5F3F4F2F733070F8
:1013E000DF01AE5BBF4F8D919C9111972817390794
:1013F000D1F3E05CFF4F80819181E054F040E80F31
:10140000F91F6083EE85FF85E05CFF4F3183208309
:10141000EE89FF89208181E090E00F8C02C0880F67
:10142000991F0A94E2F7282B208381E089A3EC8995
:10143000FD8980818064808381E090E0DF91CF919D
:101440000895109253031092520388EE93E0A0E0A7
:10145000B0E08093540390935503A0935603B09348
:1014600057038CEF91E0909351038093500388ECE5
:1014700092E090935D0380935C038CE093E0909303
:101480005F0380935E0385EC90E09093610380930B
:10149000600384EC90E0909363038093620380EC9C
:1014A00090E0909365038093640381EC90E09093C7
:1014B00067038093660382EC90E0909369038093C6
:1014C000680386EC90E090936B0380936A0384E05A
:1014D00080936C0383E080936D0387E080936E03B9
:1014E00085E080936F0381E0809370030895CF922D
:1014F000DF92EF92FF920F931F93CF93DF937C01C4
:101500006B018A01C0E0D0E00FC0D6016D916D0182
:10151000D701ED91FC910190F081E02DC701099573
:10152000C80FD91F015010400115110571F7CE01E8
:10153000DF91CF911F910F91FF90EF90DF90CF90AF
:101540000895EF92FF920F931F93CF93DF937C0147
:101550008B01C0E0D0E0F8010F5F1F4F649166235C
:1015600059F0D701ED91FC910190F081E02DC70178
:101570000995C80FD91FEFCFCE01DF91CF911F91F1
:101580000F91FF90EF900895DC01ED91FC91019097
:10159000F081E02D09950895EF92FF920F931F932C
:1015A0008C01DC01ED91FC910190F081E02D6DE06A
:1015B00009957C01D801ED91FC910190F081E02D1D
:1015C000C8016AE009959C012E0D3F1DC9011F91BC
:1015D0000F91FF90EF900895CF93DF93EC01611589
:1015E000710519F420E030E00FC0DB010D90002000
:1015F000E9F71197A61BB70BE881F9810280F38107
:10160000E02DAD0109959C01C901DF91CF910895AD
:101610004F925F927F928F929F92AF92BF92CF92A2
:10162000DF92EF92FF920F931F93DF93CF93CDB78B
:10163000DEB7A1970FB6F894DEBF0FBECDBF2C0169
:10164000742ECB01223008F42AE019A231E2C32E15
:10165000D12CCC0EDD1E822E9924AA24BB24672D0A
:10166000752FA50194010E94481C79018A01C801C7
:10167000B701A50194010E94021C472D461B089446
:10168000C108D1084A3014F4405D01C0495CF6013C
:101690004083E114F1040105110521F07E2C5F2D3A
:1016A000C801DDCFC201B6010E94EC0AA1960FB6B7
:1016B000F894DEBF0FBECDBFCF91DF911F910F9188
:1016C000FF90EF90DF90CF90BF90AF909F908F9062
:1016D0007F905F904F900895DC012115310541F412
:1016E000ED91FC910190F081E02D642F0995089512
:1016F0000E94080B0895CF92DF92EF92FF920F9312
:101700001F936C01E62E9A01FF2400E010E0B8015F
:10171000A7010E946C0B8C01C6010E94CC0A080F25
:10172000191FC8011F910F91FF90EF90DF90CF908C
:101730000895CF92DF92EF92FF920F931F93CF9372
:10174000DF93EC016A017B012115310541F4E88149
:10175000F9810190F081E02D642F09951FC02A3096
:101760003105D1F477FF17C0E881F9810190F0814C
:10177000E02D6DE209958C0144275527BA014C19DB
:101780005D096E097F09CE012AE00E94080B9801CD
:10179000280F391F04C02AE00E94080B9C01C901D0
:1017A000DF91CF911F910F91FF90EF90DF90CF903D
:1017B0000895EF92FF920F931F937B019A010027E8
:1017C000F7FC0095102FB801A7010E94990B1F91FB
:1017D0000F91FF90EF9008950E94EC0A0895CF9327
:1017E000DF930E942B080E944407C2EAD8E00E94BF
:1017F000C6042097E1F30E94A208F9CF0F931F932C
:101800008C01FC01868160E00E945B1B81E090E01E
:101810000E942108F801868161E00E945B1B81E043
:1018200090E00E942108F801868160E00E945B1B25
:1018300084E690E00E9421081F910F910895CF92B5
:10184000DF92EF92FF920F931F93CF93DF93D82EE7
:10185000C92E282F392FC9018C01C0E0D0E0E62E17
:10186000FF24F801878161E00E941C1BB7010C2E48
:1018700002C0759567950A94E2F76170F801878157
:101880000E945B1B21960F5F1F4FC830D10549F79F
:101890008D2D9C2D0E94FE0BDF91CF911F910F91FA
:1018A000FF90EF90DF90CF900895CF92DF92EF926C
:1018B000FF920F931F93CF93DF93D82EC92E282F1B
:1018C000392FC9018C01C0E0D0E0E62EFF24F801D9
:1018D000878161E00E941C1BB7010C2E02C0759528
:1018E00067950A94E2F76170F80187810E945B1B9B
:1018F00021960F5F1F4FC430D10549F78D2D9C2DC8
:101900000E94FE0BDF91CF911F910F91FF90EF90FE
:10191000DF90CF9008951F93CF93DF93EC01162FA4
:101920008C81642F0E945B1B8D818F3F19F060E0DA
:101930000E945B1B8F8584FF05C0CE01612F0E9432
:101940001F0C0EC0612F70E084E0759567958A9535
:10195000E1F7CE010E94550CCE01612F0E94550C7B
:10196000DF91CF911F91089541E00E948B0C81E09F
:1019700090E0089540E00E948B0C0895FC0160897E
:10198000862F8460808B6C60CF010E94BA0C089512
:10199000DF93CF93CDB7DEB728970FB6F894DEBFAD
:1019A0000FBECDBF9C01FE013196A0E1B2E088E000
:1019B0000D9001928150E1F7F9018389481710F0E9
:1019C000482F4150E42FF0E0EE0FFF1FEC0FFD1FFA
:1019D0008181680F6068C9010E94BA0C28960FB611
:1019E000F894DEBF0FBECDBFCF91DF91089561E0C7
:1019F0000E94BA0C80ED97E00E9421080895CF93D1
:101A0000DF93EC01423018F08F8588608F874B8B15
:101A10001C8A222329F0413019F48F8584608F8736
:101A200080E593EC0E9421088C8160E00E945B1BA2
:101A30008E8160E00E945B1B8D818F3F19F060E01A
:101A40000E945B1B6F8564FD1DC0CE0163E00E9498
:101A5000550C84E991E10E942108CE0163E00E94C7
:101A6000550C84E991E10E942108CE0163E00E94B7
:101A7000550C86E990E00E942108CE0162E00E94A8
:101A8000550C16C06062CE010E94BA0C84E991E147
:101A90000E9421086F856062CE010E94BA0C86E91F
:101AA00090E00E9421086F856062CE010E94BA0C0E
:101AB0006F856062CE010E94BA0C84E0888BCE01F3
:101AC0000E94BE0CCE010E94F70C82E0898BCE01F1
:101AD00066E00E94BA0CDF91CF9108956F927F92D9
:101AE0008F92AF92CF92EF920F931F93DF93CF938A
:101AF000CDB7DEB73C01162F842FF3014483258335
:101B00000683E782C086A18682869D8593879E850F
:101B100094879F8595879889968761E00E941C1B12
:101B2000F30185818F3F19F061E00E941C1BF301D6
:101B3000868161E00E941C1B112319F0F3011786B6
:101B400003C080E1F3018787C30160E141E020E049
:101B50000E94FF0CCF91DF911F910F91EF90CF90DA
:101B6000AF908F907F906F9008958F92AF92CF92A9
:101B7000EF920F931F93CF93DF93DC01362F542FF7
:101B8000722F102FAE2C8C2C13961C921E92129733
:101B90008CE092E011969C938E9300D000D0EDB72C
:101BA000FEB73196CDB7DEB7198211821282138249
:101BB000CD0161E0432F2FEF052FE72EC12E0E94AC
:101BC0006E0D0F900F900F900F90DF91CF911F919E
:101BD0000F91EF90CF90AF908F9008958F929F923A
:101BE000AF92BF92CF92DF92EF92FF920F931F932B
:101BF000CF93DF937B018C01EA012CE330E040E0DE
:101C000050E00E94481C6883C801B7012CE330E013
:101C100040E050E00E94481C122F032FF42EE52EC6
:101C2000622F732F842F952F2CE330E040E050E09B
:101C30000E94481C6983612F702F8F2D9E2D2CE3ED
:101C400030E040E050E00E94481C122F032FF42E99
:101C5000E52E622F732F842F952F28E130E040E08E
:101C600050E00E94481C6A83612F702F8F2D9E2D9B
:101C700028E130E040E050E00E94481C79018A01F0
:101C8000C801B7016C5F7F4F8F4F9F4F27E030E057
:101C900040E050E00E94481C6F5F6B8320E0AA2464
:101CA000BB24650101C02F5F822E9924F401EE54FC
:101CB000F84FCF0183709070892B99F4CF0164E6BF
:101CC00070E00E94351C892B39F4CF0160E971E086
:101CD0000E94351C892B29F48EE691E0A0E0B0E04B
:101CE00004C08DE691E0A0E0B0E0A80EB91ECA1EC7
:101CF000DB1EC501A0E0B0E0E816F9060A071B07E5
:101D000090F62E83F401EE54F84F83E0882E912C48
:101D10008E229F228114910499F4CF0164E670E031
:101D20000E94351C892B39F4CF0160E971E00E94D3
:101D3000351C892B29F48EE691E0A0E0B0E004C0C8
:101D40008DE691E0A0E0B0E0A81AB90ACA0ADB0A61
:101D5000980187010A191B092C093D09CF0164E686
:101D600070E00E94351C7C01CF0160E971E00E94A7
:101D7000351CAC01E8E1F2E060E0613051F481141F
:101D8000910449F4E114F10441F44115510529F09D
:101D900002C0808103C08CE101C08DE190E0A0E031
:101DA000B0E0081719072A073B0740F0081B190B7A
:101DB0002A0B3B0B6F5F31966C30F9F66F5F6D83CA
:101DC000802F8F5F8C83DF91CF911F910F91FF90B8
:101DD000EF90DF90CF90BF90AF909F908F9008953D
:101DE000EF92FF920F931F937B018C0180918903E7
:101DF00090918A03A0918B03B0918C03E816F906A9
:101E00000A071B0771F0C801B7014EE753E00E94B3
:101E1000EE0DE0928903F0928A0300938B031093F6
:101E20008C031F910F91FF90EF9008954F925F9256
:101E30006F927F928F929F92AF92BF92CF92DF92DA
:101E4000EF92FF920F931F93CF93DF934C01DC012E
:101E500016961C91612F70E080E090E020E833E35B
:101E600041EE51E00E94021C5B016C0122EB37E065
:101E7000E12FF0E0EE54F84F1DC0C901837090705F
:101E8000892BB1F4C90164E670E00E94351C892BEE
:101E900039F4C90160E971E00E94351C892B41F4D5
:101EA00080E891E5A1E0B0E0A80EB91ECA1EDB1ED5
:101EB0002F5F3F4F2E173F0701F7D40115968C91E6
:101EC000482E5524C90164E670E00E94351C7C014F
:101ED000C90160E971E00E94351C8C01C1E0D0E0CD
:101EE00093E0692E712C6222732227C0C230D10583
:101EF00091F46114710479F4E114F10419F40115F9
:101F0000110549F480E89BE3A6E2B0E0A80EB91EF3
:101F1000CA1EDB1E11C0FE01E95EFD4F608170E04C
:101F200080E090E020E831E541E050E00E94021CB2
:101F3000A60EB71EC81ED91E2196C415D505B4F22B
:101F4000D40112966C9170E080E090E020E13EE0D8
:101F500040E050E00E94021C7B018C01F401618191
:101F600070E080E090E02CE330E040E050E00E9440
:101F7000021CE60EF71E081F191FD4018C91E80EF3
:101F8000F11C011D111D14966C9170E061507040A0
:101F9000882777FD8095982F20E831E541E050E0D3
:101FA0000E94021CE60EF71E081F191FEA0CFB1CFC
:101FB0000C1D1D1DB701C801DF91CF911F910F911D
:101FC000FF90EF90DF90CF90BF90AF909F908F9059
:101FD0007F906F905F904F9008956093740370931B
:101FE000750380937603909377032091F4013091E9
:101FF000F5014091F6015091F701260F371F481F58
:10200000591F209378033093790340937A035093B8
:102010007B0382E090E090937D0380937C030E9499
:10202000BA07609385037093860380938703909328
:1020300088030895EF92FF920F93F701E436F105BC
:102040001CF0E25BF74001C07E96E09384030093AE
:102050008303209382038093800360937F034093E4
:102060007E038EE793E00E94160F0E94ED0F0F9102
:10207000FF90EF900895EF92FF920F931F931CC073
:102080002F5F3F4F4F4F5F4F209374033093750383
:10209000409376035093770388EE93E0A0E0B0E09E
:1020A000E80EF91E0A1F1B1FE0928503F0928603BB
:1020B00000938703109388030E94BA07E09085037A
:1020C000F090860300918703109188036E197F09B1
:1020D000800B910B2091740330917503409176032E
:1020E00050917703685E73408040904048F680913D
:1020F000780390917903A0917A03B0917B0328171C
:1021000039074A075B07E8F0E0917203F091730327
:102110003097B9F00995611571058105910519F0A0
:102120000E94ED0F0EC020E030E080917C03909182
:102130007D03892B11F021E030E030937D03209363
:102140007C03609174037091750380917603909184
:1021500077031F910F91FF90EF9008950E943B101D
:102160000E94F00E80917E0390E008950E943B1043
:102170000E94F00E80917F0390E008950E943B1032
:102180000E94F00E8091800390E00895CF93DF933A
:10219000DC01FC0120E030E08285807C82871682B1
:1021A0001782108611861282138214821582118280
:1021B0001082255F3F4F3B962234310569F7AE5BB5
:1021C000BF4F1C92A254B040ED0120E030E04BE044
:1021D00050E0249FF001259FF00D349FF00D112455
:1021E000EA0FFB1F9285892F8F7061F0907E928796
:1021F000198218821A821B821C821D821E821F82F3
:10220000188619862F5F3F4F2B962630310509F728
:10221000DF91CF910895AC01663098F4862F90E05D
:102220002BE030E0829FF001839FF00D929FF00D34
:102230001124E40FF51F9285892F8F7011F09F7E76
:10224000928708958DE893E00E94C61008952F921A
:102250003F924F925F926F927F928F929F92AF9236
:10226000BF92CF92DF92EF92FF920F931F93DF9373
:10227000CF9300D000D000D0CDB7DEB79E838D8342
:10228000FC0182819381A481B5810097A105B105EC
:1022900009F45BC1828584FF58C10E943B106983A9
:1022A0007A838B839C83AD81BE811A963C911A9769
:1022B000232F2F70822F825F8F70833008F028C108
:1022C00016968D919D910D90BC91A02D49815A81BA
:1022D0006B817C81481759076A077B0708F418C18E
:1022E000223059F4ED81FE8182819381A481B581F0
:1022F00086839783A087B1870BC1233009F061C023
:10230000AD81BE811296ED90FD900D911C911597B7
:102310000E943B1020E831E541E050E00E94481C5B
:10232000CA01B90120E831E541E050E00E94021CF9
:10233000E60EF71E081F191FED81FE81A280B380F3
:10234000C480D58029813A814B815C812E153F055F
:1023500040075107C8F0CA01B90120E831E541E062
:1023600050E00E94481C2F5F3F4F4F4F5F4FCA0104
:10237000B90120E831E541E050E00E94021CA60EC0
:10238000B71EC81ED91EACC069817A818B819C8121
:1023900020E831E541E050E00E94481CCA01B90143
:1023A00020E831E541E050E00E94021CA60EB71E75
:1023B000C81ED91EED81FE81A682B782C086D18655
:1023C000A7C0243009F0A0C0AD81BE8112966D90E7
:1023D0007D908D909C9015970E943B107B018C0105
:1023E0000E943B105B016C010E943B101B012C0101
:1023F000E60CF71C081D191DC601B50120E831E5E2
:1024000041E050E00E94481CE61AF70A080B190B3D
:10241000C201B10120E831E541E050E00E94481CD2
:102420002C5F3F4F4F4F5F4FCA01B90127E030E0AB
:1024300040E050E00E94481C20E831E541E050E0D7
:102440000E94021CE61AF70A080B190BED81FE81A7
:10245000A280B380C480D58029813A814B815C8180
:102460002E153F054007510708F443C040E85AE3E2
:1024700069E070E0A40EB51EC61ED71E69817A8180
:102480008B819C81A60EB71EC81ED91E20E831E59F
:1024900041E050E00E94481CA61AB70AC80AD90AAF
:1024A00069817A818B819C8120E831E541E050E0AF
:1024B0000E94481C2C5F3F4F4F4F5F4FCA01B9012C
:1024C00027E030E040E050E00E94481C20E831E581
:1024D00041E050E00E94021CA61AB70AC80AD90AB5
:1024E000AD81BE811696AD92BD92CD92DC921997C8
:1024F0000FC029813A814B815C81A20EB31EC41E9C
:10250000D51ECA01B901C2CF3F7EED81FE8132875F
:10251000AD81BE811A968C911A978F708130E9F443
:1025200012968D919D910D90BC91A02D29813A819B
:102530004B815C81820F931FA41FB51FED81FE812B
:1025400086839783A087B18708C0AD81BE811A9624
:102550008C911A978F7E1A968C9326960FB6F894C4
:10256000DEBF0FBECDBFCF91DF911F910F91FF90C6
:10257000EF90DF90CF90BF90AF909F908F907F9023
:102580006F905F904F903F902F900895AC01663010
:1025900098F570E08BE090E0689FF001699FF00D86
:1025A000789FF00D1124E40FF51F82858F7021F1C3
:1025B00082819381A481B5810097A105B10511F4B1
:1025C00020E006C020E080819181892B09F021E084
:1025D0008BE090E0689FF001699FF00D789FF00D0F
:1025E0001124E40FF51F2295207F82858F7E822B98
:1025F0008287CF010E9427110895CF92DF92EF9238
:10260000FF920F931F93CF93DF93EC01FC01EE5BDE
:10261000FF4F8081882309F05BC081E08083FE0149
:10262000ED5BFF4F10828F019BE0C92ED12C48C07B
:1026300090E08C9DF0018D9DF00D9C9DF00D11247E
:10264000EC0FFD1F828584FF37C00E943B10F8010C
:10265000A0812A2F30E02C9DF0012D9DF00D3C9D96
:10266000F00D1124EC0FFD1F268137814085518527
:102670006217730784079507F8F0E080F180928570
:1026800095FF12C0A63098F4892F8F7081F0907E4C
:10269000928711821082128213821482158216820E
:1026A00017821086118603C0CF010E942711E11402
:1026B000F10411F0F7010995F80180818F5F8083A3
:1026C000F8018081863008F4B3CFCE5BDF4F1882EB
:1026D000DF91CF911F910F91FF90EF90DF90CF90FE
:1026E00008954F925F926F927F928F929F92AF92D6
:1026F000BF92CF92EF92FF920F931F93CF93DF93EE
:102700002C014A015B013901E701C70102970397D8
:1027100038F40E943B106050724E8F4D9140C0F1D2
:1027200060E070E02BE030E0162F629FF001639FC5
:10273000F00D729FF00D1124E40DF51DDF011A96C6
:1027400082858F7001F57182608201700295000FA1
:10275000007E8C91807D9E012F70802B822B8C932C
:1027600082829382A482B582CC2021F0C2010E9491
:10277000C6120FC0663068F49C91892F8F7049F0A3
:102780009F7E9C9306C06F5F7F4F6630710561F638
:102790001FEF812FDF91CF911F910F91FF90EF904D
:1027A000CF90BF90AF909F908F907F906F905F90F1
:1027B0004F9008952F923F924F925F926F927F9227
:1027C0008F929F92AF92BF92CF92DF92EF92FF9241
:1027D0000F931F93DF93CF9300D0CDB7DEB79A83CB
:1027E00089832A013901180161507040882777FDDB
:1027F0008095982F20E831E541E050E00E94021CCE
:102800005B016C01882477FC8094982CC401B3018F
:102810002CE330E040E050E00E94021CA60EB71E00
:10282000C81ED91EB201882777FD8095982F20E118
:102830003EE040E050E00E94021CA60EB71EC81EFB
:10284000D91E442437FC4094542C2A0C3B1C4C1CAD
:102850005D1C89819A81B201A101970100E014E019
:10286000E12EF12CCC24C3940E9471130F900F9091
:10287000CF91DF911F910F91FF90EF90DF90CF905C
:10288000BF90AF909F908F907F906F905F904F9090
:102890003F902F900895AF92BF92CF92DF92EF9228
:1028A000FF920F931F93CF93DF93EC015A016B01BB
:1028B0000E94BA077B018C0103C0CE010E94FD1269
:1028C0000E94BA076E197F09800B910BA616B706F6
:1028D000C806D90690F7DF91CF911F910F91FF9015
:1028E000EF90DF90CF90BF90AF900895DC01E62F7E
:1028F000F0E0EE0FFF1FEE0FFF1FEA0FFB1F548FDC
:10290000438F81E0858FAA5ABF4FED91FC911197BB
:10291000A655B040309719F05A968C9109950895B4
:10292000AF92BF92CF92DF92EF92FF920F93DF931D
:10293000CF9300D0CDB7DEB75C0100E021E5C22E19
:10294000D12CC80ED91E9EE4E92EF12CEA0CFB1CFA
:1029500029C0802F90E09A838983D5012D913C91E5
:10296000D701ED91FC91E80FF91FD9012D913C9110
:10297000C501608140E0F9010995F50120813181AF
:10298000D701ED91FC9189819A81E80FF91FD90156
:1029900012962D913C911397C501608141E0F90198
:1029A00009950F5FF6018081081798F20F900F903C
:1029B000CF91DF910F91FF90EF90DF90CF90BF907C
:1029C000AF9008950F931F93CF93DF93EC01162FD1
:1029D000042FE62FF0E0EE0FFF1FEE0FFF1FE80FB2
:1029E000F91F158E838D948D81309105E1F0823031
:1029F00091051CF4892B39F03FC08230910581F19B
:102A00000397D1F534C04130B9F5CE0141E050E033
:102A10000E9476140E94BA07CE5BDF4F68837983E9
:102A20008A839B8329C00E94BA07CE5BDF4F28812F
:102A300039814A815B81621B730B840B950B629613
:102A400028813981C455D04040E050E0261737072F
:102A50004807590728F4CE01612F42E050E00AC030
:102A6000002351F4CE01612F43E050E003C0CE01BA
:102A700040E050E00E947614DF91CF911F910F91BA
:102A800008954F925F926F927F928F929F92AF9232
:102A9000BF92CF92DF92EF92FF920F931F93CF934B
:102AA000DF93EC012C01FC0120E0838D948D892BB8
:102AB00011F4128E158E2F5F34962A30B1F7EE2462
:102AC000A0E56A2E712C6C0E7D1EF1E58F2E912CE7
:102AD0008C0E9D1EEAE4AE2EB12CAC0EBD1E50C075
:102AE0002F2D30E0D8018D919C910F2C02C096952E
:102AF00087950A94E2F7482F4170852F90E0FC01FA
:102B0000CE9EC001CF9E900DDE9E900D1124D5016A
:102B1000ED91FC91E20FF31FE80FF91F5081F201D4
:102B200060E070E0828D851711F4CE0119C06F5FEF
:102B30007F4F34966A307105A9F731C0F20160E029
:102B400070E0828D882379F4FB01EE0FFF1FEE0FFA
:102B5000FF1FEC0FFD1F528F148E138ECE0141E02C
:102B60000E94E21406C06F5F7F4F34966A30710591
:102B700041F7F394F4015081F51608F4B1CFE394D2
:102B8000D3018C91E81670F4FF24CE2CDD2486014D
:102B90000D5F1F4F000F111F0C0F1D1FEBCF4423A4
:102BA00069F6E7CFDF91CF911F910F91FF90EF90E2
:102BB000DF90CF90BF90AF909F908F907F906F905D
:102BC0005F904F9008953F924F925F926F927F92E5
:102BD0008F929F92AF92BF92CF92DF92EF92FF922D
:102BE0000F931F93DF93CF93CDB7DEB728970FB620
:102BF000F894DEBF0FBECDBF98878F830E94BA07BF
:102C00002F8138852A5B3F4FD9012D913D914D9100
:102C10005C911397621B730B840B950B1C962D9183
:102C20003C911197A255B040B887AF8340E050E087
:102C3000261737074807590710F033241AC1FF2415
:102C400030E5A32EB12CEF81F885AE0EBF1E2CE42B
:102C5000C22ED12CCE0EDF1E29C00F2D10E0AF8169
:102C6000B8858D919C91D601ED91FC91E00FF11FFB
:102C7000DC012D913C918F819885608142E0F901C2
:102C80000995EF81F88580819181D601ED91FC91C4
:102C9000E00FF11FDC0112962D913C9113978F816B
:102CA0009885608141E0F9010995F394F5018081EF
:102CB000F81698F23324EE242F8138852F5A3F4F8F
:102CC0003A8329839EE4A92EB12C4F815885A40E06
:102CD000B51E405B5F4F5C834B838F819885845B1F
:102CE0009F4F9E838D83AFC0CE2CDD24AF81B885EE
:102CF0008D919C91D501ED91FC91EC0DFD1DDC01B8
:102D00002D913C918F819885608141E0F901099571
:102D1000EF81F88580819181D501ED91FC91EC0DD9
:102D2000FD1DDC0112962D913C9113978F819885A2
:102D3000608140E0F901099581E090E0A0E0B0E019
:102D40000E2C04C0880F991FAA1FBB1F0A94D2F72C
:102D50004C012C014094509481E0682E712C0E2C73
:102D600002C0660C771C0A94E2F7FF243FC00F2DC7
:102D700010E0AD81BE81ED91FC91E00FF11FD90112
:102D800014962D913C9115978F8198856081F9015A
:102D90000995F8013396892B59F4EE0FFF1F2F8107
:102DA0003885E20FF31F80819181882999290AC013
:102DB000EE0FFF1F4F815885E40FF51F8081918131
:102DC0008421952191838083EF2DF0E03396EE0FDF
:102DD000FF1F8F819885E80FF91F808191818621DF
:102DE0009721892B11F033243394F394AB81BC8168
:102DF0008C91EF81F88520813181F81608F4B7CFE6
:102E0000D501ED91FC91EC0DFD1DD90112962D918E
:102E10003C9113978F819885608141E0F901099574
:102E2000EF81F88580819181D501ED91FC91EC0DC8
:102E3000FD1DDC012D913C918F819885608140E0E2
:102E4000F9010995E394E981FA818081E81608F493
:102E50004BCF8F8198850E9441150E94BA072F8120
:102E600038852A5B3F4FD9016D937D938D939C9359
:102E70001397832D311081E028960FB6F894DEBFAA
:102E80000FBECDBFCF91DF911F910F91FF90EF90BB
:102E9000DF90CF90BF90AF909F908F907F906F907A
:102EA0005F904F903F900895CF93DF93EC010E9485
:102EB000E315882349F08B8D9C8D019729F48D8D26
:102EC000882311F08A8D01C080E0DF91CF910895B1
:102ED0006F927F928F929F92AF92BF92CF92DF922A
:102EE000EF92FF920F931F93CF93DF93EC014B016F
:102EF0006A015901702E6E2C02960E94101B88E206
:102F000092E0998388834AE1E42EF12CEC0EFD1EB9
:102F100000E010E0C701800F911F0E94161B0C5F9C
:102F20001F4F08321105B1F7C45BDF4FC992D99228
:102F3000A992B99279926882279799828882289675
:102F40008AE090E08993999384EF91E08993999333
:102F500019821882C655D040CE010E949014CA5BD7
:102F6000DF4F188219821A821B82DF91CF911F9145
:102F70000F91FF90EF90DF90CF90BF90AF909F9018
:102F80008F907F906F900895862F0E94AF1B0895B9
:102F9000862F642F0E945B1B0895862F642F0E944A
:102FA0001C1B0895DC019091E603933008F083C068
:102FB0006C93E92FF0E0E85EFE4F849111968C93BC
:102FC00011979F5F9093E603813039F1823009F4C5
:102FD0004BC0882309F072C014BC15BC84B5826054
:102FE00084BD85B5816085BD8C91282F30E0F901C5
:102FF000E75CFE4FE491F0E0EE0FFF1FEB5DFE4F4C
:10300000859194919093D6038093D503235B3E4F93
:10301000F90184918093D703089510928000109253
:10302000810080918100886080938100809181007F
:103030008160809381008C91282F30E0F901E75C5A
:10304000FE4FE491F0E0EE0FFF1FEB5DFE4F859128
:1030500094919093DD038093DC03235B3E4FF90151
:1030600084918093DE0308951092B0001092B10015
:103070008091B00082608093B0008091B100816047
:103080008093B1008C91282F30E0F901E75CFE4F6E
:10309000E491F0E0EE0FFF1FEB5DFE4F8591949100
:1030A0009093E4038093E303235B3E4FF901849103
:1030B0008093E50308958FEF11968C9308951F92E6
:1030C0000F920FB60F9211248F939F93AF93BF93DC
:1030D000EF93FF938091D1039091D203A091D303FA
:1030E000B091D403E091D503F091D6030097A105E8
:1030F000B10531F180819091D70389278083809138
:10310000D1039091D203A091D303B091D4031816A8
:1031100019061A061B06FCF48091D1039091D20384
:10312000A091D303B091D4030197A109B109809371
:10313000D1039093D203A093D303B093D4030BC0D5
:1031400080916E008D7F80936E0090818091D70377
:10315000809589238083FF91EF91BF91AF919F91DB
:103160008F910F900FBE0F901F9018951F920F9286
:103170000FB60F9211248F939F93AF93BF93EF934A
:10318000FF938091D8039091D903A091DA03B09175
:10319000DB03E091DC03F091DD030097A105B105AD
:1031A00031F180819091DE03892780838091D8035B
:1031B0009091D903A091DA03B091DB031816190698
:1031C0001A061B06FCF48091D8039091D903A091B4
:1031D000DA03B091DB030197A109B1098093D80309
:1031E0009093D903A093DA03B093DB030BC08091D3
:1031F0006F008D7F80936F0090818091DE038095BA
:1032000089238083FF91EF91BF91AF919F918F911F
:103210000F900FBE0F901F9018951F920F920FB630
:103220000F9211242F933F934F935F938F939F930C
:10323000EF93FF932091DF033091E0034091E1038E
:103240005091E203E091E303F091E403211531058D
:103250004105510579F080819091E50389278083AC
:10326000121613061406150684F42150304040400F
:1032700050400BC0809170008D7F809370009081D2
:103280008091E5038095892380832093DF03309329
:10329000E0034093E1035093E203FF91EF919F918C
:1032A0008F915F914F913F912F910F900FBE0F9093
:1032B0001F901895FC018181813051F0823071F0AE
:1032C000882389F480916E008D7F80936E000BC0FF
:1032D00080916F008D7F80936F0005C0809170009A
:1032E0008D7F80937000808160E00E945B1B089559
:1032F0002F923F925F926F927F928F929F92AF92A6
:10330000BF92CF92DF92EF92FF920F931F93DF93C2
:10331000CF9300D000D0CDB7DEB78C011B0129833D
:103320003A834B835C83DC0111968C91119787FD66
:1033300061C18C9161E00E941C1BF80151805520F5
:1033400021F0F2E05F1609F0C7C03101882499240A
:1033500060E072E18AE790E0A40193010E946A1C98
:1033600059016A01860175010894E108F108010913
:1033700011092FEFE216F1040105110509F008F417
:103380009BC060E472E48FE090E0A40193010E948E
:103390006A1C79018A010894E108F1080109110900
:1033A00082E0581611F092E019C09FEFE916F1047F
:1033B0000105110509F010F492E087C060E970ED95
:1033C00083E090E0A40193010E946A1C79018A01C4
:1033D0000894E108F1080109110993E0AFEFEA163A
:1033E000F1040105110509F008F467C068E478EEFE
:1033F00081E090E0A40193010E946A1C79018A0196
:103400000894E108F10801091109552011F493E02D
:103410001EC0B2E05B1611F094E019C0EFEFEE169B
:10342000F1040105110509F010F494E04EC064E2C6
:1034300074EF80E090E0A40193010E946A1C79017E
:103440008A010894E108F1080109110995E0FFEFEC
:10345000EF16F1040105110581F178F162E17AE7D7
:1034600080E090E0A40193010E946A1C79018A0126
:103470000894E108F10801091109552011F096E0BE
:1034800001C094E02FEFE216F10401051105A9F047
:10349000A0F0C601B50120E034E040E050E00E9419
:1034A0006A1C79018A010894E108F10801091109EF
:1034B000552051F495E003C091E0552031F485B5D5
:1034C000887F982B95BD3EC097E08091B100887FA2
:1034D000982B9093B10036C05101CC24DD2460E0DC
:1034E00072E18AE790E0A60195010E946A1C7901C9
:1034F0008A010894E108F1080109110980E0E81641
:1035000080E0F80681E0080780E0180710F491E0F9
:1035100010C068E478EE81E090E0A60195010E9479
:103520006A1C79018A010894E108F108010911096E
:1035300093E0A1E05A1631F480918100887F982BA6
:103540009093810089819A81AB81BC810097A1050C
:10355000B10529F48FEF9FEFAFEFBFEF13C0220C3F
:10356000331CB10180E090E029813A814B815C817C
:103570000E94021C28EE33E040E050E00E94481C0C
:10358000C901DA01E1E05E16A1F0F2E05F1619F17F
:10359000552081F5E7BC8093D1039093D203A0938B
:1035A000D303B093D40380916E00826080936E0049
:1035B00021C0F0928900E09288008093D803909314
:1035C000D903A093DA03B093DB0380916F0082608C
:1035D00080936F000FC0E092B3008093DF0390935D
:1035E000E003A093E103B093E20380917000826056
:1035F000809370000F900F900F900F90CF91DF91FC
:103600001F910F91FF90EF90DF90CF90BF90AF9000
:103610009F908F907F906F905F903F902F90089534
:10362000FC0110821282118213820895FC01108223
:103630001282118213820895CF93DF93482F50E0B6
:10364000CA01835B9E4FFC013491475C5E4FFA01D7
:103650008491882369F190E0880F991FFC01E55E51
:10366000FE4FA591B491FC01EB5DFE4FC591D49145
:10367000662351F42FB7F8948C91932F909589235A
:103680008C93888189230BC0623061F42FB7F89442
:103690008C91932F909589238C938881832B888399
:1036A0002FBF06C09FB7F8948C91832B8C939FBF3C
:1036B000DF91CF910895482F50E0CA018F599E4F56
:1036C000FC012491CA01835B9E4FFC019491475CED
:1036D0005E4FFA013491332309F440C0222351F1A3
:1036E000233071F0243028F42130A1F0223011F57C
:1036F00014C02630B1F02730C1F02430D9F404C012
:10370000809180008F7703C0809180008F7D8093AF
:10371000800010C084B58F7702C084B58F7D84BDD2
:1037200009C08091B0008F7703C08091B0008F7D79
:103730008093B000E32FF0E0EE0FFF1FEB5DFE4F34
:10374000A591B4912FB7F894662321F48C919095AC
:10375000892302C08C91892B8C932FBF0895682FE9
:1037600070E0CB018F599E4FFC012491CB01835B0C
:103770009E4FFC014491675C7E4FFB01949199231D
:1037800019F420E030E03CC0222351F1233071F0E5
:10379000243028F42130A1F0223011F514C0263055
:1037A000B1F02730C1F02430D9F404C080918000FA
:1037B0008F7703C0809180008F7D8093800010C040
:1037C00084B58F7702C084B58F7D84BD09C0809198
:1037D000B0008F7703C08091B0008F7D8093B000E0
:1037E000892F90E0880F991F815D9E4FFC01A59164
:1037F000B4918C9120E030E0842311F021E030E09E
:10380000C9010895629FD001739FF001829FE00D6E
:10381000F11D649FE00DF11D929FF00D839FF00D4F
:10382000749FF00D659FF00D9927729FB00DE11DFB
:10383000F91F639FB00DE11DF91FBD01CF011124D8
:103840000895AA1BBB1B51E107C0AA1FBB1FA617E7
:10385000B70710F0A61BB70B881F991F5A95A9F739
:1038600080959095BC01CD01089597FB092E072600
:103870000AD077FD04D0E5DF06D000201AF4709559
:1038800061957F4F0895F6F7909581959F4F089524
:10389000A1E21A2EAA1BBB1BFD010DC0AA1FBB1F54
:1038A000EE1FFF1FA217B307E407F50720F0A21BC6
:1038B000B30BE40BF50B661F771F881F991F1A9433
:1038C00069F760957095809590959B01AC01BD015D
:1038D000CF01089597FB092E05260ED057FD04D081
:1038E000D7DF0AD0001C38F45095409530952195CB
:1038F0003F4F4F4F5F4F0895F6F790958095709525
:1039000061957F4F8F4F9F4F0895EE0FFF1F0590DA
:0A391000F491E02D0994F894FFCF24
:10391A0031003200330034003500360037003800F9
:10392A00390030003A00412D5465616D3A643D38E2
:10393A002C6F3D352C623D3132353A346423362CB6
:10394A0061232C326423362C3136702C67232C34B5
:10395A0061232C3464232E2C702C3136672C31369B
:10396A0061232C6423362C61232C66362C32642383
:10397A00362C3136702C63232E362C313663362C96
:10398A00313661232C67232E2C3261230000000676
:10399A00011501260137014A015D01720188019F63
:1039AA0001B801D201EE010B022A024B026E029308
:1039BA0002BA02E40210033F037003A403DC0317F4
:1039CA000455049704DD0427057505C80520067DFE
:1039DA0006E0064907B8072D08A9082D09B9094DB7
:1039EA000AEA0A900B400CFA0CC00D910E6F0F16E2
:1039FA00013132333435363738392A302303020E4F
:103A0A00000605042C01000000000000E109770A05
:103A1A007709A8098809D10900000000B40C770ABF
:103A2A0000004000140054001F1C1F1E1F1E1F1FF1
:0E3A3A001E1F1E1F00000000CD17C817C41766
:00000001FF
