:100000000C941A030C9442030C9442030C94420384
:100010000C9442030C9442030C9442030C945A1E19
:100020000C9442030C9442030C9442030C94031E60
:100030000C9442030C9442030C94AC1D0C944203A8
:100040000C94890C0C9442030C947E0D0C94CC0DF2
:100050000C9442030C9442030C9442030C9442030C
:100060000C9442030C9442034A656F706172647988
:100070003A643D342C6F3D362C623D3132353A6363
:100080002C662C632C66352C632C662C32632C6317
:100090002C662C632C662C612E2C38672C38662C31
:1000A00038652C38642C3863232C632C662C632C25
:1000B00066352C632C662C32632C662E2C38642C0F
:1000C000632C6123352C61352C67352C66352C70FB
:1000D0002C64232C67232C64232C6723352C642366
:1000E0002C67232C3264232C64232C67232C642359
:1000F0002C67232C632E372C3861232C3867232C54
:1001000038672C38662C38652C64232C67232C64C4
:10011000232C6723352C64232C67232C3264232C57
:1001200067232E2C38662C64232C63232C632C70BD
:100130002C6123352C702C67232E352C64232C67DF
:100140002300456E7465727461696E65723A643D30
:10015000342C6F3D352C623D3134303A38642C38C4
:1001600064232C38652C63362C38652C63362C3888
:10017000652C32632E362C3863362C3864362C3896
:100180006423362C3865362C3863362C3864362C8C
:1001900065362C38622C64362C3263362C702C3841
:1001A000642C3864232C38652C63362C38652C631A
:1001B000362C38652C32632E362C38702C38612C56
:1001C00038672C3866232C38612C3863362C65361A
:1001D0002C3864362C3863362C38612C3264360067
:1001E000496E6469616E613A643D342C6F3D352C13
:1001F000623D3235303A652C38702C38662C3867C1
:100200002C38702C3163362C38702E2C642C3870BE
:100210002C38652C31662C702E2C672C38702C38BD
:10022000612C38622C38702C3166362C702C612C85
:1002300038702C38622C3263362C3264362C32659E
:10024000362C652C38702C38662C38672C38702C7E
:100250003163362C702C64362C38702C3865362C73
:1002600031662E362C672C38702C38672C652E366C
:100270002C38702C64362C38702C38672C652E3650
:100280002C38702C64362C38702C38672C662E363F
:100290002C38702C65362C38702C3864362C326330
:1002A0003600412D5465616D3A643D382C6F3D3503
:1002B0002C623D3132353A346423362C61232C32A2
:1002C0006423362C3136702C67232C3461232C3474
:1002D00064232E2C702C3136672C313661232C642C
:1002E00023362C61232C66362C326423362C31368F
:1002F000702C63232E362C313663362C3136612335
:100300002C67232E2C32612300466C696E73746F48
:100310006E65733A643D342C6F3D352C623D34304C
:100320003A3332702C313666362C313661232C311B
:10033000366123362C333267362C313666362C3113
:100340003661232E2C313666362C33326423362C1C
:10035000333264362C333264362C33326423362CF9
:10036000333266362C313661232C313663362C64B9
:10037000362C313666362C313661232E2C313661DF
:1003800023362C333267362C313666362C313661C3
:10039000232E2C333266362C333266362C333264BD
:1003A00023362C333264362C333264362C333264A9
:1003B00023362C333266362C313661232C313663AA
:1003C000362C61232C313661362C3136642E362C96
:1003D00031366123362C333261362C333261362C80
:1003E000333267362C33326623362C333261362C67
:1003F0003867362C313667362C3136632E362C333F
:100400003261362C333261362C333267362C33323C
:1004100067362C333266362C333265362C333267EE
:10042000362C3866362C313666362C313661232E22
:100430002C31366123362C333267362C3136663612
:100440002C313661232E2C313666362C3332642320
:10045000362C333264362C333264362C33326423F8
:10046000362C333266362C313661232C3136632EEE
:10047000362C333264362C33326423362C333266D6
:10048000362C313661232C3136632E362C333264D0
:10049000362C33326423362C333266362C313661B7
:1004A00023362C313663372C3861232E3600680012
:1004B0004201E001A2020903536F7272792C207489
:1004C000727920616761696E210054696D652075DC
:1004D000706C6F616465642100696E76616C69643B
:1004E00020696E707574004D696E7574653F2030BB
:1004F00020746F20353900696E76616C69642069FB
:100500006E70757400486F75723F203020746F20D4
:10051000323300696E76616C696420696E7075743F
:10052000004461793F203120746F20333100696EBF
:1005300076616C696420696E707574004D6F6E74BD
:10054000683F203120746F20313200596561723F5D
:10055000203020746F203939004564697420746834
:100560006520636C6F636B00666C696E7473746F87
:100570006E65730077617320747269676765726571
:100580006400617465616D007761732074726967DE
:10059000676572656400696E6469616E6E6100779B
:1005A00061732074726967676572656400656E7453
:1005B00065727461696E6572007761732074726927
:1005C000676765726564006A656F7061726479005F
:1005D00002010000000000240027002A00000000A3
:1005E00000250028002B0000000000230026002921
:1005F00000040404040404040402020202020203CC
:1006000003030303030102040810204080010204D5
:100610000810200102040810200000000700020159
:1006200000000304060000000000000000004E036C
:10063000380F6F1611241FBECFEFD8E0DEBFCDBF3D
:1006400012E0A0E0B1E0EAEDF3E402C005900D9203
:10065000A231B107D9F716E0A2E1B2E001C01D92C4
:10066000AB38B107E1F716E0C4E3D6E004C0229747
:10067000FE010E94E721CE32D107C9F70E942D1159
:100680000C9444030C940000F8940C94EB21FB01AF
:10069000DC0105900D920020E1F70895CF92EF92D2
:1006A0000F9386E392E06CE04BE02AE009E0A8E0DB
:1006B000EA2EF7E0CF2E0E94F3128BE492E065EC75
:1006C00071E041ED51E025ED31E004E0E3E0EE2E94
:1006D0000E94B51C0F91EF90CF9008950F931F9338
:1006E00008E215E0C801609112020E941318C801C7
:1006F000609113020E941318C801609114020E94B5
:100700001318C801609115020E941318C801609166
:1007100016020E941318C801609117020E94131854
:10072000C801609118020E941318C8016091190253
:100730000E941318C80160911A020E941318C80180
:1007400060911B020E941318C80160911C020E9454
:100750001318C80160911D020E941318C80160910E
:100760001E020E941318C80160911F020E941318F4
:10077000C80160911C020E941318C80160912202F6
:100780000E941318C801609123020E941318C80127
:10079000609124020E941318C801609125020E94F2
:1007A0001318C801609121020E941318C8016091BA
:1007B00027020E941318C801609128020E94131892
:1007C000C801609129020E941318C80160912A0291
:1007D0000E9413181F910F9108950F931F9308E221
:1007E00015E0C801609112020E944A16C80160918A
:1007F00013020E944A16C801609114020E944A1610
:10080000C801609115020E944A16C8016091160243
:100810000E944A16C801609117020E944A16C80138
:10082000609118020E944A16C801609119020E9444
:100830004A16C80160911A020E944A16C8016091C6
:100840001B020E944A16C80160911C020E944A16AF
:10085000C80160911D020E944A16C80160911E02E3
:100860000E944A16C80160911F020E944A16C801E0
:1008700060911C020E944A16C801609122020E94E7
:100880004A16C801609123020E944A16C80160916D
:1008900024020E944A16C801609125020E944A164D
:1008A000C801609121020E944A16C8016091270286
:1008B0000E944A16C801609128020E944A16C80187
:1008C000609129020E944A16C80160912A020E9482
:1008D0004A161F910F9108950F931F930BEE14E08A
:1008E000C801609112024AE050E00E94A610C801BF
:1008F000609113024AE050E00E94A610C801609186
:1009000014024AE050E00E94A610C801609115024E
:100910004AE050E00E94A610C801609116024AE029
:1009200050E00E94A610C801609117024AE050E012
:100930000E94A610C801609118024AE050E00E948F
:10094000A610C801609119024AE050E00E94A6106A
:10095000C80160911A024AE050E00E94A610C80146
:1009600060911B024AE050E00E94A610C80160910D
:100970001C024AE050E00E94A610C80160911D02CE
:100980004AE050E00E94A610C80160911E024AE0B1
:1009900050E00E94A610C80160911F024AE050E09A
:1009A0000E94A610C801609120024AE050E00E9417
:1009B000A610C801609121024AE050E00E94A610F2
:1009C000C801609122024AE050E00E94A610C801CE
:1009D000609123024AE050E00E94A610C801609195
:1009E00024024AE050E00E94A610C801609125024E
:1009F0004AE050E00E94A610C801609126024AE039
:100A000050E00E94A610C801609127024AE050E021
:100A10000E94A610C801609128024AE050E00E949E
:100A2000A610C801609129024AE050E00E94A61079
:100A3000C80160912A024AE050E00E94A6101F916E
:100A40000F9108951F938BE492E00E94A11C182F30
:100A50008823C9F386E392E060E041E00E94061239
:100A60001433C1F1153374F41133E1F0123324F46B
:100A7000103309F069C060C01233E1F0133309F09C
:100A800063C020C01733F1F1183334F4153351F13A
:100A9000163309F059C02EC01833E1F1193309F0AB
:100AA00053C040C086E392E060E071E00E941711FD
:100AB00081E03FC086E392E062E071E00E9417119E
:100AC00082E037C086E392E064E071E00E94171193
:100AD00083E02FC086E392E066E071E00E94171188
:100AE00084E027C086E392E068E071E00E9417117D
:100AF00085E01FC086E392E06AE071E00E94171172
:100B000086E017C086E392E06CE071E00E94171166
:100B100087E00FC086E392E06EE071E00E9417115B
:100B200088E007C086E392E060E171E00E9417115F
:100B300089E08093330208C086E392E062E171E0CD
:100B40000E941711109233028BE492E00E94A11CC4
:100B5000182F8823C9F386E392E061E041E00E9408
:100B60000612143309F445C015338CF4113309F11E
:100B700012333CF4133209F475C0103309F075C018
:100B800068C01233F1F0133309F06FC02AC0173375
:100B900009F447C0183334F4153399F1163309F0CA
:100BA00064C037C0183309F444C0193309F05DC07C
:100BB00048C086E392E060E071E00E94171181E096
:100BC00007C086E392E062E071E00E94171182E0C4
:100BD0008093340268EE73E080E090E00E94DF0CC6
:100BE00044C086E392E064E071E00E94171183E064
:100BF000EFCF86E392E066E071E00E94171184E097
:100C0000E7CF86E392E068E071E00E94171185E08B
:100C1000DFCF86E392E06AE071E00E94171186E080
:100C2000D7CF86E392E06CE071E00E94171187E075
:100C3000CFCF86E392E06EE071E00E94171188E06A
:100C4000C7CF86E392E060E171E00E94171189E06E
:100C5000BFCF86E392E062E171E00E94171110922B
:100C60003402B8CF84E6809334022091340290910C
:100C70003302243619F49093320207C08AE0989F19
:100C8000C0011124280F20933202809132021F915B
:100C90000895EF92FF920F931F931092350286E30F
:100CA00092E00E94351286E392E060E040E00E940C
:100CB000061286E392E06BE475E00E94B80F0E9492
:100CC00022058093310286E392E00E94351286E38A
:100CD00092E060E040E00E94061286E392E06CE35E
:100CE00075E00E94B80F0E942205809330028D307B
:100CF000A8F086E392E060E041E00E94061286E3FD
:100D000092E06EE275E00E94B80F68EE73E080E05A
:100D100090E00E94DF0C81E08093350286E392E050
:100D20000E94351286E392E060E040E00E940612E5
:100D300086E392E061E275E00E94B80F0E9422050E
:100D400080932F028032A8F086E392E060E041E0D9
:100D50000E94061286E392E063E175E00E94B80FFC
:100D600068EE73E080E090E00E94DF0C81E0809309
:100D7000350286E392E00E94351286E392E060E05D
:100D800040E00E94061286E392E065E075E00E9472
:100D9000B80F0E94220580932D028831A8F086E3C7
:100DA00092E060E041E00E94061286E392E067EF85
:100DB00074E00E94B80F68EE73E080E090E00E945B
:100DC000DF0C81E08093350286E392E00E943512C9
:100DD00086E392E060E040E00E94061286E392E043
:100DE00067EE74E00E94B80F0E94220580932E02E5
:100DF0008C33A8F086E392E060E041E00E940612A6
:100E000086E392E069ED74E00E94B80F68EE73E04B
:100E100080E090E00E94DF0C81E0809335028091B9
:100E20003502882309F0A1C08BEE94E060912D0279
:100E30004AE050E00E94A6108BEE94E060912E02F2
:100E40004AE050E00E94A6108BEE94E060912F02E1
:100E50004AE050E00E94A6108BEE94E060913002D0
:100E60004AE050E00E94A6108BEE94E060913102BF
:100E70004AE050E00E94A610109251048AE896E0E1
:100E800060E070E044E60E947020609151046F5F62
:100E9000609351048AE896E070E0409131020E942C
:100EA0007020609151046F5F609351048AE896E06E
:100EB00070E0409130020E947020609151046F5F99
:100EC000609351048AE896E070E040912F020E94FE
:100ED0007020609151046F5F609351048AE896E03E
:100EE00070E040912D020E947020609151046F5F6C
:100EF000609351048AE896E070E040912E020E94CF
:100F0000702068EE73E080E090E00E94DF0C0C94AB
:100F1000000060912E0220912F0200913002E0909B
:100F2000310280912D0290E070E040E050E030E02E
:100F300010E0FF240E9458150E94ED030E946E03EA
:100F400068EE73E080E090E00E94DF0C86E392E0C0
:100F50000E94351286E392E060E040E00E940612B3
:100F600086E392E06AEC74E00EC086E392E00E94B1
:100F7000351286E392E060E040E00E94061286E3CC
:100F800092E068EB74E00E94B80F60ED77E080E0DB
:100F900090E00E94DF0C86E392E00E9435121F91E0
:100FA0000F91FF90EF9008958BE492E00E94A11CB6
:100FB0008823D1F08332C1F486E392E060E041E01F
:100FC0000E94061286E392E069E575E00E94B80F80
:100FD00060ED77E080E090E00E94DF0C86E392E035
:100FE0000E9435120E9449060895CF93DF93EC01C9
:100FF00086E392E064E171E00E941711CA30D105E6
:101000002CF486E392E060E30E94DB0F86E392E03B
:10101000BE014AE050E00E940411DF91CF91089593
:101020000F931F9306E312E0C80160E040E00E94C6
:1010300006120E94FC15BC01C8014AE050E00E9463
:1010400004110E94F4150E94F5070E94EC150E94FD
:10105000F5071F910F9108950E94100888E295E00E
:1010600048EE53E060E070E00E9498190E94D407B7
:1010700008954F925F926F927F928F929F92AF925C
:10108000BF92CF92DF92EF92FF920F931F93CF9375
:10109000DF9301C0CF01FC0181918A33D9F7EF01C1
:1010A0008081843611F014E024C0329620E030E0D4
:1010B00013C0C901B3E0880F991FBA95E1F7220F59
:1010C000331F820F931F242F332727FD3095205382
:1010D0003040280F391F31964081842F80538A3049
:1010E00040F31216130614F014E001C0122FEF01A2
:1010F000219688818F3619F076E0C72E15C0FE0143
:101100003196AF014F5F5F4F8181992787FD9095A1
:101110009C0120533040C397059718F066E0C62E17
:1011200001C0C22EEA0122968881823619F08FE32F
:1011300090E020C0CE01029620E030E013C0C9014B
:1011400053E0880F991F5A95E1F7220F331F820F42
:10115000931F242F332727FD309520533040280F2D
:10116000391FCF01FC014191842F80538A3038F31D
:10117000EF01C9019C01442737FD4095542F60E6DB
:101180007AEE80E090E00E94CA2149015A01B2E063
:10119000880C991CAA1CBB1CBA95D1F7412E55246A
:1011A00066247724A7C0CB01A3E0880F991FAA95D6
:1011B000E1F7660F771F860F971F6D2D772767FD65
:1011C000709560537040680F791F2196D8808D2DDF
:1011D00080538A3040F36115710541F09B0144272B
:1011E00037FD4095542FC501B40104C0C501B401B9
:1011F000A30192010E94CA21C901DA017C018D017B
:1012000084E6D816A1F08D154CF082E6D81609F1C7
:101210008D1584F081E6D816F9F418C086E6D81644
:1012200079F0D81654F087E6D816B1F40CC0E3E094
:10123000DE2E13C0DD24D39410C075E0D72E0DC070
:1012400066E0D62E0AC058E0D52E07C04AE0D42E5C
:1012500004C03CE0D32E01C0DD2421968881833276
:1012600011F4D394219688818E3279F4C801B701A4
:1012700022E030E040E050E00E94CA21C901DA01DA
:10128000E80EF91E0A1F1B1F2196988190539A3071
:1012900010F09C2D01C0219688818C3209F4219692
:1012A000DD2021F1892F90E0FC01EE0FFF1FE80FF8
:1012B000F91FEE0FFF1FEE0FFF1FED0DF11DEE0FDB
:1012C000FF1FED5FFE4F608171818BE292E020E0B5
:1012D00030E040E050E00E94C51EC801B7010E9406
:1012E000DF0C8BE292E00E94A71E04C0C801B70188
:1012F0000E94DF0C8881882319F060E070E066CFDF
:10130000DF91CF911F910F91FF90EF90DF90CF90E1
:10131000BF90AF909F908F907F906F905F904F9015
:101320000895EF92FF920F931F9388E295E00E9439
:101330006116682F1BEEE12E14E0F12EC7014AE082
:1013400050E00E94A610C70164E775E00E940310F8
:10135000E6EBF4E06591749103EA12E0C8010E94A3
:101360004703C70168E675E00E940310C701B80192
:101370000E941A11C8010E9439081F910F91FF9015
:10138000EF900895EF92FF920F931F9388E295E0FC
:101390000E946116682F0BEEE02E04E0F02EC701CC
:1013A0004AE050E00E94A610C70168E875E00E947C
:1013B0000310E4EBF4E06591749103EA12E0C801D4
:1013C0000E944703C70162E875E00E940310C7014D
:1013D000B8010E941A11C8010E9439081F910F918B
:1013E000FF90EF900895EF92FF920F931F9388E282
:1013F00095E00E946116682F8BEEE82E84E0F82EAF
:10140000C7014AE050E00E94A610C7016FE975E0ED
:101410000E940310E2EBF4E06591749103EA12E09C
:10142000C8010E944703C70166E975E00E940310E6
:10143000C701B8010E941A11C8010E9439081F9102
:101440000F91FF90EF900895EF92FF920F931F93EB
:1014500088E295E00E946116682F9BEEE92E94E0E9
:10146000F92EC7014AE050E00E94A610C70169EBBF
:1014700075E00E940310E0EBF4E06591749103EADB
:1014800012E0C8010E944703C7016DEA75E00E949F
:101490000310C701B8010E941A11C8010E9439083F
:1014A0001F910F91FF90EF900895EF92FF920F938D
:1014B0001F9388E295E00E946116EEEAF4E06591E0
:1014C000749123EAE22E22E0F22EC7010E94470324
:1014D0000BEE14E0C80167EC75E00E940310C80130
:1014E000B7010E941A11C7010E9439081F910F917C
:1014F000FF90EF900895CF93DF938BEE94E066E139
:1015000071E00E941A11C3E5D4E0609151048AE8A9
:1015100096E070E00E946920682F809352048BEE61
:1015200094E04AE050E00E94A61080915204899312
:10153000809151048F5F8093510484E0C935D807AE
:1015400021F790E080915304843609F491E0892FCB
:10155000DF91CF910895AF92BF92CF92DF92EF9239
:10156000FF920F931F93E8E2CE2EE5E0DE2E75E5A5
:10157000A72E7AE0B72EC60162E070E047E050E0A7
:101580002FE030E00AE010E075010E9427198093F7
:101590001202C60163E070E047E050E02FE030E067
:1015A0000E94271980931302C60164E070E047E0AF
:1015B00050E02FE030E00E94271980931402C6010A
:1015C00065E070E047E050E02FE030E00E9427192E
:1015D00080931502C60166E070E047E050E02FE01E
:1015E00030E00E9427198093160264E2A62E6AE07A
:1015F000B62EC60162E070E048E050E020E030E046
:1016000075010E94271980931702C60163E070E0FC
:1016100048E050E020E030E00E9427198093180253
:10162000C60164E070E048E050E020E030E00E9455
:10163000271980931902C60165E070E048E050E088
:1016400020E030E00E94271980931A02C60166E06C
:1016500070E048E050E020E030E00E9427198093DD
:101660001B0253EFA52E59E0B52EC60162E070E0D3
:101670004AE050E028E230E075010E94271980938B
:101680001C02C60163E070E04AE050E028E230E06E
:101690000E94271980931D02C60164E070E04AE0B1
:1016A00050E028E230E00E94271980931E02C60114
:1016B00065E070E04AE050E028E230E00E9427193F
:1016C00080931F02C60166E070E04AE050E028E225
:1016D00030E00E9427198093200242ECA42E49E0BA
:1016E000B42EC60162E070E04BE050E024E130E04F
:1016F00075010E94271980932102C60163E070E002
:101700004BE050E024E130E00E9427198093220250
:10171000C60164E070E04BE050E024E130E00E945C
:10172000271980932302C60165E070E04BE050E08A
:1017300024E130E00E94271980932402C60166E06C
:1017400070E04BE050E024E130E00E9427198093E4
:10175000250231E9A32E39E0B32EC60162E070E024
:101760004EE050E02EE130E075010E942719809391
:101770002602C60163E070E04EE050E02EE130E06A
:101780000E94271980932702C60164E070E04EE0B2
:1017900050E02EE130E00E94271980932802C60114
:1017A00065E070E04EE050E02EE130E00E94271945
:1017B00080932902C60166E070E04EE050E02EE121
:1017C00030E00E94271980932A021F910F91FF9009
:1017D000EF90DF90CF90BF90AF900895EF92FF927F
:1017E0000F931F938BEE94E040E855E260E070E0C9
:1017F0000E94070E8BE292E06DE00E941F1D86E3BF
:1018000092E060E142E020E00E943D120E947B0AEB
:1018100080935904882309F45EC08BEE94E065E25E
:1018200071E00E941A118BEE94E062E371E00E9475
:1018300017118BEE94E0609157044AE050E00E944B
:10184000A6108BEE94E069E371E00E9417118BEE15
:1018500094E0609158044AE050E00E94A6108BEE9C
:1018600094E062E471E00E9417118BEE94E06091C5
:1018700056044AE050E00E94A6108BEE94E068E423
:1018800071E00E9417118BEE94E0609155044AE0DC
:1018900050E00E94A6108BEE94E060E571E00E949B
:1018A00017118BEE94E0609154044AE050E00E94DE
:1018B000A610609158042091560400915504E090C0
:1018C00054048091570490E070E040E050E030E034
:1018D00010E0FF2413C08BEE94E067E571E00E94F6
:1018E0001A118AE090E068E270E045E050E023E001
:1018F00030E001E010E0FBE0EF2EF12C0E945815E3
:101900000E94AB0A0E946C041F910F91FF90EF9010
:1019100008951F920F920FB60F9211242F933F93A9
:101920008F939F93AF93BF9380915E0490915F04D8
:10193000A0916004B0916104309162040196A11DF0
:10194000B11D232F2D5F2D3720F02D570196A11D9E
:10195000B11D2093620480935E0490935F04A09372
:101960006004B093610480915A0490915B04A0914B
:101970005C04B0915D040196A11DB11D80935A04D1
:1019800090935B04A0935C04B0935D04BF91AF910E
:101990009F918F913F912F910F900FBE0F901F90AD
:1019A00018958FB7F89420915E0430915F044091B0
:1019B0006004509161048FBFB901CA0108959B0171
:1019C000AC017FB7F89480915A0490915B04A09188
:1019D0005C04B0915D0466B5A89B05C06F3F19F02B
:1019E0000196A11DB11D7FBFBA2FA92F982F88275F
:1019F000860F911DA11DB11D62E0880F991FAA1FBE
:101A0000BB1F6A95D1F7BC012DC0FFB7F894809138
:101A10005A0490915B04A0915C04B0915D04E6B51A
:101A2000A89B05C0EF3F19F00196A11DB11DFFBF96
:101A3000BA2FA92F982F88278E0F911DA11DB11D98
:101A4000E2E0880F991FAA1FBB1FEA95D1F7861BFA
:101A5000970B885E9340C8F2215030404040504080
:101A600068517C4F211531054105510571F60895E6
:101A7000019739F0880F991F880F991F02970197D6
:101A8000F1F70895789484B5826084BD84B581604F
:101A900084BD85B5826085BD85B5816085BDEEE676
:101AA000F0E0808181608083E1E8F0E01082808155
:101AB00082608083808181608083E0E8F0E08081C3
:101AC00081608083E1EBF0E0808184608083E0EBE3
:101AD000F0E0808181608083EAE7F0E080818460CB
:101AE0008083808182608083808181608083808127
:101AF000806880831092C100089508951F920F920C
:101B00000FB60F9211242F933F934F938F939F9370
:101B1000EF93FF938091C00082FD1DC04091C600ED
:101B20002091A3043091A4042F5F3F4F2F73307096
:101B30008091A5049091A6042817390771F0E091CF
:101B4000A304F091A404ED59FB4F40833093A40407
:101B50002093A30402C08091C600FF91EF919F9152
:101B60008F914F913F912F910F900FBE0F901F902B
:101B70001895E091F704F091F804E05CFF4F819133
:101B8000919120813181821B930B8F739070892BEF
:101B900011F00E947D0D08951F920F920FB60F92C3
:101BA00011242F933F938F939F93EF93FF93209153
:101BB000E7043091E8048091E9049091EA04281741
:101BC000390731F48091C1008F7D8093C10014C02A
:101BD000E091E904F091EA04E955FB4F20818091FE
:101BE000E9049091EA0401968F7390709093EA044F
:101BF0008093E9042093C600FF91EF919F918F910C
:101C00003F912F910F900FBE0F901F901895AF929C
:101C1000BF92DF92EF92FF920F931F93CF93DF93C8
:101C2000EC017A018B01DD24403081EE580780E021
:101C3000680780E0780711F0DD24D39491E0A92EA5
:101C4000B12CEC89FD89DD2069F0C50108A002C036
:101C5000880F991F0A94E2F7808360E079E08DE3B2
:101C600090E005C0108260E874E88EE190E0A80181
:101C700097010E94A8212150304040405040569585
:101C800047953795279580E12030380720F0DD20F3
:101C900011F0DD24D6CFE889F9893083EA89FB8900
:101CA000208319A2EE89FF89408121E030E0C9013B
:101CB0000C8C02C0880F991F0A94E2F7482B4083CE
:101CC000EE89FF894081C9010D8C02C0880F991FE0
:101CD0000A94E2F7482B4083EE89FF894081C901CD
:101CE0000E8C02C0880F991F0A94E2F7482B40839C
:101CF000EE89FF8980810F8C02C0220F331F0A9466
:101D0000E2F7209528232083DF91CF911F910F9137
:101D1000FF90EF90DF90BF90AF900895DC011C968C
:101D2000ED91FC911D97E05CFF4F219131918081F5
:101D30009181281B390B2F733070C9010895DC0184
:101D40001C96ED91FC911D97E05CFF4F2081318145
:101D5000E054F040DF01AE5BBF4F8D919C91119735
:101D60002817390719F42FEF3FEF07C08D919C9189
:101D7000E80FF91F8081282F30E0C9010895DC01A8
:101D80001C96ED91FC911D97E05CFF4F2081318105
:101D9000E054F040DF01AE5BBF4F8D919C911197F5
:101DA0002817390719F42FEF3FEF10C08D919C9140
:101DB0001197E80FF91F20818D919C911197019641
:101DC0008F73907011969C938E9330E0C9010895A3
:101DD000DC0191968C919197882339F05496ED917E
:101DE000FC915597808186FFF9CF91961C920895BA
:101DF000CF93DF93EC01EE85FF85E05CFF4F208100
:101E00003181E054F0402F5F3F4F2F733070DF017E
:101E1000AE5BBF4F8D919C91119728173907D1F375
:101E2000E05CFF4F80819181E054F040E80FF91FA2
:101E30006083EE85FF85E05CFF4F31832083EE8970
:101E4000FF89208181E090E00F8C02C0880F991FEC
:101E50000A94E2F7282B208381E089A3EC89FD898D
:101E600080818064808381E090E0DF91CF9108954C
:101E70001092EE041092ED0488EE93E0A0E0B0E042
:101E80008093EF049093F004A093F104B093F204D4
:101E900080EE91E09093EC048093EB0483E694E071
:101EA0009093F8048093F70487EA94E09093FA04FF
:101EB0008093F90485EC90E09093FC048093FB04FC
:101EC00084EC90E09093FE048093FD0480EC90E01D
:101ED000909300058093FF0481EC90E090930205BD
:101EE0008093010582EC90E09093040580930305B4
:101EF00086EC90E0909306058093050584E080933E
:101F0000070583E08093080587E08093090585E055
:101F100080930A0581E080930B050895CF92DF92AC
:101F2000EF92FF920F931F93CF93DF937C016B018E
:101F30008A01C0E0D0E00FC0D6016D916D01D701DC
:101F4000ED91FC910190F081E02DC7010995C80F3A
:101F5000D91F015010400115110571F7CE01DF9115
:101F6000CF911F910F91FF90EF90DF90CF90089548
:101F7000EF92FF920F931F93CF93DF937C018B011E
:101F8000C0E0D0E0F8010F5F1F4F6491662359F065
:101F9000D701ED91FC910190F081E02DC7010995E9
:101FA000C80FD91FEFCFCE01DF91CF911F910F91B5
:101FB000FF90EF900895DC01ED91FC910190F0818C
:101FC000E02D09950895EF92FF920F931F938C01D6
:101FD000DC01ED91FC910190F081E02D6DE009951F
:101FE0007C01D801ED91FC910190F081E02DC801B8
:101FF0006AE009959C012E0D3F1DC9011F910F91AB
:10200000FF90EF900895EF92FF920F931F937C0142
:102010000E94B80F8C01C7010E94E30F9C01200FA2
:10202000311FC9011F910F91FF90EF900895CF9339
:10203000DF93EC016115710519F420E030E00FC069
:10204000DB010D900020E9F71197A61BB70BE88183
:10205000F9810280F381E02DAD0109959C01C90150
:10206000DF91CF9108954F925F927F928F929F92CE
:10207000AF92BF92CF92DF92EF92FF920F931F9396
:10208000DF93CF93CDB7DEB7A1970FB6F894DEBF3D
:102090000FBECDBF2C01742ECB01223008F42AE0F4
:1020A00019A231E2C32ED12CCC0EDD1E822E992432
:1020B000AA24BB24672D752FA50194010E94A82195
:1020C00079018A01C801B701A50194010E9462212A
:1020D000472D461B0894C108D1084A3014F4405DCE
:1020E00001C0495CF6014083E114F10401051105CA
:1020F00021F07E2C5F2DC801DDCFC201B6010E9408
:102100001710A1960FB6F894DEBF0FBECDBFCF91CA
:10211000DF911F910F91FF90EF90DF90CF90BF90D4
:10212000AF909F908F907F905F904F900895DC01CB
:102130002115310541F4ED91FC910190F081E02DE4
:10214000642F099508950E9433100895CF92DF926D
:10215000EF92FF920F931F936C01E62E9A01FF24DA
:1021600000E010E0B801A7010E9497108C01C601A1
:102170000E94E30F080F191FC8011F910F91FF90D4
:10218000EF90DF90CF900895CF92DF92EF92FF9281
:102190000F931F93CF93DF93EC016A017B0121150D
:1021A000310541F4E881F9810190F081E02D642F3F
:1021B00009951FC02A303105D1F477FF17C0E88197
:1021C000F9810190F081E02D6DE209958C014427A1
:1021D0005527BA014C195D096E097F09CE012AE025
:1021E0000E9433109801280F391F04C02AE00E9472
:1021F00033109C01C901DF91CF911F910F91FF9086
:10220000EF90DF90CF900895EF92FF920F931F937E
:102210007B019A010027F7FC0095102FB801A70158
:102220000E94C4101F910F91FF90EF9008950E949B
:1022300017100895EF92FF920F931F937C010E9455
:1022400017108C01C7010E94E30F080F191FC80166
:102250001F910F91FF90EF900895CF93DF930E940D
:10226000420D0E94EE0BC9EBDDE00E942C08209786
:10227000E1F30E94B90DF9CF0F931F938C01FC017C
:10228000868160E00E94BB2081E090E00E94380DD2
:10229000F801868161E00E94BB2081E090E00E940D
:1022A000380DF801868160E00E94BB2084E690E052
:1022B0000E94380D1F910F910895CF92DF92EF92F7
:1022C000FF920F931F93CF93DF93D82EC92E282F01
:1022D000392FC9018C01C0E0D0E0E62EFF24F801BF
:1022E000878161E00E947C20B7010C2E02C07595A9
:1022F00067950A94E2F76170F80187810E94BB201C
:1023000021960F5F1F4FC830D10549F78D2D9C2DA9
:102310000E943C11DF91CF911F910F91FF90EF90A0
:10232000DF90CF900895CF92DF92EF92FF920F93BC
:102330001F93CF93DF93D82EC92E282F392FC90191
:102340008C01C0E0D0E0E62EFF24F801878161E037
:102350000E947C20B7010C2E02C0759567950A94E7
:10236000E2F76170F80187810E94BB2021960F5F20
:102370001F4FC430D10549F78D2D9C2D0E943C1173
:10238000DF91CF911F910F91FF90EF90DF90CF9051
:1023900008951F93CF93DF93EC01162F8C81642F48
:1023A0000E94BB208D818F3F19F060E00E94BB200E
:1023B0008F8584FF05C0CE01612F0E945D110EC084
:1023C000612F70E084E0759567958A95E1F7CE01FD
:1023D0000E949311CE01612F0E949311DF91CF9142
:1023E0001F91089541E00E94C91181E090E0089595
:1023F00040E00E94C9110895FC016089862F846025
:10240000808B6C60CF010E94F8110895DF93CF9309
:10241000CDB7DEB728970FB6F894DEBF0FBECDBF9D
:102420009C01FE013196A4EFB1E088E00D9001928D
:102430008150E1F7F9018389481710F0482F415086
:10244000E42FF0E0EE0FFF1FEC0FFD1F8181680FFE
:102450006068C9010E94F81128960FB6F894DEBF93
:102460000FBECDBFCF91DF91089561E00E94F811BA
:1024700080ED97E00E94380D0895CF93DF93EC0133
:10248000423018F08F8588608F874B8B1C8A2223FF
:1024900029F0413019F48F8584608F8780E593ECB3
:1024A0000E94380D8C8160E00E94BB208E8160E02C
:1024B0000E94BB208D818F3F19F060E00E94BB20FD
:1024C0006F8564FD1DC0CE0163E00E94931184E915
:1024D00091E10E94380DCE0163E00E94931184E9DE
:1024E00091E10E94380DCE0163E00E94931186E9CC
:1024F00090E00E94380DCE0162E00E94931116C058
:102500006062CE010E94F81184E991E10E94380DC9
:102510006F856062CE010E94F81186E990E00E940A
:10252000380D6F856062CE010E94F8116F85606280
:10253000CE010E94F81184E0888BCE010E94FC112C
:10254000CE010E94351282E0898BCE0166E00E94A6
:10255000F811DF91CF9108956F927F928F92AF9291
:10256000CF92EF920F931F93DF93CF93CDB7DEB748
:102570003C01162F842FF301448325830683E782D1
:10258000C086A18682869D8593879E8594879F8538
:1025900095879889968761E00E947C20F301858168
:1025A0008F3F19F061E00E947C20F301868161E099
:1025B0000E947C20112319F0F301178603C080E1EB
:1025C000F3018787C30160E141E020E00E943D12F2
:1025D000CF91DF911F910F91EF90CF90AF908F909F
:1025E0007F906F9008958F92AF92CF92EF920F935A
:1025F0001F93CF93DF93DC01362F542F722F102FB0
:10260000AE2C8C2C13961C921E92129780EF91E0A8
:1026100011969C938E9300D000D0EDB7FEB7319603
:10262000CDB7DEB71982118212821382CD0161E02B
:10263000432F2FEF052FE72EC12E0E94AC120F90D3
:102640000F900F900F90DF91CF911F910F91EF900E
:10265000CF90AF908F9008958F929F92AF92BF923C
:10266000CF92DF92EF92FF920F931F93CF93DF935E
:102670007B018C01EA012CE330E040E050E00E9455
:10268000A8216883C801B7012CE330E040E050E0A6
:102690000E94A821122F032FF42EE52E622F732FF4
:1026A000842F952F2CE330E040E050E00E94A821D9
:1026B0006983612F702F8F2D9E2D2CE330E040E039
:1026C00050E00E94A821122F032FF42EE52E622F36
:1026D000732F842F952F28E130E040E050E00E94D6
:1026E000A8216A83612F702F8F2D9E2D28E130E065
:1026F00040E050E00E94A82179018A01C801B70199
:102700006C5F7F4F8F4F9F4F27E030E040E050E0FD
:102710000E94A8216F5F6B8320E0AA24BB2465017F
:1027200001C02F5F822E9924F401EE54F84FCF019F
:1027300083709070892B99F4CF0164E670E00E9459
:102740009521892B39F4CF0160E971E00E94952130
:10275000892B29F48EE691E0A0E0B0E004C08DE67C
:1027600091E0A0E0B0E0A80EB91ECA1EDB1EC501B4
:10277000A0E0B0E0E816F9060A071B0790F62E83E2
:10278000F401EE54F84F83E0882E912C8E229F2284
:102790008114910499F4CF0164E670E00E949521C0
:1027A000892B39F4CF0160E971E00E949521892BD2
:1027B00029F48EE691E0A0E0B0E004C08DE691E05F
:1027C000A0E0B0E0A81AB90ACA0ADB0A980187019A
:1027D0000A191B092C093D09CF0164E670E00E942B
:1027E00095217C01CF0160E971E00E949521AC0147
:1027F000ECEFF1E060E0613051F48114910449F4B0
:10280000E114F10441F44115510529F002C0808121
:1028100003C08CE101C08DE190E0A0E0B0E00817BA
:1028200019072A073B0740F0081B190B2A0B3B0B23
:102830006F5F31966C30F9F66F5F6D83802F8F5F1D
:102840008C83DF91CF911F910F91FF90EF90DF90DC
:10285000CF90BF90AF909F908F900895EF92FF928E
:102860000F931F937B018C01809124059091250586
:10287000A0912605B0912705E816F9060A071B075F
:1028800071F0C801B70149E155E00E942C13E092B4
:102890002405F092250500932605109327051F9126
:1028A0000F91FF90EF9008954F925F926F927F92F9
:1028B0008F929F92AF92BF92CF92DF92EF92FF9250
:1028C0000F931F93CF93DF934C01DC0116961C915D
:1028D000612F70E080E090E020E833E341EE51E0CA
:1028E0000E9462215B016C0122EB37E0E12FF0E0F6
:1028F000EE54F84F1DC0C90183709070892BB1F45C
:10290000C90164E670E00E949521892B39F4C90160
:1029100060E971E00E949521892B41F480E891E5FE
:10292000A1E0B0E0A80EB91ECA1EDB1E2F5F3F4F0C
:102930002E173F0701F7D40115968C91482E552488
:10294000C90164E670E00E9495217C01C90160E93B
:1029500071E00E9495218C01C1E0D0E093E0692EE6
:10296000712C6222732227C0C230D10591F4611408
:10297000710479F4E114F10419F40115110549F415
:1029800080E89BE3A6E2B0E0A80EB91ECA1EDB1EDB
:1029900011C0FE01E550FE4F608170E080E090E0E4
:1029A00020E831E541E050E00E946221A60EB71E0A
:1029B000C81ED91E2196C415D505B4F2D4011296AD
:1029C0006C9170E080E090E020E13EE040E050E07B
:1029D0000E9462217B018C01F401618170E080E042
:1029E00090E02CE330E040E050E00E946221E60EEF
:1029F000F71E081F191FD4018C91E80EF11C011D50
:102A0000111D14966C9170E061507040882777FD1D
:102A10008095982F20E831E541E050E00E94622146
:102A2000E60EF71E081F191FEA0CFB1C0C1D1D1DCE
:102A3000B701C801DF91CF911F910F91FF90EF90E7
:102A4000DF90CF90BF90AF909F908F907F906F90CE
:102A50005F904F90089560930F05709310058093D9
:102A60001105909312052091D8013091D901409120
:102A7000DA015091DB01260F371F481F591F2093A1
:102A8000130530931405409315055093160582E005
:102A900090E090931805809317050E94D10C6093E5
:102AA00020057093210580932205909323050895B6
:102AB000EF92FF920F93F701E436F1051CF0E25B11
:102AC000F74001C07E96E0931F0500931E052093FA
:102AD0001D0580931B0560931A054093190589E134
:102AE00095E00E9454140E942B150F91FF90EF90D7
:102AF0000895EF92FF920F931F931CC02F5F3F4FDB
:102B00004F4F5F4F20930F053093100540931105F1
:102B10005093120588EE93E0A0E0B0E0E80EF91EB5
:102B20000A1F1B1FE0922005F09221050093220549
:102B3000109323050E94D10CE0902005F090210510
:102B400000912205109123056E197F09800B910BCE
:102B500020910F05309110054091110550911205FB
:102B6000685E73408040904048F6809113059091D4
:102B70001405A0911505B0911605281739074A07C5
:102B80005B07E8F0E0910D05F0910E053097B9F084
:102B90000995611571058105910519F00E942B15A4
:102BA0000EC020E030E08091170590911805892B28
:102BB00011F021E030E03093180520931705609163
:102BC0000F057091100580911105909112051F91CC
:102BD0000F91FF90EF9008950E9479150E942E1496
:102BE0008091190590E008950E9479150E942E1495
:102BF00080911A0590E008950E9479150E942E1484
:102C000080911B0590E00895CF93DF93DC01FC01D8
:102C100020E030E08285807C8287168217821086D1
:102C20001186128213821482158211821082255F0E
:102C30003F4F3B9681E02A34380761F7A65BBE4FD1
:102C40001C92AA54B140ED0120E030E04BE050E08E
:102C5000249FF001259FF00D349FF00D1124EA0F01
:102C6000FB1F9285892F8F7061F0907E9287198269
:102C700018821A821B821C821D821E821F82188665
:102C800019862F5F3F4F2B962E31310509F7DF91C3
:102C9000CF910895AC016E3198F4862F90E02BE02F
:102CA00030E0829FF001839FF00D929FF00D112480
:102CB000E40FF51F9285892F8F7011F09F7E928708
:102CC0000895FC01E65BFE4F8081EA54F1408823C1
:102CD00011F48FEF0895E55BFE4F8081089588E23F
:102CE00095E00E94041608952F923F924F925F92B2
:102CF0006F927F928F929F92AF92BF92CF92DF920C
:102D0000EF92FF920F931F93DF93CF9300D000D0E9
:102D100000D0CDB7DEB79E838D83FC018281938185
:102D2000A481B5810097A105B10509F45BC1828535
:102D300084FF58C10E94791569837A838B839C83B1
:102D4000AD81BE811A963C911A97232F2F70822F46
:102D5000825F8F70833008F028C116968D919D9107
:102D60000D90BC91A02D49815A816B817C814817BF
:102D700059076A077B0708F418C1223059F4ED811E
:102D8000FE8182819381A481B58186839783A08708
:102D9000B1870BC1233009F061C0AD81BE811296AD
:102DA000ED90FD900D911C9115970E94791520E8EA
:102DB00031E541E050E00E94A821CA01B90120E8B4
:102DC00031E541E050E00E946221E60EF71E081F47
:102DD000191FED81FE81A280B380C480D580298136
:102DE0003A814B815C812E153F0540075107C8F0A1
:102DF000CA01B90120E831E541E050E00E94A82174
:102E00002F5F3F4F4F4F5F4FCA01B90120E831E5B7
:102E100041E050E00E946221A60EB71EC81ED91ED6
:102E2000ACC069817A818B819C8120E831E541E0E9
:102E300050E00E94A821CA01B90120E831E541E033
:102E400050E00E946221A60EB71EC81ED91EED8159
:102E5000FE81A682B782C086D186A7C0243009F041
:102E6000A0C0AD81BE8112966D907D908D909C909A
:102E700015970E9479157B018C010E9479155B01E1
:102E80006C010E9479151B012C01E60CF71C081D32
:102E9000191DC601B50120E831E541E050E00E946E
:102EA000A821E61AF70A080B190BC201B10120E8A4
:102EB00031E541E050E00E94A8212C5F3F4F4F4F89
:102EC0005F4FCA01B90127E030E040E050E00E94C6
:102ED000A82120E831E541E050E00E946221E61A95
:102EE000F70A080B190BED81FE81A280B380C48024
:102EF000D58029813A814B815C812E153F054007A1
:102F0000510708F443C040E85AE369E070E0A40EBA
:102F1000B51EC61ED71E69817A818B819C81A60E43
:102F2000B71EC81ED91E20E831E541E050E00E94DE
:102F3000A821A61AB70AC80AD90A69817A818B81A1
:102F40009C8120E831E541E050E00E94A8212C5FFF
:102F50003F4F4F4F5F4FCA01B90127E030E040E0DB
:102F600050E00E94A82120E831E541E050E00E94B5
:102F70006221A61AB70AC80AD90AAD81BE8116967F
:102F8000AD92BD92CD92DC9219970FC029813A8102
:102F90004B815C81A20EB31EC41ED51ECA01B901AD
:102FA000C2CF3F7EED81FE813287AD81BE811A9610
:102FB0008C911A978F708130E9F412968D919D91C2
:102FC0000D90BC91A02D29813A814B815C81820FAB
:102FD000931FA41FB51FED81FE8186839783A08771
:102FE000B18708C0AD81BE811A968C911A978F7EE9
:102FF0001A968C9326960FB6F894DEBF0FBECDBFFF
:10300000CF91DF911F910F91FF90EF90DF90CF90C4
:10301000BF90AF909F908F907F906F905F904F90F8
:103020003F902F900895AC016E3198F570E08BE0E1
:1030300090E0689FF001699FF00D789FF00D1124DA
:10304000E40FF51F82858F7021F182819381A48125
:10305000B5810097A105B10511F420E006C020E07C
:1030600080819181892B09F021E08BE090E0689FBD
:10307000F001699FF00D789FF00D1124E40FF51F0A
:103080002295207F82858F7E822B8287CF010E94AE
:1030900074160895CF92DF92EF92FF920F931F93D1
:1030A000CF93DF93EC01FC01E65BFE4F8081882328
:1030B00009F05BC081E08083FE01E55BFE4F10827A
:1030C0008F019BE0C92ED12C48C090E08C9DF0016F
:1030D0008D9DF00D9C9DF00D1124EC0FFD1F828540
:1030E00084FF37C00E947915F801A0812A2F30E0B3
:1030F0002C9DF0012D9DF00D3C9DF00D1124EC0F49
:10310000FD1F26813781408551856217730784072B
:103110009507F8F0E080F180928595FF12C0AE31FE
:1031200098F4892F8F7081F0907E9287118210829F
:1031300012821382148215821682178210861186DB
:1031400003C0CF010E947416E114F10411F0F701DD
:103150000995F80180818F5F8083F80180818E312D
:1031600008F4B3CFC65BDE4F1882DF91CF911F9179
:103170000F91FF90EF90DF90CF9008954F925F9264
:103180006F927F928F929F92AF92BF92CF92EF9267
:10319000FF920F931F93CF93DF932C014A015B01A2
:1031A0003901E701C7010297039738F40E947915A6
:1031B0006050724E8F4D9140C0F160E070E02BE0A6
:1031C00030E0162F629FF001639FF00D729FF00DAB
:1031D0001124E40DF51DDF011A9682858F7001F52B
:1031E0007182608201700295000F007E8C91807D5B
:1031F0009E012F70802B822B8C9382829382A482DB
:10320000B582CC2021F0C2010E9413180FC06E318C
:1032100068F49C91892F8F7049F09F7E9C9306C023
:103220006F5F7F4F6E31710561F61FEF812FDF9168
:10323000CF911F910F91FF90EF90CF90BF90AF90E3
:103240009F908F907F906F905F904F9008952F92F6
:103250003F924F925F926F927F928F929F92AF9226
:10326000BF92CF92DF92EF92FF920F931F93DF9363
:10327000CF9300D0CDB7DEB79A8389832A01390175
:10328000180161507040882777FD8095982F20E8BD
:1032900031E541E050E00E9462215B016C0188242D
:1032A00077FC8094982CC401B3012CE330E040E01B
:1032B00050E00E946221A60EB71EC81ED91EB201A0
:1032C000882777FD8095982F20E13EE040E050E090
:1032D0000E946221A60EB71EC81ED91E442437FCC8
:1032E0004094542C2A0C3B1C4C1C5D1C89819A81F7
:1032F000B201A101970100E014E0E12EF12CCC24F1
:10330000C3940E94BE180F900F90CF91DF911F9130
:103310000F91FF90EF90DF90CF90BF90AF909F9074
:103320008F907F906F905F904F903F902F90089577
:10333000AF92BF92CF92DF92EF92FF920F931F93C3
:10334000CF93DF93EC015A016B010E94D10C7B01FA
:103350008C0103C0CE010E944A180E94D10C6E1944
:103360007F09800B910BA616B706C806D90690F701
:10337000DF91CF911F910F91FF90EF90DF90CF9051
:10338000BF90AF900895DC01E62FF0E0EE0FFF1F35
:10339000EE0FFF1FEA0FFB1F548F438F81E0858FD5
:1033A000AA5ABF4FED91FC911197A655B0403097A6
:1033B00019F05A968C9109950895AF92BF92CF92C9
:1033C000DF92EF92FF920F93DF93CF9300D0CDB7B0
:1033D000DEB75C0100E021E5C22ED12CC80ED91E5B
:1033E0009EE4E92EF12CEA0CFB1C29C0802F90E012
:1033F0009A838983D5012D913C91D701ED91FC9160
:10340000E80FF91FD9012D913C91C501608140E081
:10341000F9010995F50120813181D701ED91FC91E8
:1034200089819A81E80FF91FD90112962D913C915B
:103430001397C501608141E0F90109950F5FF6011D
:103440008081081798F20F900F90CF91DF910F9124
:10345000FF90EF90DF90CF90BF90AF9008950F93C3
:103460001F93CF93DF93EC01162F042FE62FF0E08C
:10347000EE0FFF1FEE0FFF1FE80FF91F158E838D54
:10348000948D81309105E1F0823091051CF4892BF7
:1034900039F03FC08230910581F10397D1F534C0F6
:1034A0004130B9F5CE0141E050E00E94C3190E94BD
:1034B000D10CCE5BDF4F688379838A839B8329C0DD
:1034C0000E94D10CCE5BDF4F288139814A815B811C
:1034D000621B730B840B950B629628813981C4554E
:1034E000D04040E050E0261737074807590728F436
:1034F000CE01612F42E050E00AC0002351F4CE011A
:10350000612F43E050E003C0CE0140E050E00E9454
:10351000C319DF91CF911F910F9108954F925F9240
:103520006F927F928F929F92AF92BF92CF92DF92D3
:10353000EF92FF920F931F93CF93DF93EC012C0137
:10354000FC0120E0838D948D892B11F4128E158E51
:103550002F5F34962A30B1F7EE24A0E56A2E712C45
:103560006C0E7D1EF1E58F2E912C8C0E9D1EEAE4D3
:10357000AE2EB12CAC0EBD1E50C02F2D30E0D801A8
:103580008D919C910F2C02C0969587950A94E2F735
:10359000482F4170852F90E0FC01CE9EC001CF9E48
:1035A000900DDE9E900D1124D501ED91FC91E20F5E
:1035B000F31FE80FF91F5081F20160E070E0828D87
:1035C000851711F4CE0119C06F5F7F4F34966A30B2
:1035D0007105A9F731C0F20160E070E0828D8823A7
:1035E00079F4FB01EE0FFF1FEE0FFF1FEC0FFD1F25
:1035F000528F148E138ECE0141E00E942F1A06C006
:103600006F5F7F4F34966A30710541F7F394F40190
:103610005081F51608F4B1CFE394D3018C91E816EC
:1036200070F4FF24CE2CDD2486010D5F1F4F000FA8
:10363000111F0C0F1D1FEBCF442369F6E7CFDF915D
:10364000CF911F910F91FF90EF90DF90CF90BF909F
:10365000AF909F908F907F906F905F904F90089564
:103660003F924F925F926F927F928F929F92AF9212
:10367000BF92CF92DF92EF92FF920F931F93DF934F
:10368000CF93CDB7DEB728970FB6F894DEBF0FBE45
:10369000CDBF98878F830E94D10C2F8138852A5BFC
:1036A0003F4FD9012D913D914D915C911397621B34
:1036B000730B840B950B1C962D913C911197A25581
:1036C000B040B887AF8340E050E02617370748077F
:1036D000590710F033241AC1FF2430E5A32EB12C72
:1036E000EF81F885AE0EBF1E2CE4C22ED12CCE0E7B
:1036F000DF1E29C00F2D10E0AF81B8858D919C9100
:10370000D601ED91FC91E00FF11FDC012D913C9170
:103710008F819885608142E0F9010995EF81F885F4
:1037200080819181D601ED91FC91E00FF11FDC01C8
:1037300012962D913C9113978F819885608141E07D
:10374000F9010995F394F5018081F81698F2332474
:10375000EE242F8138852F5A3F4F3A8329839EE4E8
:10376000A92EB12C4F815885A40EB51E405B5F4F2A
:103770005C834B838F819885845B9F4F9E838D8371
:10378000AFC0CE2CDD24AF81B8858D919C91D50141
:10379000ED91FC91EC0DFD1DDC012D913C918F8193
:1037A0009885608141E0F9010995EF81F885808174
:1037B0009181D501ED91FC91EC0DFD1DDC0112967E
:1037C0002D913C9113978F819885608140E0F9019C
:1037D000099581E090E0A0E0B0E00E2C04C0880FD5
:1037E000991FAA1FBB1F0A94D2F74C012C014094C9
:1037F000509481E0682E712C0E2C02C0660C771C50
:103800000A94E2F7FF243FC00F2D10E0AD81BE8186
:10381000ED91FC91E00FF11FD90114962D913C918F
:1038200015978F8198856081F9010995F801339684
:10383000892B59F4EE0FFF1F2F813885E20FF31FFC
:1038400080819181882999290AC0EE0FFF1F4F813D
:103850005885E40FF51F8081918184219521918302
:103860008083EF2DF0E03396EE0FFF1F8F81988558
:10387000E80FF91F8081918186219721892B11F012
:1038800033243394F394AB81BC818C91EF81F88520
:1038900020813181F81608F4B7CFD501ED91FC9164
:1038A000EC0DFD1DD90112962D913C9113978F813E
:1038B0009885608141E0F9010995EF81F885808163
:1038C0009181D501ED91FC91EC0DFD1DDC012D9157
:1038D0003C918F819885608140E0F9010995E394DE
:1038E000E981FA818081E81608F44BCF8F819885B1
:1038F0000E948E1A0E94D10C2F8138852A5B3F4F7F
:10390000D9016D937D938D939C931397832D3110E3
:1039100081E028960FB6F894DEBF0FBECDBFCF91E1
:10392000DF911F910F91FF90EF90DF90CF90BF90AC
:10393000AF909F908F907F906F905F904F903F904F
:103940000895CF93DF93EC010E94301B882349F048
:103950008B8D9C8D019729F48D8D882311F08A8D94
:1039600001C080E0DF91CF9108956F927F928F9296
:103970009F92AF92BF92CF92DF92EF92FF920F93FE
:103980001F93CF93DF93EC014B016A015901702E15
:103990006E2C02960E945D208CE092E099838883D1
:1039A0004AE1E42EF12CEC0EFD1E00E010E0C70110
:1039B000800F911F0E9463200C5F1F4F083211057A
:1039C000B1F7C45BDF4FC992D992A992B9927992AB
:1039D000688227979982888228968AE090E0899366
:1039E000999384EF91E08993999319821882C6552F
:1039F000D040CE010E94DD19CA5BDF4F18821982C8
:103A00001A821B82DF91CF911F910F91FF90EF904F
:103A1000DF90CF90BF90AF909F908F907F906F90EE
:103A20000895862F0E940F210895862F642F0E94EB
:103A3000BB200895862F642F0E947C200895DC010E
:103A400090918906933008F083C06C93E92FF0E0E1
:103A5000E053FA4F849111968C9311979F5F909346
:103A60008906813039F1823009F44BC0882309F08E
:103A700072C014BC15BC84B5826084BD85B58160FC
:103A800085BD8C91282F30E0F901EF50FA4FE49179
:103A9000F0E0EE0FFF1FE352FA4F8591949190935F
:103AA0007906809378062B5F394FF90184918093D2
:103AB0007A06089510928000109281008091810012
:103AC0008860809381008091810081608093810073
:103AD0008C91282F30E0F901EF50FA4FE491F0E09B
:103AE000EE0FFF1FE352FA4F859194919093800659
:103AF00080937F062B5F394FF90184918093810673
:103B000008951092B0001092B1008091B0008260D0
:103B10008093B0008091B10081608093B1008C915E
:103B2000282F30E0F901EF50FA4FE491F0E0EE0F6A
:103B3000FF1FE352FA4F85919491909387068093EB
:103B400086062B5F394FF90184918093880608958A
:103B50008FEF11968C9308951F920F920FB60F92CC
:103B600011248F939F93AF93BF93EF93FF93809113
:103B7000740690917506A0917606B0917706E09153
:103B80007806F09179060097A105B10531F18081A1
:103B900090917A06892780838091740690917506AA
:103BA000A0917606B0917706181619061A061B061C
:103BB000FCF48091740690917506A0917606B09100
:103BC00077060197A109B109809374069093750651
:103BD000A0937606B09377060BC080916E008D7F20
:103BE00080936E00908180917A06809589238083EE
:103BF000FF91EF91BF91AF919F918F910F900FBE69
:103C00000F901F9018951F920F920FB60F921124CC
:103C10008F939F93AF93BF93EF93FF9380917B0616
:103C200090917C06A0917D06B0917E06E0917F0682
:103C3000F09180060097A105B10531F18081909146
:103C400081068927808380917B0690917C06A091D4
:103C50007D06B0917E06181619061A061B06FCF49E
:103C600080917B0690917C06A0917D06B0917E06A6
:103C70000197A109B10980937B0690937C06A093DC
:103C80007D06B0937E060BC080916F008D7F809380
:103C90006F00908180918106809589238083FF91B8
:103CA000EF91BF91AF919F918F910F900FBE0F90A9
:103CB0001F9018951F920F920FB60F9211242F93F9
:103CC0003F934F935F938F939F93EF93FF93209135
:103CD0008206309183064091840650918506E091DA
:103CE0008606F0918706211531054105510579F0C9
:103CF0008081909188068927808312161306140606
:103D0000150684F421503040404050400BC0809153
:103D100070008D7F809370009081809188068095DF
:103D20008923808320938206309383064093840600
:103D300050938506FF91EF919F918F915F914F91E5
:103D40003F912F910F900FBE0F901F901895FC017F
:103D50008181813051F0823071F0882389F4809123
:103D60006E008D7F80936E000BC080916F008D7F01
:103D700080936F0005C0809170008D7F80937000EC
:103D8000808160E00E94BB2008952F923F925F9255
:103D90006F927F928F929F92AF92BF92CF92DF925B
:103DA000EF92FF920F931F93DF93CF9300D000D039
:103DB000CDB7DEB78C011B0129833A834B835C832B
:103DC000DC0111968C91119787FD61C18C9161E0A6
:103DD0000E947C20F8015180552021F0F2E05F160E
:103DE00009F0C7C031018824992460E072E18AE7B4
:103DF00090E0A40193010E94CA2159016A01860141
:103E000075010894E108F108010911092FEFE21684
:103E1000F1040105110509F008F49BC060E472E4A7
:103E20008FE090E0A40193010E94CA2179018A01E8
:103E30000894E108F1080109110982E0581611F00F
:103E400092E019C09FEFE916F1040105110509F090
:103E500010F492E087C060E970ED83E090E0A40187
:103E600093010E94CA2179018A010894E108F108AE
:103E70000109110993E0AFEFEA16F10401051105FC
:103E800009F008F467C068E478EE81E090E0A401EE
:103E900093010E94CA2179018A010894E108F1087E
:103EA00001091109552011F493E01EC0B2E05B1620
:103EB00011F094E019C0EFEFEE16F10401051105C1
:103EC00009F010F494E04EC064E274EF80E090E0FA
:103ED000A40193010E94CA2179018A010894E10892
:103EE000F1080109110995E0FFEFEF16F104010552
:103EF000110581F178F162E17AE780E090E0A401B8
:103F000093010E94CA2179018A010894E108F1080D
:103F100001091109552011F096E001C094E02FEF3E
:103F2000E216F10401051105A9F0A0F0C601B501E2
:103F300020E034E040E050E00E94CA2179018A018B
:103F40000894E108F10801091109552051F495E0A0
:103F500003C091E0552031F485B5887F982B95BD3D
:103F60003EC097E08091B100887F982B9093B1007C
:103F700036C05101CC24DD2460E072E18AE790E094
:103F8000A60195010E94CA2179018A010894E108DD
:103F9000F1080109110980E0E81680E0F80681E0E7
:103FA000080780E0180710F491E010C068E478EE8C
:103FB00081E090E0A60195010E94CA2179018A0161
:103FC0000894E108F1080109110993E0A1E05A16EB
:103FD00031F480918100887F982B909381008981B2
:103FE0009A81AB81BC810097A105B10529F48FEFBF
:103FF0009FEFAFEFBFEF13C0220C331CB10180E085
:1040000090E029813A814B815C810E94622128EEF7
:1040100033E040E050E00E94A821C901DA01E1E06C
:104020005E16A1F0F2E05F1619F1552081F5E7BCAC
:104030008093740690937506A0937606B0937706E6
:1040400080916E00826080936E0021C0F0928900A2
:10405000E092880080937B0690937C06A0937D0677
:10406000B0937E0680916F00826080936F000FC0D6
:10407000E092B3008093820690938306A093840617
:10408000B0938506809170008260809370000F90DD
:104090000F900F900F90CF91DF911F910F91FF9094
:1040A000EF90DF90CF90BF90AF909F908F907F90D8
:1040B0006F905F903F902F900895FC0110821282C4
:1040C000118213820895FC011082128211821382E0
:1040D0000895F999FECF72BD61BDF89A80B5089533
:1040E000F999FECF1FBA72BD61BD40BD0FB6F894FD
:1040F000FA9AF99A0FBE0895CF93DF93482F50E0B4
:10410000CA018B5F994FFC0134914F505A4FFA010D
:104110008491882369F190E0880F991FFC01ED528A
:10412000FA4FA591B491FC01E352FA4FC591D49195
:10413000662351F42FB7F8948C91932F909589238F
:104140008C93888189230BC0623061F42FB7F89477
:104150008C91932F909589238C938881832B8883CE
:104160002FBF06C09FB7F8948C91832B8C939FBF71
:10417000DF91CF910895482F50E0CA01875E994F93
:10418000FC012491CA018B5F994FFC0194914F501F
:104190005A4FFA013491332309F440C0222351F1DC
:1041A000233071F0243028F42130A1F0223011F5B1
:1041B00014C02630B1F02730C1F02430D9F404C047
:1041C000809180008F7703C0809180008F7D8093E5
:1041D000800010C084B58F7702C084B58F7D84BD08
:1041E00009C08091B0008F7703C08091B0008F7DAF
:1041F0008093B000E32FF0E0EE0FFF1FE352FA4F81
:10420000A591B4912FB7F894662321F48C919095E1
:10421000892302C08C91892B8C932FBF0895682F1E
:1042200070E0CB01875E994FFC012491CB018B5F3D
:10423000994FFC0144916F507A4FFB01949199235F
:1042400019F420E030E03CC0222351F1233071F01A
:10425000243028F42130A1F0223011F514C026308A
:10426000B1F02730C1F02430D9F404C0809180002F
:104270008F7703C0809180008F7D8093800010C075
:1042800084B58F7702C084B58F7D84BD09C08091CD
:10429000B0008F7703C08091B0008F7D8093B00015
:1042A000892F90E0880F991F89519A4FFC01A591A1
:1042B000B4918C9120E030E0842311F021E030E0D3
:1042C000C9010895629FD001739FF001829FE00DA4
:1042D000F11D649FE00DF11D929FF00D839FF00D85
:1042E000749FF00D659FF00D9927729FB00DE11D31
:1042F000F91F639FB00DE11DF91FBD01CF0111240E
:104300000895AA1BBB1B51E107C0AA1FBB1FA6171C
:10431000B70710F0A61BB70B881F991F5A95A9F76E
:1043200080959095BC01CD01089597FB092E072635
:104330000AD077FD04D0E5DF06D000201AF470958E
:1043400061957F4F0895F6F7909581959F4F089559
:10435000A1E21A2EAA1BBB1BFD010DC0AA1FBB1F89
:10436000EE1FFF1FA217B307E407F50720F0A21BFB
:10437000B30BE40BF50B661F771F881F991F1A9468
:1043800069F760957095809590959B01AC01BD0192
:10439000CF01089597FB092E05260ED057FD04D0B6
:1043A000D7DF0AD0001C38F4509540953095219500
:1043B0003F4F4F4F5F4F0895F6F79095809570955A
:1043C00061957F4F8F4F9F4F0895EE0FFF1F059010
:0A43D000F491E02D0994F894FFCF5A
:1043DA00310032003300340035003600370038002F
:1043EA00390030003A0072656164696E672045459C
:1043FA0050524F4D00526561642073756363657353
:10440A007300486F75723A20004D696E7574653A8B
:10441A0020004461793A20004D6F6E74683A20009A
:10442A00596561723A200052656164206661696C5F
:10443A00656400000006011501260137014A015D85
:10444A0001720188019F01B801D201EE010B022A13
:10445A00024B026E029302BA02E40210033F037097
:10446A0003A403DC03170455049704DD0427057528
:10447A0005C80520067D06E0064907B8072D08A9E4
:10448A00082D09B9094D0AEA0A900B400CFA0CC02A
:10449A000D910E6F0F3132333435363738392A30B1
:1044AA002303020E000605042C0100000000000090
:1044BA00F80E8E0F8E0EBF0E9F0EE80E0000000043
:1044CA00F2118E0F00004000140054001F1C1F1E22
:1044DA001F1E1F1F1E1F1E1F000000001A1D151D74
:0244EA00111DA2
:00000001FF
