:100000000C94FE020C9426030C9426030C942603F5
:100010000C9426030C9426030C9426030C94B51B15
:100020000C9426030C9426030C9426030C945E1B5C
:100030000C9426030C9426030C94071B0C942603A3
:100040000C94F3090C9426030C94E80A0C94360BD8
:100050000C9426030C9426030C9426030C9426037C
:100060000C9426030C9426034A656F7061726479C0
:100070003A643D342C6F3D362C623D3132353A6363
:100080002C662C632C66352C632C662C32632C6317
:100090002C662C632C662C612E2C38672C38662C31
:1000A00038652C38642C3863232C632C662C632C25
:1000B00066352C632C662C32632C662E2C38642C0F
:1000C000632C6123352C61352C67352C66352C70FB
:1000D0002C64232C67232C64232C6723352C642366
:1000E0002C67232C3264232C64232C67232C642359
:1000F0002C67232C632E372C3861232C3867232C54
:1001000038672C38662C38652C64232C67232C64C4
:10011000232C6723352C64232C67232C3264232C57
:1001200067232E2C38662C64232C63232C632C70BD
:100130002C6123352C702C67232E352C64232C67DF
:100140002300456E7465727461696E65723A643D30
:10015000342C6F3D352C623D3134303A38642C38C4
:1001600064232C38652C63362C38652C63362C3888
:10017000652C32632E362C3863362C3864362C3896
:100180006423362C3865362C3863362C3864362C8C
:1001900065362C38622C64362C3263362C702C3841
:1001A000642C3864232C38652C63362C38652C631A
:1001B000362C38652C32632E362C38702C38612C56
:1001C00038672C3866232C38612C3863362C65361A
:1001D0002C3864362C3863362C38612C3264360067
:1001E000496E6469616E613A643D342C6F3D352C13
:1001F000623D3235303A652C38702C38662C3867C1
:100200002C38702C3163362C38702E2C642C3870BE
:100210002C38652C31662C702E2C672C38702C38BD
:10022000612C38622C38702C3166362C702C612C85
:1002300038702C38622C3263362C3264362C32659E
:10024000362C652C38702C38662C38672C38702C7E
:100250003163362C702C64362C38702C3865362C73
:1002600031662E362C672C38702C38672C652E366C
:100270002C38702C64362C38702C38672C652E3650
:100280002C38702C64362C38702C38672C662E363F
:100290002C38702C65362C38702C3864362C326330
:1002A0003600412D5465616D3A643D382C6F3D3503
:1002B0002C623D3132353A346423362C61232C32A2
:1002C0006423362C3136702C67232C3461232C3474
:1002D00064232E2C702C3136672C313661232C642C
:1002E00023362C61232C66362C326423362C31368F
:1002F000702C63232E362C313663362C3136612335
:100300002C67232E2C32612300466C696E73746F48
:100310006E65733A643D342C6F3D352C623D34304C
:100320003A3332702C313666362C313661232C311B
:10033000366123362C333267362C313666362C3113
:100340003661232E2C313666362C33326423362C1C
:10035000333264362C333264362C33326423362CF9
:10036000333266362C313661232C313663362C64B9
:10037000362C313666362C313661232E2C313661DF
:1003800023362C333267362C313666362C313661C3
:10039000232E2C333266362C333266362C333264BD
:1003A00023362C333264362C333264362C333264A9
:1003B00023362C333266362C313661232C313663AA
:1003C000362C61232C313661362C3136642E362C96
:1003D00031366123362C333261362C333261362C80
:1003E000333267362C33326623362C333261362C67
:1003F0003867362C313667362C3136632E362C333F
:100400003261362C333261362C333267362C33323C
:1004100067362C333266362C333265362C333267EE
:10042000362C3866362C313666362C313661232E22
:100430002C31366123362C333267362C3136663612
:100440002C313661232E2C313666362C3332642320
:10045000362C333264362C333264362C33326423F8
:10046000362C333266362C313661232C3136632EEE
:10047000362C333264362C33326423362C333266D6
:10048000362C313661232C3136632E362C333264D0
:10049000362C33326423362C333266362C313661B7
:1004A00023362C313663372C3861232E3600680012
:1004B0004201E001A2020903536F7272792C207489
:1004C000727920616761696E210054696D652075DC
:1004D000706C6F616465642100696E76616C69643B
:1004E00020696E707574004D696E7574653F2030BB
:1004F00020746F20353900696E76616C69642069FB
:100500006E70757400486F75723F203020746F20D4
:10051000323300696E76616C696420696E7075743F
:10052000004461793F203120746F20333100696EBF
:1005300076616C696420696E707574004D6F6E74BD
:10054000683F203120746F20313200596561723F5D
:10055000203020746F203939004564697420746834
:100560006520636C6F636B00666C696E7473746F87
:100570006E657300617465616D00696E6469616EBA
:100580006E6100656E7465727461696E6572006A91
:10059000656F706172647900020100000000002440
:1005A0000027002A0000000000250028002B000082
:1005B00000000023002600290004040404040404AD
:1005C0000402020202020203030303030301020402
:1005D00008102040800102040810200102040810C5
:1005E00020000000070002010000030406000000D4
:1005F0000000000000003203A20CCA1311241FBE29
:10060000CFEFD8E0DEBFCDBF12E0A0E0B1E0EAE678
:10061000FEE302C005900D92AC32B107D9F715E0A8
:10062000ACE2B2E001C01D92AE38B107E1F715E0CF
:10063000CCEFD5E004C02297FE010E942F1FC63FD9
:10064000D107C9F70E94970E0C9428030C94000060
:10065000F8940C94331FFB01DC0105900D920020EF
:10066000E1F70895CF92EF920F938BE492E06CE064
:100670004BE02AE009E0A8E0EA2EF7E0CF2E0E9446
:100680005D1080E692E06FED71E04BEE51E02FEEF1
:1006900031E004E0E3E0EE2E0E94101A0F91EF909B
:1006A000CF9008950F931F9304E315E0C801609164
:1006B0002C020E946E15C80160912D020E946E15D9
:1006C000C80160912E020E946E15C80160912F0230
:1006D0000E946E15C801609130020E946E15C8011B
:1006E000609131020E946E15C801609132020E9431
:1006F0006E15C801609133020E946E15C8016091A9
:1007000034020E946E15C801609131020E946E157C
:10071000C801609137020E946E15C80160913802CD
:100720000E946E15C801609139020E946E15C801C1
:1007300060913A020E946E15C801609136020E94D3
:100740006E15C80160913C020E946E15C80160914F
:100750003D020E946E15C80160913E020E946E1516
:10076000C80160913F020E946E151F910F9108957C
:100770000F931F9304E315E0C80160912C020E94BF
:10078000B313C80160912D020E94B313C801609198
:100790002E020E94B313C80160912F020E94B3136E
:1007A000C801609130020E94B313C8016091310208
:1007B0000E94B313C801609132020E94B313C801B2
:1007C000609133020E94B313C801609134020E9409
:1007D000B313C801609131020E94B313C801609144
:1007E00037020E94B313C801609138020E94B3130C
:1007F000C801609139020E94B313C80160913A02A6
:100800000E94B313C801609136020E94B313C8015D
:1008100060913C020E94B313C80160913D020E94A6
:10082000B313C80160913E020E94B313C8016091E6
:100830003F020E94B3131F910F9108951F9380E60A
:1008400092E00E94FC19182F8823C9F38BE492E0F0
:1008500060E041E00E94700F1433C1F1153374F46D
:100860001133E1F0123324F4103309F069C060C091
:100870001233E1F0133309F063C020C01733F1F1F4
:10088000183334F4153351F1163309F059C02EC022
:100890001833E1F1193309F053C040C08BE492E002
:1008A00060E071E00E94810E81E03FC08BE492E045
:1008B00062E071E00E94810E82E037C08BE492E03A
:1008C00064E071E00E94810E83E02FC08BE492E02F
:1008D00066E071E00E94810E84E027C08BE492E024
:1008E00068E071E00E94810E85E01FC08BE492E019
:1008F0006AE071E00E94810E86E017C08BE492E00E
:100900006CE071E00E94810E87E00FC08BE492E002
:100910006EE071E00E94810E88E007C08BE492E0F7
:1009200060E171E00E94810E89E08093480208C076
:100930008BE492E062E171E00E94810E1092480225
:1009400080E692E00E94FC19182F8823C9F38BE4FB
:1009500092E061E041E00E94700F143309F445C059
:1009600015338CF4113309F112333CF4133209F4CA
:1009700075C0103309F075C068C01233F1F013333D
:1009800009F06FC02AC0173309F447C0183334F494
:10099000153399F1163309F064C037C0183309F4E0
:1009A00044C0193309F05DC048C08BE492E060E0B8
:1009B00071E00E94810E81E007C08BE492E062E06A
:1009C00071E00E94810E82E08093490268EE73E03C
:1009D00080E090E00E94490A44C08BE492E064E029
:1009E00071E00E94810E83E0EFCF8BE492E066E03D
:1009F00071E00E94810E84E0E7CF8BE492E068E032
:100A000071E00E94810E85E0DFCF8BE492E06AE026
:100A100071E00E94810E86E0D7CF8BE492E06CE01B
:100A200071E00E94810E87E0CFCF8BE492E06EE010
:100A300071E00E94810E88E0C7CF8BE492E060E114
:100A400071E00E94810E89E0BFCF8BE492E062E109
:100A500071E00E94810E10924902B8CF84E6809323
:100A600049022091490290914802243619F490934A
:100A7000470207C08AE0989FC0011124280F2093E5
:100A80004702809147021F910895EF92FF920F93C2
:100A90001F9310924A028BE492E00E949F0F8BE416
:100AA00092E060E040E00E94700F8BE492E06BE423
:100AB00075E00E94220D0E941E04809346028BE482
:100AC00092E00E949F0F8BE492E060E040E00E9481
:100AD000700F8BE492E06CE375E00E94220D0E949F
:100AE0001E04809345028D30A8F08BE492E060E014
:100AF00041E00E94700F8BE492E06EE275E00E948C
:100B0000220D68EE73E080E090E00E94490A81E0E7
:100B100080934A028BE492E00E949F0F8BE492E064
:100B200060E040E00E94700F8BE492E061E275E0CB
:100B30000E94220D0E941E04809344028032A8F07D
:100B40008BE492E060E041E00E94700F8BE492E061
:100B500063E175E00E94220D68EE73E080E090E0B2
:100B60000E94490A81E080934A028BE492E00E944D
:100B70009F0F8BE492E060E040E00E94700F8BE4F6
:100B800092E065E075E00E94220D0E941E048093B1
:100B900042028831A8F08BE492E060E041E00E94DC
:100BA000700F8BE492E067EF74E00E94220D68EE14
:100BB00073E080E090E00E94490A81E080934A025D
:100BC0008BE492E00E949F0F8BE492E060E040E0B3
:100BD0000E94700F8BE492E067EE74E00E94220D99
:100BE0000E941E04809343028C33A8F08BE492E0B1
:100BF00060E041E00E94700F8BE492E069ED74E0E8
:100C00000E94220D68EE73E080E090E00E94490AA5
:100C100081E080934A0280914A02882309F054C0FF
:100C200087EF94E0609142024AE050E00E94100E8B
:100C300087EF94E0609143024AE050E00E94100E7A
:100C400087EF94E0609144024AE050E00E94100E69
:100C500087EF94E0609145024AE050E00E94100E58
:100C600087EF94E0609146024AE050E00E94100E47
:100C7000609143022091440200914502E0904602B7
:100C80008091420290E070E040E050E030E010E0FF
:100C9000FF240E94C2120E94B8030E94520368EE11
:100CA00073E080E090E00E94490A8BE492E00E94A9
:100CB0009F0F8BE492E060E040E00E94700F8BE4B5
:100CC00092E06AEC74E00EC08BE492E00E949F0F09
:100CD0008BE492E060E040E00E94700F8BE492E0D1
:100CE00068EB74E00E94220D60ED77E080E090E018
:100CF0000E94490A8BE492E00E949F0F1F910F917E
:100D0000FF90EF90089580E692E00E94FC198823FE
:100D1000D1F08332C1F48BE492E060E041E00E94C4
:100D2000700F8BE492E069E575E00E94220D60EDA2
:100D300077E080E090E00E94490A8BE492E00E9414
:100D40009F0F0E9445050895CF93DF93EC018BE43C
:100D500092E064E171E00E94810ECA30D1052CF46A
:100D60008BE492E060E30E94450D8BE492E0BE01CB
:100D70004AE050E00E946E0EDF91CF9108950F93EC
:100D80001F930BE412E0C80160E040E00E94700F86
:100D90000E946613BC01C8014AE050E00E946E0E3A
:100DA0000E945E130E94A4060E9456130E94A4068D
:100DB0001F910F9108950E94BF0684E395E048EECD
:100DC00053E060E070E00E94F3160E9483060895ED
:100DD0004F925F926F927F928F929F92AF92BF924B
:100DE000CF92DF92EF92FF920F931F93CF93DF93F7
:100DF00001C0CF01FC0181918A33D9F7EF018081D5
:100E0000843611F014E024C0329620E030E013C0A4
:100E1000C901B3E0880F991FBA95E1F7220F331F7C
:100E2000820F931F242F332727FD30952053304006
:100E3000280F391F31964081842F80538A3040F328
:100E40001216130614F014E001C0122FEF012196C0
:100E500088818F3611F006E014C0FE013196AF0193
:100E60004F5F5F4F8181992787FD90959C012053AB
:100E70003040C397059710F006E001C0022FEA0149
:100E800022968881823619F08FE390E020C0CE014F
:100E9000029620E030E013C0C90173E0880F991F6B
:100EA0007A95E1F7220F331F820F931F242F3327E8
:100EB00027FD309520533040280F391FCF01FC010A
:100EC0004191842F80538A3038F3EF01C9019C018E
:100ED000442737FD4095542F60E67AEE80E090E09D
:100EE0000E94121F49015A0152E0880C991CAA1C49
:100EF000BB1C5A95D1F7412E5524662477249FC0F8
:100F0000CB0143E0880F991F4A95E1F7660F771FE1
:100F1000860F971F612F772767FD7095605370408C
:100F2000680F791F21961881812F80538A3040F3F2
:100F30006115710541F09B01442737FD4095542F01
:100F4000C501B40104C0C501B401A30192010E940E
:100F5000121FC901DA016C017D01143681F01536CA
:100F60003CF41236C1F0133664F41136B1F411C0FA
:100F7000163659F016363CF0173679F408C013E0EF
:100F80000DC011E00BC015E009C016E007C018E065
:100F900005C01AE003C01CE001C010E02196888162
:100FA000833211F41F5F219688818E3279F4C70154
:100FB000B60122E030E040E050E00E94121FC9017B
:100FC000DA01C80ED91EEA1EFB1E219698819053A5
:100FD0009A3010F0902F01C0219688818C3209F44C
:100FE0002196112331F1892F90E0FC01EE0FFF1FB4
:100FF000E80FF91FEE0FFF1FEE0FFF1FE10FF11DAE
:10100000EE0FFF1FE35EFE4F6081718180E492E08E
:1010100020E030E040E050E00E94201C84E395E0B6
:10102000B701A6010E94F31680E492E00E94021C20
:1010300006C084E395E0B701A6010E94F3168881FB
:10104000882319F060E070E06ECFDF91CF911F919F
:101050000F91FF90EF90DF90CF90BF90AF909F9057
:101060008F907F906F905F904F900895EF92FF92D6
:101070000F931F93E6EBF4E06591749118EBE12E6A
:1010800012E0F12EC7010E942B0307EF14E0C80104
:1010900068E675E00E946D0DC801B7010E94840EDC
:1010A000C7010E94E8061F910F91FF90EF900895ED
:1010B000EF92FF920F931F93E4EBF4E0659174912C
:1010C00008EBE02E02E0F02EC7010E942B0307EF91
:1010D00014E0C80164E775E00E946D0DC801B70116
:1010E0000E94840EC7010E94E8061F910F91FF9095
:1010F000EF900895EF92FF920F931F93E2EBF4E0CD
:101100006591749188EBE82E82E0F82EC7010E9469
:101110002B0307EF14E0C8016AE775E00E946D0D2C
:10112000C801B7010E94840EC7010E94E8061F9102
:101130000F91FF90EF900895EF92FF920F931F93FE
:10114000E0EBF4E06591749198EBE92E92E0F92ED2
:10115000C7010E942B0307EF14E0C80163E875E0A4
:101160000E946D0DC801B7010E94840EC7010E9444
:10117000E8061F910F91FF90EF900895AF92BF92F4
:10118000CF92DF92EF92FF920F931F9374E3C72EDB
:1011900075E0D72E6CE9A62E68E0B62EC60162E097
:1011A00070E048E050E020E030E00AE010E0750137
:1011B0000E94821680932C02C60163E070E048E032
:1011C00050E020E030E00E94821680932D02C6019C
:1011D00064E070E048E050E020E030E00E948216D9
:1011E00080932E02C60165E070E048E050E020E008
:1011F00030E00E94821680932F02C60166E070E004
:1012000048E050E020E030E00E94821680933002F7
:101210005AE7A52E58E0B52EC60162E070E04AE01C
:1012200050E028E230E075010E948216809331027E
:10123000C60163E070E04AE050E028E230E00E943E
:10124000821680933202C60164E070E04AE050E00A
:1012500028E230E00E94821680933302C60165E0E6
:1012600070E04AE050E028E230E00E94821680936D
:101270003402C60166E070E04AE050E028E230E067
:101280000E9482168093350248E5A42E48E0B42ED1
:10129000C60162E070E04BE050E024E130E075010F
:1012A0000E94821680933602C60163E070E04BE034
:1012B00050E024E130E00E94821680933702C6019C
:1012C00064E070E04BE050E024E130E00E948216E0
:1012D00080933802C60165E070E04BE050E024E105
:1012E00030E00E94821680933902C60166E070E009
:1012F0004BE050E024E130E00E94821680933A02F5
:1013000036E3A32E38E0B32EC60162E070E04EE073
:1013100050E02EE130E075010E94821680933B027E
:10132000C60163E070E04EE050E02EE130E00E9444
:10133000821680933C02C60164E070E04EE050E00B
:101340002EE130E00E94821680933D02C60165E0E6
:1013500070E04EE050E02EE130E00E948216809373
:101360003E02C60166E070E04EE050E02EE130E063
:101370000E94821680933F021F910F91FF90EF9081
:10138000DF90CF90BF90AF900895EF92FF920F93B0
:101390001F9387EF94E040E855E260E070E00E9420
:1013A000710B80E492E06DE00E947A1A8BE492E087
:1013B00060E142E020E00E94A70F8AE090E068E24E
:1013C00070E045E050E023E030E001E010E0EBE0C9
:1013D000EE2EF12C0E94C2120E94BE081F910F91A6
:1013E000FF90EF9008951F920F920FB60F92112465
:1013F0002F933F938F939F93AF93BF9380916A04F2
:1014000090916B04A0916C04B0916D0430916E04C6
:101410000196A11DB11D232F2D5F2D3720F02D57D3
:101420000196A11DB11D20936E0480936A049093D0
:101430006B04A0936C04B0936D048091660490914A
:101440006704A0916804B09169040196A11DB11DC3
:101450008093660490936704A0936804B093690432
:10146000BF91AF919F918F913F912F910F900FBEA0
:101470000F901F9018958FB7F89420916A043091BF
:101480006B0440916C0450916D048FBFB901CA0187
:1014900008959B01AC017FB7F89480916604909108
:1014A0006704A0916804B091690466B5A89B05C063
:1014B0006F3F19F00196A11DB11D7FBFBA2FA92F53
:1014C000982F8827860F911DA11DB11D62E0880FFE
:1014D000991FAA1FBB1F6A95D1F7BC012DC0FFB78A
:1014E000F8948091660490916704A0916804B0918B
:1014F0006904E6B5A89B05C0EF3F19F00196A11D50
:10150000B11DFFBFBA2FA92F982F88278E0F911DCD
:10151000A11DB11DE2E0880F991FAA1FBB1FEA950C
:10152000D1F7861B970B885E9340C8F2215030405C
:101530004040504068517C4F21153105410551050F
:1015400071F60895019739F0880F991F880F991F38
:1015500002970197F1F70895789484B5826084BD6D
:1015600084B5816084BD85B5826085BD85B58160A7
:1015700085BDEEE6F0E0808181608083E1E8F0E007
:101580001082808182608083808181608083E0E836
:10159000F0E0808181608083E1EBF0E08081846015
:1015A0008083E0EBF0E0808181608083EAE7F0E017
:1015B000808184608083808182608083808181607B
:1015C00080838081806880831092C100089508958F
:1015D0001F920F920FB60F9211242F933F934F93A8
:1015E0008F939F93EF93FF938091C00082FD1DC066
:1015F0004091C6002091AF043091B0042F5F3F4F5F
:101600002F7330708091B1049091B204281739077C
:1016100071F0E091AF04F091B004E159FB4F4083C9
:101620003093B0042093AF0402C08091C600FF91B4
:10163000EF919F918F914F913F912F910F900FBEFE
:101640000F901F901895E0910305F0910405E05C60
:10165000FF4F8191919120813181821B930B8F7378
:101660009070892B11F00E94E70A08951F920F9243
:101670000FB60F9211242F933F938F939F93EF9365
:10168000FF932091F3043091F4048091F50490913C
:10169000F6042817390731F48091C1008F7D8093BB
:1016A000C10014C0E091F504F091F604ED54FB4F35
:1016B00020818091F5049091F60401968F739070CB
:1016C0009093F6048093F5042093C600FF91EF9168
:1016D0009F918F913F912F910F900FBE0F901F9070
:1016E0001895AF92BF92DF92EF92FF920F931F93E4
:1016F000CF93DF93EC017A018B01DD24403081EE42
:10170000580780E0680780E0780711F0DD24D39463
:1017100091E0A92EB12CEC89FD89DD2069F0C5018D
:1017200008A002C0880F991F0A94E2F7808360E046
:1017300079E08DE390E005C0108260E874E88EE106
:1017400090E0A80197010E94F01E215030404040D7
:101750005040569547953795279580E120303807BA
:1017600020F0DD2011F0DD24D6CFE889F98930831F
:10177000EA89FB89208319A2EE89FF89408121E053
:1017800030E0C9010C8C02C0880F991F0A94E2F75F
:10179000482B4083EE89FF894081C9010D8C02C02E
:1017A000880F991F0A94E2F7482B4083EE89FF893E
:1017B0004081C9010E8C02C0880F991F0A94E2F77C
:1017C000482B4083EE89FF8980810F8C02C0220F55
:1017D000331F0A94E2F7209528232083DF91CF91CD
:1017E0001F910F91FF90EF90DF90BF90AF90089501
:1017F000DC011C96ED91FC911D97E05CFF4F21915F
:10180000319180819181281B390B2F733070C90170
:101810000895DC011C96ED91FC911D97E05CFF4F53
:1018200020813181E054F040DF01AE5BBF4F8D91EC
:101830009C9111972817390719F42FEF3FEF07C034
:101840008D919C91E80FF91F8081282F30E0C9010C
:101850000895DC011C96ED91FC911D97E05CFF4F13
:1018600020813181E054F040DF01AE5BBF4F8D91AC
:101870009C9111972817390719F42FEF3FEF10C0EB
:101880008D919C911197E80FF91F20818D919C916A
:10189000119701968F73907011969C938E9330E000
:1018A000C9010895DC0191968C919197882339F0B4
:1018B0005496ED91FC915597808186FFF9CF9196D2
:1018C0001C920895CF93DF93EC01EE85FF85E05CD9
:1018D000FF4F20813181E054F0402F5F3F4F2F7345
:1018E0003070DF01AE5BBF4F8D919C91119728172F
:1018F0003907D1F3E05CFF4F80819181E054F040E3
:10190000E80FF91F6083EE85FF85E05CFF4F3183B0
:101910002083EE89FF89208181E090E00F8C02C056
:10192000880F991F0A94E2F7282B208381E089A36E
:10193000EC89FD8980818064808381E090E0DF9183
:10194000CF9108951092FA041092F90488EE93E072
:10195000A0E0B0E08093FB049093FC04A093FD040E
:10196000B093FE048AEF91E09093F8048093F7041B
:101970008FE694E0909304058093030583EB94E055
:10198000909306058093050585EC90E090930805FB
:101990008093070584EC90E090930A0580930905F5
:1019A00080EC90E090930C0580930B0581EC90E027
:1019B00090930E0580930D0582EC90E090931005B6
:1019C00080930F0586EC90E09093120580931105AB
:1019D00084E08093130583E08093140587E080936F
:1019E000150585E08093160581E08093170508951D
:1019F000CF92DF92EF92FF920F931F93CF93DF93DB
:101A00007C016B018A01C0E0D0E00FC0D6016D916E
:101A10006D01D701ED91FC910190F081E02DC7019E
:101A20000995C80FD91F015010400115110571F714
:101A3000CE01DF91CF911F910F91FF90EF90DF903A
:101A4000CF900895EF92FF920F931F93CF93DF9360
:101A50007C018B01C0E0D0E0F8010F5F1F4F649163
:101A6000662359F0D701ED91FC910190F081E02DB2
:101A7000C7010995C80FD91FEFCFCE01DF91CF91D4
:101A80001F910F91FF90EF900895DC01ED91FC9173
:101A90000190F081E02D09950895EF92FF920F9348
:101AA0001F938C01DC01ED91FC910190F081E02D00
:101AB0006DE009957C01D801ED91FC910190F081D8
:101AC000E02DC8016AE009959C012E0D3F1DC9015A
:101AD0001F910F91FF90EF900895EF92FF920F9357
:101AE0001F937C010E94220D8C01C7010E944D0DA5
:101AF0009C01200F311FC9011F910F91FF90EF90A2
:101B00000895CF93DF93EC016115710519F420E07E
:101B100030E00FC0DB010D900020E9F71197A61B04
:101B2000B70BE881F9810280F381E02DAD010995C1
:101B30009C01C901DF91CF9108954F925F927F92EE
:101B40008F929F92AF92BF92CF92DF92EF92FF92CD
:101B50000F931F93DF93CF93CDB7DEB7A1970FB647
:101B6000F894DEBF0FBECDBF2C01742ECB01223006
:101B700008F42AE019A231E2C32ED12CCC0EDD1ECE
:101B8000822E9924AA24BB24672D752FA5019401C8
:101B90000E94F01E79018A01C801B701A5019401D4
:101BA0000E94AA1E472D461B0894C108D1084A303E
:101BB00014F4405D01C0495CF6014083E114F10476
:101BC0000105110521F07E2C5F2DC801DDCFC2017A
:101BD000B6010E94810DA1960FB6F894DEBF0FBE2C
:101BE000CDBFCF91DF911F910F91FF90EF90DF90CC
:101BF000CF90BF90AF909F908F907F905F904F90CD
:101C00000895DC012115310541F4ED91FC9101901D
:101C1000F081E02D642F099508950E949D0D08958F
:101C2000CF92DF92EF92FF920F931F936C01E62EFB
:101C30009A01FF2400E010E0B801A7010E94010E04
:101C40008C01C6010E944D0D080F191FC8011F917C
:101C50000F91FF90EF90DF90CF900895CF92DF9299
:101C6000EF92FF920F931F93CF93DF93EC016A01E2
:101C70007B012115310541F4E881F9810190F08162
:101C8000E02D642F09951FC02A303105D1F477FF6C
:101C900017C0E881F9810190F081E02D6DE209958E
:101CA0008C0144275527BA014C195D096E097F093B
:101CB000CE012AE00E949D0D9801280F391F04C013
:101CC0002AE00E949D0D9C01C901DF91CF911F91D7
:101CD0000F91FF90EF90DF90CF900895EF92FF92D9
:101CE0000F931F937B019A010027F7FC0095102F9B
:101CF000B801A7010E942E0E1F910F91FF90EF9047
:101D000008950E94810D0895EF92FF920F931F9303
:101D10007C010E94810D8C01C7010E944D0D080FAE
:101D2000191FC8011F910F91FF90EF900895CF9355
:101D3000DF930E94AC0A0E94C509C3E2DBE00E9467
:101D4000DB062097E1F30E94230BF9CF0F931F933B
:101D50008C01FC01868160E00E94031E81E090E01E
:101D60000E94A20AF801868161E00E94031E81E0C0
:101D700090E00E94A20AF801868160E00E94031EA2
:101D800084E690E00E94A20A1F910F910895CF92DD
:101D9000DF92EF92FF920F931F93CF93DF93D82E92
:101DA000C92E282F392FC9018C01C0E0D0E0E62EC2
:101DB000FF24F801878161E00E94C41DB7010C2E49
:101DC00002C0759567950A94E2F76170F801878102
:101DD0000E94031E21960F5F1F4FC830D10549F79F
:101DE0008D2D9C2D0E94A60EDF91CF911F910F91FA
:101DF000FF90EF90DF90CF900895CF92DF92EF9217
:101E0000FF920F931F93CF93DF93D82EC92E282FC5
:101E1000392FC9018C01C0E0D0E0E62EFF24F80183
:101E2000878161E00E94C41DB7010C2E02C0759528
:101E300067950A94E2F76170F80187810E94031E9A
:101E400021960F5F1F4FC430D10549F78D2D9C2D72
:101E50000E94A60EDF91CF911F910F91FF90EF90FE
:101E6000DF90CF9008951F93CF93DF93EC01162F4F
:101E70008C81642F0E94031E8D818F3F19F060E0DA
:101E80000E94031E8F8584FF05C0CE01612F0E9432
:101E9000C70E0EC0612F70E084E0759567958A9536
:101EA000E1F7CE010E94FD0ECE01612F0E94FD0ED2
:101EB000DF91CF911F91089541E00E94330F81E09F
:101EC00090E0089540E00E94330F0895FC0160897E
:101ED000862F8460808B6C60CF010E94620F089512
:101EE000DF93CF93CDB7DEB728970FB6F894DEBF58
:101EF0000FBECDBF9C01FE013196AEE0B2E088E09E
:101F00000D9001928150E1F7F9018389481710F093
:101F1000482F4150E42FF0E0EE0FFF1FEC0FFD1FA4
:101F20008181680F6068C9010E94620F28960FB610
:101F3000F894DEBF0FBECDBFCF91DF91089561E071
:101F40000E94620F80ED97E00E94A20A0895CF934D
:101F5000DF93EC01423018F08F8588608F874B8BC0
:101F60001C8A222329F0413019F48F8584608F87E1
:101F700080E593EC0E94A20A8C8160E00E94031E1F
:101F80008E8160E00E94031E8D818F3F19F060E01A
:101F90000E94031E6F8564FD1DC0CE0163E00E9498
:101FA000FD0E84E991E10E94A20ACE0163E00E9445
:101FB000FD0E84E991E10E94A20ACE0163E00E9435
:101FC000FD0E86E990E00E94A20ACE0162E00E9426
:101FD000FD0E16C06062CE010E94620F84E991E19D
:101FE0000E94A20A6F856062CE010E94620F86E99C
:101FF00090E00E94A20A6F856062CE010E94620F8B
:102000006F856062CE010E94620F84E0888BCE01F2
:102010000E94660FCE010E949F0F82E0898BCE0145
:1020200066E00E94620FDF91CF9108956F927F92D8
:102030008F92AF92CF92EF920F931F93DF93CF9334
:10204000CDB7DEB73C01162F842FF30144832583DF
:102050000683E782C086A18682869D8593879E85BA
:1020600094879F8595879889968761E00E94C41D13
:10207000F30185818F3F19F061E00E94C41DF301D7
:10208000868161E00E94C41D112319F0F3011786B7
:1020900003C080E1F3018787C30160E141E020E0F4
:1020A0000E94A70FCF91DF911F910F91EF90CF90DA
:1020B000AF908F907F906F9008958F92AF92CF9254
:1020C000EF920F931F93CF93DF93DC01362F542FA2
:1020D000722F102FAE2C8C2C13961C921E921297DE
:1020E0008AE092E011969C938E9300D000D0EDB7D9
:1020F000FEB73196CDB7DEB71982118212821382F4
:10210000CD0161E0432F2FEF052FE72EC12E0E9456
:1021100016100F900F900F900F90DF91CF911F919D
:102120000F91EF90CF90AF908F9008958F929F92E4
:10213000AF92BF92CF92DF92EF92FF920F931F93D5
:10214000CF93DF937B018C01EA012CE330E040E088
:1021500050E00E94F01E6883C801B7012CE330E014
:1021600040E050E00E94F01E122F032FF42EE52EC7
:10217000622F732F842F952F2CE330E040E050E046
:102180000E94F01E6983612F702F8F2D9E2D2CE3EE
:1021900030E040E050E00E94F01E122F032FF42E9A
:1021A000E52E622F732F842F952F28E130E040E039
:1021B00050E00E94F01E6A83612F702F8F2D9E2D9C
:1021C00028E130E040E050E00E94F01E79018A01F1
:1021D000C801B7016C5F7F4F8F4F9F4F27E030E002
:1021E00040E050E00E94F01E6F5F6B8320E0AA2465
:1021F000BB24650101C02F5F822E9924F401EE54A7
:10220000F84FCF0183709070892B99F4CF0164E669
:1022100070E00E94DD1E892B39F4CF0160E971E086
:102220000E94DD1E892B29F48EE691E0A0E0B0E04B
:1022300004C08DE691E0A0E0B0E0A80EB91ECA1E71
:10224000DB1EC501A0E0B0E0E816F9060A071B078F
:1022500090F62E83F401EE54F84F83E0882E912CF3
:102260008E229F228114910499F4CF0164E670E0DC
:102270000E94DD1E892B39F4CF0160E971E00E94D4
:10228000DD1E892B29F48EE691E0A0E0B0E004C0C9
:102290008DE691E0A0E0B0E0A81AB90ACA0ADB0A0C
:1022A000980187010A191B092C093D09CF0164E631
:1022B00070E00E94DD1E7C01CF0160E971E00E94A8
:1022C000DD1EAC01E6E1F2E060E0613051F4811422
:1022D000910449F4E114F10441F44115510529F048
:1022E00002C0808103C08CE101C08DE190E0A0E0DC
:1022F000B0E0081719072A073B0740F0081B190B25
:102300002A0B3B0B6F5F31966C30F9F66F5F6D8374
:10231000802F8F5F8C83DF91CF911F910F91FF9062
:10232000EF90DF90CF90BF90AF909F908F900895E7
:10233000EF92FF920F931F937B018C0180913005E8
:1023400090913105A0913205B0913305E816F90658
:102350000A071B0771F0C801B70145E255E00E946A
:102360009610E0923005F0923105009332051093FB
:1023700033051F910F91FF90EF9008954F925F9258
:102380006F927F928F929F92AF92BF92CF92DF9285
:10239000EF92FF920F931F93CF93DF934C01DC01D9
:1023A00016961C91612F70E080E090E020E833E306
:1023B00041EE51E00E94AA1E5B016C0122EB37E066
:1023C000E12FF0E0EE54F84F1DC0C901837090700A
:1023D000892BB1F4C90164E670E00E94DD1E892BEF
:1023E00039F4C90160E971E00E94DD1E892B41F4D6
:1023F00080E891E5A1E0B0E0A80EB91ECA1EDB1E80
:102400002F5F3F4F2E173F0701F7D40115968C9190
:10241000482E5524C90164E670E00E94DD1E7C014F
:10242000C90160E971E00E94DD1E8C01C1E0D0E0CD
:1024300093E0692E712C6222732227C0C230D1052D
:1024400091F46114710479F4E114F10419F40115A3
:10245000110549F480E89BE3A6E2B0E0A80EB91E9E
:10246000CA1EDB1E11C0FE01EB5EFD4F608170E0F5
:1024700080E090E020E831E541E050E00E94AA1EB3
:10248000A60EB71EC81ED91E2196C415D505B4F2D6
:10249000D40112966C9170E080E090E020E13EE083
:1024A00040E050E00E94AA1E7B018C01F401618192
:1024B00070E080E090E02CE330E040E050E00E94EB
:1024C000AA1EE60EF71E081F191FD4018C91E80EF4
:1024D000F11C011D111D14966C9170E0615070404B
:1024E000882777FD8095982F20E831E541E050E07E
:1024F0000E94AA1EE60EF71E081F191FEA0CFB1CFD
:102500000C1D1D1DB701C801DF91CF911F910F91C7
:10251000FF90EF90DF90CF90BF90AF909F908F9003
:102520007F906F905F904F90089560931B0570931C
:102530001C0580931D0590931E052091F20130919A
:10254000F3014091F4015091F501260F371F481F08
:10255000591F20931F053093200540932105509368
:10256000220582E090E090932405809323050E9449
:102570003B0A60932C0570932D0580932E05909354
:102580002F050895EF92FF920F93F701E436F105BE
:102590001CF0E25BF74001C07E96E0932B050093B0
:1025A0002A052093290580932705609326054093EB
:1025B000250585E295E00E94BE110E9495120F91BB
:1025C000FF90EF900895EF92FF920F931F931CC01E
:1025D0002F5F3F4F4F4F5F4F20931B0530931C05DC
:1025E00040931D0550931E0588EE93E0A0E0B0E0F7
:1025F000E80EF91E0A1F1B1FE0922C05F0922D0514
:1026000000932E0510932F050E943B0AE0902C05A5
:10261000F0902D0500912E0510912F056E197F0960
:10262000800B910B20911B0530911C0540911D05DD
:1026300050911E05685E73408040904048F680913E
:102640001F0590912005A0912105B0912205281722
:1026500039074A075B07E8F0E0911905F0911A0580
:102660003097B9F00995611571058105910519F04B
:102670000E9495120EC020E030E0809123059091D9
:102680002405892B11F021E030E0309324052093BC
:10269000230560911B0570911C0580911D0590918B
:1026A0001E051F910F91FF90EF9008950E94E31275
:1026B0000E9498118091250590E008950E94E312F0
:1026C0000E9498118091260590E008950E94E312DF
:1026D0000E9498118091270590E00895CF93DF9391
:1026E000DC01FC0120E030E08285807C828716825C
:1026F000178210861186128213821482158211822B
:102700001082255F3F4F3B962234310569F7AE5B5F
:10271000BF4F1C92A254B040ED0120E030E04BE0EE
:1027200050E0249FF001259FF00D349FF00D1124FF
:10273000EA0FFB1F9285892F8F7061F0907E928740
:10274000198218821A821B821C821D821E821F829D
:10275000188619862F5F3F4F2B962630310509F7D3
:10276000DF91CF910895AC01663098F4862F90E008
:102770002BE030E0829FF001839FF00D929FF00DDF
:102780001124E40FF51F9285892F8F7011F09F7E21
:102790009287089584E395E00E946E1308952F9226
:1027A0003F924F925F926F927F928F929F92AF92E1
:1027B000BF92CF92DF92EF92FF920F931F93DF931E
:1027C000CF9300D000D000D0CDB7DEB79E838D83ED
:1027D000FC0182819381A481B5810097A105B10597
:1027E00009F45BC1828584FF58C10E94E3126983AA
:1027F0007A838B839C83AD81BE811A963C911A9714
:10280000232F2F70822F825F8F70833008F028C1B2
:1028100016968D919D910D90BC91A02D49815A8164
:102820006B817C81481759076A077B0708F418C138
:10283000223059F4ED81FE8182819381A481B5819A
:1028400086839783A087B1870BC1233009F061C0CD
:10285000AD81BE811296ED90FD900D911C91159762
:102860000E94E31220E831E541E050E00E94F01EB2
:10287000CA01B90120E831E541E050E00E94AA1EFA
:10288000E60EF71E081F191FED81FE81A280B3809E
:10289000C480D58029813A814B815C812E153F050A
:1028A00040075107C8F0CA01B90120E831E541E00D
:1028B00050E00E94F01E2F5F3F4F4F4F5F4FCA0105
:1028C000B90120E831E541E050E00E94AA1EA60EC1
:1028D000B71EC81ED91EACC069817A818B819C81CC
:1028E00020E831E541E050E00E94F01ECA01B90144
:1028F00020E831E541E050E00E94AA1EA60EB71E76
:10290000C81ED91EED81FE81A682B782C086D186FF
:10291000A7C0243009F0A0C0AD81BE8112966D9091
:102920007D908D909C9015970E94E3127B018C0105
:102930000E94E3125B016C010E94E3121B012C0157
:10294000E60CF71C081D191DC601B50120E831E58C
:1029500041E050E00E94F01EE61AF70A080B190B3E
:10296000C201B10120E831E541E050E00E94F01ED3
:102970002C5F3F4F4F4F5F4FCA01B90127E030E056
:1029800040E050E00E94F01E20E831E541E050E0D8
:102990000E94AA1EE61AF70A080B190BED81FE81A8
:1029A000A280B380C480D58029813A814B815C812B
:1029B0002E153F054007510708F443C040E85AE38D
:1029C00069E070E0A40EB51EC61ED71E69817A812B
:1029D0008B819C81A60EB71EC81ED91E20E831E54A
:1029E00041E050E00E94F01EA61AB70AC80AD90AB0
:1029F00069817A818B819C8120E831E541E050E05A
:102A00000E94F01E2C5F3F4F4F4F5F4FCA01B9012C
:102A100027E030E040E050E00E94F01E20E831E581
:102A200041E050E00E94AA1EA61AB70AC80AD90AB5
:102A3000AD81BE811696AD92BD92CD92DC92199772
:102A40000FC029813A814B815C81A20EB31EC41E46
:102A5000D51ECA01B901C2CF3F7EED81FE8132870A
:102A6000AD81BE811A968C911A978F708130E9F4EE
:102A700012968D919D910D90BC91A02D29813A8146
:102A80004B815C81820F931FA41FB51FED81FE81D6
:102A900086839783A087B18708C0AD81BE811A96CF
:102AA0008C911A978F7E1A968C9326960FB6F8946F
:102AB000DEBF0FBECDBFCF91DF911F910F91FF9071
:102AC000EF90DF90CF90BF90AF909F908F907F90CE
:102AD0006F905F904F903F902F900895AC016630BB
:102AE00098F570E08BE090E0689FF001699FF00D31
:102AF000789FF00D1124E40FF51F82858F7021F16E
:102B000082819381A481B5810097A105B10511F45B
:102B100020E006C020E080819181892B09F021E02E
:102B20008BE090E0689FF001699FF00D789FF00DB9
:102B30001124E40FF51F2295207F82858F7E822B42
:102B40008287CF010E94CF130895CF92DF92EF9238
:102B5000FF920F931F93CF93DF93EC01FC01EE5B89
:102B6000FF4F8081882309F05BC081E08083FE01F4
:102B7000ED5BFF4F10828F019BE0C92ED12C48C026
:102B800090E08C9DF0018D9DF00D9C9DF00D112429
:102B9000EC0FFD1F828584FF37C00E94E312F8010D
:102BA000A0812A2F30E02C9DF0012D9DF00D3C9D41
:102BB000F00D1124EC0FFD1F2681378140855185D2
:102BC0006217730784079507F8F0E080F18092851B
:102BD00095FF12C0A63098F4892F8F7081F0907EF7
:102BE00092871182108212821382148215821682B9
:102BF00017821086118603C0CF010E94CF13E11403
:102C0000F10411F0F7010995F80180818F5F80834D
:102C1000F8018081863008F4B3CFCE5BDF4F188295
:102C2000DF91CF911F910F91FF90EF90DF90CF90A8
:102C300008954F925F926F927F928F929F92AF9280
:102C4000BF92CF92EF92FF920F931F93CF93DF9398
:102C50002C014A015B013901E701C7010297039783
:102C600038F40E94E3126050724E8F4D9140C0F1D3
:102C700060E070E02BE030E0162F629FF001639F70
:102C8000F00D729FF00D1124E40DF51DDF011A9671
:102C900082858F7001F57182608201700295000F4C
:102CA000007E8C91807D9E012F70802B822B8C93D7
:102CB00082829382A482B582CC2021F0C2010E943C
:102CC0006E150FC0663068F49C91892F8F7049F0A3
:102CD0009F7E9C9306C06F5F7F4F6630710561F6E3
:102CE0001FEF812FDF91CF911F910F91FF90EF90F8
:102CF000CF90BF90AF909F908F907F906F905F909C
:102D00004F9008952F923F924F925F926F927F92D1
:102D10008F929F92AF92BF92CF92DF92EF92FF92EB
:102D20000F931F93DF93CF9300D0CDB7DEB79A8375
:102D300089832A013901180161507040882777FD85
:102D40008095982F20E831E541E050E00E94AA1ECE
:102D50005B016C01882477FC8094982CC401B3013A
:102D60002CE330E040E050E00E94AA1EA60EB71E01
:102D7000C81ED91EB201882777FD8095982F20E1C3
:102D80003EE040E050E00E94AA1EA60EB71EC81EFC
:102D9000D91E442437FC4094542C2A0C3B1C4C1C58
:102DA0005D1C89819A81B201A101970100E014E0C4
:102DB000E12EF12CCC24C3940E9419160F900F9091
:102DC000CF91DF911F910F91FF90EF90DF90CF9007
:102DD000BF90AF909F908F907F906F905F904F903B
:102DE0003F902F900895AF92BF92CF92DF92EF92D3
:102DF000FF920F931F93CF93DF93EC015A016B0166
:102E00000E943B0A7B018C0103C0CE010E94A515E4
:102E10000E943B0A6E197F09800B910BA616B7061C
:102E2000C806D90690F7DF91CF911F910F91FF90BF
:102E3000EF90DF90CF90BF90AF900895DC01E62F28
:102E4000F0E0EE0FFF1FEE0FFF1FEA0FFB1F548F86
:102E5000438F81E0858FAA5ABF4FED91FC91119766
:102E6000A655B040309719F05A968C91099508955F
:102E7000AF92BF92CF92DF92EF92FF920F93DF93C8
:102E8000CF9300D0CDB7DEB75C0100E021E5C22EC4
:102E9000D12CC80ED91E9EE4E92EF12CEA0CFB1CA5
:102EA00029C0802F90E09A838983D5012D913C9190
:102EB000D701ED91FC91E80FF91FD9012D913C91BB
:102EC000C501608140E0F9010995F501208131815A
:102ED000D701ED91FC9189819A81E80FF91FD90101
:102EE00012962D913C911397C501608141E0F90143
:102EF00009950F5FF6018081081798F20F900F90E7
:102F0000CF91DF910F91FF90EF90DF90CF90BF9026
:102F1000AF9008950F931F93CF93DF93EC01162F7B
:102F2000042FE62FF0E0EE0FFF1FEE0FFF1FE80F5C
:102F3000F91F158E838D948D81309105E1F08230DB
:102F400091051CF4892B39F03FC08230910581F145
:102F50000397D1F534C04130B9F5CE0141E050E0DE
:102F60000E941E170E943B0ACE5BDF4F6883798365
:102F70008A839B8329C00E943B0ACE5BDF4F288156
:102F800039814A815B81621B730B840B950B6296BE
:102F900028813981C455D04040E050E026173707DA
:102FA0004807590728F4CE01612F42E050E00AC0DB
:102FB000002351F4CE01612F43E050E003C0CE0165
:102FC00040E050E00E941E17DF91CF911F910F91BA
:102FD00008954F925F926F927F928F929F92AF92DD
:102FE000BF92CF92DF92EF92FF920F931F93CF93F6
:102FF000DF93EC012C01FC0120E0838D948D892B63
:1030000011F4128E158E2F5F34962A30B1F7EE240C
:10301000A0E56A2E712C6C0E7D1EF1E58F2E912C91
:103020008C0E9D1EEAE4AE2EB12CAC0EBD1E50C01F
:103030002F2D30E0D8018D919C910F2C02C09695D8
:1030400087950A94E2F7482F4170852F90E0FC01A4
:10305000CE9EC001CF9E900DDE9E900D1124D50115
:10306000ED91FC91E20FF31FE80FF91F5081F2017F
:1030700060E070E0828D851711F4CE0119C06F5F9A
:103080007F4F34966A307105A9F731C0F20160E0D4
:1030900070E0828D882379F4FB01EE0FFF1FEE0FA5
:1030A000FF1FEC0FFD1F528F148E138ECE0141E0D7
:1030B0000E948A1706C06F5F7F4F34966A30710591
:1030C00041F7F394F4015081F51608F4B1CFE3947D
:1030D000D3018C91E81670F4FF24CE2CDD248601F8
:1030E0000D5F1F4F000F111F0C0F1D1FEBCF44234F
:1030F00069F6E7CFDF91CF911F910F91FF90EF908D
:10310000DF90CF90BF90AF909F908F907F906F9007
:103110005F904F9008953F924F925F926F927F928F
:103120008F929F92AF92BF92CF92DF92EF92FF92D7
:103130000F931F93DF93CF93CDB7DEB728970FB6CA
:10314000F894DEBF0FBECDBF98878F830E943B0AE5
:103150002F8138852A5B3F4FD9012D913D914D91AB
:103160005C911397621B730B840B950B1C962D912E
:103170003C911197A255B040B887AF8340E050E032
:10318000261737074807590710F033241AC1FF24C0
:1031900030E5A32EB12CEF81F885AE0EBF1E2CE4D6
:1031A000C22ED12CCE0EDF1E29C00F2D10E0AF8114
:1031B000B8858D919C91D601ED91FC91E00FF11FA6
:1031C000DC012D913C918F819885608142E0F9016D
:1031D0000995EF81F88580819181D601ED91FC916F
:1031E000E00FF11FDC0112962D913C9113978F8116
:1031F0009885608141E0F9010995F394F50180819A
:10320000F81698F23324EE242F8138852F5A3F4F39
:103210003A8329839EE4A92EB12C4F815885A40EB0
:10322000B51E405B5F4F5C834B838F819885845BC9
:103230009F4F9E838D83AFC0CE2CDD24AF81B88598
:103240008D919C91D501ED91FC91EC0DFD1DDC0162
:103250002D913C918F819885608141E0F90109951C
:10326000EF81F88580819181D501ED91FC91EC0D84
:10327000FD1DDC0112962D913C9113978F8198854D
:10328000608140E0F901099581E090E0A0E0B0E0C4
:103290000E2C04C0880F991FAA1FBB1F0A94D2F7D7
:1032A0004C012C014094509481E0682E712C0E2C1E
:1032B00002C0660C771C0A94E2F7FF243FC00F2D72
:1032C00010E0AD81BE81ED91FC91E00FF11FD901BD
:1032D00014962D913C9115978F8198856081F90105
:1032E0000995F8013396892B59F4EE0FFF1F2F81B2
:1032F0003885E20FF31F80819181882999290AC0BE
:10330000EE0FFF1F4F815885E40FF51F80819181DB
:103310008421952191838083EF2DF0E03396EE0F89
:10332000FF1F8F819885E80FF91F80819181862189
:103330009721892B11F033243394F394AB81BC8112
:103340008C91EF81F88520813181F81608F4B7CF90
:10335000D501ED91FC91EC0DFD1DD90112962D9139
:103360003C9113978F819885608141E0F90109951F
:10337000EF81F88580819181D501ED91FC91EC0D73
:10338000FD1DDC012D913C918F819885608140E08D
:10339000F9010995E394E981FA818081E81608F43E
:1033A0004BCF8F8198850E94E9170E943B0A2F819D
:1033B00038852A5B3F4FD9016D937D938D939C9304
:1033C0001397832D311081E028960FB6F894DEBF55
:1033D0000FBECDBFCF91DF911F910F91FF90EF9066
:1033E000DF90CF90BF90AF909F908F907F906F9025
:1033F0005F904F903F900895CF93DF93EC010E9430
:103400008B18882349F08B8D9C8D019729F48D8D25
:10341000882311F08A8D01C080E0DF91CF9108955B
:103420006F927F928F929F92AF92BF92CF92DF92D4
:10343000EF92FF920F931F93CF93DF93EC014B0119
:103440006A015901702E6E2C02960E94B81D86E208
:1034500092E0998388834AE1E42EF12CEC0EFD1E64
:1034600000E010E0C701800F911F0E94BE1D0C5F9D
:103470001F4F08321105B1F7C45BDF4FC992D992D3
:10348000A992B99279926882279799828882289620
:103490008AE090E08993999384EF91E089939993DE
:1034A00019821882C655D040CE010E943817CA5BD7
:1034B000DF4F188219821A821B82DF91CF911F91F0
:1034C0000F91FF90EF90DF90CF90BF90AF909F90C3
:1034D0008F907F906F900895862F0E94571E0895B9
:1034E000862F642F0E94031E0895862F642F0E944A
:1034F000C41D0895DC0190918D05933008F083C0C0
:103500006C93E92FF0E0E856FA4F849111968C9372
:1035100011979F5F90938D05813039F1823009F4C6
:103520004BC0882309F072C014BC15BC84B58260FE
:1035300084BD85B5816085BD8C91282F30E0F9016F
:10354000E754FA4FE491F0E0EE0FFF1FEB55FA4F0E
:103550008591949190937D0580937C0523533A4FF8
:10356000F901849180937E05089510928000109255
:10357000810080918100886080938100809181002A
:103580008160809381008C91282F30E0F901E7540D
:10359000FA4FE491F0E0EE0FFF1FEB55FA4F8591E3
:1035A0009491909384058093830523533A4FF901B6
:1035B00084918093850508951092B0001092B10017
:1035C0008091B00082608093B0008091B1008160F2
:1035D0008093B1008C91282F30E0F901E754FA4F25
:1035E000E491F0E0EE0FFF1FEB55FA4F85919491B7
:1035F00090938B0580938A0523533A4FF901849168
:1036000080938C0508958FEF11968C9308951F92E7
:103610000F920FB60F9211248F939F93AF93BF9386
:10362000EF93FF938091780590917905A0917A05A9
:10363000B0917B05E0917C05F0917D050097A10597
:10364000B10531F1808190917E0589278083809139
:10365000780590917905A0917A05B0917B051816AF
:1036600019061A061B06FCF48091780590917905DD
:10367000A0917A05B0917B050197A109B1098093CA
:10368000780590937905A0937A05B0937B050BC0DC
:1036900080916E008D7F80936E00908180917E0579
:1036A000809589238083FF91EF91BF91AF919F9186
:1036B0008F910F900FBE0F901F9018951F920F9231
:1036C0000FB60F9211248F939F93AF93BF93EF93F5
:1036D000FF9380917F0590918005A0918105B09125
:1036E0008205E0918305F09184050097A105B1055D
:1036F00031F18081909185058927808380917F05B4
:1037000090918005A0918105B09182051816190647
:103710001A061B06FCF480917F0590918005A0910C
:103720008105B09182050197A109B10980937F05B8
:1037300090938005A0938105B09382050BC0809182
:103740006F008D7F80936F009081809185058095BB
:1037500089238083FF91EF91BF91AF919F918F91CA
:103760000F900FBE0F901F9018951F920F920FB6DB
:103770000F9211242F933F934F935F938F939F93B7
:10378000EF93FF932091860530918705409188053E
:1037900050918905E0918A05F0918B05211531053D
:1037A0004105510579F0808190918C0589278083AE
:1037B000121613061406150684F4215030404040BA
:1037C00050400BC0809170008D7F8093700090817D
:1037D00080918C0580958923808320938605309382
:1037E00087054093880550938905FF91EF919F913C
:1037F0008F915F914F913F912F910F900FBE0F903E
:103800001F901895FC018181813051F0823071F058
:10381000882389F480916E008D7F80936E000BC0A9
:1038200080916F008D7F80936F0005C08091700044
:103830008D7F80937000808160E00E94031E089558
:103840002F923F925F926F927F928F929F92AF9250
:10385000BF92CF92DF92EF92FF920F931F93DF936D
:10386000CF9300D000D0CDB7DEB78C011B012983E8
:103870003A834B835C83DC0111968C91119787FD11
:1038800061C18C9161E00E94C41DF80151805520F6
:1038900021F0F2E05F1609F0C7C0310188249924B5
:1038A00060E072E18AE790E0A40193010E94121F98
:1038B00059016A01860175010894E108F1080109BE
:1038C00011092FEFE216F1040105110509F008F4C2
:1038D0009BC060E472E48FE090E0A40193010E9439
:1038E000121F79018A010894E108F1080109110900
:1038F00082E0581611F092E019C09FEFE916F1042A
:103900000105110509F010F492E087C060E970ED3F
:1039100083E090E0A40193010E94121F79018A01C3
:103920000894E108F1080109110993E0AFEFEA16E4
:10393000F1040105110509F008F467C068E478EEA8
:1039400081E090E0A40193010E94121F79018A0195
:103950000894E108F10801091109552011F493E0D8
:103960001EC0B2E05B1611F094E019C0EFEFEE1646
:10397000F1040105110509F010F494E04EC064E271
:1039800074EF80E090E0A40193010E94121F79017E
:103990008A010894E108F1080109110995E0FFEF97
:1039A000EF16F1040105110581F178F162E17AE782
:1039B00080E090E0A40193010E94121F79018A0126
:1039C0000894E108F10801091109552011F096E069
:1039D00001C094E02FEFE216F10401051105A9F0F2
:1039E000A0F0C601B50120E034E040E050E00E94C4
:1039F000121F79018A010894E108F10801091109EF
:103A0000552051F495E003C091E0552031F485B57F
:103A1000887F982B95BD3EC097E08091B100887F4C
:103A2000982B9093B10036C05101CC24DD2460E086
:103A300072E18AE790E0A60195010E94121F7901C8
:103A40008A010894E108F1080109110980E0E816EB
:103A500080E0F80681E0080780E0180710F491E0A4
:103A600010C068E478EE81E090E0A60195010E9424
:103A7000121F79018A010894E108F108010911096E
:103A800093E0A1E05A1631F480918100887F982B51
:103A90009093810089819A81AB81BC810097A105B7
:103AA000B10529F48FEF9FEFAFEFBFEF13C0220CEA
:103AB000331CB10180E090E029813A814B815C8127
:103AC0000E94AA1E28EE33E040E050E00E94F01E63
:103AD000C901DA01E1E05E16A1F0F2E05F1619F12A
:103AE000552081F5E7BC8093780590937905A093E4
:103AF0007A05B0937B0580916E00826080936E00A2
:103B000021C0F0928900E092880080937F05909315
:103B10008005A0938105B093820580916F0082603B
:103B200080936F000FC0E092B3008093860590935E
:103B30008705A0938805B093890580917000826005
:103B4000809370000F900F900F900F90CF91DF91A6
:103B50001F910F91FF90EF90DF90CF90BF90AF90AB
:103B60009F908F907F906F905F903F902F900895DF
:103B7000FC0110821282118213820895FC011082CE
:103B80001282118213820895CF93DF93482F50E061
:103B9000CA0183539A4FFC01349147545A4FFA019A
:103BA0008491882369F190E0880F991FFC01E55604
:103BB000FA4FA591B491FC01EB55FA4FC591D49100
:103BC000662351F42FB7F8948C91932F9095892305
:103BD0008C93888189230BC0623061F42FB7F894ED
:103BE0008C91932F909589238C938881832B888344
:103BF0002FBF06C09FB7F8948C91832B8C939FBFE7
:103C0000DF91CF910895482F50E0CA018F519A4F0C
:103C1000FC012491CA0183539A4FFC0194914754AB
:103C20005A4FFA013491332309F440C0222351F151
:103C3000233071F0243028F42130A1F0223011F526
:103C400014C02630B1F02730C1F02430D9F404C0BC
:103C5000809180008F7703C0809180008F7D80935A
:103C6000800010C084B58F7702C084B58F7D84BD7D
:103C700009C08091B0008F7703C08091B0008F7D24
:103C80008093B000E32FF0E0EE0FFF1FEB55FA4FEB
:103C9000A591B4912FB7F894662321F48C91909557
:103CA000892302C08C91892B8C932FBF0895682F94
:103CB00070E0CB018F519A4FFC012491CB018353CB
:103CC0009A4FFC01449167547A4FFB0194919923D8
:103CD00019F420E030E03CC0222351F1233071F090
:103CE000243028F42130A1F0223011F514C0263000
:103CF000B1F02730C1F02430D9F404C080918000A5
:103D00008F7703C0809180008F7D8093800010C0EA
:103D100084B58F7702C084B58F7D84BD09C0809142
:103D2000B0008F7703C08091B0008F7D8093B0008A
:103D3000892F90E0880F991F81559A4FFC01A5911A
:103D4000B4918C9120E030E0842311F021E030E048
:103D5000C9010895629FD001739FF001829FE00D19
:103D6000F11D649FE00DF11D929FF00D839FF00DFA
:103D7000749FF00D659FF00D9927729FB00DE11DA6
:103D8000F91F639FB00DE11DF91FBD01CF01112483
:103D90000895AA1BBB1B51E107C0AA1FBB1FA61792
:103DA000B70710F0A61BB70B881F991F5A95A9F7E4
:103DB00080959095BC01CD01089597FB092E0726AB
:103DC0000AD077FD04D0E5DF06D000201AF4709504
:103DD00061957F4F0895F6F7909581959F4F0895CF
:103DE000A1E21A2EAA1BBB1BFD010DC0AA1FBB1FFF
:103DF000EE1FFF1FA217B307E407F50720F0A21B71
:103E0000B30BE40BF50B661F771F881F991F1A94DD
:103E100069F760957095809590959B01AC01BD0107
:103E2000CF01089597FB092E05260ED057FD04D02B
:103E3000D7DF0AD0001C38F4509540953095219575
:103E40003F4F4F4F5F4F0895F6F7909580957095CF
:103E500061957F4F8F4F9F4F0895EE0FFF1F059085
:0A3E6000F491E02D0994F894FFCFCF
:103E6A0031003200330034003500360037003800A4
:103E7A00390030003A00412D5465616D3A643D388D
:103E8A002C6F3D352C623D3132353A346423362C61
:103E9A0061232C326423362C3136702C67232C3460
:103EAA0061232C3464232E2C702C3136672C313646
:103EBA0061232C6423362C61232C66362C3264232E
:103ECA00362C3136702C63232E362C313663362C41
:103EDA00313661232C67232E2C3261230000000621
:103EEA00011501260137014A015D01720188019F0E
:103EFA0001B801D201EE010B022A024B026E0293B3
:103F0A0002BA02E40210033F037003A403DC03179E
:103F1A000455049704DD0427057505C80520067DA8
:103F2A0006E0064907B8072D08A9082D09B9094D61
:103F3A000AEA0A900B400CFA0CC00D910E6F0F3171
:103F4A0032333435363738392A302303020E000625
:103F5A0005042C01000000000000620CF80CF80BAC
:103F6A00290C090C520C000000005C0FF80C000030
:103F7A004000140054001F1C1F1E1F1E1F1F1E1F5F
:0C3F8A001E1F00000000751A701A6C1A4F
:00000001FF
